{
  "data": {
    "bytecode": {
      "linkReferences": {},
      "object": "6080604052600060025534801561001557600080fd5b5061003261002761009660201b60201c565b61009e60201b60201c565b600180819055506001600360003373ffffffffffffffffffffffffffffffffffffffff1673ffffffffffffffffffffffffffffffffffffffff16815260200190815260200160002060006101000a81548160ff021916908315150217905550610162565b600033905090565b60008060009054906101000a900473ffffffffffffffffffffffffffffffffffffffff169050816000806101000a81548173ffffffffffffffffffffffffffffffffffffffff021916908373ffffffffffffffffffffffffffffffffffffffff1602179055508173ffffffffffffffffffffffffffffffffffffffff168173ffffffffffffffffffffffffffffffffffffffff167f8be0079c531659141344cd1fd0a4f28419497f9722a3daafe3b4186f6b6457e060405160405180910390a35050565b6133a9806101716000396000f3fe60806040523480156200001157600080fd5b5060043610620000ac5760003560e01c8063715018a6116200006f578063715018a614620001955780637274e30d14620001a15780638da5cb5b14620001c3578063c208b12d14620001e5578063f2fde38b146200020557620000ac565b8063141961bc14620000b15780632b9c9cdd14620000e85780632e68b581146200011e5780635598f8cc146200013e578063612108df1462000175575b600080fd5b620000cf6004803603810190620000c9919062000be1565b62000225565b604051620000df92919062000d78565b60405180910390f35b62000106600480360381019062000100919062000abe565b62000289565b60405162000115919062000f29565b60405180910390f35b6200013c600480360381019062000136919062000abe565b620002df565b005b6200015c600480360381019062000156919062000be1565b620003bd565b6040516200016c92919062000d78565b60405180910390f35b6200019360048036038101906200018d919062000abe565b6200047f565b005b6200019f6200055d565b005b620001ab620005ee565b604051620001ba919062000fce565b60405180910390f35b620001cd620005f4565b604051620001dc919062000d5b565b60405180910390f35b620002036004803603810190620001fd919062000af0565b6200061d565b005b6200022360048036038101906200021d919062000abe565b62000834565b005b60046020528060005260406000206000915090508060000160009054906101000a900473ffffffffffffffffffffffffffffffffffffffff16908060010160009054906101000a900473ffffffffffffffffffffffffffffffffffffffff16905082565b6000600360008373ffffffffffffffffffffffffffffffffffffffff1673ffffffffffffffffffffffffffffffffffffffff16815260200190815260200160002060009054906101000a900460ff169050919050565b620002e962000938565b73ffffffffffffffffffffffffffffffffffffffff1662000309620005f4565b73ffffffffffffffffffffffffffffffffffffffff161462000362576040517f08c379a0000000000000000000000000000000000000000000000000000000008152600401620003599062000f8a565b60405180910390fd5b6000600360008373ffffffffffffffffffffffffffffffffffffffff1673ffffffffffffffffffffffffffffffffffffffff16815260200190815260200160002060006101000a81548160ff02191690831515021790555050565b60008060025483111562000408576040517f08c379a0000000000000000000000000000000000000000000000000000000008152600401620003ff9062000f68565b60405180910390fd5b6004600084815260200190815260200160002060000160009054906101000a900473ffffffffffffffffffffffffffffffffffffffff166004600085815260200190815260200160002060010160009054906101000a900473ffffffffffffffffffffffffffffffffffffffff1691509150915091565b6200048962000938565b73ffffffffffffffffffffffffffffffffffffffff16620004a9620005f4565b73ffffffffffffffffffffffffffffffffffffffff161462000502576040517f08c379a0000000000000000000000000000000000000000000000000000000008152600401620004f99062000f8a565b60405180910390fd5b6001600360008373ffffffffffffffffffffffffffffffffffffffff1673ffffffffffffffffffffffffffffffffffffffff16815260200190815260200160002060006101000a81548160ff02191690831515021790555050565b6200056762000938565b73ffffffffffffffffffffffffffffffffffffffff1662000587620005f4565b73ffffffffffffffffffffffffffffffffffffffff1614620005e0576040517f08c379a0000000000000000000000000000000000000000000000000000000008152600401620005d79062000f8a565b60405180910390fd5b620005ec600062000940565b565b60025481565b60008060009054906101000a900473ffffffffffffffffffffffffffffffffffffffff16905090565b60011515600360003373ffffffffffffffffffffffffffffffffffffffff1673ffffffffffffffffffffffffffffffffffffffff16815260200190815260200160002060009054906101000a900460ff16151514620006b3576040517f08c379a0000000000000000000000000000000000000000000000000000000008152600401620006aa9062000fac565b60405180910390fd5b6000429050600062093a8042620006cb919062001066565b905060008787878787338888604051620006e59062000a04565b620006f898979695949392919062000e9b565b604051809103906000f08015801562000715573d6000803e3d6000fd5b509050600260008154809291906200072d906200119c565b919050555060006004600060025481526020019081526020016000209050338160000160006101000a81548173ffffffffffffffffffffffffffffffffffffffff021916908373ffffffffffffffffffffffffffffffffffffffff1602179055506000829050808260010160006101000a81548173ffffffffffffffffffffffffffffffffffffffff021916908373ffffffffffffffffffffffffffffffffffffffff1602179055507f2f5bb6b4cde88b5e9759ff8455c92de89d53f58958d6a16951c91c08369f40c4818d8d8d8d8d8d8d8c336000806040516200081e9c9b9a9998979695949392919062000da5565b60405180910390a1505050505050505050505050565b6200083e62000938565b73ffffffffffffffffffffffffffffffffffffffff166200085e620005f4565b73ffffffffffffffffffffffffffffffffffffffff1614620008b7576040517f08c379a0000000000000000000000000000000000000000000000000000000008152600401620008ae9062000f8a565b60405180910390fd5b600073ffffffffffffffffffffffffffffffffffffffff168173ffffffffffffffffffffffffffffffffffffffff1614156200092a576040517f08c379a0000000000000000000000000000000000000000000000000000000008152600401620009219062000f46565b60405180910390fd5b620009358162000940565b50565b600033905090565b60008060009054906101000a900473ffffffffffffffffffffffffffffffffffffffff169050816000806101000a81548173ffffffffffffffffffffffffffffffffffffffff021916908373ffffffffffffffffffffffffffffffffffffffff1602179055508173ffffffffffffffffffffffffffffffffffffffff168173ffffffffffffffffffffffffffffffffffffffff167f8be0079c531659141344cd1fd0a4f28419497f9722a3daafe3b4186f6b6457e060405160405180910390a35050565b611fdf806200139583390190565b600062000a2962000a238462001014565b62000feb565b90508281526020810184848401111562000a485762000a476200124d565b5b62000a5584828562001121565b509392505050565b60008135905062000a6e8162001360565b92915050565b600082601f83011262000a8c5762000a8b62001248565b5b813562000a9e84826020860162000a12565b91505092915050565b60008135905062000ab8816200137a565b92915050565b60006020828403121562000ad75762000ad662001257565b5b600062000ae78482850162000a5d565b91505092915050565b600080600080600080600060e0888a03121562000b125762000b1162001257565b5b600088013567ffffffffffffffff81111562000b335762000b3262001252565b5b62000b418a828b0162000a74565b975050602088013567ffffffffffffffff81111562000b655762000b6462001252565b5b62000b738a828b0162000a74565b965050604062000b868a828b0162000a5d565b955050606062000b998a828b0162000aa7565b945050608062000bac8a828b0162000aa7565b93505060a062000bbf8a828b0162000aa7565b92505060c062000bd28a828b0162000aa7565b91505092959891949750929550565b60006020828403121562000bfa5762000bf962001257565b5b600062000c0a8482850162000aa7565b91505092915050565b62000c1e81620010c3565b82525050565b62000c2f81620010d7565b82525050565b62000c40816200110d565b82525050565b600062000c53826200104a565b62000c5f818562001055565b935062000c7181856020860162001130565b62000c7c816200125c565b840191505092915050565b600062000c9660268362001055565b915062000ca3826200126d565b604082019050919050565b600062000cbd60108362001055565b915062000cca82620012bc565b602082019050919050565b600062000ce460208362001055565b915062000cf182620012e5565b602082019050919050565b600062000d0b60278362001055565b915062000d18826200130e565b604082019050919050565b600062000d3260008362001055565b915062000d3f826200135d565b600082019050919050565b62000d558162001103565b82525050565b600060208201905062000d72600083018462000c13565b92915050565b600060408201905062000d8f600083018562000c13565b62000d9e602083018462000c13565b9392505050565b60006101a08201905062000dbd600083018f62000c13565b818103602083015262000dd1818e62000c46565b9050818103604083015262000de7818d62000c46565b905062000df8606083018c62000c13565b62000e07608083018b62000d4a565b62000e1660a083018a62000d4a565b62000e2560c083018962000d4a565b62000e3460e083018862000d4a565b62000e4461010083018762000d4a565b62000e5461012083018662000c13565b62000e6461014083018562000c24565b62000e7461016083018462000c35565b81810361018083015262000e888162000d23565b90509d9c50505050505050505050505050565b60006101008201905062000eb3600083018b62000c13565b62000ec2602083018a62000d4a565b62000ed1604083018962000d4a565b62000ee0606083018862000d4a565b62000eef608083018762000d4a565b62000efe60a083018662000c13565b62000f0d60c083018562000d4a565b62000f1c60e083018462000d4a565b9998505050505050505050565b600060208201905062000f40600083018462000c24565b92915050565b6000602082019050818103600083015262000f618162000c87565b9050919050565b6000602082019050818103600083015262000f838162000cae565b9050919050565b6000602082019050818103600083015262000fa58162000cd5565b9050919050565b6000602082019050818103600083015262000fc78162000cfc565b9050919050565b600060208201905062000fe5600083018462000d4a565b92915050565b600062000ff76200100a565b905062001005828262001166565b919050565b6000604051905090565b600067ffffffffffffffff82111562001032576200103162001219565b5b6200103d826200125c565b9050602081019050919050565b600081519050919050565b600082825260208201905092915050565b6000620010738262001103565b9150620010808362001103565b9250827fffffffffffffffffffffffffffffffffffffffffffffffffffffffffffffffff03821115620010b857620010b7620011ea565b5b828201905092915050565b6000620010d082620010e3565b9050919050565b60008115159050919050565b600073ffffffffffffffffffffffffffffffffffffffff82169050919050565b6000819050919050565b60006200111a8262001103565b9050919050565b82818337600083830152505050565b60005b838110156200115057808201518184015260208101905062001133565b8381111562001160576000848401525b50505050565b62001171826200125c565b810181811067ffffffffffffffff8211171562001193576200119262001219565b5b80604052505050565b6000620011a98262001103565b91507fffffffffffffffffffffffffffffffffffffffffffffffffffffffffffffffff821415620011df57620011de620011ea565b5b600182019050919050565b7f4e487b7100000000000000000000000000000000000000000000000000000000600052601160045260246000fd5b7f4e487b7100000000000000000000000000000000000000000000000000000000600052604160045260246000fd5b600080fd5b600080fd5b600080fd5b600080fd5b6000601f19601f8301169050919050565b7f4f776e61626c653a206e6577206f776e657220697320746865207a65726f206160008201527f6464726573730000000000000000000000000000000000000000000000000000602082015250565b7f4e6f20737563682063616d706169676e00000000000000000000000000000000600082015250565b7f4f776e61626c653a2063616c6c6572206973206e6f7420746865206f776e6572600082015250565b7f4f776e61626c653a2063616c6c6572206973206e6f7420696e2074686520776860008201527f6974656c69737400000000000000000000000000000000000000000000000000602082015250565b50565b6200136b81620010c3565b81146200137757600080fd5b50565b620013858162001103565b81146200139157600080fd5b5056fe6101806040523480156200001257600080fd5b5060405162001fdf38038062001fdf8339818101604052810190620000389190620004d9565b620000586200004c6200026e60201b60201c565b6200027660201b60201c565b8273ffffffffffffffffffffffffffffffffffffffff168873ffffffffffffffffffffffffffffffffffffffff16636352211e896040518263ffffffff1660e01b8152600401620000aa9190620006d7565b60206040518083038186803b158015620000c357600080fd5b505afa158015620000d8573d6000803e3d6000fd5b505050506040513d601f19601f82011682018060405250810190620000fe9190620004a7565b73ffffffffffffffffffffffffffffffffffffffff161462000157576040517f08c379a00000000000000000000000000000000000000000000000000000000081526004016200014e9062000693565b60405180910390fd5b8560e0818152505084610100818152505083610120818152505081610140818152505080610160818152505062093a808462000194919062000705565b861015620001d9576040517f08c379a0000000000000000000000000000000000000000000000000000000008152600401620001d090620006b5565b60405180910390fd5b8773ffffffffffffffffffffffffffffffffffffffff1660808173ffffffffffffffffffffffffffffffffffffffff1660601b815250508660a081815250508273ffffffffffffffffffffffffffffffffffffffff1660c08173ffffffffffffffffffffffffffffffffffffffff1660601b8152505062000260836200033a60201b60201c565b5050505050505050620008d6565b600033905090565b60008060009054906101000a900473ffffffffffffffffffffffffffffffffffffffff169050816000806101000a81548173ffffffffffffffffffffffffffffffffffffffff021916908373ffffffffffffffffffffffffffffffffffffffff1602179055508173ffffffffffffffffffffffffffffffffffffffff168173ffffffffffffffffffffffffffffffffffffffff167f8be0079c531659141344cd1fd0a4f28419497f9722a3daafe3b4186f6b6457e060405160405180910390a35050565b6200034a6200026e60201b60201c565b73ffffffffffffffffffffffffffffffffffffffff16620003706200045060201b60201c565b73ffffffffffffffffffffffffffffffffffffffff1614620003c9576040517f08c379a0000000000000000000000000000000000000000000000000000000008152600401620003c09062000671565b60405180910390fd5b600073ffffffffffffffffffffffffffffffffffffffff168173ffffffffffffffffffffffffffffffffffffffff1614156200043c576040517f08c379a000000000000000000000000000000000000000000000000000000000815260040162000433906200064f565b60405180910390fd5b6200044d816200027660201b60201c565b50565b60008060009054906101000a900473ffffffffffffffffffffffffffffffffffffffff16905090565b6000815190506200048a81620008a2565b92915050565b600081519050620004a181620008bc565b92915050565b600060208284031215620004c057620004bf620007d3565b5b6000620004d08482850162000479565b91505092915050565b600080600080600080600080610100898b031215620004fd57620004fc620007d3565b5b60006200050d8b828c0162000479565b9850506020620005208b828c0162000490565b9750506040620005338b828c0162000490565b9650506060620005468b828c0162000490565b9550506080620005598b828c0162000490565b94505060a06200056c8b828c0162000479565b93505060c06200057f8b828c0162000490565b92505060e0620005928b828c0162000490565b9150509295985092959890939650565b6000620005b1602683620006f4565b9150620005be82620007d8565b604082019050919050565b6000620005d8602083620006f4565b9150620005e58262000827565b602082019050919050565b6000620005ff601683620006f4565b91506200060c8262000850565b602082019050919050565b600062000626601983620006f4565b9150620006338262000879565b602082019050919050565b62000649816200079a565b82525050565b600060208201905081810360008301526200066a81620005a2565b9050919050565b600060208201905081810360008301526200068c81620005c9565b9050919050565b60006020820190508181036000830152620006ae81620005f0565b9050919050565b60006020820190508181036000830152620006d08162000617565b9050919050565b6000602082019050620006ee60008301846200063e565b92915050565b600082825260208201905092915050565b600062000712826200079a565b91506200071f836200079a565b9250817fffffffffffffffffffffffffffffffffffffffffffffffffffffffffffffffff04831182151516156200075b576200075a620007a4565b5b828202905092915050565b600062000773826200077a565b9050919050565b600073ffffffffffffffffffffffffffffffffffffffff82169050919050565b6000819050919050565b7f4e487b7100000000000000000000000000000000000000000000000000000000600052601160045260246000fd5b600080fd5b7f4f776e61626c653a206e6577206f776e657220697320746865207a65726f206160008201527f6464726573730000000000000000000000000000000000000000000000000000602082015250565b7f4f776e61626c653a2063616c6c6572206973206e6f7420746865206f776e6572600082015250565b7f53656c6c657220646f65736e2774206f776e204e465400000000000000000000600082015250565b7f5374617274696e6720707269636520697320746f6f206c6f7700000000000000600082015250565b620008ad8162000766565b8114620008b957600080fd5b50565b620008c7816200079a565b8114620008d357600080fd5b50565b60805160601c60a05160c05160601c60e05161010051610120516101405161016051611611620009ce60003960008181610443015281816108a6015281816109cf0152610e730152600081816108f601526109ab0152600081816109270152610c080152600061037f0152600081816109550152610be40152600081816103a3015281816104e3015281816106db01528181610a9d0152610ddd015260008181610504015281816106fd015281816107c10152818161098701528181610b6e0152610dfe0152600081816104a6015281816105770152818161069f0152818161078501528181610b300152610da001526116116000f3fe6080604052600436106100fe5760003560e01c806398d5fdca11610095578063d6fbf20211610064578063d6fbf202146102bc578063e6c0e6d5146102e7578063f2fde38b14610312578063fae1db4c1461033b578063ffc2bdb114610352576100fe565b806398d5fdca1461021f578063c6bc51821461024a578063c744656514610275578063cce7ec13146102a0576100fe565b8063715018a6116100d1578063715018a61461019b5780637698ef02146101b25780638622a689146101c95780638da5cb5b146101f4576100fe565b8063053f14da1461010357806308551a531461012e5780630fdb1c101461015957806347ccca0214610170575b600080fd5b34801561010f57600080fd5b5061011861037d565b60405161012591906112bf565b60405180910390f35b34801561013a57600080fd5b506101436103a1565b6040516101509190611192565b60405180910390f35b34801561016557600080fd5b5061016e6103c5565b005b34801561017c57600080fd5b50610185610575565b60405161019291906111e4565b60405180910390f35b3480156101a757600080fd5b506101b0610599565b005b3480156101be57600080fd5b506101c7610621565b005b3480156101d557600080fd5b506101de6108a4565b6040516101eb91906112bf565b60405180910390f35b34801561020057600080fd5b506102096108c8565b6040516102169190611192565b60405180910390f35b34801561022b57600080fd5b506102346108f1565b60405161024191906112bf565b60405180910390f35b34801561025657600080fd5b5061025f610985565b60405161026c91906112bf565b60405180910390f35b34801561028157600080fd5b5061028a6109a9565b60405161029791906112bf565b60405180910390f35b6102ba60048036038101906102b59190611053565b6109cd565b005b3480156102c857600080fd5b506102d1610be2565b6040516102de91906112bf565b60405180910390f35b3480156102f357600080fd5b506102fc610c06565b60405161030991906112bf565b60405180910390f35b34801561031e57600080fd5b5061033960048036038101906103349190610fcc565b610c2a565b005b34801561034757600080fd5b50610350610d22565b005b34801561035e57600080fd5b50610367610e6f565b60405161037491906112bf565b60405180910390f35b7f000000000000000000000000000000000000000000000000000000000000000081565b7f000000000000000000000000000000000000000000000000000000000000000081565b6103cd610e97565b73ffffffffffffffffffffffffffffffffffffffff166103eb6108c8565b73ffffffffffffffffffffffffffffffffffffffff1614610441576040517f08c379a00000000000000000000000000000000000000000000000000000000081526004016104389061125f565b60405180910390fd5b7f00000000000000000000000000000000000000000000000000000000000000004210156104a4576040517f08c379a000000000000000000000000000000000000000000000000000000000815260040161049b906111ff565b60405180910390fd5b7f000000000000000000000000000000000000000000000000000000000000000073ffffffffffffffffffffffffffffffffffffffff166323b872dd307f00000000000000000000000000000000000000000000000000000000000000007f00000000000000000000000000000000000000000000000000000000000000006040518463ffffffff1660e01b8152600401610541939291906111ad565b600060405180830381600087803b15801561055b57600080fd5b505af115801561056f573d6000803e3d6000fd5b50505050565b7f000000000000000000000000000000000000000000000000000000000000000081565b6105a1610e97565b73ffffffffffffffffffffffffffffffffffffffff166105bf6108c8565b73ffffffffffffffffffffffffffffffffffffffff1614610615576040517f08c379a000000000000000000000000000000000000000000000000000000000815260040161060c9061125f565b60405180910390fd5b61061f6000610e9f565b565b610629610e97565b73ffffffffffffffffffffffffffffffffffffffff166106476108c8565b73ffffffffffffffffffffffffffffffffffffffff161461069d576040517f08c379a00000000000000000000000000000000000000000000000000000000081526004016106949061125f565b60405180910390fd5b7f000000000000000000000000000000000000000000000000000000000000000073ffffffffffffffffffffffffffffffffffffffff166323b872dd7f0000000000000000000000000000000000000000000000000000000000000000307f00000000000000000000000000000000000000000000000000000000000000006040518463ffffffff1660e01b815260040161073a939291906111ad565b600060405180830381600087803b15801561075457600080fd5b505af1158015610768573d6000803e3d6000fd5b505050503073ffffffffffffffffffffffffffffffffffffffff167f000000000000000000000000000000000000000000000000000000000000000073ffffffffffffffffffffffffffffffffffffffff16636352211e7f00000000000000000000000000000000000000000000000000000000000000006040518263ffffffff1660e01b81526004016107fc91906112bf565b60206040518083038186803b15801561081457600080fd5b505afa158015610828573d6000803e3d6000fd5b505050506040513d601f19601f8201168201806040525081019061084c9190610ff9565b73ffffffffffffffffffffffffffffffffffffffff16146108a2576040517f08c379a00000000000000000000000000000000000000000000000000000000081526004016108999061127f565b60405180910390fd5b565b7f000000000000000000000000000000000000000000000000000000000000000081565b60008060009054906101000a900473ffffffffffffffffffffffffffffffffffffffff16905090565b6000807f0000000000000000000000000000000000000000000000000000000000000000426109209190611345565b90506000817f000000000000000000000000000000000000000000000000000000000000000061095091906112eb565b9050807f000000000000000000000000000000000000000000000000000000000000000061097e9190611345565b9250505090565b7f000000000000000000000000000000000000000000000000000000000000000081565b7f000000000000000000000000000000000000000000000000000000000000000081565b7f00000000000000000000000000000000000000000000000000000000000000004210610a2f576040517f08c379a0000000000000000000000000000000000000000000000000000000008152600401610a269061123f565b60405180910390fd5b6000610a396108f1565b905080821015610a7e576040517f08c379a0000000000000000000000000000000000000000000000000000000008152600401610a759061129f565b60405180910390fd5b8273ffffffffffffffffffffffffffffffffffffffff166323b872dd337f0000000000000000000000000000000000000000000000000000000000000000856040518463ffffffff1660e01b8152600401610adb939291906111ad565b602060405180830381600087803b158015610af557600080fd5b505af1158015610b09573d6000803e3d6000fd5b505050506040513d601f19601f82011682018060405250810190610b2d9190611026565b507f000000000000000000000000000000000000000000000000000000000000000073ffffffffffffffffffffffffffffffffffffffff166323b872dd30337f00000000000000000000000000000000000000000000000000000000000000006040518463ffffffff1660e01b8152600401610bab939291906111ad565b600060405180830381600087803b158015610bc557600080fd5b505af1158015610bd9573d6000803e3d6000fd5b50505050505050565b7f000000000000000000000000000000000000000000000000000000000000000081565b7f000000000000000000000000000000000000000000000000000000000000000081565b610c32610e97565b73ffffffffffffffffffffffffffffffffffffffff16610c506108c8565b73ffffffffffffffffffffffffffffffffffffffff1614610ca6576040517f08c379a0000000000000000000000000000000000000000000000000000000008152600401610c9d9061125f565b60405180910390fd5b600073ffffffffffffffffffffffffffffffffffffffff168173ffffffffffffffffffffffffffffffffffffffff161415610d16576040517f08c379a0000000000000000000000000000000000000000000000000000000008152600401610d0d9061121f565b60405180910390fd5b610d1f81610e9f565b50565b610d2a610e97565b73ffffffffffffffffffffffffffffffffffffffff16610d486108c8565b73ffffffffffffffffffffffffffffffffffffffff1614610d9e576040517f08c379a0000000000000000000000000000000000000000000000000000000008152600401610d959061125f565b60405180910390fd5b7f000000000000000000000000000000000000000000000000000000000000000073ffffffffffffffffffffffffffffffffffffffff166323b872dd307f00000000000000000000000000000000000000000000000000000000000000007f00000000000000000000000000000000000000000000000000000000000000006040518463ffffffff1660e01b8152600401610e3b939291906111ad565b600060405180830381600087803b158015610e5557600080fd5b505af1158015610e69573d6000803e3d6000fd5b50505050565b60007f0000000000000000000000000000000000000000000000000000000000000000905090565b600033905090565b60008060009054906101000a900473ffffffffffffffffffffffffffffffffffffffff169050816000806101000a81548173ffffffffffffffffffffffffffffffffffffffff021916908373ffffffffffffffffffffffffffffffffffffffff1602179055508173ffffffffffffffffffffffffffffffffffffffff168173ffffffffffffffffffffffffffffffffffffffff167f8be0079c531659141344cd1fd0a4f28419497f9722a3daafe3b4186f6b6457e060405160405180910390a35050565b600081359050610f728161157f565b92915050565b600081519050610f878161157f565b92915050565b600081519050610f9c81611596565b92915050565b600081359050610fb1816115ad565b92915050565b600081359050610fc6816115c4565b92915050565b600060208284031215610fe257610fe1611438565b5b6000610ff084828501610f63565b91505092915050565b60006020828403121561100f5761100e611438565b5b600061101d84828501610f78565b91505092915050565b60006020828403121561103c5761103b611438565b5b600061104a84828501610f8d565b91505092915050565b6000806040838503121561106a57611069611438565b5b600061107885828601610fa2565b925050602061108985828601610fb7565b9150509250929050565b61109c81611379565b82525050565b6110ab816113d3565b82525050565b60006110be6016836112da565b91506110c98261143d565b602082019050919050565b60006110e16026836112da565b91506110ec82611466565b604082019050919050565b60006111046016836112da565b915061110f826114b5565b602082019050919050565b60006111276020836112da565b9150611132826114de565b602082019050919050565b600061114a6013836112da565b915061115582611507565b602082019050919050565b600061116d602f836112da565b915061117882611530565b604082019050919050565b61118c816113c9565b82525050565b60006020820190506111a76000830184611093565b92915050565b60006060820190506111c26000830186611093565b6111cf6020830185611093565b6111dc6040830184611183565b949350505050565b60006020820190506111f960008301846110a2565b92915050565b60006020820190508181036000830152611218816110b1565b9050919050565b60006020820190508181036000830152611238816110d4565b9050919050565b60006020820190508181036000830152611258816110f7565b9050919050565b600060208201905081810360008301526112788161111a565b9050919050565b600060208201905081810360008301526112988161113d565b9050919050565b600060208201905081810360008301526112b881611160565b9050919050565b60006020820190506112d46000830184611183565b92915050565b600082825260208201905092915050565b60006112f6826113c9565b9150611301836113c9565b9250817fffffffffffffffffffffffffffffffffffffffffffffffffffffffffffffffff048311821515161561133a57611339611409565b5b828202905092915050565b6000611350826113c9565b915061135b836113c9565b92508282101561136e5761136d611409565b5b828203905092915050565b6000611384826113a9565b9050919050565b60008115159050919050565b60006113a282611379565b9050919050565b600073ffffffffffffffffffffffffffffffffffffffff82169050919050565b6000819050919050565b60006113de826113e5565b9050919050565b60006113f0826113f7565b9050919050565b6000611402826113a9565b9050919050565b7f4e487b7100000000000000000000000000000000000000000000000000000000600052601160045260246000fd5b600080fd5b7f43616d706169676e206e6f742079657420656e64656400000000000000000000600082015250565b7f4f776e61626c653a206e6577206f776e657220697320746865207a65726f206160008201527f6464726573730000000000000000000000000000000000000000000000000000602082015250565b7f546869732061756374696f6e2068617320656e64656400000000000000000000600082015250565b7f4f776e61626c653a2063616c6c6572206973206e6f7420746865206f776e6572600082015250565b7f4e4654207472616e73666572206661696c656400000000000000000000000000600082015250565b7f54686520616d6f756e74206f6620546f6b656e2073656e74206973206c65737360008201527f207468616e207468652070726963650000000000000000000000000000000000602082015250565b61158881611379565b811461159357600080fd5b50565b61159f8161138b565b81146115aa57600080fd5b50565b6115b681611397565b81146115c157600080fd5b50565b6115cd816113c9565b81146115d857600080fd5b5056fea264697066735822122046303958fd7a90baf246df840fdabb2c635a66dc03957ccb2ca01d60562bbace64736f6c63430008070033a2646970667358221220f41d885230e79f55ebc1c5dc5ec8af319757855ac967ad1851177bd1077d22b764736f6c63430008070033",
      "opcodes": "PUSH1 0x80 PUSH1 0x40 MSTORE PUSH1 0x0 PUSH1 0x2 SSTORE CALLVALUE DUP1 ISZERO PUSH2 0x15 JUMPI PUSH1 0x0 DUP1 REVERT JUMPDEST POP PUSH2 0x32 PUSH2 0x27 PUSH2 0x96 PUSH1 0x20 SHL PUSH1 0x20 SHR JUMP JUMPDEST PUSH2 0x9E PUSH1 0x20 SHL PUSH1 0x20 SHR JUMP JUMPDEST PUSH1 0x1 DUP1 DUP2 SWAP1 SSTORE POP PUSH1 0x1 PUSH1 0x3 PUSH1 0x0 CALLER PUSH20 0xFFFFFFFFFFFFFFFFFFFFFFFFFFFFFFFFFFFFFFFF AND PUSH20 0xFFFFFFFFFFFFFFFFFFFFFFFFFFFFFFFFFFFFFFFF AND DUP2 MSTORE PUSH1 0x20 ADD SWAP1 DUP2 MSTORE PUSH1 0x20 ADD PUSH1 0x0 KECCAK256 PUSH1 0x0 PUSH2 0x100 EXP DUP2 SLOAD DUP2 PUSH1 0xFF MUL NOT AND SWAP1 DUP4 ISZERO ISZERO MUL OR SWAP1 SSTORE POP PUSH2 0x162 JUMP JUMPDEST PUSH1 0x0 CALLER SWAP1 POP SWAP1 JUMP JUMPDEST PUSH1 0x0 DUP1 PUSH1 0x0 SWAP1 SLOAD SWAP1 PUSH2 0x100 EXP SWAP1 DIV PUSH20 0xFFFFFFFFFFFFFFFFFFFFFFFFFFFFFFFFFFFFFFFF AND SWAP1 POP DUP2 PUSH1 0x0 DUP1 PUSH2 0x100 EXP DUP2 SLOAD DUP2 PUSH20 0xFFFFFFFFFFFFFFFFFFFFFFFFFFFFFFFFFFFFFFFF MUL NOT AND SWAP1 DUP4 PUSH20 0xFFFFFFFFFFFFFFFFFFFFFFFFFFFFFFFFFFFFFFFF AND MUL OR SWAP1 SSTORE POP DUP2 PUSH20 0xFFFFFFFFFFFFFFFFFFFFFFFFFFFFFFFFFFFFFFFF AND DUP2 PUSH20 0xFFFFFFFFFFFFFFFFFFFFFFFFFFFFFFFFFFFFFFFF AND PUSH32 0x8BE0079C531659141344CD1FD0A4F28419497F9722A3DAAFE3B4186F6B6457E0 PUSH1 0x40 MLOAD PUSH1 0x40 MLOAD DUP1 SWAP2 SUB SWAP1 LOG3 POP POP JUMP JUMPDEST PUSH2 0x33A9 DUP1 PUSH2 0x171 PUSH1 0x0 CODECOPY PUSH1 0x0 RETURN INVALID PUSH1 0x80 PUSH1 0x40 MSTORE CALLVALUE DUP1 ISZERO PUSH3 0x11 JUMPI PUSH1 0x0 DUP1 REVERT JUMPDEST POP PUSH1 0x4 CALLDATASIZE LT PUSH3 0xAC JUMPI PUSH1 0x0 CALLDATALOAD PUSH1 0xE0 SHR DUP1 PUSH4 0x715018A6 GT PUSH3 0x6F JUMPI DUP1 PUSH4 0x715018A6 EQ PUSH3 0x195 JUMPI DUP1 PUSH4 0x7274E30D EQ PUSH3 0x1A1 JUMPI DUP1 PUSH4 0x8DA5CB5B EQ PUSH3 0x1C3 JUMPI DUP1 PUSH4 0xC208B12D EQ PUSH3 0x1E5 JUMPI DUP1 PUSH4 0xF2FDE38B EQ PUSH3 0x205 JUMPI PUSH3 0xAC JUMP JUMPDEST DUP1 PUSH4 0x141961BC EQ PUSH3 0xB1 JUMPI DUP1 PUSH4 0x2B9C9CDD EQ PUSH3 0xE8 JUMPI DUP1 PUSH4 0x2E68B581 EQ PUSH3 0x11E JUMPI DUP1 PUSH4 0x5598F8CC EQ PUSH3 0x13E JUMPI DUP1 PUSH4 0x612108DF EQ PUSH3 0x175 JUMPI JUMPDEST PUSH1 0x0 DUP1 REVERT JUMPDEST PUSH3 0xCF PUSH1 0x4 DUP1 CALLDATASIZE SUB DUP2 ADD SWAP1 PUSH3 0xC9 SWAP2 SWAP1 PUSH3 0xBE1 JUMP JUMPDEST PUSH3 0x225 JUMP JUMPDEST PUSH1 0x40 MLOAD PUSH3 0xDF SWAP3 SWAP2 SWAP1 PUSH3 0xD78 JUMP JUMPDEST PUSH1 0x40 MLOAD DUP1 SWAP2 SUB SWAP1 RETURN JUMPDEST PUSH3 0x106 PUSH1 0x4 DUP1 CALLDATASIZE SUB DUP2 ADD SWAP1 PUSH3 0x100 SWAP2 SWAP1 PUSH3 0xABE JUMP JUMPDEST PUSH3 0x289 JUMP JUMPDEST PUSH1 0x40 MLOAD PUSH3 0x115 SWAP2 SWAP1 PUSH3 0xF29 JUMP JUMPDEST PUSH1 0x40 MLOAD DUP1 SWAP2 SUB SWAP1 RETURN JUMPDEST PUSH3 0x13C PUSH1 0x4 DUP1 CALLDATASIZE SUB DUP2 ADD SWAP1 PUSH3 0x136 SWAP2 SWAP1 PUSH3 0xABE JUMP JUMPDEST PUSH3 0x2DF JUMP JUMPDEST STOP JUMPDEST PUSH3 0x15C PUSH1 0x4 DUP1 CALLDATASIZE SUB DUP2 ADD SWAP1 PUSH3 0x156 SWAP2 SWAP1 PUSH3 0xBE1 JUMP JUMPDEST PUSH3 0x3BD JUMP JUMPDEST PUSH1 0x40 MLOAD PUSH3 0x16C SWAP3 SWAP2 SWAP1 PUSH3 0xD78 JUMP JUMPDEST PUSH1 0x40 MLOAD DUP1 SWAP2 SUB SWAP1 RETURN JUMPDEST PUSH3 0x193 PUSH1 0x4 DUP1 CALLDATASIZE SUB DUP2 ADD SWAP1 PUSH3 0x18D SWAP2 SWAP1 PUSH3 0xABE JUMP JUMPDEST PUSH3 0x47F JUMP JUMPDEST STOP JUMPDEST PUSH3 0x19F PUSH3 0x55D JUMP JUMPDEST STOP JUMPDEST PUSH3 0x1AB PUSH3 0x5EE JUMP JUMPDEST PUSH1 0x40 MLOAD PUSH3 0x1BA SWAP2 SWAP1 PUSH3 0xFCE JUMP JUMPDEST PUSH1 0x40 MLOAD DUP1 SWAP2 SUB SWAP1 RETURN JUMPDEST PUSH3 0x1CD PUSH3 0x5F4 JUMP JUMPDEST PUSH1 0x40 MLOAD PUSH3 0x1DC SWAP2 SWAP1 PUSH3 0xD5B JUMP JUMPDEST PUSH1 0x40 MLOAD DUP1 SWAP2 SUB SWAP1 RETURN JUMPDEST PUSH3 0x203 PUSH1 0x4 DUP1 CALLDATASIZE SUB DUP2 ADD SWAP1 PUSH3 0x1FD SWAP2 SWAP1 PUSH3 0xAF0 JUMP JUMPDEST PUSH3 0x61D JUMP JUMPDEST STOP JUMPDEST PUSH3 0x223 PUSH1 0x4 DUP1 CALLDATASIZE SUB DUP2 ADD SWAP1 PUSH3 0x21D SWAP2 SWAP1 PUSH3 0xABE JUMP JUMPDEST PUSH3 0x834 JUMP JUMPDEST STOP JUMPDEST PUSH1 0x4 PUSH1 0x20 MSTORE DUP1 PUSH1 0x0 MSTORE PUSH1 0x40 PUSH1 0x0 KECCAK256 PUSH1 0x0 SWAP2 POP SWAP1 POP DUP1 PUSH1 0x0 ADD PUSH1 0x0 SWAP1 SLOAD SWAP1 PUSH2 0x100 EXP SWAP1 DIV PUSH20 0xFFFFFFFFFFFFFFFFFFFFFFFFFFFFFFFFFFFFFFFF AND SWAP1 DUP1 PUSH1 0x1 ADD PUSH1 0x0 SWAP1 SLOAD SWAP1 PUSH2 0x100 EXP SWAP1 DIV PUSH20 0xFFFFFFFFFFFFFFFFFFFFFFFFFFFFFFFFFFFFFFFF AND SWAP1 POP DUP3 JUMP JUMPDEST PUSH1 0x0 PUSH1 0x3 PUSH1 0x0 DUP4 PUSH20 0xFFFFFFFFFFFFFFFFFFFFFFFFFFFFFFFFFFFFFFFF AND PUSH20 0xFFFFFFFFFFFFFFFFFFFFFFFFFFFFFFFFFFFFFFFF AND DUP2 MSTORE PUSH1 0x20 ADD SWAP1 DUP2 MSTORE PUSH1 0x20 ADD PUSH1 0x0 KECCAK256 PUSH1 0x0 SWAP1 SLOAD SWAP1 PUSH2 0x100 EXP SWAP1 DIV PUSH1 0xFF AND SWAP1 POP SWAP2 SWAP1 POP JUMP JUMPDEST PUSH3 0x2E9 PUSH3 0x938 JUMP JUMPDEST PUSH20 0xFFFFFFFFFFFFFFFFFFFFFFFFFFFFFFFFFFFFFFFF AND PUSH3 0x309 PUSH3 0x5F4 JUMP JUMPDEST PUSH20 0xFFFFFFFFFFFFFFFFFFFFFFFFFFFFFFFFFFFFFFFF AND EQ PUSH3 0x362 JUMPI PUSH1 0x40 MLOAD PUSH32 0x8C379A000000000000000000000000000000000000000000000000000000000 DUP2 MSTORE PUSH1 0x4 ADD PUSH3 0x359 SWAP1 PUSH3 0xF8A JUMP JUMPDEST PUSH1 0x40 MLOAD DUP1 SWAP2 SUB SWAP1 REVERT JUMPDEST PUSH1 0x0 PUSH1 0x3 PUSH1 0x0 DUP4 PUSH20 0xFFFFFFFFFFFFFFFFFFFFFFFFFFFFFFFFFFFFFFFF AND PUSH20 0xFFFFFFFFFFFFFFFFFFFFFFFFFFFFFFFFFFFFFFFF AND DUP2 MSTORE PUSH1 0x20 ADD SWAP1 DUP2 MSTORE PUSH1 0x20 ADD PUSH1 0x0 KECCAK256 PUSH1 0x0 PUSH2 0x100 EXP DUP2 SLOAD DUP2 PUSH1 0xFF MUL NOT AND SWAP1 DUP4 ISZERO ISZERO MUL OR SWAP1 SSTORE POP POP JUMP JUMPDEST PUSH1 0x0 DUP1 PUSH1 0x2 SLOAD DUP4 GT ISZERO PUSH3 0x408 JUMPI PUSH1 0x40 MLOAD PUSH32 0x8C379A000000000000000000000000000000000000000000000000000000000 DUP2 MSTORE PUSH1 0x4 ADD PUSH3 0x3FF SWAP1 PUSH3 0xF68 JUMP JUMPDEST PUSH1 0x40 MLOAD DUP1 SWAP2 SUB SWAP1 REVERT JUMPDEST PUSH1 0x4 PUSH1 0x0 DUP5 DUP2 MSTORE PUSH1 0x20 ADD SWAP1 DUP2 MSTORE PUSH1 0x20 ADD PUSH1 0x0 KECCAK256 PUSH1 0x0 ADD PUSH1 0x0 SWAP1 SLOAD SWAP1 PUSH2 0x100 EXP SWAP1 DIV PUSH20 0xFFFFFFFFFFFFFFFFFFFFFFFFFFFFFFFFFFFFFFFF AND PUSH1 0x4 PUSH1 0x0 DUP6 DUP2 MSTORE PUSH1 0x20 ADD SWAP1 DUP2 MSTORE PUSH1 0x20 ADD PUSH1 0x0 KECCAK256 PUSH1 0x1 ADD PUSH1 0x0 SWAP1 SLOAD SWAP1 PUSH2 0x100 EXP SWAP1 DIV PUSH20 0xFFFFFFFFFFFFFFFFFFFFFFFFFFFFFFFFFFFFFFFF AND SWAP2 POP SWAP2 POP SWAP2 POP SWAP2 JUMP JUMPDEST PUSH3 0x489 PUSH3 0x938 JUMP JUMPDEST PUSH20 0xFFFFFFFFFFFFFFFFFFFFFFFFFFFFFFFFFFFFFFFF AND PUSH3 0x4A9 PUSH3 0x5F4 JUMP JUMPDEST PUSH20 0xFFFFFFFFFFFFFFFFFFFFFFFFFFFFFFFFFFFFFFFF AND EQ PUSH3 0x502 JUMPI PUSH1 0x40 MLOAD PUSH32 0x8C379A000000000000000000000000000000000000000000000000000000000 DUP2 MSTORE PUSH1 0x4 ADD PUSH3 0x4F9 SWAP1 PUSH3 0xF8A JUMP JUMPDEST PUSH1 0x40 MLOAD DUP1 SWAP2 SUB SWAP1 REVERT JUMPDEST PUSH1 0x1 PUSH1 0x3 PUSH1 0x0 DUP4 PUSH20 0xFFFFFFFFFFFFFFFFFFFFFFFFFFFFFFFFFFFFFFFF AND PUSH20 0xFFFFFFFFFFFFFFFFFFFFFFFFFFFFFFFFFFFFFFFF AND DUP2 MSTORE PUSH1 0x20 ADD SWAP1 DUP2 MSTORE PUSH1 0x20 ADD PUSH1 0x0 KECCAK256 PUSH1 0x0 PUSH2 0x100 EXP DUP2 SLOAD DUP2 PUSH1 0xFF MUL NOT AND SWAP1 DUP4 ISZERO ISZERO MUL OR SWAP1 SSTORE POP POP JUMP JUMPDEST PUSH3 0x567 PUSH3 0x938 JUMP JUMPDEST PUSH20 0xFFFFFFFFFFFFFFFFFFFFFFFFFFFFFFFFFFFFFFFF AND PUSH3 0x587 PUSH3 0x5F4 JUMP JUMPDEST PUSH20 0xFFFFFFFFFFFFFFFFFFFFFFFFFFFFFFFFFFFFFFFF AND EQ PUSH3 0x5E0 JUMPI PUSH1 0x40 MLOAD PUSH32 0x8C379A000000000000000000000000000000000000000000000000000000000 DUP2 MSTORE PUSH1 0x4 ADD PUSH3 0x5D7 SWAP1 PUSH3 0xF8A JUMP JUMPDEST PUSH1 0x40 MLOAD DUP1 SWAP2 SUB SWAP1 REVERT JUMPDEST PUSH3 0x5EC PUSH1 0x0 PUSH3 0x940 JUMP JUMPDEST JUMP JUMPDEST PUSH1 0x2 SLOAD DUP2 JUMP JUMPDEST PUSH1 0x0 DUP1 PUSH1 0x0 SWAP1 SLOAD SWAP1 PUSH2 0x100 EXP SWAP1 DIV PUSH20 0xFFFFFFFFFFFFFFFFFFFFFFFFFFFFFFFFFFFFFFFF AND SWAP1 POP SWAP1 JUMP JUMPDEST PUSH1 0x1 ISZERO ISZERO PUSH1 0x3 PUSH1 0x0 CALLER PUSH20 0xFFFFFFFFFFFFFFFFFFFFFFFFFFFFFFFFFFFFFFFF AND PUSH20 0xFFFFFFFFFFFFFFFFFFFFFFFFFFFFFFFFFFFFFFFF AND DUP2 MSTORE PUSH1 0x20 ADD SWAP1 DUP2 MSTORE PUSH1 0x20 ADD PUSH1 0x0 KECCAK256 PUSH1 0x0 SWAP1 SLOAD SWAP1 PUSH2 0x100 EXP SWAP1 DIV PUSH1 0xFF AND ISZERO ISZERO EQ PUSH3 0x6B3 JUMPI PUSH1 0x40 MLOAD PUSH32 0x8C379A000000000000000000000000000000000000000000000000000000000 DUP2 MSTORE PUSH1 0x4 ADD PUSH3 0x6AA SWAP1 PUSH3 0xFAC JUMP JUMPDEST PUSH1 0x40 MLOAD DUP1 SWAP2 SUB SWAP1 REVERT JUMPDEST PUSH1 0x0 TIMESTAMP SWAP1 POP PUSH1 0x0 PUSH3 0x93A80 TIMESTAMP PUSH3 0x6CB SWAP2 SWAP1 PUSH3 0x1066 JUMP JUMPDEST SWAP1 POP PUSH1 0x0 DUP8 DUP8 DUP8 DUP8 DUP8 CALLER DUP9 DUP9 PUSH1 0x40 MLOAD PUSH3 0x6E5 SWAP1 PUSH3 0xA04 JUMP JUMPDEST PUSH3 0x6F8 SWAP9 SWAP8 SWAP7 SWAP6 SWAP5 SWAP4 SWAP3 SWAP2 SWAP1 PUSH3 0xE9B JUMP JUMPDEST PUSH1 0x40 MLOAD DUP1 SWAP2 SUB SWAP1 PUSH1 0x0 CREATE DUP1 ISZERO DUP1 ISZERO PUSH3 0x715 JUMPI RETURNDATASIZE PUSH1 0x0 DUP1 RETURNDATACOPY RETURNDATASIZE PUSH1 0x0 REVERT JUMPDEST POP SWAP1 POP PUSH1 0x2 PUSH1 0x0 DUP2 SLOAD DUP1 SWAP3 SWAP2 SWAP1 PUSH3 0x72D SWAP1 PUSH3 0x119C JUMP JUMPDEST SWAP2 SWAP1 POP SSTORE POP PUSH1 0x0 PUSH1 0x4 PUSH1 0x0 PUSH1 0x2 SLOAD DUP2 MSTORE PUSH1 0x20 ADD SWAP1 DUP2 MSTORE PUSH1 0x20 ADD PUSH1 0x0 KECCAK256 SWAP1 POP CALLER DUP2 PUSH1 0x0 ADD PUSH1 0x0 PUSH2 0x100 EXP DUP2 SLOAD DUP2 PUSH20 0xFFFFFFFFFFFFFFFFFFFFFFFFFFFFFFFFFFFFFFFF MUL NOT AND SWAP1 DUP4 PUSH20 0xFFFFFFFFFFFFFFFFFFFFFFFFFFFFFFFFFFFFFFFF AND MUL OR SWAP1 SSTORE POP PUSH1 0x0 DUP3 SWAP1 POP DUP1 DUP3 PUSH1 0x1 ADD PUSH1 0x0 PUSH2 0x100 EXP DUP2 SLOAD DUP2 PUSH20 0xFFFFFFFFFFFFFFFFFFFFFFFFFFFFFFFFFFFFFFFF MUL NOT AND SWAP1 DUP4 PUSH20 0xFFFFFFFFFFFFFFFFFFFFFFFFFFFFFFFFFFFFFFFF AND MUL OR SWAP1 SSTORE POP PUSH32 0x2F5BB6B4CDE88B5E9759FF8455C92DE89D53F58958D6A16951C91C08369F40C4 DUP2 DUP14 DUP14 DUP14 DUP14 DUP14 DUP14 DUP14 DUP13 CALLER PUSH1 0x0 DUP1 PUSH1 0x40 MLOAD PUSH3 0x81E SWAP13 SWAP12 SWAP11 SWAP10 SWAP9 SWAP8 SWAP7 SWAP6 SWAP5 SWAP4 SWAP3 SWAP2 SWAP1 PUSH3 0xDA5 JUMP JUMPDEST PUSH1 0x40 MLOAD DUP1 SWAP2 SUB SWAP1 LOG1 POP POP POP POP POP POP POP POP POP POP POP POP JUMP JUMPDEST PUSH3 0x83E PUSH3 0x938 JUMP JUMPDEST PUSH20 0xFFFFFFFFFFFFFFFFFFFFFFFFFFFFFFFFFFFFFFFF AND PUSH3 0x85E PUSH3 0x5F4 JUMP JUMPDEST PUSH20 0xFFFFFFFFFFFFFFFFFFFFFFFFFFFFFFFFFFFFFFFF AND EQ PUSH3 0x8B7 JUMPI PUSH1 0x40 MLOAD PUSH32 0x8C379A000000000000000000000000000000000000000000000000000000000 DUP2 MSTORE PUSH1 0x4 ADD PUSH3 0x8AE SWAP1 PUSH3 0xF8A JUMP JUMPDEST PUSH1 0x40 MLOAD DUP1 SWAP2 SUB SWAP1 REVERT JUMPDEST PUSH1 0x0 PUSH20 0xFFFFFFFFFFFFFFFFFFFFFFFFFFFFFFFFFFFFFFFF AND DUP2 PUSH20 0xFFFFFFFFFFFFFFFFFFFFFFFFFFFFFFFFFFFFFFFF AND EQ ISZERO PUSH3 0x92A JUMPI PUSH1 0x40 MLOAD PUSH32 0x8C379A000000000000000000000000000000000000000000000000000000000 DUP2 MSTORE PUSH1 0x4 ADD PUSH3 0x921 SWAP1 PUSH3 0xF46 JUMP JUMPDEST PUSH1 0x40 MLOAD DUP1 SWAP2 SUB SWAP1 REVERT JUMPDEST PUSH3 0x935 DUP2 PUSH3 0x940 JUMP JUMPDEST POP JUMP JUMPDEST PUSH1 0x0 CALLER SWAP1 POP SWAP1 JUMP JUMPDEST PUSH1 0x0 DUP1 PUSH1 0x0 SWAP1 SLOAD SWAP1 PUSH2 0x100 EXP SWAP1 DIV PUSH20 0xFFFFFFFFFFFFFFFFFFFFFFFFFFFFFFFFFFFFFFFF AND SWAP1 POP DUP2 PUSH1 0x0 DUP1 PUSH2 0x100 EXP DUP2 SLOAD DUP2 PUSH20 0xFFFFFFFFFFFFFFFFFFFFFFFFFFFFFFFFFFFFFFFF MUL NOT AND SWAP1 DUP4 PUSH20 0xFFFFFFFFFFFFFFFFFFFFFFFFFFFFFFFFFFFFFFFF AND MUL OR SWAP1 SSTORE POP DUP2 PUSH20 0xFFFFFFFFFFFFFFFFFFFFFFFFFFFFFFFFFFFFFFFF AND DUP2 PUSH20 0xFFFFFFFFFFFFFFFFFFFFFFFFFFFFFFFFFFFFFFFF AND PUSH32 0x8BE0079C531659141344CD1FD0A4F28419497F9722A3DAAFE3B4186F6B6457E0 PUSH1 0x40 MLOAD PUSH1 0x40 MLOAD DUP1 SWAP2 SUB SWAP1 LOG3 POP POP JUMP JUMPDEST PUSH2 0x1FDF DUP1 PUSH3 0x1395 DUP4 CODECOPY ADD SWAP1 JUMP JUMPDEST PUSH1 0x0 PUSH3 0xA29 PUSH3 0xA23 DUP5 PUSH3 0x1014 JUMP JUMPDEST PUSH3 0xFEB JUMP JUMPDEST SWAP1 POP DUP3 DUP2 MSTORE PUSH1 0x20 DUP2 ADD DUP5 DUP5 DUP5 ADD GT ISZERO PUSH3 0xA48 JUMPI PUSH3 0xA47 PUSH3 0x124D JUMP JUMPDEST JUMPDEST PUSH3 0xA55 DUP5 DUP3 DUP6 PUSH3 0x1121 JUMP JUMPDEST POP SWAP4 SWAP3 POP POP POP JUMP JUMPDEST PUSH1 0x0 DUP2 CALLDATALOAD SWAP1 POP PUSH3 0xA6E DUP2 PUSH3 0x1360 JUMP JUMPDEST SWAP3 SWAP2 POP POP JUMP JUMPDEST PUSH1 0x0 DUP3 PUSH1 0x1F DUP4 ADD SLT PUSH3 0xA8C JUMPI PUSH3 0xA8B PUSH3 0x1248 JUMP JUMPDEST JUMPDEST DUP2 CALLDATALOAD PUSH3 0xA9E DUP5 DUP3 PUSH1 0x20 DUP7 ADD PUSH3 0xA12 JUMP JUMPDEST SWAP2 POP POP SWAP3 SWAP2 POP POP JUMP JUMPDEST PUSH1 0x0 DUP2 CALLDATALOAD SWAP1 POP PUSH3 0xAB8 DUP2 PUSH3 0x137A JUMP JUMPDEST SWAP3 SWAP2 POP POP JUMP JUMPDEST PUSH1 0x0 PUSH1 0x20 DUP3 DUP5 SUB SLT ISZERO PUSH3 0xAD7 JUMPI PUSH3 0xAD6 PUSH3 0x1257 JUMP JUMPDEST JUMPDEST PUSH1 0x0 PUSH3 0xAE7 DUP5 DUP3 DUP6 ADD PUSH3 0xA5D JUMP JUMPDEST SWAP2 POP POP SWAP3 SWAP2 POP POP JUMP JUMPDEST PUSH1 0x0 DUP1 PUSH1 0x0 DUP1 PUSH1 0x0 DUP1 PUSH1 0x0 PUSH1 0xE0 DUP9 DUP11 SUB SLT ISZERO PUSH3 0xB12 JUMPI PUSH3 0xB11 PUSH3 0x1257 JUMP JUMPDEST JUMPDEST PUSH1 0x0 DUP9 ADD CALLDATALOAD PUSH8 0xFFFFFFFFFFFFFFFF DUP2 GT ISZERO PUSH3 0xB33 JUMPI PUSH3 0xB32 PUSH3 0x1252 JUMP JUMPDEST JUMPDEST PUSH3 0xB41 DUP11 DUP3 DUP12 ADD PUSH3 0xA74 JUMP JUMPDEST SWAP8 POP POP PUSH1 0x20 DUP9 ADD CALLDATALOAD PUSH8 0xFFFFFFFFFFFFFFFF DUP2 GT ISZERO PUSH3 0xB65 JUMPI PUSH3 0xB64 PUSH3 0x1252 JUMP JUMPDEST JUMPDEST PUSH3 0xB73 DUP11 DUP3 DUP12 ADD PUSH3 0xA74 JUMP JUMPDEST SWAP7 POP POP PUSH1 0x40 PUSH3 0xB86 DUP11 DUP3 DUP12 ADD PUSH3 0xA5D JUMP JUMPDEST SWAP6 POP POP PUSH1 0x60 PUSH3 0xB99 DUP11 DUP3 DUP12 ADD PUSH3 0xAA7 JUMP JUMPDEST SWAP5 POP POP PUSH1 0x80 PUSH3 0xBAC DUP11 DUP3 DUP12 ADD PUSH3 0xAA7 JUMP JUMPDEST SWAP4 POP POP PUSH1 0xA0 PUSH3 0xBBF DUP11 DUP3 DUP12 ADD PUSH3 0xAA7 JUMP JUMPDEST SWAP3 POP POP PUSH1 0xC0 PUSH3 0xBD2 DUP11 DUP3 DUP12 ADD PUSH3 0xAA7 JUMP JUMPDEST SWAP2 POP POP SWAP3 SWAP6 SWAP9 SWAP2 SWAP5 SWAP8 POP SWAP3 SWAP6 POP JUMP JUMPDEST PUSH1 0x0 PUSH1 0x20 DUP3 DUP5 SUB SLT ISZERO PUSH3 0xBFA JUMPI PUSH3 0xBF9 PUSH3 0x1257 JUMP JUMPDEST JUMPDEST PUSH1 0x0 PUSH3 0xC0A DUP5 DUP3 DUP6 ADD PUSH3 0xAA7 JUMP JUMPDEST SWAP2 POP POP SWAP3 SWAP2 POP POP JUMP JUMPDEST PUSH3 0xC1E DUP2 PUSH3 0x10C3 JUMP JUMPDEST DUP3 MSTORE POP POP JUMP JUMPDEST PUSH3 0xC2F DUP2 PUSH3 0x10D7 JUMP JUMPDEST DUP3 MSTORE POP POP JUMP JUMPDEST PUSH3 0xC40 DUP2 PUSH3 0x110D JUMP JUMPDEST DUP3 MSTORE POP POP JUMP JUMPDEST PUSH1 0x0 PUSH3 0xC53 DUP3 PUSH3 0x104A JUMP JUMPDEST PUSH3 0xC5F DUP2 DUP6 PUSH3 0x1055 JUMP JUMPDEST SWAP4 POP PUSH3 0xC71 DUP2 DUP6 PUSH1 0x20 DUP7 ADD PUSH3 0x1130 JUMP JUMPDEST PUSH3 0xC7C DUP2 PUSH3 0x125C JUMP JUMPDEST DUP5 ADD SWAP2 POP POP SWAP3 SWAP2 POP POP JUMP JUMPDEST PUSH1 0x0 PUSH3 0xC96 PUSH1 0x26 DUP4 PUSH3 0x1055 JUMP JUMPDEST SWAP2 POP PUSH3 0xCA3 DUP3 PUSH3 0x126D JUMP JUMPDEST PUSH1 0x40 DUP3 ADD SWAP1 POP SWAP2 SWAP1 POP JUMP JUMPDEST PUSH1 0x0 PUSH3 0xCBD PUSH1 0x10 DUP4 PUSH3 0x1055 JUMP JUMPDEST SWAP2 POP PUSH3 0xCCA DUP3 PUSH3 0x12BC JUMP JUMPDEST PUSH1 0x20 DUP3 ADD SWAP1 POP SWAP2 SWAP1 POP JUMP JUMPDEST PUSH1 0x0 PUSH3 0xCE4 PUSH1 0x20 DUP4 PUSH3 0x1055 JUMP JUMPDEST SWAP2 POP PUSH3 0xCF1 DUP3 PUSH3 0x12E5 JUMP JUMPDEST PUSH1 0x20 DUP3 ADD SWAP1 POP SWAP2 SWAP1 POP JUMP JUMPDEST PUSH1 0x0 PUSH3 0xD0B PUSH1 0x27 DUP4 PUSH3 0x1055 JUMP JUMPDEST SWAP2 POP PUSH3 0xD18 DUP3 PUSH3 0x130E JUMP JUMPDEST PUSH1 0x40 DUP3 ADD SWAP1 POP SWAP2 SWAP1 POP JUMP JUMPDEST PUSH1 0x0 PUSH3 0xD32 PUSH1 0x0 DUP4 PUSH3 0x1055 JUMP JUMPDEST SWAP2 POP PUSH3 0xD3F DUP3 PUSH3 0x135D JUMP JUMPDEST PUSH1 0x0 DUP3 ADD SWAP1 POP SWAP2 SWAP1 POP JUMP JUMPDEST PUSH3 0xD55 DUP2 PUSH3 0x1103 JUMP JUMPDEST DUP3 MSTORE POP POP JUMP JUMPDEST PUSH1 0x0 PUSH1 0x20 DUP3 ADD SWAP1 POP PUSH3 0xD72 PUSH1 0x0 DUP4 ADD DUP5 PUSH3 0xC13 JUMP JUMPDEST SWAP3 SWAP2 POP POP JUMP JUMPDEST PUSH1 0x0 PUSH1 0x40 DUP3 ADD SWAP1 POP PUSH3 0xD8F PUSH1 0x0 DUP4 ADD DUP6 PUSH3 0xC13 JUMP JUMPDEST PUSH3 0xD9E PUSH1 0x20 DUP4 ADD DUP5 PUSH3 0xC13 JUMP JUMPDEST SWAP4 SWAP3 POP POP POP JUMP JUMPDEST PUSH1 0x0 PUSH2 0x1A0 DUP3 ADD SWAP1 POP PUSH3 0xDBD PUSH1 0x0 DUP4 ADD DUP16 PUSH3 0xC13 JUMP JUMPDEST DUP2 DUP2 SUB PUSH1 0x20 DUP4 ADD MSTORE PUSH3 0xDD1 DUP2 DUP15 PUSH3 0xC46 JUMP JUMPDEST SWAP1 POP DUP2 DUP2 SUB PUSH1 0x40 DUP4 ADD MSTORE PUSH3 0xDE7 DUP2 DUP14 PUSH3 0xC46 JUMP JUMPDEST SWAP1 POP PUSH3 0xDF8 PUSH1 0x60 DUP4 ADD DUP13 PUSH3 0xC13 JUMP JUMPDEST PUSH3 0xE07 PUSH1 0x80 DUP4 ADD DUP12 PUSH3 0xD4A JUMP JUMPDEST PUSH3 0xE16 PUSH1 0xA0 DUP4 ADD DUP11 PUSH3 0xD4A JUMP JUMPDEST PUSH3 0xE25 PUSH1 0xC0 DUP4 ADD DUP10 PUSH3 0xD4A JUMP JUMPDEST PUSH3 0xE34 PUSH1 0xE0 DUP4 ADD DUP9 PUSH3 0xD4A JUMP JUMPDEST PUSH3 0xE44 PUSH2 0x100 DUP4 ADD DUP8 PUSH3 0xD4A JUMP JUMPDEST PUSH3 0xE54 PUSH2 0x120 DUP4 ADD DUP7 PUSH3 0xC13 JUMP JUMPDEST PUSH3 0xE64 PUSH2 0x140 DUP4 ADD DUP6 PUSH3 0xC24 JUMP JUMPDEST PUSH3 0xE74 PUSH2 0x160 DUP4 ADD DUP5 PUSH3 0xC35 JUMP JUMPDEST DUP2 DUP2 SUB PUSH2 0x180 DUP4 ADD MSTORE PUSH3 0xE88 DUP2 PUSH3 0xD23 JUMP JUMPDEST SWAP1 POP SWAP14 SWAP13 POP POP POP POP POP POP POP POP POP POP POP POP POP JUMP JUMPDEST PUSH1 0x0 PUSH2 0x100 DUP3 ADD SWAP1 POP PUSH3 0xEB3 PUSH1 0x0 DUP4 ADD DUP12 PUSH3 0xC13 JUMP JUMPDEST PUSH3 0xEC2 PUSH1 0x20 DUP4 ADD DUP11 PUSH3 0xD4A JUMP JUMPDEST PUSH3 0xED1 PUSH1 0x40 DUP4 ADD DUP10 PUSH3 0xD4A JUMP JUMPDEST PUSH3 0xEE0 PUSH1 0x60 DUP4 ADD DUP9 PUSH3 0xD4A JUMP JUMPDEST PUSH3 0xEEF PUSH1 0x80 DUP4 ADD DUP8 PUSH3 0xD4A JUMP JUMPDEST PUSH3 0xEFE PUSH1 0xA0 DUP4 ADD DUP7 PUSH3 0xC13 JUMP JUMPDEST PUSH3 0xF0D PUSH1 0xC0 DUP4 ADD DUP6 PUSH3 0xD4A JUMP JUMPDEST PUSH3 0xF1C PUSH1 0xE0 DUP4 ADD DUP5 PUSH3 0xD4A JUMP JUMPDEST SWAP10 SWAP9 POP POP POP POP POP POP POP POP POP JUMP JUMPDEST PUSH1 0x0 PUSH1 0x20 DUP3 ADD SWAP1 POP PUSH3 0xF40 PUSH1 0x0 DUP4 ADD DUP5 PUSH3 0xC24 JUMP JUMPDEST SWAP3 SWAP2 POP POP JUMP JUMPDEST PUSH1 0x0 PUSH1 0x20 DUP3 ADD SWAP1 POP DUP2 DUP2 SUB PUSH1 0x0 DUP4 ADD MSTORE PUSH3 0xF61 DUP2 PUSH3 0xC87 JUMP JUMPDEST SWAP1 POP SWAP2 SWAP1 POP JUMP JUMPDEST PUSH1 0x0 PUSH1 0x20 DUP3 ADD SWAP1 POP DUP2 DUP2 SUB PUSH1 0x0 DUP4 ADD MSTORE PUSH3 0xF83 DUP2 PUSH3 0xCAE JUMP JUMPDEST SWAP1 POP SWAP2 SWAP1 POP JUMP JUMPDEST PUSH1 0x0 PUSH1 0x20 DUP3 ADD SWAP1 POP DUP2 DUP2 SUB PUSH1 0x0 DUP4 ADD MSTORE PUSH3 0xFA5 DUP2 PUSH3 0xCD5 JUMP JUMPDEST SWAP1 POP SWAP2 SWAP1 POP JUMP JUMPDEST PUSH1 0x0 PUSH1 0x20 DUP3 ADD SWAP1 POP DUP2 DUP2 SUB PUSH1 0x0 DUP4 ADD MSTORE PUSH3 0xFC7 DUP2 PUSH3 0xCFC JUMP JUMPDEST SWAP1 POP SWAP2 SWAP1 POP JUMP JUMPDEST PUSH1 0x0 PUSH1 0x20 DUP3 ADD SWAP1 POP PUSH3 0xFE5 PUSH1 0x0 DUP4 ADD DUP5 PUSH3 0xD4A JUMP JUMPDEST SWAP3 SWAP2 POP POP JUMP JUMPDEST PUSH1 0x0 PUSH3 0xFF7 PUSH3 0x100A JUMP JUMPDEST SWAP1 POP PUSH3 0x1005 DUP3 DUP3 PUSH3 0x1166 JUMP JUMPDEST SWAP2 SWAP1 POP JUMP JUMPDEST PUSH1 0x0 PUSH1 0x40 MLOAD SWAP1 POP SWAP1 JUMP JUMPDEST PUSH1 0x0 PUSH8 0xFFFFFFFFFFFFFFFF DUP3 GT ISZERO PUSH3 0x1032 JUMPI PUSH3 0x1031 PUSH3 0x1219 JUMP JUMPDEST JUMPDEST PUSH3 0x103D DUP3 PUSH3 0x125C JUMP JUMPDEST SWAP1 POP PUSH1 0x20 DUP2 ADD SWAP1 POP SWAP2 SWAP1 POP JUMP JUMPDEST PUSH1 0x0 DUP2 MLOAD SWAP1 POP SWAP2 SWAP1 POP JUMP JUMPDEST PUSH1 0x0 DUP3 DUP3 MSTORE PUSH1 0x20 DUP3 ADD SWAP1 POP SWAP3 SWAP2 POP POP JUMP JUMPDEST PUSH1 0x0 PUSH3 0x1073 DUP3 PUSH3 0x1103 JUMP JUMPDEST SWAP2 POP PUSH3 0x1080 DUP4 PUSH3 0x1103 JUMP JUMPDEST SWAP3 POP DUP3 PUSH32 0xFFFFFFFFFFFFFFFFFFFFFFFFFFFFFFFFFFFFFFFFFFFFFFFFFFFFFFFFFFFFFFFF SUB DUP3 GT ISZERO PUSH3 0x10B8 JUMPI PUSH3 0x10B7 PUSH3 0x11EA JUMP JUMPDEST JUMPDEST DUP3 DUP3 ADD SWAP1 POP SWAP3 SWAP2 POP POP JUMP JUMPDEST PUSH1 0x0 PUSH3 0x10D0 DUP3 PUSH3 0x10E3 JUMP JUMPDEST SWAP1 POP SWAP2 SWAP1 POP JUMP JUMPDEST PUSH1 0x0 DUP2 ISZERO ISZERO SWAP1 POP SWAP2 SWAP1 POP JUMP JUMPDEST PUSH1 0x0 PUSH20 0xFFFFFFFFFFFFFFFFFFFFFFFFFFFFFFFFFFFFFFFF DUP3 AND SWAP1 POP SWAP2 SWAP1 POP JUMP JUMPDEST PUSH1 0x0 DUP2 SWAP1 POP SWAP2 SWAP1 POP JUMP JUMPDEST PUSH1 0x0 PUSH3 0x111A DUP3 PUSH3 0x1103 JUMP JUMPDEST SWAP1 POP SWAP2 SWAP1 POP JUMP JUMPDEST DUP3 DUP2 DUP4 CALLDATACOPY PUSH1 0x0 DUP4 DUP4 ADD MSTORE POP POP POP JUMP JUMPDEST PUSH1 0x0 JUMPDEST DUP4 DUP2 LT ISZERO PUSH3 0x1150 JUMPI DUP1 DUP3 ADD MLOAD DUP2 DUP5 ADD MSTORE PUSH1 0x20 DUP2 ADD SWAP1 POP PUSH3 0x1133 JUMP JUMPDEST DUP4 DUP2 GT ISZERO PUSH3 0x1160 JUMPI PUSH1 0x0 DUP5 DUP5 ADD MSTORE JUMPDEST POP POP POP POP JUMP JUMPDEST PUSH3 0x1171 DUP3 PUSH3 0x125C JUMP JUMPDEST DUP2 ADD DUP2 DUP2 LT PUSH8 0xFFFFFFFFFFFFFFFF DUP3 GT OR ISZERO PUSH3 0x1193 JUMPI PUSH3 0x1192 PUSH3 0x1219 JUMP JUMPDEST JUMPDEST DUP1 PUSH1 0x40 MSTORE POP POP POP JUMP JUMPDEST PUSH1 0x0 PUSH3 0x11A9 DUP3 PUSH3 0x1103 JUMP JUMPDEST SWAP2 POP PUSH32 0xFFFFFFFFFFFFFFFFFFFFFFFFFFFFFFFFFFFFFFFFFFFFFFFFFFFFFFFFFFFFFFFF DUP3 EQ ISZERO PUSH3 0x11DF JUMPI PUSH3 0x11DE PUSH3 0x11EA JUMP JUMPDEST JUMPDEST PUSH1 0x1 DUP3 ADD SWAP1 POP SWAP2 SWAP1 POP JUMP JUMPDEST PUSH32 0x4E487B7100000000000000000000000000000000000000000000000000000000 PUSH1 0x0 MSTORE PUSH1 0x11 PUSH1 0x4 MSTORE PUSH1 0x24 PUSH1 0x0 REVERT JUMPDEST PUSH32 0x4E487B7100000000000000000000000000000000000000000000000000000000 PUSH1 0x0 MSTORE PUSH1 0x41 PUSH1 0x4 MSTORE PUSH1 0x24 PUSH1 0x0 REVERT JUMPDEST PUSH1 0x0 DUP1 REVERT JUMPDEST PUSH1 0x0 DUP1 REVERT JUMPDEST PUSH1 0x0 DUP1 REVERT JUMPDEST PUSH1 0x0 DUP1 REVERT JUMPDEST PUSH1 0x0 PUSH1 0x1F NOT PUSH1 0x1F DUP4 ADD AND SWAP1 POP SWAP2 SWAP1 POP JUMP JUMPDEST PUSH32 0x4F776E61626C653A206E6577206F776E657220697320746865207A65726F2061 PUSH1 0x0 DUP3 ADD MSTORE PUSH32 0x6464726573730000000000000000000000000000000000000000000000000000 PUSH1 0x20 DUP3 ADD MSTORE POP JUMP JUMPDEST PUSH32 0x4E6F20737563682063616D706169676E00000000000000000000000000000000 PUSH1 0x0 DUP3 ADD MSTORE POP JUMP JUMPDEST PUSH32 0x4F776E61626C653A2063616C6C6572206973206E6F7420746865206F776E6572 PUSH1 0x0 DUP3 ADD MSTORE POP JUMP JUMPDEST PUSH32 0x4F776E61626C653A2063616C6C6572206973206E6F7420696E20746865207768 PUSH1 0x0 DUP3 ADD MSTORE PUSH32 0x6974656C69737400000000000000000000000000000000000000000000000000 PUSH1 0x20 DUP3 ADD MSTORE POP JUMP JUMPDEST POP JUMP JUMPDEST PUSH3 0x136B DUP2 PUSH3 0x10C3 JUMP JUMPDEST DUP2 EQ PUSH3 0x1377 JUMPI PUSH1 0x0 DUP1 REVERT JUMPDEST POP JUMP JUMPDEST PUSH3 0x1385 DUP2 PUSH3 0x1103 JUMP JUMPDEST DUP2 EQ PUSH3 0x1391 JUMPI PUSH1 0x0 DUP1 REVERT JUMPDEST POP JUMP INVALID PUSH2 0x180 PUSH1 0x40 MSTORE CALLVALUE DUP1 ISZERO PUSH3 0x12 JUMPI PUSH1 0x0 DUP1 REVERT JUMPDEST POP PUSH1 0x40 MLOAD PUSH3 0x1FDF CODESIZE SUB DUP1 PUSH3 0x1FDF DUP4 CODECOPY DUP2 DUP2 ADD PUSH1 0x40 MSTORE DUP2 ADD SWAP1 PUSH3 0x38 SWAP2 SWAP1 PUSH3 0x4D9 JUMP JUMPDEST PUSH3 0x58 PUSH3 0x4C PUSH3 0x26E PUSH1 0x20 SHL PUSH1 0x20 SHR JUMP JUMPDEST PUSH3 0x276 PUSH1 0x20 SHL PUSH1 0x20 SHR JUMP JUMPDEST DUP3 PUSH20 0xFFFFFFFFFFFFFFFFFFFFFFFFFFFFFFFFFFFFFFFF AND DUP9 PUSH20 0xFFFFFFFFFFFFFFFFFFFFFFFFFFFFFFFFFFFFFFFF AND PUSH4 0x6352211E DUP10 PUSH1 0x40 MLOAD DUP3 PUSH4 0xFFFFFFFF AND PUSH1 0xE0 SHL DUP2 MSTORE PUSH1 0x4 ADD PUSH3 0xAA SWAP2 SWAP1 PUSH3 0x6D7 JUMP JUMPDEST PUSH1 0x20 PUSH1 0x40 MLOAD DUP1 DUP4 SUB DUP2 DUP7 DUP1 EXTCODESIZE ISZERO DUP1 ISZERO PUSH3 0xC3 JUMPI PUSH1 0x0 DUP1 REVERT JUMPDEST POP GAS STATICCALL ISZERO DUP1 ISZERO PUSH3 0xD8 JUMPI RETURNDATASIZE PUSH1 0x0 DUP1 RETURNDATACOPY RETURNDATASIZE PUSH1 0x0 REVERT JUMPDEST POP POP POP POP PUSH1 0x40 MLOAD RETURNDATASIZE PUSH1 0x1F NOT PUSH1 0x1F DUP3 ADD AND DUP3 ADD DUP1 PUSH1 0x40 MSTORE POP DUP2 ADD SWAP1 PUSH3 0xFE SWAP2 SWAP1 PUSH3 0x4A7 JUMP JUMPDEST PUSH20 0xFFFFFFFFFFFFFFFFFFFFFFFFFFFFFFFFFFFFFFFF AND EQ PUSH3 0x157 JUMPI PUSH1 0x40 MLOAD PUSH32 0x8C379A000000000000000000000000000000000000000000000000000000000 DUP2 MSTORE PUSH1 0x4 ADD PUSH3 0x14E SWAP1 PUSH3 0x693 JUMP JUMPDEST PUSH1 0x40 MLOAD DUP1 SWAP2 SUB SWAP1 REVERT JUMPDEST DUP6 PUSH1 0xE0 DUP2 DUP2 MSTORE POP POP DUP5 PUSH2 0x100 DUP2 DUP2 MSTORE POP POP DUP4 PUSH2 0x120 DUP2 DUP2 MSTORE POP POP DUP2 PUSH2 0x140 DUP2 DUP2 MSTORE POP POP DUP1 PUSH2 0x160 DUP2 DUP2 MSTORE POP POP PUSH3 0x93A80 DUP5 PUSH3 0x194 SWAP2 SWAP1 PUSH3 0x705 JUMP JUMPDEST DUP7 LT ISZERO PUSH3 0x1D9 JUMPI PUSH1 0x40 MLOAD PUSH32 0x8C379A000000000000000000000000000000000000000000000000000000000 DUP2 MSTORE PUSH1 0x4 ADD PUSH3 0x1D0 SWAP1 PUSH3 0x6B5 JUMP JUMPDEST PUSH1 0x40 MLOAD DUP1 SWAP2 SUB SWAP1 REVERT JUMPDEST DUP8 PUSH20 0xFFFFFFFFFFFFFFFFFFFFFFFFFFFFFFFFFFFFFFFF AND PUSH1 0x80 DUP2 PUSH20 0xFFFFFFFFFFFFFFFFFFFFFFFFFFFFFFFFFFFFFFFF AND PUSH1 0x60 SHL DUP2 MSTORE POP POP DUP7 PUSH1 0xA0 DUP2 DUP2 MSTORE POP POP DUP3 PUSH20 0xFFFFFFFFFFFFFFFFFFFFFFFFFFFFFFFFFFFFFFFF AND PUSH1 0xC0 DUP2 PUSH20 0xFFFFFFFFFFFFFFFFFFFFFFFFFFFFFFFFFFFFFFFF AND PUSH1 0x60 SHL DUP2 MSTORE POP POP PUSH3 0x260 DUP4 PUSH3 0x33A PUSH1 0x20 SHL PUSH1 0x20 SHR JUMP JUMPDEST POP POP POP POP POP POP POP POP PUSH3 0x8D6 JUMP JUMPDEST PUSH1 0x0 CALLER SWAP1 POP SWAP1 JUMP JUMPDEST PUSH1 0x0 DUP1 PUSH1 0x0 SWAP1 SLOAD SWAP1 PUSH2 0x100 EXP SWAP1 DIV PUSH20 0xFFFFFFFFFFFFFFFFFFFFFFFFFFFFFFFFFFFFFFFF AND SWAP1 POP DUP2 PUSH1 0x0 DUP1 PUSH2 0x100 EXP DUP2 SLOAD DUP2 PUSH20 0xFFFFFFFFFFFFFFFFFFFFFFFFFFFFFFFFFFFFFFFF MUL NOT AND SWAP1 DUP4 PUSH20 0xFFFFFFFFFFFFFFFFFFFFFFFFFFFFFFFFFFFFFFFF AND MUL OR SWAP1 SSTORE POP DUP2 PUSH20 0xFFFFFFFFFFFFFFFFFFFFFFFFFFFFFFFFFFFFFFFF AND DUP2 PUSH20 0xFFFFFFFFFFFFFFFFFFFFFFFFFFFFFFFFFFFFFFFF AND PUSH32 0x8BE0079C531659141344CD1FD0A4F28419497F9722A3DAAFE3B4186F6B6457E0 PUSH1 0x40 MLOAD PUSH1 0x40 MLOAD DUP1 SWAP2 SUB SWAP1 LOG3 POP POP JUMP JUMPDEST PUSH3 0x34A PUSH3 0x26E PUSH1 0x20 SHL PUSH1 0x20 SHR JUMP JUMPDEST PUSH20 0xFFFFFFFFFFFFFFFFFFFFFFFFFFFFFFFFFFFFFFFF AND PUSH3 0x370 PUSH3 0x450 PUSH1 0x20 SHL PUSH1 0x20 SHR JUMP JUMPDEST PUSH20 0xFFFFFFFFFFFFFFFFFFFFFFFFFFFFFFFFFFFFFFFF AND EQ PUSH3 0x3C9 JUMPI PUSH1 0x40 MLOAD PUSH32 0x8C379A000000000000000000000000000000000000000000000000000000000 DUP2 MSTORE PUSH1 0x4 ADD PUSH3 0x3C0 SWAP1 PUSH3 0x671 JUMP JUMPDEST PUSH1 0x40 MLOAD DUP1 SWAP2 SUB SWAP1 REVERT JUMPDEST PUSH1 0x0 PUSH20 0xFFFFFFFFFFFFFFFFFFFFFFFFFFFFFFFFFFFFFFFF AND DUP2 PUSH20 0xFFFFFFFFFFFFFFFFFFFFFFFFFFFFFFFFFFFFFFFF AND EQ ISZERO PUSH3 0x43C JUMPI PUSH1 0x40 MLOAD PUSH32 0x8C379A000000000000000000000000000000000000000000000000000000000 DUP2 MSTORE PUSH1 0x4 ADD PUSH3 0x433 SWAP1 PUSH3 0x64F JUMP JUMPDEST PUSH1 0x40 MLOAD DUP1 SWAP2 SUB SWAP1 REVERT JUMPDEST PUSH3 0x44D DUP2 PUSH3 0x276 PUSH1 0x20 SHL PUSH1 0x20 SHR JUMP JUMPDEST POP JUMP JUMPDEST PUSH1 0x0 DUP1 PUSH1 0x0 SWAP1 SLOAD SWAP1 PUSH2 0x100 EXP SWAP1 DIV PUSH20 0xFFFFFFFFFFFFFFFFFFFFFFFFFFFFFFFFFFFFFFFF AND SWAP1 POP SWAP1 JUMP JUMPDEST PUSH1 0x0 DUP2 MLOAD SWAP1 POP PUSH3 0x48A DUP2 PUSH3 0x8A2 JUMP JUMPDEST SWAP3 SWAP2 POP POP JUMP JUMPDEST PUSH1 0x0 DUP2 MLOAD SWAP1 POP PUSH3 0x4A1 DUP2 PUSH3 0x8BC JUMP JUMPDEST SWAP3 SWAP2 POP POP JUMP JUMPDEST PUSH1 0x0 PUSH1 0x20 DUP3 DUP5 SUB SLT ISZERO PUSH3 0x4C0 JUMPI PUSH3 0x4BF PUSH3 0x7D3 JUMP JUMPDEST JUMPDEST PUSH1 0x0 PUSH3 0x4D0 DUP5 DUP3 DUP6 ADD PUSH3 0x479 JUMP JUMPDEST SWAP2 POP POP SWAP3 SWAP2 POP POP JUMP JUMPDEST PUSH1 0x0 DUP1 PUSH1 0x0 DUP1 PUSH1 0x0 DUP1 PUSH1 0x0 DUP1 PUSH2 0x100 DUP10 DUP12 SUB SLT ISZERO PUSH3 0x4FD JUMPI PUSH3 0x4FC PUSH3 0x7D3 JUMP JUMPDEST JUMPDEST PUSH1 0x0 PUSH3 0x50D DUP12 DUP3 DUP13 ADD PUSH3 0x479 JUMP JUMPDEST SWAP9 POP POP PUSH1 0x20 PUSH3 0x520 DUP12 DUP3 DUP13 ADD PUSH3 0x490 JUMP JUMPDEST SWAP8 POP POP PUSH1 0x40 PUSH3 0x533 DUP12 DUP3 DUP13 ADD PUSH3 0x490 JUMP JUMPDEST SWAP7 POP POP PUSH1 0x60 PUSH3 0x546 DUP12 DUP3 DUP13 ADD PUSH3 0x490 JUMP JUMPDEST SWAP6 POP POP PUSH1 0x80 PUSH3 0x559 DUP12 DUP3 DUP13 ADD PUSH3 0x490 JUMP JUMPDEST SWAP5 POP POP PUSH1 0xA0 PUSH3 0x56C DUP12 DUP3 DUP13 ADD PUSH3 0x479 JUMP JUMPDEST SWAP4 POP POP PUSH1 0xC0 PUSH3 0x57F DUP12 DUP3 DUP13 ADD PUSH3 0x490 JUMP JUMPDEST SWAP3 POP POP PUSH1 0xE0 PUSH3 0x592 DUP12 DUP3 DUP13 ADD PUSH3 0x490 JUMP JUMPDEST SWAP2 POP POP SWAP3 SWAP6 SWAP9 POP SWAP3 SWAP6 SWAP9 SWAP1 SWAP4 SWAP7 POP JUMP JUMPDEST PUSH1 0x0 PUSH3 0x5B1 PUSH1 0x26 DUP4 PUSH3 0x6F4 JUMP JUMPDEST SWAP2 POP PUSH3 0x5BE DUP3 PUSH3 0x7D8 JUMP JUMPDEST PUSH1 0x40 DUP3 ADD SWAP1 POP SWAP2 SWAP1 POP JUMP JUMPDEST PUSH1 0x0 PUSH3 0x5D8 PUSH1 0x20 DUP4 PUSH3 0x6F4 JUMP JUMPDEST SWAP2 POP PUSH3 0x5E5 DUP3 PUSH3 0x827 JUMP JUMPDEST PUSH1 0x20 DUP3 ADD SWAP1 POP SWAP2 SWAP1 POP JUMP JUMPDEST PUSH1 0x0 PUSH3 0x5FF PUSH1 0x16 DUP4 PUSH3 0x6F4 JUMP JUMPDEST SWAP2 POP PUSH3 0x60C DUP3 PUSH3 0x850 JUMP JUMPDEST PUSH1 0x20 DUP3 ADD SWAP1 POP SWAP2 SWAP1 POP JUMP JUMPDEST PUSH1 0x0 PUSH3 0x626 PUSH1 0x19 DUP4 PUSH3 0x6F4 JUMP JUMPDEST SWAP2 POP PUSH3 0x633 DUP3 PUSH3 0x879 JUMP JUMPDEST PUSH1 0x20 DUP3 ADD SWAP1 POP SWAP2 SWAP1 POP JUMP JUMPDEST PUSH3 0x649 DUP2 PUSH3 0x79A JUMP JUMPDEST DUP3 MSTORE POP POP JUMP JUMPDEST PUSH1 0x0 PUSH1 0x20 DUP3 ADD SWAP1 POP DUP2 DUP2 SUB PUSH1 0x0 DUP4 ADD MSTORE PUSH3 0x66A DUP2 PUSH3 0x5A2 JUMP JUMPDEST SWAP1 POP SWAP2 SWAP1 POP JUMP JUMPDEST PUSH1 0x0 PUSH1 0x20 DUP3 ADD SWAP1 POP DUP2 DUP2 SUB PUSH1 0x0 DUP4 ADD MSTORE PUSH3 0x68C DUP2 PUSH3 0x5C9 JUMP JUMPDEST SWAP1 POP SWAP2 SWAP1 POP JUMP JUMPDEST PUSH1 0x0 PUSH1 0x20 DUP3 ADD SWAP1 POP DUP2 DUP2 SUB PUSH1 0x0 DUP4 ADD MSTORE PUSH3 0x6AE DUP2 PUSH3 0x5F0 JUMP JUMPDEST SWAP1 POP SWAP2 SWAP1 POP JUMP JUMPDEST PUSH1 0x0 PUSH1 0x20 DUP3 ADD SWAP1 POP DUP2 DUP2 SUB PUSH1 0x0 DUP4 ADD MSTORE PUSH3 0x6D0 DUP2 PUSH3 0x617 JUMP JUMPDEST SWAP1 POP SWAP2 SWAP1 POP JUMP JUMPDEST PUSH1 0x0 PUSH1 0x20 DUP3 ADD SWAP1 POP PUSH3 0x6EE PUSH1 0x0 DUP4 ADD DUP5 PUSH3 0x63E JUMP JUMPDEST SWAP3 SWAP2 POP POP JUMP JUMPDEST PUSH1 0x0 DUP3 DUP3 MSTORE PUSH1 0x20 DUP3 ADD SWAP1 POP SWAP3 SWAP2 POP POP JUMP JUMPDEST PUSH1 0x0 PUSH3 0x712 DUP3 PUSH3 0x79A JUMP JUMPDEST SWAP2 POP PUSH3 0x71F DUP4 PUSH3 0x79A JUMP JUMPDEST SWAP3 POP DUP2 PUSH32 0xFFFFFFFFFFFFFFFFFFFFFFFFFFFFFFFFFFFFFFFFFFFFFFFFFFFFFFFFFFFFFFFF DIV DUP4 GT DUP3 ISZERO ISZERO AND ISZERO PUSH3 0x75B JUMPI PUSH3 0x75A PUSH3 0x7A4 JUMP JUMPDEST JUMPDEST DUP3 DUP3 MUL SWAP1 POP SWAP3 SWAP2 POP POP JUMP JUMPDEST PUSH1 0x0 PUSH3 0x773 DUP3 PUSH3 0x77A JUMP JUMPDEST SWAP1 POP SWAP2 SWAP1 POP JUMP JUMPDEST PUSH1 0x0 PUSH20 0xFFFFFFFFFFFFFFFFFFFFFFFFFFFFFFFFFFFFFFFF DUP3 AND SWAP1 POP SWAP2 SWAP1 POP JUMP JUMPDEST PUSH1 0x0 DUP2 SWAP1 POP SWAP2 SWAP1 POP JUMP JUMPDEST PUSH32 0x4E487B7100000000000000000000000000000000000000000000000000000000 PUSH1 0x0 MSTORE PUSH1 0x11 PUSH1 0x4 MSTORE PUSH1 0x24 PUSH1 0x0 REVERT JUMPDEST PUSH1 0x0 DUP1 REVERT JUMPDEST PUSH32 0x4F776E61626C653A206E6577206F776E657220697320746865207A65726F2061 PUSH1 0x0 DUP3 ADD MSTORE PUSH32 0x6464726573730000000000000000000000000000000000000000000000000000 PUSH1 0x20 DUP3 ADD MSTORE POP JUMP JUMPDEST PUSH32 0x4F776E61626C653A2063616C6C6572206973206E6F7420746865206F776E6572 PUSH1 0x0 DUP3 ADD MSTORE POP JUMP JUMPDEST PUSH32 0x53656C6C657220646F65736E2774206F776E204E465400000000000000000000 PUSH1 0x0 DUP3 ADD MSTORE POP JUMP JUMPDEST PUSH32 0x5374617274696E6720707269636520697320746F6F206C6F7700000000000000 PUSH1 0x0 DUP3 ADD MSTORE POP JUMP JUMPDEST PUSH3 0x8AD DUP2 PUSH3 0x766 JUMP JUMPDEST DUP2 EQ PUSH3 0x8B9 JUMPI PUSH1 0x0 DUP1 REVERT JUMPDEST POP JUMP JUMPDEST PUSH3 0x8C7 DUP2 PUSH3 0x79A JUMP JUMPDEST DUP2 EQ PUSH3 0x8D3 JUMPI PUSH1 0x0 DUP1 REVERT JUMPDEST POP JUMP JUMPDEST PUSH1 0x80 MLOAD PUSH1 0x60 SHR PUSH1 0xA0 MLOAD PUSH1 0xC0 MLOAD PUSH1 0x60 SHR PUSH1 0xE0 MLOAD PUSH2 0x100 MLOAD PUSH2 0x120 MLOAD PUSH2 0x140 MLOAD PUSH2 0x160 MLOAD PUSH2 0x1611 PUSH3 0x9CE PUSH1 0x0 CODECOPY PUSH1 0x0 DUP2 DUP2 PUSH2 0x443 ADD MSTORE DUP2 DUP2 PUSH2 0x8A6 ADD MSTORE DUP2 DUP2 PUSH2 0x9CF ADD MSTORE PUSH2 0xE73 ADD MSTORE PUSH1 0x0 DUP2 DUP2 PUSH2 0x8F6 ADD MSTORE PUSH2 0x9AB ADD MSTORE PUSH1 0x0 DUP2 DUP2 PUSH2 0x927 ADD MSTORE PUSH2 0xC08 ADD MSTORE PUSH1 0x0 PUSH2 0x37F ADD MSTORE PUSH1 0x0 DUP2 DUP2 PUSH2 0x955 ADD MSTORE PUSH2 0xBE4 ADD MSTORE PUSH1 0x0 DUP2 DUP2 PUSH2 0x3A3 ADD MSTORE DUP2 DUP2 PUSH2 0x4E3 ADD MSTORE DUP2 DUP2 PUSH2 0x6DB ADD MSTORE DUP2 DUP2 PUSH2 0xA9D ADD MSTORE PUSH2 0xDDD ADD MSTORE PUSH1 0x0 DUP2 DUP2 PUSH2 0x504 ADD MSTORE DUP2 DUP2 PUSH2 0x6FD ADD MSTORE DUP2 DUP2 PUSH2 0x7C1 ADD MSTORE DUP2 DUP2 PUSH2 0x987 ADD MSTORE DUP2 DUP2 PUSH2 0xB6E ADD MSTORE PUSH2 0xDFE ADD MSTORE PUSH1 0x0 DUP2 DUP2 PUSH2 0x4A6 ADD MSTORE DUP2 DUP2 PUSH2 0x577 ADD MSTORE DUP2 DUP2 PUSH2 0x69F ADD MSTORE DUP2 DUP2 PUSH2 0x785 ADD MSTORE DUP2 DUP2 PUSH2 0xB30 ADD MSTORE PUSH2 0xDA0 ADD MSTORE PUSH2 0x1611 PUSH1 0x0 RETURN INVALID PUSH1 0x80 PUSH1 0x40 MSTORE PUSH1 0x4 CALLDATASIZE LT PUSH2 0xFE JUMPI PUSH1 0x0 CALLDATALOAD PUSH1 0xE0 SHR DUP1 PUSH4 0x98D5FDCA GT PUSH2 0x95 JUMPI DUP1 PUSH4 0xD6FBF202 GT PUSH2 0x64 JUMPI DUP1 PUSH4 0xD6FBF202 EQ PUSH2 0x2BC JUMPI DUP1 PUSH4 0xE6C0E6D5 EQ PUSH2 0x2E7 JUMPI DUP1 PUSH4 0xF2FDE38B EQ PUSH2 0x312 JUMPI DUP1 PUSH4 0xFAE1DB4C EQ PUSH2 0x33B JUMPI DUP1 PUSH4 0xFFC2BDB1 EQ PUSH2 0x352 JUMPI PUSH2 0xFE JUMP JUMPDEST DUP1 PUSH4 0x98D5FDCA EQ PUSH2 0x21F JUMPI DUP1 PUSH4 0xC6BC5182 EQ PUSH2 0x24A JUMPI DUP1 PUSH4 0xC7446565 EQ PUSH2 0x275 JUMPI DUP1 PUSH4 0xCCE7EC13 EQ PUSH2 0x2A0 JUMPI PUSH2 0xFE JUMP JUMPDEST DUP1 PUSH4 0x715018A6 GT PUSH2 0xD1 JUMPI DUP1 PUSH4 0x715018A6 EQ PUSH2 0x19B JUMPI DUP1 PUSH4 0x7698EF02 EQ PUSH2 0x1B2 JUMPI DUP1 PUSH4 0x8622A689 EQ PUSH2 0x1C9 JUMPI DUP1 PUSH4 0x8DA5CB5B EQ PUSH2 0x1F4 JUMPI PUSH2 0xFE JUMP JUMPDEST DUP1 PUSH4 0x53F14DA EQ PUSH2 0x103 JUMPI DUP1 PUSH4 0x8551A53 EQ PUSH2 0x12E JUMPI DUP1 PUSH4 0xFDB1C10 EQ PUSH2 0x159 JUMPI DUP1 PUSH4 0x47CCCA02 EQ PUSH2 0x170 JUMPI JUMPDEST PUSH1 0x0 DUP1 REVERT JUMPDEST CALLVALUE DUP1 ISZERO PUSH2 0x10F JUMPI PUSH1 0x0 DUP1 REVERT JUMPDEST POP PUSH2 0x118 PUSH2 0x37D JUMP JUMPDEST PUSH1 0x40 MLOAD PUSH2 0x125 SWAP2 SWAP1 PUSH2 0x12BF JUMP JUMPDEST PUSH1 0x40 MLOAD DUP1 SWAP2 SUB SWAP1 RETURN JUMPDEST CALLVALUE DUP1 ISZERO PUSH2 0x13A JUMPI PUSH1 0x0 DUP1 REVERT JUMPDEST POP PUSH2 0x143 PUSH2 0x3A1 JUMP JUMPDEST PUSH1 0x40 MLOAD PUSH2 0x150 SWAP2 SWAP1 PUSH2 0x1192 JUMP JUMPDEST PUSH1 0x40 MLOAD DUP1 SWAP2 SUB SWAP1 RETURN JUMPDEST CALLVALUE DUP1 ISZERO PUSH2 0x165 JUMPI PUSH1 0x0 DUP1 REVERT JUMPDEST POP PUSH2 0x16E PUSH2 0x3C5 JUMP JUMPDEST STOP JUMPDEST CALLVALUE DUP1 ISZERO PUSH2 0x17C JUMPI PUSH1 0x0 DUP1 REVERT JUMPDEST POP PUSH2 0x185 PUSH2 0x575 JUMP JUMPDEST PUSH1 0x40 MLOAD PUSH2 0x192 SWAP2 SWAP1 PUSH2 0x11E4 JUMP JUMPDEST PUSH1 0x40 MLOAD DUP1 SWAP2 SUB SWAP1 RETURN JUMPDEST CALLVALUE DUP1 ISZERO PUSH2 0x1A7 JUMPI PUSH1 0x0 DUP1 REVERT JUMPDEST POP PUSH2 0x1B0 PUSH2 0x599 JUMP JUMPDEST STOP JUMPDEST CALLVALUE DUP1 ISZERO PUSH2 0x1BE JUMPI PUSH1 0x0 DUP1 REVERT JUMPDEST POP PUSH2 0x1C7 PUSH2 0x621 JUMP JUMPDEST STOP JUMPDEST CALLVALUE DUP1 ISZERO PUSH2 0x1D5 JUMPI PUSH1 0x0 DUP1 REVERT JUMPDEST POP PUSH2 0x1DE PUSH2 0x8A4 JUMP JUMPDEST PUSH1 0x40 MLOAD PUSH2 0x1EB SWAP2 SWAP1 PUSH2 0x12BF JUMP JUMPDEST PUSH1 0x40 MLOAD DUP1 SWAP2 SUB SWAP1 RETURN JUMPDEST CALLVALUE DUP1 ISZERO PUSH2 0x200 JUMPI PUSH1 0x0 DUP1 REVERT JUMPDEST POP PUSH2 0x209 PUSH2 0x8C8 JUMP JUMPDEST PUSH1 0x40 MLOAD PUSH2 0x216 SWAP2 SWAP1 PUSH2 0x1192 JUMP JUMPDEST PUSH1 0x40 MLOAD DUP1 SWAP2 SUB SWAP1 RETURN JUMPDEST CALLVALUE DUP1 ISZERO PUSH2 0x22B JUMPI PUSH1 0x0 DUP1 REVERT JUMPDEST POP PUSH2 0x234 PUSH2 0x8F1 JUMP JUMPDEST PUSH1 0x40 MLOAD PUSH2 0x241 SWAP2 SWAP1 PUSH2 0x12BF JUMP JUMPDEST PUSH1 0x40 MLOAD DUP1 SWAP2 SUB SWAP1 RETURN JUMPDEST CALLVALUE DUP1 ISZERO PUSH2 0x256 JUMPI PUSH1 0x0 DUP1 REVERT JUMPDEST POP PUSH2 0x25F PUSH2 0x985 JUMP JUMPDEST PUSH1 0x40 MLOAD PUSH2 0x26C SWAP2 SWAP1 PUSH2 0x12BF JUMP JUMPDEST PUSH1 0x40 MLOAD DUP1 SWAP2 SUB SWAP1 RETURN JUMPDEST CALLVALUE DUP1 ISZERO PUSH2 0x281 JUMPI PUSH1 0x0 DUP1 REVERT JUMPDEST POP PUSH2 0x28A PUSH2 0x9A9 JUMP JUMPDEST PUSH1 0x40 MLOAD PUSH2 0x297 SWAP2 SWAP1 PUSH2 0x12BF JUMP JUMPDEST PUSH1 0x40 MLOAD DUP1 SWAP2 SUB SWAP1 RETURN JUMPDEST PUSH2 0x2BA PUSH1 0x4 DUP1 CALLDATASIZE SUB DUP2 ADD SWAP1 PUSH2 0x2B5 SWAP2 SWAP1 PUSH2 0x1053 JUMP JUMPDEST PUSH2 0x9CD JUMP JUMPDEST STOP JUMPDEST CALLVALUE DUP1 ISZERO PUSH2 0x2C8 JUMPI PUSH1 0x0 DUP1 REVERT JUMPDEST POP PUSH2 0x2D1 PUSH2 0xBE2 JUMP JUMPDEST PUSH1 0x40 MLOAD PUSH2 0x2DE SWAP2 SWAP1 PUSH2 0x12BF JUMP JUMPDEST PUSH1 0x40 MLOAD DUP1 SWAP2 SUB SWAP1 RETURN JUMPDEST CALLVALUE DUP1 ISZERO PUSH2 0x2F3 JUMPI PUSH1 0x0 DUP1 REVERT JUMPDEST POP PUSH2 0x2FC PUSH2 0xC06 JUMP JUMPDEST PUSH1 0x40 MLOAD PUSH2 0x309 SWAP2 SWAP1 PUSH2 0x12BF JUMP JUMPDEST PUSH1 0x40 MLOAD DUP1 SWAP2 SUB SWAP1 RETURN JUMPDEST CALLVALUE DUP1 ISZERO PUSH2 0x31E JUMPI PUSH1 0x0 DUP1 REVERT JUMPDEST POP PUSH2 0x339 PUSH1 0x4 DUP1 CALLDATASIZE SUB DUP2 ADD SWAP1 PUSH2 0x334 SWAP2 SWAP1 PUSH2 0xFCC JUMP JUMPDEST PUSH2 0xC2A JUMP JUMPDEST STOP JUMPDEST CALLVALUE DUP1 ISZERO PUSH2 0x347 JUMPI PUSH1 0x0 DUP1 REVERT JUMPDEST POP PUSH2 0x350 PUSH2 0xD22 JUMP JUMPDEST STOP JUMPDEST CALLVALUE DUP1 ISZERO PUSH2 0x35E JUMPI PUSH1 0x0 DUP1 REVERT JUMPDEST POP PUSH2 0x367 PUSH2 0xE6F JUMP JUMPDEST PUSH1 0x40 MLOAD PUSH2 0x374 SWAP2 SWAP1 PUSH2 0x12BF JUMP JUMPDEST PUSH1 0x40 MLOAD DUP1 SWAP2 SUB SWAP1 RETURN JUMPDEST PUSH32 0x0 DUP2 JUMP JUMPDEST PUSH32 0x0 DUP2 JUMP JUMPDEST PUSH2 0x3CD PUSH2 0xE97 JUMP JUMPDEST PUSH20 0xFFFFFFFFFFFFFFFFFFFFFFFFFFFFFFFFFFFFFFFF AND PUSH2 0x3EB PUSH2 0x8C8 JUMP JUMPDEST PUSH20 0xFFFFFFFFFFFFFFFFFFFFFFFFFFFFFFFFFFFFFFFF AND EQ PUSH2 0x441 JUMPI PUSH1 0x40 MLOAD PUSH32 0x8C379A000000000000000000000000000000000000000000000000000000000 DUP2 MSTORE PUSH1 0x4 ADD PUSH2 0x438 SWAP1 PUSH2 0x125F JUMP JUMPDEST PUSH1 0x40 MLOAD DUP1 SWAP2 SUB SWAP1 REVERT JUMPDEST PUSH32 0x0 TIMESTAMP LT ISZERO PUSH2 0x4A4 JUMPI PUSH1 0x40 MLOAD PUSH32 0x8C379A000000000000000000000000000000000000000000000000000000000 DUP2 MSTORE PUSH1 0x4 ADD PUSH2 0x49B SWAP1 PUSH2 0x11FF JUMP JUMPDEST PUSH1 0x40 MLOAD DUP1 SWAP2 SUB SWAP1 REVERT JUMPDEST PUSH32 0x0 PUSH20 0xFFFFFFFFFFFFFFFFFFFFFFFFFFFFFFFFFFFFFFFF AND PUSH4 0x23B872DD ADDRESS PUSH32 0x0 PUSH32 0x0 PUSH1 0x40 MLOAD DUP5 PUSH4 0xFFFFFFFF AND PUSH1 0xE0 SHL DUP2 MSTORE PUSH1 0x4 ADD PUSH2 0x541 SWAP4 SWAP3 SWAP2 SWAP1 PUSH2 0x11AD JUMP JUMPDEST PUSH1 0x0 PUSH1 0x40 MLOAD DUP1 DUP4 SUB DUP2 PUSH1 0x0 DUP8 DUP1 EXTCODESIZE ISZERO DUP1 ISZERO PUSH2 0x55B JUMPI PUSH1 0x0 DUP1 REVERT JUMPDEST POP GAS CALL ISZERO DUP1 ISZERO PUSH2 0x56F JUMPI RETURNDATASIZE PUSH1 0x0 DUP1 RETURNDATACOPY RETURNDATASIZE PUSH1 0x0 REVERT JUMPDEST POP POP POP POP JUMP JUMPDEST PUSH32 0x0 DUP2 JUMP JUMPDEST PUSH2 0x5A1 PUSH2 0xE97 JUMP JUMPDEST PUSH20 0xFFFFFFFFFFFFFFFFFFFFFFFFFFFFFFFFFFFFFFFF AND PUSH2 0x5BF PUSH2 0x8C8 JUMP JUMPDEST PUSH20 0xFFFFFFFFFFFFFFFFFFFFFFFFFFFFFFFFFFFFFFFF AND EQ PUSH2 0x615 JUMPI PUSH1 0x40 MLOAD PUSH32 0x8C379A000000000000000000000000000000000000000000000000000000000 DUP2 MSTORE PUSH1 0x4 ADD PUSH2 0x60C SWAP1 PUSH2 0x125F JUMP JUMPDEST PUSH1 0x40 MLOAD DUP1 SWAP2 SUB SWAP1 REVERT JUMPDEST PUSH2 0x61F PUSH1 0x0 PUSH2 0xE9F JUMP JUMPDEST JUMP JUMPDEST PUSH2 0x629 PUSH2 0xE97 JUMP JUMPDEST PUSH20 0xFFFFFFFFFFFFFFFFFFFFFFFFFFFFFFFFFFFFFFFF AND PUSH2 0x647 PUSH2 0x8C8 JUMP JUMPDEST PUSH20 0xFFFFFFFFFFFFFFFFFFFFFFFFFFFFFFFFFFFFFFFF AND EQ PUSH2 0x69D JUMPI PUSH1 0x40 MLOAD PUSH32 0x8C379A000000000000000000000000000000000000000000000000000000000 DUP2 MSTORE PUSH1 0x4 ADD PUSH2 0x694 SWAP1 PUSH2 0x125F JUMP JUMPDEST PUSH1 0x40 MLOAD DUP1 SWAP2 SUB SWAP1 REVERT JUMPDEST PUSH32 0x0 PUSH20 0xFFFFFFFFFFFFFFFFFFFFFFFFFFFFFFFFFFFFFFFF AND PUSH4 0x23B872DD PUSH32 0x0 ADDRESS PUSH32 0x0 PUSH1 0x40 MLOAD DUP5 PUSH4 0xFFFFFFFF AND PUSH1 0xE0 SHL DUP2 MSTORE PUSH1 0x4 ADD PUSH2 0x73A SWAP4 SWAP3 SWAP2 SWAP1 PUSH2 0x11AD JUMP JUMPDEST PUSH1 0x0 PUSH1 0x40 MLOAD DUP1 DUP4 SUB DUP2 PUSH1 0x0 DUP8 DUP1 EXTCODESIZE ISZERO DUP1 ISZERO PUSH2 0x754 JUMPI PUSH1 0x0 DUP1 REVERT JUMPDEST POP GAS CALL ISZERO DUP1 ISZERO PUSH2 0x768 JUMPI RETURNDATASIZE PUSH1 0x0 DUP1 RETURNDATACOPY RETURNDATASIZE PUSH1 0x0 REVERT JUMPDEST POP POP POP POP ADDRESS PUSH20 0xFFFFFFFFFFFFFFFFFFFFFFFFFFFFFFFFFFFFFFFF AND PUSH32 0x0 PUSH20 0xFFFFFFFFFFFFFFFFFFFFFFFFFFFFFFFFFFFFFFFF AND PUSH4 0x6352211E PUSH32 0x0 PUSH1 0x40 MLOAD DUP3 PUSH4 0xFFFFFFFF AND PUSH1 0xE0 SHL DUP2 MSTORE PUSH1 0x4 ADD PUSH2 0x7FC SWAP2 SWAP1 PUSH2 0x12BF JUMP JUMPDEST PUSH1 0x20 PUSH1 0x40 MLOAD DUP1 DUP4 SUB DUP2 DUP7 DUP1 EXTCODESIZE ISZERO DUP1 ISZERO PUSH2 0x814 JUMPI PUSH1 0x0 DUP1 REVERT JUMPDEST POP GAS STATICCALL ISZERO DUP1 ISZERO PUSH2 0x828 JUMPI RETURNDATASIZE PUSH1 0x0 DUP1 RETURNDATACOPY RETURNDATASIZE PUSH1 0x0 REVERT JUMPDEST POP POP POP POP PUSH1 0x40 MLOAD RETURNDATASIZE PUSH1 0x1F NOT PUSH1 0x1F DUP3 ADD AND DUP3 ADD DUP1 PUSH1 0x40 MSTORE POP DUP2 ADD SWAP1 PUSH2 0x84C SWAP2 SWAP1 PUSH2 0xFF9 JUMP JUMPDEST PUSH20 0xFFFFFFFFFFFFFFFFFFFFFFFFFFFFFFFFFFFFFFFF AND EQ PUSH2 0x8A2 JUMPI PUSH1 0x40 MLOAD PUSH32 0x8C379A000000000000000000000000000000000000000000000000000000000 DUP2 MSTORE PUSH1 0x4 ADD PUSH2 0x899 SWAP1 PUSH2 0x127F JUMP JUMPDEST PUSH1 0x40 MLOAD DUP1 SWAP2 SUB SWAP1 REVERT JUMPDEST JUMP JUMPDEST PUSH32 0x0 DUP2 JUMP JUMPDEST PUSH1 0x0 DUP1 PUSH1 0x0 SWAP1 SLOAD SWAP1 PUSH2 0x100 EXP SWAP1 DIV PUSH20 0xFFFFFFFFFFFFFFFFFFFFFFFFFFFFFFFFFFFFFFFF AND SWAP1 POP SWAP1 JUMP JUMPDEST PUSH1 0x0 DUP1 PUSH32 0x0 TIMESTAMP PUSH2 0x920 SWAP2 SWAP1 PUSH2 0x1345 JUMP JUMPDEST SWAP1 POP PUSH1 0x0 DUP2 PUSH32 0x0 PUSH2 0x950 SWAP2 SWAP1 PUSH2 0x12EB JUMP JUMPDEST SWAP1 POP DUP1 PUSH32 0x0 PUSH2 0x97E SWAP2 SWAP1 PUSH2 0x1345 JUMP JUMPDEST SWAP3 POP POP POP SWAP1 JUMP JUMPDEST PUSH32 0x0 DUP2 JUMP JUMPDEST PUSH32 0x0 DUP2 JUMP JUMPDEST PUSH32 0x0 TIMESTAMP LT PUSH2 0xA2F JUMPI PUSH1 0x40 MLOAD PUSH32 0x8C379A000000000000000000000000000000000000000000000000000000000 DUP2 MSTORE PUSH1 0x4 ADD PUSH2 0xA26 SWAP1 PUSH2 0x123F JUMP JUMPDEST PUSH1 0x40 MLOAD DUP1 SWAP2 SUB SWAP1 REVERT JUMPDEST PUSH1 0x0 PUSH2 0xA39 PUSH2 0x8F1 JUMP JUMPDEST SWAP1 POP DUP1 DUP3 LT ISZERO PUSH2 0xA7E JUMPI PUSH1 0x40 MLOAD PUSH32 0x8C379A000000000000000000000000000000000000000000000000000000000 DUP2 MSTORE PUSH1 0x4 ADD PUSH2 0xA75 SWAP1 PUSH2 0x129F JUMP JUMPDEST PUSH1 0x40 MLOAD DUP1 SWAP2 SUB SWAP1 REVERT JUMPDEST DUP3 PUSH20 0xFFFFFFFFFFFFFFFFFFFFFFFFFFFFFFFFFFFFFFFF AND PUSH4 0x23B872DD CALLER PUSH32 0x0 DUP6 PUSH1 0x40 MLOAD DUP5 PUSH4 0xFFFFFFFF AND PUSH1 0xE0 SHL DUP2 MSTORE PUSH1 0x4 ADD PUSH2 0xADB SWAP4 SWAP3 SWAP2 SWAP1 PUSH2 0x11AD JUMP JUMPDEST PUSH1 0x20 PUSH1 0x40 MLOAD DUP1 DUP4 SUB DUP2 PUSH1 0x0 DUP8 DUP1 EXTCODESIZE ISZERO DUP1 ISZERO PUSH2 0xAF5 JUMPI PUSH1 0x0 DUP1 REVERT JUMPDEST POP GAS CALL ISZERO DUP1 ISZERO PUSH2 0xB09 JUMPI RETURNDATASIZE PUSH1 0x0 DUP1 RETURNDATACOPY RETURNDATASIZE PUSH1 0x0 REVERT JUMPDEST POP POP POP POP PUSH1 0x40 MLOAD RETURNDATASIZE PUSH1 0x1F NOT PUSH1 0x1F DUP3 ADD AND DUP3 ADD DUP1 PUSH1 0x40 MSTORE POP DUP2 ADD SWAP1 PUSH2 0xB2D SWAP2 SWAP1 PUSH2 0x1026 JUMP JUMPDEST POP PUSH32 0x0 PUSH20 0xFFFFFFFFFFFFFFFFFFFFFFFFFFFFFFFFFFFFFFFF AND PUSH4 0x23B872DD ADDRESS CALLER PUSH32 0x0 PUSH1 0x40 MLOAD DUP5 PUSH4 0xFFFFFFFF AND PUSH1 0xE0 SHL DUP2 MSTORE PUSH1 0x4 ADD PUSH2 0xBAB SWAP4 SWAP3 SWAP2 SWAP1 PUSH2 0x11AD JUMP JUMPDEST PUSH1 0x0 PUSH1 0x40 MLOAD DUP1 DUP4 SUB DUP2 PUSH1 0x0 DUP8 DUP1 EXTCODESIZE ISZERO DUP1 ISZERO PUSH2 0xBC5 JUMPI PUSH1 0x0 DUP1 REVERT JUMPDEST POP GAS CALL ISZERO DUP1 ISZERO PUSH2 0xBD9 JUMPI RETURNDATASIZE PUSH1 0x0 DUP1 RETURNDATACOPY RETURNDATASIZE PUSH1 0x0 REVERT JUMPDEST POP POP POP POP POP POP POP JUMP JUMPDEST PUSH32 0x0 DUP2 JUMP JUMPDEST PUSH32 0x0 DUP2 JUMP JUMPDEST PUSH2 0xC32 PUSH2 0xE97 JUMP JUMPDEST PUSH20 0xFFFFFFFFFFFFFFFFFFFFFFFFFFFFFFFFFFFFFFFF AND PUSH2 0xC50 PUSH2 0x8C8 JUMP JUMPDEST PUSH20 0xFFFFFFFFFFFFFFFFFFFFFFFFFFFFFFFFFFFFFFFF AND EQ PUSH2 0xCA6 JUMPI PUSH1 0x40 MLOAD PUSH32 0x8C379A000000000000000000000000000000000000000000000000000000000 DUP2 MSTORE PUSH1 0x4 ADD PUSH2 0xC9D SWAP1 PUSH2 0x125F JUMP JUMPDEST PUSH1 0x40 MLOAD DUP1 SWAP2 SUB SWAP1 REVERT JUMPDEST PUSH1 0x0 PUSH20 0xFFFFFFFFFFFFFFFFFFFFFFFFFFFFFFFFFFFFFFFF AND DUP2 PUSH20 0xFFFFFFFFFFFFFFFFFFFFFFFFFFFFFFFFFFFFFFFF AND EQ ISZERO PUSH2 0xD16 JUMPI PUSH1 0x40 MLOAD PUSH32 0x8C379A000000000000000000000000000000000000000000000000000000000 DUP2 MSTORE PUSH1 0x4 ADD PUSH2 0xD0D SWAP1 PUSH2 0x121F JUMP JUMPDEST PUSH1 0x40 MLOAD DUP1 SWAP2 SUB SWAP1 REVERT JUMPDEST PUSH2 0xD1F DUP2 PUSH2 0xE9F JUMP JUMPDEST POP JUMP JUMPDEST PUSH2 0xD2A PUSH2 0xE97 JUMP JUMPDEST PUSH20 0xFFFFFFFFFFFFFFFFFFFFFFFFFFFFFFFFFFFFFFFF AND PUSH2 0xD48 PUSH2 0x8C8 JUMP JUMPDEST PUSH20 0xFFFFFFFFFFFFFFFFFFFFFFFFFFFFFFFFFFFFFFFF AND EQ PUSH2 0xD9E JUMPI PUSH1 0x40 MLOAD PUSH32 0x8C379A000000000000000000000000000000000000000000000000000000000 DUP2 MSTORE PUSH1 0x4 ADD PUSH2 0xD95 SWAP1 PUSH2 0x125F JUMP JUMPDEST PUSH1 0x40 MLOAD DUP1 SWAP2 SUB SWAP1 REVERT JUMPDEST PUSH32 0x0 PUSH20 0xFFFFFFFFFFFFFFFFFFFFFFFFFFFFFFFFFFFFFFFF AND PUSH4 0x23B872DD ADDRESS PUSH32 0x0 PUSH32 0x0 PUSH1 0x40 MLOAD DUP5 PUSH4 0xFFFFFFFF AND PUSH1 0xE0 SHL DUP2 MSTORE PUSH1 0x4 ADD PUSH2 0xE3B SWAP4 SWAP3 SWAP2 SWAP1 PUSH2 0x11AD JUMP JUMPDEST PUSH1 0x0 PUSH1 0x40 MLOAD DUP1 DUP4 SUB DUP2 PUSH1 0x0 DUP8 DUP1 EXTCODESIZE ISZERO DUP1 ISZERO PUSH2 0xE55 JUMPI PUSH1 0x0 DUP1 REVERT JUMPDEST POP GAS CALL ISZERO DUP1 ISZERO PUSH2 0xE69 JUMPI RETURNDATASIZE PUSH1 0x0 DUP1 RETURNDATACOPY RETURNDATASIZE PUSH1 0x0 REVERT JUMPDEST POP POP POP POP JUMP JUMPDEST PUSH1 0x0 PUSH32 0x0 SWAP1 POP SWAP1 JUMP JUMPDEST PUSH1 0x0 CALLER SWAP1 POP SWAP1 JUMP JUMPDEST PUSH1 0x0 DUP1 PUSH1 0x0 SWAP1 SLOAD SWAP1 PUSH2 0x100 EXP SWAP1 DIV PUSH20 0xFFFFFFFFFFFFFFFFFFFFFFFFFFFFFFFFFFFFFFFF AND SWAP1 POP DUP2 PUSH1 0x0 DUP1 PUSH2 0x100 EXP DUP2 SLOAD DUP2 PUSH20 0xFFFFFFFFFFFFFFFFFFFFFFFFFFFFFFFFFFFFFFFF MUL NOT AND SWAP1 DUP4 PUSH20 0xFFFFFFFFFFFFFFFFFFFFFFFFFFFFFFFFFFFFFFFF AND MUL OR SWAP1 SSTORE POP DUP2 PUSH20 0xFFFFFFFFFFFFFFFFFFFFFFFFFFFFFFFFFFFFFFFF AND DUP2 PUSH20 0xFFFFFFFFFFFFFFFFFFFFFFFFFFFFFFFFFFFFFFFF AND PUSH32 0x8BE0079C531659141344CD1FD0A4F28419497F9722A3DAAFE3B4186F6B6457E0 PUSH1 0x40 MLOAD PUSH1 0x40 MLOAD DUP1 SWAP2 SUB SWAP1 LOG3 POP POP JUMP JUMPDEST PUSH1 0x0 DUP2 CALLDATALOAD SWAP1 POP PUSH2 0xF72 DUP2 PUSH2 0x157F JUMP JUMPDEST SWAP3 SWAP2 POP POP JUMP JUMPDEST PUSH1 0x0 DUP2 MLOAD SWAP1 POP PUSH2 0xF87 DUP2 PUSH2 0x157F JUMP JUMPDEST SWAP3 SWAP2 POP POP JUMP JUMPDEST PUSH1 0x0 DUP2 MLOAD SWAP1 POP PUSH2 0xF9C DUP2 PUSH2 0x1596 JUMP JUMPDEST SWAP3 SWAP2 POP POP JUMP JUMPDEST PUSH1 0x0 DUP2 CALLDATALOAD SWAP1 POP PUSH2 0xFB1 DUP2 PUSH2 0x15AD JUMP JUMPDEST SWAP3 SWAP2 POP POP JUMP JUMPDEST PUSH1 0x0 DUP2 CALLDATALOAD SWAP1 POP PUSH2 0xFC6 DUP2 PUSH2 0x15C4 JUMP JUMPDEST SWAP3 SWAP2 POP POP JUMP JUMPDEST PUSH1 0x0 PUSH1 0x20 DUP3 DUP5 SUB SLT ISZERO PUSH2 0xFE2 JUMPI PUSH2 0xFE1 PUSH2 0x1438 JUMP JUMPDEST JUMPDEST PUSH1 0x0 PUSH2 0xFF0 DUP5 DUP3 DUP6 ADD PUSH2 0xF63 JUMP JUMPDEST SWAP2 POP POP SWAP3 SWAP2 POP POP JUMP JUMPDEST PUSH1 0x0 PUSH1 0x20 DUP3 DUP5 SUB SLT ISZERO PUSH2 0x100F JUMPI PUSH2 0x100E PUSH2 0x1438 JUMP JUMPDEST JUMPDEST PUSH1 0x0 PUSH2 0x101D DUP5 DUP3 DUP6 ADD PUSH2 0xF78 JUMP JUMPDEST SWAP2 POP POP SWAP3 SWAP2 POP POP JUMP JUMPDEST PUSH1 0x0 PUSH1 0x20 DUP3 DUP5 SUB SLT ISZERO PUSH2 0x103C JUMPI PUSH2 0x103B PUSH2 0x1438 JUMP JUMPDEST JUMPDEST PUSH1 0x0 PUSH2 0x104A DUP5 DUP3 DUP6 ADD PUSH2 0xF8D JUMP JUMPDEST SWAP2 POP POP SWAP3 SWAP2 POP POP JUMP JUMPDEST PUSH1 0x0 DUP1 PUSH1 0x40 DUP4 DUP6 SUB SLT ISZERO PUSH2 0x106A JUMPI PUSH2 0x1069 PUSH2 0x1438 JUMP JUMPDEST JUMPDEST PUSH1 0x0 PUSH2 0x1078 DUP6 DUP3 DUP7 ADD PUSH2 0xFA2 JUMP JUMPDEST SWAP3 POP POP PUSH1 0x20 PUSH2 0x1089 DUP6 DUP3 DUP7 ADD PUSH2 0xFB7 JUMP JUMPDEST SWAP2 POP POP SWAP3 POP SWAP3 SWAP1 POP JUMP JUMPDEST PUSH2 0x109C DUP2 PUSH2 0x1379 JUMP JUMPDEST DUP3 MSTORE POP POP JUMP JUMPDEST PUSH2 0x10AB DUP2 PUSH2 0x13D3 JUMP JUMPDEST DUP3 MSTORE POP POP JUMP JUMPDEST PUSH1 0x0 PUSH2 0x10BE PUSH1 0x16 DUP4 PUSH2 0x12DA JUMP JUMPDEST SWAP2 POP PUSH2 0x10C9 DUP3 PUSH2 0x143D JUMP JUMPDEST PUSH1 0x20 DUP3 ADD SWAP1 POP SWAP2 SWAP1 POP JUMP JUMPDEST PUSH1 0x0 PUSH2 0x10E1 PUSH1 0x26 DUP4 PUSH2 0x12DA JUMP JUMPDEST SWAP2 POP PUSH2 0x10EC DUP3 PUSH2 0x1466 JUMP JUMPDEST PUSH1 0x40 DUP3 ADD SWAP1 POP SWAP2 SWAP1 POP JUMP JUMPDEST PUSH1 0x0 PUSH2 0x1104 PUSH1 0x16 DUP4 PUSH2 0x12DA JUMP JUMPDEST SWAP2 POP PUSH2 0x110F DUP3 PUSH2 0x14B5 JUMP JUMPDEST PUSH1 0x20 DUP3 ADD SWAP1 POP SWAP2 SWAP1 POP JUMP JUMPDEST PUSH1 0x0 PUSH2 0x1127 PUSH1 0x20 DUP4 PUSH2 0x12DA JUMP JUMPDEST SWAP2 POP PUSH2 0x1132 DUP3 PUSH2 0x14DE JUMP JUMPDEST PUSH1 0x20 DUP3 ADD SWAP1 POP SWAP2 SWAP1 POP JUMP JUMPDEST PUSH1 0x0 PUSH2 0x114A PUSH1 0x13 DUP4 PUSH2 0x12DA JUMP JUMPDEST SWAP2 POP PUSH2 0x1155 DUP3 PUSH2 0x1507 JUMP JUMPDEST PUSH1 0x20 DUP3 ADD SWAP1 POP SWAP2 SWAP1 POP JUMP JUMPDEST PUSH1 0x0 PUSH2 0x116D PUSH1 0x2F DUP4 PUSH2 0x12DA JUMP JUMPDEST SWAP2 POP PUSH2 0x1178 DUP3 PUSH2 0x1530 JUMP JUMPDEST PUSH1 0x40 DUP3 ADD SWAP1 POP SWAP2 SWAP1 POP JUMP JUMPDEST PUSH2 0x118C DUP2 PUSH2 0x13C9 JUMP JUMPDEST DUP3 MSTORE POP POP JUMP JUMPDEST PUSH1 0x0 PUSH1 0x20 DUP3 ADD SWAP1 POP PUSH2 0x11A7 PUSH1 0x0 DUP4 ADD DUP5 PUSH2 0x1093 JUMP JUMPDEST SWAP3 SWAP2 POP POP JUMP JUMPDEST PUSH1 0x0 PUSH1 0x60 DUP3 ADD SWAP1 POP PUSH2 0x11C2 PUSH1 0x0 DUP4 ADD DUP7 PUSH2 0x1093 JUMP JUMPDEST PUSH2 0x11CF PUSH1 0x20 DUP4 ADD DUP6 PUSH2 0x1093 JUMP JUMPDEST PUSH2 0x11DC PUSH1 0x40 DUP4 ADD DUP5 PUSH2 0x1183 JUMP JUMPDEST SWAP5 SWAP4 POP POP POP POP JUMP JUMPDEST PUSH1 0x0 PUSH1 0x20 DUP3 ADD SWAP1 POP PUSH2 0x11F9 PUSH1 0x0 DUP4 ADD DUP5 PUSH2 0x10A2 JUMP JUMPDEST SWAP3 SWAP2 POP POP JUMP JUMPDEST PUSH1 0x0 PUSH1 0x20 DUP3 ADD SWAP1 POP DUP2 DUP2 SUB PUSH1 0x0 DUP4 ADD MSTORE PUSH2 0x1218 DUP2 PUSH2 0x10B1 JUMP JUMPDEST SWAP1 POP SWAP2 SWAP1 POP JUMP JUMPDEST PUSH1 0x0 PUSH1 0x20 DUP3 ADD SWAP1 POP DUP2 DUP2 SUB PUSH1 0x0 DUP4 ADD MSTORE PUSH2 0x1238 DUP2 PUSH2 0x10D4 JUMP JUMPDEST SWAP1 POP SWAP2 SWAP1 POP JUMP JUMPDEST PUSH1 0x0 PUSH1 0x20 DUP3 ADD SWAP1 POP DUP2 DUP2 SUB PUSH1 0x0 DUP4 ADD MSTORE PUSH2 0x1258 DUP2 PUSH2 0x10F7 JUMP JUMPDEST SWAP1 POP SWAP2 SWAP1 POP JUMP JUMPDEST PUSH1 0x0 PUSH1 0x20 DUP3 ADD SWAP1 POP DUP2 DUP2 SUB PUSH1 0x0 DUP4 ADD MSTORE PUSH2 0x1278 DUP2 PUSH2 0x111A JUMP JUMPDEST SWAP1 POP SWAP2 SWAP1 POP JUMP JUMPDEST PUSH1 0x0 PUSH1 0x20 DUP3 ADD SWAP1 POP DUP2 DUP2 SUB PUSH1 0x0 DUP4 ADD MSTORE PUSH2 0x1298 DUP2 PUSH2 0x113D JUMP JUMPDEST SWAP1 POP SWAP2 SWAP1 POP JUMP JUMPDEST PUSH1 0x0 PUSH1 0x20 DUP3 ADD SWAP1 POP DUP2 DUP2 SUB PUSH1 0x0 DUP4 ADD MSTORE PUSH2 0x12B8 DUP2 PUSH2 0x1160 JUMP JUMPDEST SWAP1 POP SWAP2 SWAP1 POP JUMP JUMPDEST PUSH1 0x0 PUSH1 0x20 DUP3 ADD SWAP1 POP PUSH2 0x12D4 PUSH1 0x0 DUP4 ADD DUP5 PUSH2 0x1183 JUMP JUMPDEST SWAP3 SWAP2 POP POP JUMP JUMPDEST PUSH1 0x0 DUP3 DUP3 MSTORE PUSH1 0x20 DUP3 ADD SWAP1 POP SWAP3 SWAP2 POP POP JUMP JUMPDEST PUSH1 0x0 PUSH2 0x12F6 DUP3 PUSH2 0x13C9 JUMP JUMPDEST SWAP2 POP PUSH2 0x1301 DUP4 PUSH2 0x13C9 JUMP JUMPDEST SWAP3 POP DUP2 PUSH32 0xFFFFFFFFFFFFFFFFFFFFFFFFFFFFFFFFFFFFFFFFFFFFFFFFFFFFFFFFFFFFFFFF DIV DUP4 GT DUP3 ISZERO ISZERO AND ISZERO PUSH2 0x133A JUMPI PUSH2 0x1339 PUSH2 0x1409 JUMP JUMPDEST JUMPDEST DUP3 DUP3 MUL SWAP1 POP SWAP3 SWAP2 POP POP JUMP JUMPDEST PUSH1 0x0 PUSH2 0x1350 DUP3 PUSH2 0x13C9 JUMP JUMPDEST SWAP2 POP PUSH2 0x135B DUP4 PUSH2 0x13C9 JUMP JUMPDEST SWAP3 POP DUP3 DUP3 LT ISZERO PUSH2 0x136E JUMPI PUSH2 0x136D PUSH2 0x1409 JUMP JUMPDEST JUMPDEST DUP3 DUP3 SUB SWAP1 POP SWAP3 SWAP2 POP POP JUMP JUMPDEST PUSH1 0x0 PUSH2 0x1384 DUP3 PUSH2 0x13A9 JUMP JUMPDEST SWAP1 POP SWAP2 SWAP1 POP JUMP JUMPDEST PUSH1 0x0 DUP2 ISZERO ISZERO SWAP1 POP SWAP2 SWAP1 POP JUMP JUMPDEST PUSH1 0x0 PUSH2 0x13A2 DUP3 PUSH2 0x1379 JUMP JUMPDEST SWAP1 POP SWAP2 SWAP1 POP JUMP JUMPDEST PUSH1 0x0 PUSH20 0xFFFFFFFFFFFFFFFFFFFFFFFFFFFFFFFFFFFFFFFF DUP3 AND SWAP1 POP SWAP2 SWAP1 POP JUMP JUMPDEST PUSH1 0x0 DUP2 SWAP1 POP SWAP2 SWAP1 POP JUMP JUMPDEST PUSH1 0x0 PUSH2 0x13DE DUP3 PUSH2 0x13E5 JUMP JUMPDEST SWAP1 POP SWAP2 SWAP1 POP JUMP JUMPDEST PUSH1 0x0 PUSH2 0x13F0 DUP3 PUSH2 0x13F7 JUMP JUMPDEST SWAP1 POP SWAP2 SWAP1 POP JUMP JUMPDEST PUSH1 0x0 PUSH2 0x1402 DUP3 PUSH2 0x13A9 JUMP JUMPDEST SWAP1 POP SWAP2 SWAP1 POP JUMP JUMPDEST PUSH32 0x4E487B7100000000000000000000000000000000000000000000000000000000 PUSH1 0x0 MSTORE PUSH1 0x11 PUSH1 0x4 MSTORE PUSH1 0x24 PUSH1 0x0 REVERT JUMPDEST PUSH1 0x0 DUP1 REVERT JUMPDEST PUSH32 0x43616D706169676E206E6F742079657420656E64656400000000000000000000 PUSH1 0x0 DUP3 ADD MSTORE POP JUMP JUMPDEST PUSH32 0x4F776E61626C653A206E6577206F776E657220697320746865207A65726F2061 PUSH1 0x0 DUP3 ADD MSTORE PUSH32 0x6464726573730000000000000000000000000000000000000000000000000000 PUSH1 0x20 DUP3 ADD MSTORE POP JUMP JUMPDEST PUSH32 0x546869732061756374696F6E2068617320656E64656400000000000000000000 PUSH1 0x0 DUP3 ADD MSTORE POP JUMP JUMPDEST PUSH32 0x4F776E61626C653A2063616C6C6572206973206E6F7420746865206F776E6572 PUSH1 0x0 DUP3 ADD MSTORE POP JUMP JUMPDEST PUSH32 0x4E4654207472616E73666572206661696C656400000000000000000000000000 PUSH1 0x0 DUP3 ADD MSTORE POP JUMP JUMPDEST PUSH32 0x54686520616D6F756E74206F6620546F6B656E2073656E74206973206C657373 PUSH1 0x0 DUP3 ADD MSTORE PUSH32 0x207468616E207468652070726963650000000000000000000000000000000000 PUSH1 0x20 DUP3 ADD MSTORE POP JUMP JUMPDEST PUSH2 0x1588 DUP2 PUSH2 0x1379 JUMP JUMPDEST DUP2 EQ PUSH2 0x1593 JUMPI PUSH1 0x0 DUP1 REVERT JUMPDEST POP JUMP JUMPDEST PUSH2 0x159F DUP2 PUSH2 0x138B JUMP JUMPDEST DUP2 EQ PUSH2 0x15AA JUMPI PUSH1 0x0 DUP1 REVERT JUMPDEST POP JUMP JUMPDEST PUSH2 0x15B6 DUP2 PUSH2 0x1397 JUMP JUMPDEST DUP2 EQ PUSH2 0x15C1 JUMPI PUSH1 0x0 DUP1 REVERT JUMPDEST POP JUMP JUMPDEST PUSH2 0x15CD DUP2 PUSH2 0x13C9 JUMP JUMPDEST DUP2 EQ PUSH2 0x15D8 JUMPI PUSH1 0x0 DUP1 REVERT JUMPDEST POP JUMP INVALID LOG2 PUSH5 0x6970667358 0x22 SLT KECCAK256 CHAINID ADDRESS CODECOPY PC REVERT PUSH27 0x90BAF246DF840FDABB2C635A66DC03957CCB2CA01D60562BBACE64 PUSH20 0x6F6C63430008070033A2646970667358221220F4 SAR DUP9 MSTORE ADDRESS 0xE7 SWAP16 SSTORE 0xEB 0xC1 0xC5 0xDC 0x5E 0xC8 0xAF BALANCE SWAP8 JUMPI DUP6 GAS 0xC9 PUSH8 0xAD1851177BD1077D 0x22 0xB7 PUSH5 0x736F6C6343 STOP ADDMOD SMOD STOP CALLER "
    },
    "gasEstimates": {
      "creation": {
        "codeDepositCost": "2645000",
        "executionCost": "infinite",
        "totalCost": "infinite"
      },
      "external": {
        "addWhiteLister(address)": "27141",
        "campaignCount()": "2451",
        "campaigns(uint256)": "infinite",
        "createNftCampaign(string,string,address,uint256,uint256,uint256,uint256)": "infinite",
        "getCampaign(uint256)": "infinite",
        "isWhiteLister(address)": "2906",
        "owner()": "2566",
        "removeWhiteLister(address)": "27097",
        "renounceOwnership()": "30374",
        "transferOwnership(address)": "30811"
      }
    },
    "methodIdentifiers": {
      "addWhiteLister(address)": "612108df",
      "campaignCount()": "7274e30d",
      "campaigns(uint256)": "141961bc",
      "createNftCampaign(string,string,address,uint256,uint256,uint256,uint256)": "c208b12d",
      "getCampaign(uint256)": "5598f8cc",
      "isWhiteLister(address)": "2b9c9cdd",
      "owner()": "8da5cb5b",
      "removeWhiteLister(address)": "2e68b581",
      "renounceOwnership()": "715018a6",
      "transferOwnership(address)": "f2fde38b"
    }
  },
  "abi": [
    {
      "inputs": [],
      "stateMutability": "nonpayable",
      "type": "constructor"
    },
    {
      "anonymous": false,
      "inputs": [
        {
          "indexed": false,
          "internalType": "address",
          "name": "campaignAddress",
          "type": "address"
        },
        {
          "indexed": false,
          "internalType": "string",
          "name": "name",
          "type": "string"
        },
        {
          "indexed": false,
          "internalType": "string",
          "name": "description",
          "type": "string"
        },
        {
          "indexed": false,
          "internalType": "address",
          "name": "nft",
          "type": "address"
        },
        {
          "indexed": false,
          "internalType": "uint256",
          "name": "tokenId",
          "type": "uint256"
        },
        {
          "indexed": false,
          "internalType": "uint256",
          "name": "startingPrice",
          "type": "uint256"
        },
        {
          "indexed": false,
          "internalType": "uint256",
          "name": "lastPrice",
          "type": "uint256"
        },
        {
          "indexed": false,
          "internalType": "uint256",
          "name": "discountRate",
          "type": "uint256"
        },
        {
          "indexed": false,
          "internalType": "uint256",
          "name": "end",
          "type": "uint256"
        },
        {
          "indexed": false,
          "internalType": "address",
          "name": "creator",
          "type": "address"
        },
        {
          "indexed": false,
          "internalType": "bool",
          "name": "isStart",
          "type": "bool"
        },
        {
          "indexed": false,
          "internalType": "uint256",
          "name": "sellPrice",
          "type": "uint256"
        },
        {
          "indexed": false,
          "internalType": "string",
          "name": "buyer",
          "type": "string"
        }
      ],
      "name": "NftCampaignCreated",
      "type": "event"
    },
    {
      "anonymous": false,
      "inputs": [
        {
          "indexed": true,
          "internalType": "address",
          "name": "previousOwner",
          "type": "address"
        },
        {
          "indexed": true,
          "internalType": "address",
          "name": "newOwner",
          "type": "address"
        }
      ],
      "name": "OwnershipTransferred",
      "type": "event"
    },
    {
      "inputs": [
        {
          "internalType": "address",
          "name": "user",
          "type": "address"
        }
      ],
      "name": "addWhiteLister",
      "outputs": [],
      "stateMutability": "nonpayable",
      "type": "function"
    },
    {
      "inputs": [],
      "name": "campaignCount",
      "outputs": [
        {
          "internalType": "uint256",
          "name": "",
          "type": "uint256"
        }
      ],
      "stateMutability": "view",
      "type": "function"
    },
    {
      "inputs": [
        {
          "internalType": "uint256",
          "name": "",
          "type": "uint256"
        }
      ],
      "name": "campaigns",
      "outputs": [
        {
          "internalType": "address",
          "name": "creator",
          "type": "address"
        },
        {
          "internalType": "address",
          "name": "campaignAddress",
          "type": "address"
        }
      ],
      "stateMutability": "view",
      "type": "function"
    },
    {
      "inputs": [
        {
          "internalType": "string",
          "name": "name",
          "type": "string"
        },
        {
          "internalType": "string",
          "name": "description",
          "type": "string"
        },
        {
          "internalType": "address",
          "name": "_address",
          "type": "address"
        },
        {
          "internalType": "uint256",
          "name": "_tokenId",
          "type": "uint256"
        },
        {
          "internalType": "uint256",
          "name": "_startingPrice",
          "type": "uint256"
        },
        {
          "internalType": "uint256",
          "name": "_lastPrice",
          "type": "uint256"
        },
        {
          "internalType": "uint256",
          "name": "_discountRate",
          "type": "uint256"
        }
      ],
      "name": "createNftCampaign",
      "outputs": [],
      "stateMutability": "nonpayable",
      "type": "function"
    },
    {
      "inputs": [
        {
          "internalType": "uint256",
          "name": "campaignId",
          "type": "uint256"
        }
      ],
      "name": "getCampaign",
      "outputs": [
        {
          "internalType": "address",
          "name": "",
          "type": "address"
        },
        {
          "internalType": "address",
          "name": "",
          "type": "address"
        }
      ],
      "stateMutability": "view",
      "type": "function"
    },
    {
      "inputs": [
        {
          "internalType": "address",
          "name": "user",
          "type": "address"
        }
      ],
      "name": "isWhiteLister",
      "outputs": [
        {
          "internalType": "bool",
          "name": "",
          "type": "bool"
        }
      ],
      "stateMutability": "view",
      "type": "function"
    },
    {
      "inputs": [],
      "name": "owner",
      "outputs": [
        {
          "internalType": "address",
          "name": "",
          "type": "address"
        }
      ],
      "stateMutability": "view",
      "type": "function"
    },
    {
      "inputs": [
        {
          "internalType": "address",
          "name": "user",
          "type": "address"
        }
      ],
      "name": "removeWhiteLister",
      "outputs": [],
      "stateMutability": "nonpayable",
      "type": "function"
    },
    {
      "inputs": [],
      "name": "renounceOwnership",
      "outputs": [],
      "stateMutability": "nonpayable",
      "type": "function"
    },
    {
      "inputs": [
        {
          "internalType": "address",
          "name": "newOwner",
          "type": "address"
        }
      ],
      "name": "transferOwnership",
      "outputs": [],
      "stateMutability": "nonpayable",
      "type": "function"
    }
  ]
}