{
  "data": {
    "bytecode": {
      "linkReferences": {},
      "object": "60a06040523480156200001157600080fd5b50604051620073e2380380620073e283398181016040528101906200003791906200046e565b620000576200004b6200011e60201b60201c565b6200012660201b60201c565b84600190805190602001906200006f92919062000329565b5083600290805190602001906200008892919062000329565b508260039080519060200190620000a192919062000329565b508160049080519060200190620000ba92919062000329565b508073ffffffffffffffffffffffffffffffffffffffff1660808173ffffffffffffffffffffffffffffffffffffffff1660601b815250506200010381620001ea60201b60201c565b6001600581905550600260078190555050505050506200085f565b600033905090565b60008060009054906101000a900473ffffffffffffffffffffffffffffffffffffffff169050816000806101000a81548173ffffffffffffffffffffffffffffffffffffffff021916908373ffffffffffffffffffffffffffffffffffffffff1602179055508173ffffffffffffffffffffffffffffffffffffffff168173ffffffffffffffffffffffffffffffffffffffff167f8be0079c531659141344cd1fd0a4f28419497f9722a3daafe3b4186f6b6457e060405160405180910390a35050565b620001fa6200011e60201b60201c565b73ffffffffffffffffffffffffffffffffffffffff16620002206200030060201b60201c565b73ffffffffffffffffffffffffffffffffffffffff161462000279576040517f08c379a00000000000000000000000000000000000000000000000000000000081526004016200027090620005e2565b60405180910390fd5b600073ffffffffffffffffffffffffffffffffffffffff168173ffffffffffffffffffffffffffffffffffffffff161415620002ec576040517f08c379a0000000000000000000000000000000000000000000000000000000008152600401620002e390620005c0565b60405180910390fd5b620002fd816200012660201b60201c565b50565b60008060009054906101000a900473ffffffffffffffffffffffffffffffffffffffff16905090565b8280546200033790620006de565b90600052602060002090601f0160209004810192826200035b5760008555620003a7565b82601f106200037657805160ff1916838001178555620003a7565b82800160010185558215620003a7579182015b82811115620003a657825182559160200191906001019062000389565b5b509050620003b69190620003ba565b5090565b5b80821115620003d5576000816000905550600101620003bb565b5090565b6000620003f0620003ea846200062d565b62000604565b9050828152602081018484840111156200040f576200040e620007ad565b5b6200041c848285620006a8565b509392505050565b600081519050620004358162000845565b92915050565b600082601f830112620004535762000452620007a8565b5b815162000465848260208601620003d9565b91505092915050565b600080600080600060a086880312156200048d576200048c620007b7565b5b600086015167ffffffffffffffff811115620004ae57620004ad620007b2565b5b620004bc888289016200043b565b955050602086015167ffffffffffffffff811115620004e057620004df620007b2565b5b620004ee888289016200043b565b945050604086015167ffffffffffffffff811115620005125762000511620007b2565b5b62000520888289016200043b565b935050606086015167ffffffffffffffff811115620005445762000543620007b2565b5b62000552888289016200043b565b9250506080620005658882890162000424565b9150509295509295909350565b60006200058160268362000663565b91506200058e82620007cd565b604082019050919050565b6000620005a860208362000663565b9150620005b5826200081c565b602082019050919050565b60006020820190508181036000830152620005db8162000572565b9050919050565b60006020820190508181036000830152620005fd8162000599565b9050919050565b60006200061062000623565b90506200061e828262000714565b919050565b6000604051905090565b600067ffffffffffffffff8211156200064b576200064a62000779565b5b6200065682620007bc565b9050602081019050919050565b600082825260208201905092915050565b6000620006818262000688565b9050919050565b600073ffffffffffffffffffffffffffffffffffffffff82169050919050565b60005b83811015620006c8578082015181840152602081019050620006ab565b83811115620006d8576000848401525b50505050565b60006002820490506001821680620006f757607f821691505b602082108114156200070e576200070d6200074a565b5b50919050565b6200071f82620007bc565b810181811067ffffffffffffffff8211171562000741576200074062000779565b5b80604052505050565b7f4e487b7100000000000000000000000000000000000000000000000000000000600052602260045260246000fd5b7f4e487b7100000000000000000000000000000000000000000000000000000000600052604160045260246000fd5b600080fd5b600080fd5b600080fd5b600080fd5b6000601f19601f8301169050919050565b7f4f776e61626c653a206e6577206f776e657220697320746865207a65726f206160008201527f6464726573730000000000000000000000000000000000000000000000000000602082015250565b7f4f776e61626c653a2063616c6c6572206973206e6f7420746865206f776e6572600082015250565b620008508162000674565b81146200085c57600080fd5b50565b60805160601c616b41620008a1600039600081816105e1015281816108fb01528181610b5801528181610bf501528181611e55015261225a0152616b416000f3fe60806040523480156200001157600080fd5b5060043610620001d25760003560e01c8063715018a61162000111578063a9c5884411620000a5578063e7bda8f8116200007b578063e7bda8f81462000547578063f2f915191462000569578063f2fde38b146200059f578063fd66ed8e14620005bf57620001d2565b8063a9c5884414620004c4578063b6f3709314620004e4578063d1dbe7d8146200050657620001d2565b80638da5cb5b11620000e75780638da5cb5b14620004275780638f52b4dd1462000449578063a9647f411462000469578063a9a99c0d14620004a457620001d2565b8063715018a614620003d95780637284e41614620003e557806379de8d35146200040757620001d2565b8063339fbdbb11620001895780634b2a10a6116200015f5780634b2a10a614620003295780634f0086fc146200035f5780636347a37714620003955780636ae3638c14620003b757620001d2565b8063339fbdbb146200029b5780633c28cae214620002d15780633e7d7ff2146200030757620001d2565b806302d05d3f14620001d757806306fdde0314620001f95780631163705d146200021b57806314174f33146200023b5780631614665c146200025b578063252891ba146200027b575b600080fd5b620001e1620005df565b604051620001f09190620035e1565b60405180910390f35b6200020362000603565b60405162000212919062003809565b60405180910390f35b62000239600480360381019062000233919062003056565b62000699565b005b62000259600480360381019062000253919062003056565b620006e9565b005b62000279600480360381019062000273919062003101565b620009a3565b005b620002996004803603810190620002939190620030ba565b62000d33565b005b620002b96004803603810190620002b3919062002e72565b62000fc1565b604051620002c89190620037ec565b60405180910390f35b620002ef6004803603810190620002e9919062003056565b62001017565b604051620002fe9190620037ec565b60405180910390f35b62000311620012ac565b60405162000320919062003809565b60405180910390f35b62000347600480360381019062000341919062003148565b62001342565b604051620003569190620035e1565b60405180910390f35b6200037d600480360381019062000377919062003056565b620016d2565b6040516200038c9190620037ec565b60405180910390f35b6200039f62001943565b604051620003ae919062003b1a565b60405180910390f35b620003c162001949565b604051620003d0919062003b1a565b60405180910390f35b620003e36200194f565b005b620003ef620019e0565b604051620003fe919062003809565b60405180910390f35b6200042560048036038101906200041f919062002e72565b62001a76565b005b6200043162001b54565b604051620004409190620035e1565b60405180910390f35b62000467600480360381019062000461919062002f4f565b62001b7d565b005b62000487600480360381019062000481919062002ed6565b62001daf565b6040516200049b969594939291906200382d565b60405180910390f35b620004c26004803603810190620004bc919062002e72565b620020db565b005b620004e26004803603810190620004dc919062002f08565b620021b9565b005b620004ee620022f4565b604051620004fd919062003809565b60405180910390f35b6200052460048036038101906200051e919062003056565b6200238a565b6040516200053e9c9b9a9998979695949392919062003c22565b60405180910390f35b62000551620024b4565b60405162000560919062003b1a565b60405180910390f35b62000587600480360381019062000581919062003056565b620024ba565b604051620005969190620035e1565b60405180910390f35b620005bd6004803603810190620005b7919062002e72565b620024ed565b005b620005dd6004803603810190620005d7919062003056565b620025f1565b005b7f000000000000000000000000000000000000000000000000000000000000000081565b60018054620006129062004023565b80601f0160208091040260200160405190810160405280929190818152602001828054620006409062004023565b8015620006915780601f10620006655761010080835404028352916020019162000691565b820191906000526020600020905b8154815290600101906020018083116200067357829003601f168201915b505050505081565b60008111620006df576040517f08c379a0000000000000000000000000000000000000000000000000000000008152600401620006d69062003af8565b60405180910390fd5b8060078190555050565b620006f3620028b1565b73ffffffffffffffffffffffffffffffffffffffff166200071362001b54565b73ffffffffffffffffffffffffffffffffffffffff16146200076c576040517f08c379a00000000000000000000000000000000000000000000000000000000081526004016200076390620039a4565b60405180910390fd5b6001600960008381526020019081526020016000206007015414620007c8576040517f08c379a0000000000000000000000000000000000000000000000000000000008152600401620007bf9062003a92565b60405180910390fd5b600115156009600083815260200190815260200160002060080160009054906101000a900460ff1615151462000835576040517f08c379a00000000000000000000000000000000000000000000000000000000081526004016200082c9062003a0a565b60405180910390fd5b6000151560096000838152602001908152602001600020600a0160009054906101000a900460ff16151514620008a2576040517f08c379a00000000000000000000000000000000000000000000000000000000081526004016200089990620038b6565b60405180910390fd5b60006009600083815260200190815260200160002090508060080160019054906101000a900473ffffffffffffffffffffffffffffffffffffffff1673ffffffffffffffffffffffffffffffffffffffff1663a9059cbb7f000000000000000000000000000000000000000000000000000000000000000083600901546040518363ffffffff1660e01b81526004016200093e92919062003731565b602060405180830381600087803b1580156200095957600080fd5b505af11580156200096e573d6000803e3d6000fd5b505050506040513d601f19601f8201168201806040525081019062000994919062002ea4565b50600281600701819055505050565b6005548210620009ea576040517f08c379a0000000000000000000000000000000000000000000000000000000008152600401620009e19062003982565b60405180910390fd5b620009f68233620028b9565b62000a38576040517f08c379a000000000000000000000000000000000000000000000000000000000815260040162000a2f9062003ab4565b60405180910390fd5b6009600083815260200190815260200160002060060160003373ffffffffffffffffffffffffffffffffffffffff1673ffffffffffffffffffffffffffffffffffffffff16815260200190815260200160002060009054906101000a900460ff161562000adc576040517f08c379a000000000000000000000000000000000000000000000000000000000815260040162000ad3906200391c565b60405180910390fd5b600960008381526020019081526020016000206002015443111562000b38576040517f08c379a000000000000000000000000000000000000000000000000000000000815260040162000b2f90620039c6565b60405180910390fd5b6000600960008481526020019081526020016000209050811562000bf3577f000000000000000000000000000000000000000000000000000000000000000073ffffffffffffffffffffffffffffffffffffffff163373ffffffffffffffffffffffffffffffffffffffff16141562000bd05760075481600301600082825462000bc3919062003e3b565b9250508190555062000bed565b80600301600081548092919062000be7906200408f565b91905055505b62000c8b565b7f000000000000000000000000000000000000000000000000000000000000000073ffffffffffffffffffffffffffffffffffffffff163373ffffffffffffffffffffffffffffffffffffffff16141562000c6d5760075481600401600082825462000c60919062003e3b565b9250508190555062000c8a565b80600401600081548092919062000c84906200408f565b91905055505b5b60018160060160003373ffffffffffffffffffffffffffffffffffffffff1673ffffffffffffffffffffffffffffffffffffffff16815260200190815260200160002060006101000a81548160ff0219169083151502179055507f97a3ed91f0b116dc155f238ac92aa5b825720a7bb096f53156e05d9c8ab6a30a8160030154826004015433868660405162000d2695949392919062003cfb565b60405180910390a1505050565b60011515600860003373ffffffffffffffffffffffffffffffffffffffff1673ffffffffffffffffffffffffffffffffffffffff16815260200190815260200160002060009054906101000a900460ff161515151462000dca576040517f08c379a000000000000000000000000000000000000000000000000000000000815260040162000dc19062003a4e565b60405180910390fd5b600160096000848152602001908152602001600020600701541462000e26576040517f08c379a000000000000000000000000000000000000000000000000000000000815260040162000e1d906200393e565b60405180910390fd5b600115156009600084815260200190815260200160002060080160009054906101000a900460ff1615151462000e93576040517f08c379a000000000000000000000000000000000000000000000000000000000815260040162000e8a9062003960565b60405180910390fd5b6001151560096000848152602001908152602001600020600a0160009054906101000a900460ff1615151462000f00576040517f08c379a000000000000000000000000000000000000000000000000000000000815260040162000ef79062003a70565b60405180910390fd5b60006009600084815260200190815260200160002090508060080160019054906101000a900473ffffffffffffffffffffffffffffffffffffffff1673ffffffffffffffffffffffffffffffffffffffff166323b872dd308484600901546040518463ffffffff1660e01b815260040162000f7e93929190620035fe565b600060405180830381600087803b15801562000f9957600080fd5b505af115801562000fae573d6000803e3d6000fd5b5050505060028160070181905550505050565b6000600860008373ffffffffffffffffffffffffffffffffffffffff1673ffffffffffffffffffffffffffffffffffffffff16815260200190815260200160002060009054906101000a900460ff169050919050565b600060011515600860003373ffffffffffffffffffffffffffffffffffffffff1673ffffffffffffffffffffffffffffffffffffffff16815260200190815260200160002060009054906101000a900460ff1615151514620010b0576040517f08c379a0000000000000000000000000000000000000000000000000000000008152600401620010a79062003a4e565b60405180910390fd5b600060096000848152602001908152602001600020905060055483106200110e576040517f08c379a0000000000000000000000000000000000000000000000000000000008152600401620011059062003982565b60405180910390fd5b600081600701541462001158576040517f08c379a00000000000000000000000000000000000000000000000000000000081526004016200114f90620038d8565b60405180910390fd5b62001163836200299a565b80620011a7575080600301546007546001836005018054905062001188919062003f31565b62001194919062003e3b565b620011a0919062003f31565b8160030154115b620011e9576040517f08c379a0000000000000000000000000000000000000000000000000000000008152600401620011e09062003ad6565b60405180910390fd5b6009600084815260200190815260200160002060030154600960008581526020019081526020016000206004015410156200123c5760018160080160006101000a81548160ff0219169083151502179055505b7f4556fcf667ee704924eea359363d28f06708b744ad113340982b07ef9919fb91838260080160009054906101000a900460ff166040516200128092919062003b37565b60405180910390a1600181600701819055508060080160009054906101000a900460ff16915050919050565b60038054620012bb9062004023565b80601f0160208091040260200160405190810160405280929190818152602001828054620012e99062004023565b80156200133a5780601f106200130e576101008083540402835291602001916200133a565b820191906000526020600020905b8154815290600101906020018083116200131c57829003601f168201915b505050505081565b600060011515600860003373ffffffffffffffffffffffffffffffffffffffff1673ffffffffffffffffffffffffffffffffffffffff16815260200190815260200160002060009054906101000a900460ff1615151514620013db576040517f08c379a0000000000000000000000000000000000000000000000000000000008152600401620013d29062003a4e565b60405180910390fd5b600160096000868152602001908152602001600020600701541462001437576040517f08c379a00000000000000000000000000000000000000000000000000000000081526004016200142e9062003a92565b60405180910390fd5b600115156009600086815260200190815260200160002060080160009054906101000a900460ff16151514620014a4576040517f08c379a00000000000000000000000000000000000000000000000000000000081526004016200149b9062003960565b60405180910390fd5b6001151560096000868152602001908152602001600020600a0160009054906101000a900460ff1615151462001511576040517f08c379a0000000000000000000000000000000000000000000000000000000008152600401620015089062003a70565b60405180910390fd5b60006009600086815260200190815260200160002090506000429050600062093a804262001540919062003e3b565b9050600062093a8084600c015485600b01546200155e919062003f31565b6200156a919062003e98565b905060008460080160019054906101000a900473ffffffffffffffffffffffffffffffffffffffff16856009015486600b015487600c015485308989604051620015b49062002b6f565b620015c79897969594939291906200375e565b604051809103906000f080158015620015e4573d6000803e3d6000fd5b50905080600a60008b815260200190815260200160002060006101000a81548173ffffffffffffffffffffffffffffffffffffffff021916908373ffffffffffffffffffffffffffffffffffffffff160217905550600385600701819055507f2f5bb6b4cde88b5e9759ff8455c92de89d53f58958d6a16951c91c08369f40c48189898860080160019054906101000a900473ffffffffffffffffffffffffffffffffffffffff1689600901548a600b01548b600c0154898b33600080604051620016bb9c9b9a999897969594939291906200363b565b60405180910390a180955050505050509392505050565b600060011515600860003373ffffffffffffffffffffffffffffffffffffffff1673ffffffffffffffffffffffffffffffffffffffff16815260200190815260200160002060009054906101000a900460ff16151515146200176b576040517f08c379a0000000000000000000000000000000000000000000000000000000008152600401620017629062003a4e565b60405180910390fd5b6005548210620017b2576040517f08c379a0000000000000000000000000000000000000000000000000000000008152600401620017a99062003982565b60405180910390fd5b600960008381526020019081526020016000206002015442116200180d576040517f08c379a00000000000000000000000000000000000000000000000000000000081526004016200180490620039e8565b60405180910390fd5b600060096000848152602001908152602001600020600701541462001869576040517f08c379a00000000000000000000000000000000000000000000000000000000081526004016200186090620038d8565b60405180910390fd5b6000600960008481526020019081526020016000209050600960008481526020019081526020016000206003015460096000858152602001908152602001600020600401541015620018d35760018160080160006101000a81548160ff0219169083151502179055505b600181600701819055507f4556fcf667ee704924eea359363d28f06708b744ad113340982b07ef9919fb91838260080160009054906101000a900460ff166040516200192192919062003b37565b60405180910390a18060080160009054906101000a900460ff16915050919050565b60065481565b60055481565b62001959620028b1565b73ffffffffffffffffffffffffffffffffffffffff166200197962001b54565b73ffffffffffffffffffffffffffffffffffffffff1614620019d2576040517f08c379a0000000000000000000000000000000000000000000000000000000008152600401620019c990620039a4565b60405180910390fd5b620019de600062002aab565b565b60028054620019ef9062004023565b80601f016020809104026020016040519081016040528092919081815260200182805462001a1d9062004023565b801562001a6e5780601f1062001a425761010080835404028352916020019162001a6e565b820191906000526020600020905b81548152906001019060200180831162001a5057829003601f168201915b505050505081565b62001a80620028b1565b73ffffffffffffffffffffffffffffffffffffffff1662001aa062001b54565b73ffffffffffffffffffffffffffffffffffffffff161462001af9576040517f08c379a000000000000000000000000000000000000000000000000000000000815260040162001af090620039a4565b60405180910390fd5b6000600860008373ffffffffffffffffffffffffffffffffffffffff1673ffffffffffffffffffffffffffffffffffffffff16815260200190815260200160002060006101000a81548160ff02191690831515021790555050565b60008060009054906101000a900473ffffffffffffffffffffffffffffffffffffffff16905090565b60011515600860003373ffffffffffffffffffffffffffffffffffffffff1673ffffffffffffffffffffffffffffffffffffffff16815260200190815260200160002060009054906101000a900460ff161515151462001c14576040517f08c379a000000000000000000000000000000000000000000000000000000000815260040162001c0b9062003a4e565b60405180910390fd5b6000600960006005548152602001908152602001600020905060055481600001819055508881600101908051906020019062001c5292919062002b7d565b50603c8060188762001c65919062003ed0565b62001c71919062003ed0565b62001c7d919062003ed0565b4262001c8a919062003e3b565b81600201819055508781600501908051906020019062001cac92919062002c0e565b5060008160070181905550868160080160016101000a81548173ffffffffffffffffffffffffffffffffffffffff021916908373ffffffffffffffffffffffffffffffffffffffff160217905550858160090181905550831562001d39578381600a0160006101000a81548160ff0219169083151502179055508281600b01819055508181600c01819055505b7f34bd6ca319029d63211effd148e6e49d375ff026ea6fdcfeb4f63a2de6d6e5446005548a83600201548b8b8b338b8b8b60405162001d829a9998979695949392919062003b64565b60405180910390a16005600081548092919062001d9f906200408f565b9190505550505050505050505050565b60608060608060008060008773ffffffffffffffffffffffffffffffffffffffff166370a08231306040518263ffffffff1660e01b815260040162001df59190620035e1565b60206040518083038186803b15801562001e0e57600080fd5b505afa15801562001e23573d6000803e3d6000fd5b505050506040513d601f19601f8201168201806040525081019062001e49919062003088565b905060016002600360047f00000000000000000000000000000000000000000000000000000000000000008585805462001e839062004023565b80601f016020809104026020016040519081016040528092919081815260200182805462001eb19062004023565b801562001f025780601f1062001ed65761010080835404028352916020019162001f02565b820191906000526020600020905b81548152906001019060200180831162001ee457829003601f168201915b5050505050955084805462001f179062004023565b80601f016020809104026020016040519081016040528092919081815260200182805462001f459062004023565b801562001f965780601f1062001f6a5761010080835404028352916020019162001f96565b820191906000526020600020905b81548152906001019060200180831162001f7857829003601f168201915b5050505050945083805462001fab9062004023565b80601f016020809104026020016040519081016040528092919081815260200182805462001fd99062004023565b80156200202a5780601f1062001ffe576101008083540402835291602001916200202a565b820191906000526020600020905b8154815290600101906020018083116200200c57829003601f168201915b505050505093508280546200203f9062004023565b80601f01602080910402602001604051908101604052809291908181526020018280546200206d9062004023565b8015620020be5780601f106200209257610100808354040283529160200191620020be565b820191906000526020600020905b815481529060010190602001808311620020a057829003601f168201915b505050505092509650965096509650965096505091939550919395565b620020e5620028b1565b73ffffffffffffffffffffffffffffffffffffffff166200210562001b54565b73ffffffffffffffffffffffffffffffffffffffff16146200215e576040517f08c379a00000000000000000000000000000000000000000000000000000000081526004016200215590620039a4565b60405180910390fd5b6001600860008373ffffffffffffffffffffffffffffffffffffffff1673ffffffffffffffffffffffffffffffffffffffff16815260200190815260200160002060006101000a81548160ff02191690831515021790555050565b620021c3620028b1565b73ffffffffffffffffffffffffffffffffffffffff16620021e362001b54565b73ffffffffffffffffffffffffffffffffffffffff16146200223c576040517f08c379a00000000000000000000000000000000000000000000000000000000081526004016200223390620039a4565b60405180910390fd5b8173ffffffffffffffffffffffffffffffffffffffff1663a9059cbb7f0000000000000000000000000000000000000000000000000000000000000000836040518363ffffffff1660e01b81526004016200229992919062003731565b602060405180830381600087803b158015620022b457600080fd5b505af1158015620022c9573d6000803e3d6000fd5b505050506040513d601f19601f82011682018060405250810190620022ef919062002ea4565b505050565b60048054620023039062004023565b80601f0160208091040260200160405190810160405280929190818152602001828054620023319062004023565b8015620023825780601f10620023565761010080835404028352916020019162002382565b820191906000526020600020905b8154815290600101906020018083116200236457829003601f168201915b505050505081565b6009602052806000526040600020600091509050806000015490806001018054620023b59062004023565b80601f0160208091040260200160405190810160405280929190818152602001828054620023e39062004023565b8015620024345780601f10620024085761010080835404028352916020019162002434565b820191906000526020600020905b8154815290600101906020018083116200241657829003601f168201915b5050505050908060020154908060030154908060040154908060070154908060080160009054906101000a900460ff16908060080160019054906101000a900473ffffffffffffffffffffffffffffffffffffffff169080600901549080600a0160009054906101000a900460ff169080600b01549080600c015490508c565b60075481565b600a6020528060005260406000206000915054906101000a900473ffffffffffffffffffffffffffffffffffffffff1681565b620024f7620028b1565b73ffffffffffffffffffffffffffffffffffffffff166200251762001b54565b73ffffffffffffffffffffffffffffffffffffffff161462002570576040517f08c379a00000000000000000000000000000000000000000000000000000000081526004016200256790620039a4565b60405180910390fd5b600073ffffffffffffffffffffffffffffffffffffffff168173ffffffffffffffffffffffffffffffffffffffff161415620025e3576040517f08c379a0000000000000000000000000000000000000000000000000000000008152600401620025da90620038fa565b60405180910390fd5b620025ee8162002aab565b50565b60011515600860003373ffffffffffffffffffffffffffffffffffffffff1673ffffffffffffffffffffffffffffffffffffffff16815260200190815260200160002060009054906101000a900460ff161515151462002688576040517f08c379a00000000000000000000000000000000000000000000000000000000081526004016200267f9062003a4e565b60405180910390fd5b6003600960008381526020019081526020016000206007015414620026e4576040517f08c379a0000000000000000000000000000000000000000000000000000000008152600401620026db9062003a2c565b60405180910390fd5b600115156009600083815260200190815260200160002060080160009054906101000a900460ff1615151462002751576040517f08c379a0000000000000000000000000000000000000000000000000000000008152600401620027489062003960565b60405180910390fd5b6001151560096000838152602001908152602001600020600a0160009054906101000a900460ff16151514620027be576040517f08c379a0000000000000000000000000000000000000000000000000000000008152600401620027b59062003a70565b60405180910390fd5b60006009600083815260200190815260200160002090508060080160019054906101000a900473ffffffffffffffffffffffffffffffffffffffff1673ffffffffffffffffffffffffffffffffffffffff166323b872dd30600a600086815260200190815260200160002060009054906101000a900473ffffffffffffffffffffffffffffffffffffffff1684600901546040518463ffffffff1660e01b81526004016200286f93929190620035fe565b600060405180830381600087803b1580156200288a57600080fd5b505af11580156200289f573d6000803e3d6000fd5b50505050600281600701819055505050565b600033905090565b600080600090505b60096000858152602001908152602001600020600501805490508110156200298e578273ffffffffffffffffffffffffffffffffffffffff166009600086815260200190815260200160002060050182815481106200292557620029246200416a565b5b9060005260206000200160009054906101000a900473ffffffffffffffffffffffffffffffffffffffff1673ffffffffffffffffffffffffffffffffffffffff1614156200297857600191505062002994565b808062002985906200408f565b915050620028c1565b50600090505b92915050565b600080600090505b600960008481526020019081526020016000206005018054905081101562002aa05760096000848152602001908152602001600020600601600060096000868152602001908152602001600020600501838154811062002a075762002a066200416a565b5b9060005260206000200160009054906101000a900473ffffffffffffffffffffffffffffffffffffffff1673ffffffffffffffffffffffffffffffffffffffff1673ffffffffffffffffffffffffffffffffffffffff16815260200190815260200160002060009054906101000a900460ff1662002a8a57600091505062002aa6565b808062002a97906200408f565b915050620029a2565b50600190505b919050565b60008060009054906101000a900473ffffffffffffffffffffffffffffffffffffffff169050816000806101000a81548173ffffffffffffffffffffffffffffffffffffffff021916908373ffffffffffffffffffffffffffffffffffffffff1602179055508173ffffffffffffffffffffffffffffffffffffffff168173ffffffffffffffffffffffffffffffffffffffff167f8be0079c531659141344cd1fd0a4f28419497f9722a3daafe3b4186f6b6457e060405160405180910390a35050565b61245080620046bc83390190565b82805462002b8b9062004023565b90600052602060002090601f01602090048101928262002baf576000855562002bfb565b82601f1062002bca57805160ff191683800117855562002bfb565b8280016001018555821562002bfb579182015b8281111562002bfa57825182559160200191906001019062002bdd565b5b50905062002c0a919062002c9d565b5090565b82805482825590600052602060002090810192821562002c8a579160200282015b8281111562002c895782518260006101000a81548173ffffffffffffffffffffffffffffffffffffffff021916908373ffffffffffffffffffffffffffffffffffffffff1602179055509160200191906001019062002c2f565b5b50905062002c99919062002c9d565b5090565b5b8082111562002cb857600081600090555060010162002c9e565b5090565b600062002cd362002ccd8462003d81565b62003d58565b9050808382526020820190508285602086028201111562002cf95762002cf8620041cd565b5b60005b8581101562002d2d578162002d12888262002d82565b84526020840193506020830192505060018101905062002cfc565b5050509392505050565b600062002d4e62002d488462003db0565b62003d58565b90508281526020810184848401111562002d6d5762002d6c620041d2565b5b62002d7a84828562003fde565b509392505050565b60008135905062002d938162004653565b92915050565b600082601f83011262002db15762002db0620041c8565b5b813562002dc384826020860162002cbc565b91505092915050565b60008135905062002ddd816200466d565b92915050565b60008151905062002df4816200466d565b92915050565b60008135905062002e0b8162004687565b92915050565b600082601f83011262002e295762002e28620041c8565b5b813562002e3b84826020860162002d37565b91505092915050565b60008135905062002e5581620046a1565b92915050565b60008151905062002e6c81620046a1565b92915050565b60006020828403121562002e8b5762002e8a620041dc565b5b600062002e9b8482850162002d82565b91505092915050565b60006020828403121562002ebd5762002ebc620041dc565b5b600062002ecd8482850162002de3565b91505092915050565b60006020828403121562002eef5762002eee620041dc565b5b600062002eff8482850162002dfa565b91505092915050565b6000806040838503121562002f225762002f21620041dc565b5b600062002f328582860162002dfa565b925050602062002f458582860162002e44565b9150509250929050565b600080600080600080600080610100898b03121562002f735762002f72620041dc565b5b600089013567ffffffffffffffff81111562002f945762002f93620041d7565b5b62002fa28b828c0162002e11565b985050602089013567ffffffffffffffff81111562002fc65762002fc5620041d7565b5b62002fd48b828c0162002d99565b975050604062002fe78b828c0162002d82565b965050606062002ffa8b828c0162002e44565b95505060806200300d8b828c0162002e44565b94505060a0620030208b828c0162002dcc565b93505060c0620030338b828c0162002e44565b92505060e0620030468b828c0162002e44565b9150509295985092959890939650565b6000602082840312156200306f576200306e620041dc565b5b60006200307f8482850162002e44565b91505092915050565b600060208284031215620030a157620030a0620041dc565b5b6000620030b18482850162002e5b565b91505092915050565b60008060408385031215620030d457620030d3620041dc565b5b6000620030e48582860162002e44565b9250506020620030f78582860162002d82565b9150509250929050565b600080604083850312156200311b576200311a620041dc565b5b60006200312b8582860162002e44565b92505060206200313e8582860162002dcc565b9150509250929050565b600080600060608486031215620031645762003163620041dc565b5b6000620031748682870162002e44565b935050602084013567ffffffffffffffff811115620031985762003197620041d7565b5b620031a68682870162002e11565b925050604084013567ffffffffffffffff811115620031ca57620031c9620041d7565b5b620031d88682870162002e11565b9150509250925092565b6000620031f08383620031fc565b60208301905092915050565b620032078162003f6c565b82525050565b620032188162003f6c565b82525050565b60006200322b8262003df6565b62003237818562003e19565b9350620032448362003de6565b8060005b838110156200327b5781516200325f8882620031e2565b97506200326c8362003e0c565b92505060018101905062003248565b5085935050505092915050565b620032938162003f80565b82525050565b620032a48162003fca565b82525050565b6000620032b78262003e01565b620032c3818562003e2a565b9350620032d581856020860162003fed565b620032e081620041e1565b840191505092915050565b6000620032fa60228362003e2a565b91506200330782620041f2565b604082019050919050565b60006200332160138362003e2a565b91506200332e8262004241565b602082019050919050565b60006200334860268362003e2a565b915062003355826200426a565b604082019050919050565b60006200336f60278362003e2a565b91506200337c82620042b9565b604082019050919050565b600062003396601a8362003e2a565b9150620033a38262004308565b602082019050919050565b6000620033bd60288362003e2a565b9150620033ca8262004331565b604082019050919050565b6000620033e4601c8362003e2a565b9150620033f18262004380565b602082019050919050565b60006200340b60208362003e2a565b91506200341882620043a9565b602082019050919050565b60006200343260298362003e2a565b91506200343f82620043d2565b604082019050919050565b60006200345960128362003e2a565b9150620034668262004421565b602082019050919050565b600062003480601f8362003e2a565b91506200348d826200444a565b602082019050919050565b6000620034a760008362003e2a565b9150620034b48262004473565b600082019050919050565b6000620034ce603a8362003e2a565b9150620034db8262004476565b604082019050919050565b6000620034f560248362003e2a565b91506200350282620044c5565b604082019050919050565b60006200351c60318362003e2a565b9150620035298262004514565b604082019050919050565b600062003543601c8362003e2a565b9150620035508262004563565b602082019050919050565b60006200356a60218362003e2a565b915062003577826200458c565b604082019050919050565b600062003591602a8362003e2a565b91506200359e82620045db565b604082019050919050565b6000620035b8601b8362003e2a565b9150620035c5826200462a565b602082019050919050565b620035db8162003fc0565b82525050565b6000602082019050620035f860008301846200320d565b92915050565b60006060820190506200361560008301866200320d565b6200362460208301856200320d565b620036336040830184620035d0565b949350505050565b60006101a08201905062003653600083018f6200320d565b818103602083015262003667818e620032aa565b905081810360408301526200367d818d620032aa565b90506200368e606083018c6200320d565b6200369d608083018b620035d0565b620036ac60a083018a620035d0565b620036bb60c0830189620035d0565b620036ca60e0830188620035d0565b620036da610100830187620035d0565b620036ea6101208301866200320d565b620036fa61014083018562003288565b6200370a61016083018462003299565b8181036101808301526200371e8162003498565b90509d9c50505050505050505050505050565b60006040820190506200374860008301856200320d565b620037576020830184620035d0565b9392505050565b60006101008201905062003776600083018b6200320d565b62003785602083018a620035d0565b620037946040830189620035d0565b620037a36060830188620035d0565b620037b26080830187620035d0565b620037c160a08301866200320d565b620037d060c0830185620035d0565b620037df60e0830184620035d0565b9998505050505050505050565b600060208201905062003803600083018462003288565b92915050565b60006020820190508181036000830152620038258184620032aa565b905092915050565b600060c0820190508181036000830152620038498189620032aa565b905081810360208301526200385f8188620032aa565b90508181036040830152620038758187620032aa565b905081810360608301526200388b8186620032aa565b90506200389c60808301856200320d565b620038ab60a0830184620035d0565b979650505050505050565b60006020820190508181036000830152620038d181620032eb565b9050919050565b60006020820190508181036000830152620038f38162003312565b9050919050565b60006020820190508181036000830152620039158162003339565b9050919050565b60006020820190508181036000830152620039378162003360565b9050919050565b60006020820190508181036000830152620039598162003387565b9050919050565b600060208201905081810360008301526200397b81620033ae565b9050919050565b600060208201905081810360008301526200399d81620033d5565b9050919050565b60006020820190508181036000830152620039bf81620033fc565b9050919050565b60006020820190508181036000830152620039e18162003423565b9050919050565b6000602082019050818103600083015262003a03816200344a565b9050919050565b6000602082019050818103600083015262003a258162003471565b9050919050565b6000602082019050818103600083015262003a4781620034bf565b9050919050565b6000602082019050818103600083015262003a6981620034e6565b9050919050565b6000602082019050818103600083015262003a8b816200350d565b9050919050565b6000602082019050818103600083015262003aad8162003534565b9050919050565b6000602082019050818103600083015262003acf816200355b565b9050919050565b6000602082019050818103600083015262003af18162003582565b9050919050565b6000602082019050818103600083015262003b1381620035a9565b9050919050565b600060208201905062003b316000830184620035d0565b92915050565b600060408201905062003b4e6000830185620035d0565b62003b5d602083018462003288565b9392505050565b60006101408201905062003b7c600083018d620035d0565b818103602083015262003b90818c620032aa565b905062003ba1604083018b620035d0565b818103606083015262003bb5818a6200321e565b905062003bc660808301896200320d565b62003bd560a0830188620035d0565b62003be460c08301876200320d565b62003bf360e083018662003288565b62003c03610100830185620035d0565b62003c13610120830184620035d0565b9b9a5050505050505050505050565b60006101808201905062003c3a600083018f620035d0565b818103602083015262003c4e818e620032aa565b905062003c5f604083018d620035d0565b62003c6e606083018c620035d0565b62003c7d608083018b620035d0565b62003c8c60a083018a620035d0565b62003c9b60c083018962003288565b62003caa60e08301886200320d565b62003cba610100830187620035d0565b62003cca61012083018662003288565b62003cda610140830185620035d0565b62003cea610160830184620035d0565b9d9c50505050505050505050505050565b600060a08201905062003d126000830188620035d0565b62003d216020830187620035d0565b62003d3060408301866200320d565b62003d3f6060830185620035d0565b62003d4e608083018462003288565b9695505050505050565b600062003d6462003d77565b905062003d72828262004059565b919050565b6000604051905090565b600067ffffffffffffffff82111562003d9f5762003d9e62004199565b5b602082029050602081019050919050565b600067ffffffffffffffff82111562003dce5762003dcd62004199565b5b62003dd982620041e1565b9050602081019050919050565b6000819050602082019050919050565b600081519050919050565b600081519050919050565b6000602082019050919050565b600082825260208201905092915050565b600082825260208201905092915050565b600062003e488262003fc0565b915062003e558362003fc0565b9250827fffffffffffffffffffffffffffffffffffffffffffffffffffffffffffffffff0382111562003e8d5762003e8c620040dd565b5b828201905092915050565b600062003ea58262003fc0565b915062003eb28362003fc0565b92508262003ec55762003ec46200410c565b5b828204905092915050565b600062003edd8262003fc0565b915062003eea8362003fc0565b9250817fffffffffffffffffffffffffffffffffffffffffffffffffffffffffffffffff048311821515161562003f265762003f25620040dd565b5b828202905092915050565b600062003f3e8262003fc0565b915062003f4b8362003fc0565b92508282101562003f615762003f60620040dd565b5b828203905092915050565b600062003f798262003fa0565b9050919050565b60008115159050919050565b600062003f998262003f6c565b9050919050565b600073ffffffffffffffffffffffffffffffffffffffff82169050919050565b6000819050919050565b600062003fd78262003fc0565b9050919050565b82818337600083830152505050565b60005b838110156200400d57808201518184015260208101905062003ff0565b838111156200401d576000848401525b50505050565b600060028204905060018216806200403c57607f821691505b602082108114156200405357620040526200413b565b5b50919050565b6200406482620041e1565b810181811067ffffffffffffffff8211171562004086576200408562004199565b5b80604052505050565b60006200409c8262003fc0565b91507fffffffffffffffffffffffffffffffffffffffffffffffffffffffffffffffff821415620040d257620040d1620040dd565b5b600182019050919050565b7f4e487b7100000000000000000000000000000000000000000000000000000000600052601160045260246000fd5b7f4e487b7100000000000000000000000000000000000000000000000000000000600052601260045260246000fd5b7f4e487b7100000000000000000000000000000000000000000000000000000000600052602260045260246000fd5b7f4e487b7100000000000000000000000000000000000000000000000000000000600052603260045260246000fd5b7f4e487b7100000000000000000000000000000000000000000000000000000000600052604160045260246000fd5b600080fd5b600080fd5b600080fd5b600080fd5b600080fd5b6000601f19601f8301169050919050565b7f43616e27742077697468647261772069662070726f706f73616c20666f72204e60008201527f4654000000000000000000000000000000000000000000000000000000000000602082015250565b7f50726f706f73616c20697320636f756e74656400000000000000000000000000600082015250565b7f4f776e61626c653a206e6577206f776e657220697320746865207a65726f206160008201527f6464726573730000000000000000000000000000000000000000000000000000602082015250565b7f596f75206861766520616c726561647920766f746564206f6e2074686973205060008201527f726f706f73616c00000000000000000000000000000000000000000000000000602082015250565b7f50726f706f73616c206e6f742079657420656e642c2075736564000000000000600082015250565b7f43616e277420696e7465726163742077697468204e46542069662070726f706f60008201527f73616c206661696c000000000000000000000000000000000000000000000000602082015250565b7f546869732050726f706f73616c20646f6573206e6f7420657869737400000000600082015250565b7f4f776e61626c653a2063616c6c6572206973206e6f7420746865206f776e6572600082015250565b7f54686520646561646c696e65206861732070617373656420666f72207468697360008201527f2050726f706f73616c0000000000000000000000000000000000000000000000602082015250565b7f50726f706f73616c206e6f7420656e6465640000000000000000000000000000600082015250565b7f43616e27742077697468647261772069662070726f706f73616c206661696c00600082015250565b50565b7f50726f706f73616c206e6f742079657420656e642c2075736564206f72206e6f60008201527f7420637265617465204e465441756374696f6e206265666f7265000000000000602082015250565b7f4f776e61626c653a2063616c6c657220697320696e2074686520626c61636b2060008201527f6c69737400000000000000000000000000000000000000000000000000000000602082015250565b7f43616e277420696e7465726163742077697468204e46542069662070726f706f60008201527f73616c2069736e277420666f72204e4654000000000000000000000000000000602082015250565b7f50726f706f73616c206e6f742079657420656e64206f72207573656400000000600082015250565b7f596f752063616e206e6f7420766f7465206f6e20746869732050726f706f736160008201527f6c00000000000000000000000000000000000000000000000000000000000000602082015250565b7f4861766520766f746572206e6f7420766f746520796574206f7220766f74652060008201527f63616e2774207061737300000000000000000000000000000000000000000000602082015250565b7f56616c75652073686f756c642067726561746572207468616e20300000000000600082015250565b6200465e8162003f6c565b81146200466a57600080fd5b50565b620046788162003f80565b81146200468457600080fd5b50565b620046928162003f8c565b81146200469e57600080fd5b50565b620046ac8162003fc0565b8114620046b857600080fd5b5056fe6101806040523480156200001257600080fd5b50604051620024503803806200245083398181016040528101906200003891906200050d565b620000586200004c620002a260201b60201c565b620002aa60201b60201c565b8273ffffffffffffffffffffffffffffffffffffffff168873ffffffffffffffffffffffffffffffffffffffff16636352211e896040518263ffffffff1660e01b8152600401620000aa91906200070b565b60206040518083038186803b158015620000c357600080fd5b505afa158015620000d8573d6000803e3d6000fd5b505050506040513d601f19601f82011682018060405250810190620000fe9190620004db565b73ffffffffffffffffffffffffffffffffffffffff161462000157576040517f08c379a00000000000000000000000000000000000000000000000000000000081526004016200014e90620006c7565b60405180910390fd5b8773ffffffffffffffffffffffffffffffffffffffff1660808173ffffffffffffffffffffffffffffffffffffffff1660601b815250508660a081815250508273ffffffffffffffffffffffffffffffffffffffff1660c08173ffffffffffffffffffffffffffffffffffffffff1660601b815250508560e0818152505084610100818152505083610120818152505081610140818152505080610160818152505060008060146101000a81548160ff02191690831515021790555060008060156101000a81548160ff02191690831515021790555062093a80846200023e919062000739565b86101562000283576040517f08c379a00000000000000000000000000000000000000000000000000000000081526004016200027a90620006e9565b60405180910390fd5b62000294836200036e60201b60201c565b50505050505050506200090a565b600033905090565b60008060009054906101000a900473ffffffffffffffffffffffffffffffffffffffff169050816000806101000a81548173ffffffffffffffffffffffffffffffffffffffff021916908373ffffffffffffffffffffffffffffffffffffffff1602179055508173ffffffffffffffffffffffffffffffffffffffff168173ffffffffffffffffffffffffffffffffffffffff167f8be0079c531659141344cd1fd0a4f28419497f9722a3daafe3b4186f6b6457e060405160405180910390a35050565b6200037e620002a260201b60201c565b73ffffffffffffffffffffffffffffffffffffffff16620003a46200048460201b60201c565b73ffffffffffffffffffffffffffffffffffffffff1614620003fd576040517f08c379a0000000000000000000000000000000000000000000000000000000008152600401620003f490620006a5565b60405180910390fd5b600073ffffffffffffffffffffffffffffffffffffffff168173ffffffffffffffffffffffffffffffffffffffff16141562000470576040517f08c379a0000000000000000000000000000000000000000000000000000000008152600401620004679062000683565b60405180910390fd5b6200048181620002aa60201b60201c565b50565b60008060009054906101000a900473ffffffffffffffffffffffffffffffffffffffff16905090565b600081519050620004be81620008d6565b92915050565b600081519050620004d581620008f0565b92915050565b600060208284031215620004f457620004f362000807565b5b60006200050484828501620004ad565b91505092915050565b600080600080600080600080610100898b03121562000531576200053062000807565b5b6000620005418b828c01620004ad565b9850506020620005548b828c01620004c4565b9750506040620005678b828c01620004c4565b96505060606200057a8b828c01620004c4565b95505060806200058d8b828c01620004c4565b94505060a0620005a08b828c01620004ad565b93505060c0620005b38b828c01620004c4565b92505060e0620005c68b828c01620004c4565b9150509295985092959890939650565b6000620005e560268362000728565b9150620005f2826200080c565b604082019050919050565b60006200060c60208362000728565b915062000619826200085b565b602082019050919050565b60006200063360168362000728565b9150620006408262000884565b602082019050919050565b60006200065a60198362000728565b91506200066782620008ad565b602082019050919050565b6200067d81620007ce565b82525050565b600060208201905081810360008301526200069e81620005d6565b9050919050565b60006020820190508181036000830152620006c081620005fd565b9050919050565b60006020820190508181036000830152620006e28162000624565b9050919050565b6000602082019050818103600083015262000704816200064b565b9050919050565b600060208201905062000722600083018462000672565b92915050565b600082825260208201905092915050565b60006200074682620007ce565b91506200075383620007ce565b9250817fffffffffffffffffffffffffffffffffffffffffffffffffffffffffffffffff04831182151516156200078f576200078e620007d8565b5b828202905092915050565b6000620007a782620007ae565b9050919050565b600073ffffffffffffffffffffffffffffffffffffffff82169050919050565b6000819050919050565b7f4e487b7100000000000000000000000000000000000000000000000000000000600052601160045260246000fd5b600080fd5b7f4f776e61626c653a206e6577206f776e657220697320746865207a65726f206160008201527f6464726573730000000000000000000000000000000000000000000000000000602082015250565b7f4f776e61626c653a2063616c6c6572206973206e6f7420746865206f776e6572600082015250565b7f53656c6c657220646f65736e2774206f776e204e465400000000000000000000600082015250565b7f5374617274696e6720707269636520697320746f6f206c6f7700000000000000600082015250565b620008e1816200079a565b8114620008ed57600080fd5b50565b620008fb81620007ce565b81146200090757600080fd5b50565b60805160601c60a05160c05160601c60e05161010051610120516101405161016051611a3962000a176000396000818161056a015281816107ea01528181610ba401528181610ccd0152611202015260008181610bf40152610ca9015260008181610c250152610f7c01526000610493015260008181610c530152610f450152600081816104b70152818161060a015281816109d301528181610d9b015261115101526000818161062b01528181610746015281816109f501528181610ab901528181610c8501528181610e6c01526111720152600081816105cd015281816106b90152818161070a0152818161099701528181610a7d01528181610e2e01526111140152611a396000f3fe6080604052600436106101355760003560e01c80638da5cb5b116100ab578063d6fbf2021161006f578063d6fbf202146103a5578063e1345416146103d0578063e6c0e6d5146103fb578063f2fde38b14610426578063fae1db4c1461044f578063ffc2bdb11461046657610135565b80638da5cb5b146102dd57806398d5fdca14610308578063c6bc518214610333578063c74465651461035e578063cce7ec131461038957610135565b80634e69d560116100fd5780634e69d560146101fd578063715018a61461022e5780637150d8ae146102455780637698ef02146102705780638620410b146102875780638622a689146102b257610135565b8063053f14da1461013a57806308551a53146101655780630c570c86146101905780630fdb1c10146101bb57806347ccca02146101d2575b600080fd5b34801561014657600080fd5b5061014f610491565b60405161015c91906116e7565b60405180910390f35b34801561017157600080fd5b5061017a6104b5565b6040516101879190611530565b60405180910390f35b34801561019c57600080fd5b506101a56104d9565b6040516101b29190611582565b60405180910390f35b3480156101c757600080fd5b506101d06104ec565b005b3480156101de57600080fd5b506101e76106b7565b6040516101f4919061160c565b60405180910390f35b34801561020957600080fd5b506102126106db565b604051610225979695949392919061159d565b60405180910390f35b34801561023a57600080fd5b5061024361086b565b005b34801561025157600080fd5b5061025a6108f3565b6040516102679190611530565b60405180910390f35b34801561027c57600080fd5b50610285610919565b005b34801561029357600080fd5b5061029c610b9c565b6040516102a991906116e7565b60405180910390f35b3480156102be57600080fd5b506102c7610ba2565b6040516102d491906116e7565b60405180910390f35b3480156102e957600080fd5b506102f2610bc6565b6040516102ff9190611530565b60405180910390f35b34801561031457600080fd5b5061031d610bef565b60405161032a91906116e7565b60405180910390f35b34801561033f57600080fd5b50610348610c83565b60405161035591906116e7565b60405180910390f35b34801561036a57600080fd5b50610373610ca7565b60405161038091906116e7565b60405180910390f35b6103a3600480360381019061039e91906113e2565b610ccb565b005b3480156103b157600080fd5b506103ba610f43565b6040516103c791906116e7565b60405180910390f35b3480156103dc57600080fd5b506103e5610f67565b6040516103f29190611582565b60405180910390f35b34801561040757600080fd5b50610410610f7a565b60405161041d91906116e7565b60405180910390f35b34801561043257600080fd5b5061044d6004803603810190610448919061135b565b610f9e565b005b34801561045b57600080fd5b50610464611096565b005b34801561047257600080fd5b5061047b6111fe565b60405161048891906116e7565b60405180910390f35b7f000000000000000000000000000000000000000000000000000000000000000081565b7f000000000000000000000000000000000000000000000000000000000000000081565b600060149054906101000a900460ff1681565b6104f4611226565b73ffffffffffffffffffffffffffffffffffffffff16610512610bc6565b73ffffffffffffffffffffffffffffffffffffffff1614610568576040517f08c379a000000000000000000000000000000000000000000000000000000000815260040161055f90611667565b60405180910390fd5b7f00000000000000000000000000000000000000000000000000000000000000004210156105cb576040517f08c379a00000000000000000000000000000000000000000000000000000000081526004016105c290611687565b60405180910390fd5b7f000000000000000000000000000000000000000000000000000000000000000073ffffffffffffffffffffffffffffffffffffffff166323b872dd307f00000000000000000000000000000000000000000000000000000000000000007f00000000000000000000000000000000000000000000000000000000000000006040518463ffffffff1660e01b81526004016106689392919061154b565b600060405180830381600087803b15801561068257600080fd5b505af1158015610696573d6000803e3d6000fd5b505050506001600060156101000a81548160ff021916908315150217905550565b7f000000000000000000000000000000000000000000000000000000000000000081565b6000806000806000806000806106ef610bef565b90503073ffffffffffffffffffffffffffffffffffffffff167f000000000000000000000000000000000000000000000000000000000000000073ffffffffffffffffffffffffffffffffffffffff16636352211e7f00000000000000000000000000000000000000000000000000000000000000006040518263ffffffff1660e01b815260040161078191906116e7565b60206040518083038186803b15801561079957600080fd5b505afa1580156107ad573d6000803e3d6000fd5b505050506040513d601f19601f820116820180604052508101906107d19190611388565b73ffffffffffffffffffffffffffffffffffffffff16147f0000000000000000000000000000000000000000000000000000000000000000421015600060149054906101000a900460ff1683600160009054906101000a900473ffffffffffffffffffffffffffffffffffffffff16600254600060159054906101000a900460ff1697509750975097509750975097505090919293949596565b610873611226565b73ffffffffffffffffffffffffffffffffffffffff16610891610bc6565b73ffffffffffffffffffffffffffffffffffffffff16146108e7576040517f08c379a00000000000000000000000000000000000000000000000000000000081526004016108de90611667565b60405180910390fd5b6108f1600061122e565b565b600160009054906101000a900473ffffffffffffffffffffffffffffffffffffffff1681565b610921611226565b73ffffffffffffffffffffffffffffffffffffffff1661093f610bc6565b73ffffffffffffffffffffffffffffffffffffffff1614610995576040517f08c379a000000000000000000000000000000000000000000000000000000000815260040161098c90611667565b60405180910390fd5b7f000000000000000000000000000000000000000000000000000000000000000073ffffffffffffffffffffffffffffffffffffffff166323b872dd7f0000000000000000000000000000000000000000000000000000000000000000307f00000000000000000000000000000000000000000000000000000000000000006040518463ffffffff1660e01b8152600401610a329392919061154b565b600060405180830381600087803b158015610a4c57600080fd5b505af1158015610a60573d6000803e3d6000fd5b505050503073ffffffffffffffffffffffffffffffffffffffff167f000000000000000000000000000000000000000000000000000000000000000073ffffffffffffffffffffffffffffffffffffffff16636352211e7f00000000000000000000000000000000000000000000000000000000000000006040518263ffffffff1660e01b8152600401610af491906116e7565b60206040518083038186803b158015610b0c57600080fd5b505afa158015610b20573d6000803e3d6000fd5b505050506040513d601f19601f82011682018060405250810190610b449190611388565b73ffffffffffffffffffffffffffffffffffffffff1614610b9a576040517f08c379a0000000000000000000000000000000000000000000000000000000008152600401610b91906116a7565b60405180910390fd5b565b60025481565b7f000000000000000000000000000000000000000000000000000000000000000081565b60008060009054906101000a900473ffffffffffffffffffffffffffffffffffffffff16905090565b6000807f000000000000000000000000000000000000000000000000000000000000000042610c1e919061176d565b90506000817f0000000000000000000000000000000000000000000000000000000000000000610c4e9190611713565b9050807f0000000000000000000000000000000000000000000000000000000000000000610c7c919061176d565b9250505090565b7f000000000000000000000000000000000000000000000000000000000000000081565b7f000000000000000000000000000000000000000000000000000000000000000081565b7f00000000000000000000000000000000000000000000000000000000000000004210610d2d576040517f08c379a0000000000000000000000000000000000000000000000000000000008152600401610d2490611647565b60405180910390fd5b6000610d37610bef565b905080821015610d7c576040517f08c379a0000000000000000000000000000000000000000000000000000000008152600401610d73906116c7565b60405180910390fd5b8273ffffffffffffffffffffffffffffffffffffffff166323b872dd337f0000000000000000000000000000000000000000000000000000000000000000846040518463ffffffff1660e01b8152600401610dd99392919061154b565b602060405180830381600087803b158015610df357600080fd5b505af1158015610e07573d6000803e3d6000fd5b505050506040513d601f19601f82011682018060405250810190610e2b91906113b5565b507f000000000000000000000000000000000000000000000000000000000000000073ffffffffffffffffffffffffffffffffffffffff166323b872dd30337f00000000000000000000000000000000000000000000000000000000000000006040518463ffffffff1660e01b8152600401610ea99392919061154b565b600060405180830381600087803b158015610ec357600080fd5b505af1158015610ed7573d6000803e3d6000fd5b505050506001600060146101000a81548160ff02191690831515021790555033600160006101000a81548173ffffffffffffffffffffffffffffffffffffffff021916908373ffffffffffffffffffffffffffffffffffffffff16021790555080600281905550505050565b7f000000000000000000000000000000000000000000000000000000000000000081565b600060159054906101000a900460ff1681565b7f000000000000000000000000000000000000000000000000000000000000000081565b610fa6611226565b73ffffffffffffffffffffffffffffffffffffffff16610fc4610bc6565b73ffffffffffffffffffffffffffffffffffffffff161461101a576040517f08c379a000000000000000000000000000000000000000000000000000000000815260040161101190611667565b60405180910390fd5b600073ffffffffffffffffffffffffffffffffffffffff168173ffffffffffffffffffffffffffffffffffffffff16141561108a576040517f08c379a000000000000000000000000000000000000000000000000000000000815260040161108190611627565b60405180910390fd5b6110938161122e565b50565b61109e611226565b73ffffffffffffffffffffffffffffffffffffffff166110bc610bc6565b73ffffffffffffffffffffffffffffffffffffffff1614611112576040517f08c379a000000000000000000000000000000000000000000000000000000000815260040161110990611667565b60405180910390fd5b7f000000000000000000000000000000000000000000000000000000000000000073ffffffffffffffffffffffffffffffffffffffff166323b872dd307f00000000000000000000000000000000000000000000000000000000000000007f00000000000000000000000000000000000000000000000000000000000000006040518463ffffffff1660e01b81526004016111af9392919061154b565b600060405180830381600087803b1580156111c957600080fd5b505af11580156111dd573d6000803e3d6000fd5b505050506001600060156101000a81548160ff021916908315150217905550565b60007f0000000000000000000000000000000000000000000000000000000000000000905090565b600033905090565b60008060009054906101000a900473ffffffffffffffffffffffffffffffffffffffff169050816000806101000a81548173ffffffffffffffffffffffffffffffffffffffff021916908373ffffffffffffffffffffffffffffffffffffffff1602179055508173ffffffffffffffffffffffffffffffffffffffff168173ffffffffffffffffffffffffffffffffffffffff167f8be0079c531659141344cd1fd0a4f28419497f9722a3daafe3b4186f6b6457e060405160405180910390a35050565b600081359050611301816119a7565b92915050565b600081519050611316816119a7565b92915050565b60008151905061132b816119be565b92915050565b600081359050611340816119d5565b92915050565b600081359050611355816119ec565b92915050565b60006020828403121561137157611370611860565b5b600061137f848285016112f2565b91505092915050565b60006020828403121561139e5761139d611860565b5b60006113ac84828501611307565b91505092915050565b6000602082840312156113cb576113ca611860565b5b60006113d98482850161131c565b91505092915050565b600080604083850312156113f9576113f8611860565b5b600061140785828601611331565b925050602061141885828601611346565b9150509250929050565b61142b816117a1565b82525050565b61143a816117b3565b82525050565b611449816117fb565b82525050565b600061145c602683611702565b915061146782611865565b604082019050919050565b600061147f601683611702565b915061148a826118b4565b602082019050919050565b60006114a2602083611702565b91506114ad826118dd565b602082019050919050565b60006114c5601683611702565b91506114d082611906565b602082019050919050565b60006114e8601383611702565b91506114f38261192f565b602082019050919050565b600061150b602f83611702565b915061151682611958565b604082019050919050565b61152a816117f1565b82525050565b60006020820190506115456000830184611422565b92915050565b60006060820190506115606000830186611422565b61156d6020830185611422565b61157a6040830184611521565b949350505050565b60006020820190506115976000830184611431565b92915050565b600060e0820190506115b2600083018a611431565b6115bf6020830189611431565b6115cc6040830188611431565b6115d96060830187611521565b6115e66080830186611422565b6115f360a0830185611521565b61160060c0830184611431565b98975050505050505050565b60006020820190506116216000830184611440565b92915050565b600060208201905081810360008301526116408161144f565b9050919050565b6000602082019050818103600083015261166081611472565b9050919050565b6000602082019050818103600083015261168081611495565b9050919050565b600060208201905081810360008301526116a0816114b8565b9050919050565b600060208201905081810360008301526116c0816114db565b9050919050565b600060208201905081810360008301526116e0816114fe565b9050919050565b60006020820190506116fc6000830184611521565b92915050565b600082825260208201905092915050565b600061171e826117f1565b9150611729836117f1565b9250817fffffffffffffffffffffffffffffffffffffffffffffffffffffffffffffffff048311821515161561176257611761611831565b5b828202905092915050565b6000611778826117f1565b9150611783836117f1565b92508282101561179657611795611831565b5b828203905092915050565b60006117ac826117d1565b9050919050565b60008115159050919050565b60006117ca826117a1565b9050919050565b600073ffffffffffffffffffffffffffffffffffffffff82169050919050565b6000819050919050565b60006118068261180d565b9050919050565b60006118188261181f565b9050919050565b600061182a826117d1565b9050919050565b7f4e487b7100000000000000000000000000000000000000000000000000000000600052601160045260246000fd5b600080fd5b7f4f776e61626c653a206e6577206f776e657220697320746865207a65726f206160008201527f6464726573730000000000000000000000000000000000000000000000000000602082015250565b7f546869732061756374696f6e2068617320656e64656400000000000000000000600082015250565b7f4f776e61626c653a2063616c6c6572206973206e6f7420746865206f776e6572600082015250565b7f41756374696f6e73206e6f742079657420656e64656400000000000000000000600082015250565b7f4e4654207472616e73666572206661696c656400000000000000000000000000600082015250565b7f54686520616d6f756e74206f6620546f6b656e2073656e74206973206c65737360008201527f207468616e207468652070726963650000000000000000000000000000000000602082015250565b6119b0816117a1565b81146119bb57600080fd5b50565b6119c7816117b3565b81146119d257600080fd5b50565b6119de816117bf565b81146119e957600080fd5b50565b6119f5816117f1565b8114611a0057600080fd5b5056fea2646970667358221220a7bf965425f27dd7deb0114164e04294477290fe64ae9b8c51e360ae436cb38064736f6c63430008070033a264697066735822122076acce72c58e8706b40e026d13978c38c34f9ac1fca095111a578fc113ea18d464736f6c63430008070033",
      "opcodes": "PUSH1 0xA0 PUSH1 0x40 MSTORE CALLVALUE DUP1 ISZERO PUSH3 0x11 JUMPI PUSH1 0x0 DUP1 REVERT JUMPDEST POP PUSH1 0x40 MLOAD PUSH3 0x73E2 CODESIZE SUB DUP1 PUSH3 0x73E2 DUP4 CODECOPY DUP2 DUP2 ADD PUSH1 0x40 MSTORE DUP2 ADD SWAP1 PUSH3 0x37 SWAP2 SWAP1 PUSH3 0x46E JUMP JUMPDEST PUSH3 0x57 PUSH3 0x4B PUSH3 0x11E PUSH1 0x20 SHL PUSH1 0x20 SHR JUMP JUMPDEST PUSH3 0x126 PUSH1 0x20 SHL PUSH1 0x20 SHR JUMP JUMPDEST DUP5 PUSH1 0x1 SWAP1 DUP1 MLOAD SWAP1 PUSH1 0x20 ADD SWAP1 PUSH3 0x6F SWAP3 SWAP2 SWAP1 PUSH3 0x329 JUMP JUMPDEST POP DUP4 PUSH1 0x2 SWAP1 DUP1 MLOAD SWAP1 PUSH1 0x20 ADD SWAP1 PUSH3 0x88 SWAP3 SWAP2 SWAP1 PUSH3 0x329 JUMP JUMPDEST POP DUP3 PUSH1 0x3 SWAP1 DUP1 MLOAD SWAP1 PUSH1 0x20 ADD SWAP1 PUSH3 0xA1 SWAP3 SWAP2 SWAP1 PUSH3 0x329 JUMP JUMPDEST POP DUP2 PUSH1 0x4 SWAP1 DUP1 MLOAD SWAP1 PUSH1 0x20 ADD SWAP1 PUSH3 0xBA SWAP3 SWAP2 SWAP1 PUSH3 0x329 JUMP JUMPDEST POP DUP1 PUSH20 0xFFFFFFFFFFFFFFFFFFFFFFFFFFFFFFFFFFFFFFFF AND PUSH1 0x80 DUP2 PUSH20 0xFFFFFFFFFFFFFFFFFFFFFFFFFFFFFFFFFFFFFFFF AND PUSH1 0x60 SHL DUP2 MSTORE POP POP PUSH3 0x103 DUP2 PUSH3 0x1EA PUSH1 0x20 SHL PUSH1 0x20 SHR JUMP JUMPDEST PUSH1 0x1 PUSH1 0x5 DUP2 SWAP1 SSTORE POP PUSH1 0x2 PUSH1 0x7 DUP2 SWAP1 SSTORE POP POP POP POP POP POP PUSH3 0x85F JUMP JUMPDEST PUSH1 0x0 CALLER SWAP1 POP SWAP1 JUMP JUMPDEST PUSH1 0x0 DUP1 PUSH1 0x0 SWAP1 SLOAD SWAP1 PUSH2 0x100 EXP SWAP1 DIV PUSH20 0xFFFFFFFFFFFFFFFFFFFFFFFFFFFFFFFFFFFFFFFF AND SWAP1 POP DUP2 PUSH1 0x0 DUP1 PUSH2 0x100 EXP DUP2 SLOAD DUP2 PUSH20 0xFFFFFFFFFFFFFFFFFFFFFFFFFFFFFFFFFFFFFFFF MUL NOT AND SWAP1 DUP4 PUSH20 0xFFFFFFFFFFFFFFFFFFFFFFFFFFFFFFFFFFFFFFFF AND MUL OR SWAP1 SSTORE POP DUP2 PUSH20 0xFFFFFFFFFFFFFFFFFFFFFFFFFFFFFFFFFFFFFFFF AND DUP2 PUSH20 0xFFFFFFFFFFFFFFFFFFFFFFFFFFFFFFFFFFFFFFFF AND PUSH32 0x8BE0079C531659141344CD1FD0A4F28419497F9722A3DAAFE3B4186F6B6457E0 PUSH1 0x40 MLOAD PUSH1 0x40 MLOAD DUP1 SWAP2 SUB SWAP1 LOG3 POP POP JUMP JUMPDEST PUSH3 0x1FA PUSH3 0x11E PUSH1 0x20 SHL PUSH1 0x20 SHR JUMP JUMPDEST PUSH20 0xFFFFFFFFFFFFFFFFFFFFFFFFFFFFFFFFFFFFFFFF AND PUSH3 0x220 PUSH3 0x300 PUSH1 0x20 SHL PUSH1 0x20 SHR JUMP JUMPDEST PUSH20 0xFFFFFFFFFFFFFFFFFFFFFFFFFFFFFFFFFFFFFFFF AND EQ PUSH3 0x279 JUMPI PUSH1 0x40 MLOAD PUSH32 0x8C379A000000000000000000000000000000000000000000000000000000000 DUP2 MSTORE PUSH1 0x4 ADD PUSH3 0x270 SWAP1 PUSH3 0x5E2 JUMP JUMPDEST PUSH1 0x40 MLOAD DUP1 SWAP2 SUB SWAP1 REVERT JUMPDEST PUSH1 0x0 PUSH20 0xFFFFFFFFFFFFFFFFFFFFFFFFFFFFFFFFFFFFFFFF AND DUP2 PUSH20 0xFFFFFFFFFFFFFFFFFFFFFFFFFFFFFFFFFFFFFFFF AND EQ ISZERO PUSH3 0x2EC JUMPI PUSH1 0x40 MLOAD PUSH32 0x8C379A000000000000000000000000000000000000000000000000000000000 DUP2 MSTORE PUSH1 0x4 ADD PUSH3 0x2E3 SWAP1 PUSH3 0x5C0 JUMP JUMPDEST PUSH1 0x40 MLOAD DUP1 SWAP2 SUB SWAP1 REVERT JUMPDEST PUSH3 0x2FD DUP2 PUSH3 0x126 PUSH1 0x20 SHL PUSH1 0x20 SHR JUMP JUMPDEST POP JUMP JUMPDEST PUSH1 0x0 DUP1 PUSH1 0x0 SWAP1 SLOAD SWAP1 PUSH2 0x100 EXP SWAP1 DIV PUSH20 0xFFFFFFFFFFFFFFFFFFFFFFFFFFFFFFFFFFFFFFFF AND SWAP1 POP SWAP1 JUMP JUMPDEST DUP3 DUP1 SLOAD PUSH3 0x337 SWAP1 PUSH3 0x6DE JUMP JUMPDEST SWAP1 PUSH1 0x0 MSTORE PUSH1 0x20 PUSH1 0x0 KECCAK256 SWAP1 PUSH1 0x1F ADD PUSH1 0x20 SWAP1 DIV DUP2 ADD SWAP3 DUP3 PUSH3 0x35B JUMPI PUSH1 0x0 DUP6 SSTORE PUSH3 0x3A7 JUMP JUMPDEST DUP3 PUSH1 0x1F LT PUSH3 0x376 JUMPI DUP1 MLOAD PUSH1 0xFF NOT AND DUP4 DUP1 ADD OR DUP6 SSTORE PUSH3 0x3A7 JUMP JUMPDEST DUP3 DUP1 ADD PUSH1 0x1 ADD DUP6 SSTORE DUP3 ISZERO PUSH3 0x3A7 JUMPI SWAP2 DUP3 ADD JUMPDEST DUP3 DUP2 GT ISZERO PUSH3 0x3A6 JUMPI DUP3 MLOAD DUP3 SSTORE SWAP2 PUSH1 0x20 ADD SWAP2 SWAP1 PUSH1 0x1 ADD SWAP1 PUSH3 0x389 JUMP JUMPDEST JUMPDEST POP SWAP1 POP PUSH3 0x3B6 SWAP2 SWAP1 PUSH3 0x3BA JUMP JUMPDEST POP SWAP1 JUMP JUMPDEST JUMPDEST DUP1 DUP3 GT ISZERO PUSH3 0x3D5 JUMPI PUSH1 0x0 DUP2 PUSH1 0x0 SWAP1 SSTORE POP PUSH1 0x1 ADD PUSH3 0x3BB JUMP JUMPDEST POP SWAP1 JUMP JUMPDEST PUSH1 0x0 PUSH3 0x3F0 PUSH3 0x3EA DUP5 PUSH3 0x62D JUMP JUMPDEST PUSH3 0x604 JUMP JUMPDEST SWAP1 POP DUP3 DUP2 MSTORE PUSH1 0x20 DUP2 ADD DUP5 DUP5 DUP5 ADD GT ISZERO PUSH3 0x40F JUMPI PUSH3 0x40E PUSH3 0x7AD JUMP JUMPDEST JUMPDEST PUSH3 0x41C DUP5 DUP3 DUP6 PUSH3 0x6A8 JUMP JUMPDEST POP SWAP4 SWAP3 POP POP POP JUMP JUMPDEST PUSH1 0x0 DUP2 MLOAD SWAP1 POP PUSH3 0x435 DUP2 PUSH3 0x845 JUMP JUMPDEST SWAP3 SWAP2 POP POP JUMP JUMPDEST PUSH1 0x0 DUP3 PUSH1 0x1F DUP4 ADD SLT PUSH3 0x453 JUMPI PUSH3 0x452 PUSH3 0x7A8 JUMP JUMPDEST JUMPDEST DUP2 MLOAD PUSH3 0x465 DUP5 DUP3 PUSH1 0x20 DUP7 ADD PUSH3 0x3D9 JUMP JUMPDEST SWAP2 POP POP SWAP3 SWAP2 POP POP JUMP JUMPDEST PUSH1 0x0 DUP1 PUSH1 0x0 DUP1 PUSH1 0x0 PUSH1 0xA0 DUP7 DUP9 SUB SLT ISZERO PUSH3 0x48D JUMPI PUSH3 0x48C PUSH3 0x7B7 JUMP JUMPDEST JUMPDEST PUSH1 0x0 DUP7 ADD MLOAD PUSH8 0xFFFFFFFFFFFFFFFF DUP2 GT ISZERO PUSH3 0x4AE JUMPI PUSH3 0x4AD PUSH3 0x7B2 JUMP JUMPDEST JUMPDEST PUSH3 0x4BC DUP9 DUP3 DUP10 ADD PUSH3 0x43B JUMP JUMPDEST SWAP6 POP POP PUSH1 0x20 DUP7 ADD MLOAD PUSH8 0xFFFFFFFFFFFFFFFF DUP2 GT ISZERO PUSH3 0x4E0 JUMPI PUSH3 0x4DF PUSH3 0x7B2 JUMP JUMPDEST JUMPDEST PUSH3 0x4EE DUP9 DUP3 DUP10 ADD PUSH3 0x43B JUMP JUMPDEST SWAP5 POP POP PUSH1 0x40 DUP7 ADD MLOAD PUSH8 0xFFFFFFFFFFFFFFFF DUP2 GT ISZERO PUSH3 0x512 JUMPI PUSH3 0x511 PUSH3 0x7B2 JUMP JUMPDEST JUMPDEST PUSH3 0x520 DUP9 DUP3 DUP10 ADD PUSH3 0x43B JUMP JUMPDEST SWAP4 POP POP PUSH1 0x60 DUP7 ADD MLOAD PUSH8 0xFFFFFFFFFFFFFFFF DUP2 GT ISZERO PUSH3 0x544 JUMPI PUSH3 0x543 PUSH3 0x7B2 JUMP JUMPDEST JUMPDEST PUSH3 0x552 DUP9 DUP3 DUP10 ADD PUSH3 0x43B JUMP JUMPDEST SWAP3 POP POP PUSH1 0x80 PUSH3 0x565 DUP9 DUP3 DUP10 ADD PUSH3 0x424 JUMP JUMPDEST SWAP2 POP POP SWAP3 SWAP6 POP SWAP3 SWAP6 SWAP1 SWAP4 POP JUMP JUMPDEST PUSH1 0x0 PUSH3 0x581 PUSH1 0x26 DUP4 PUSH3 0x663 JUMP JUMPDEST SWAP2 POP PUSH3 0x58E DUP3 PUSH3 0x7CD JUMP JUMPDEST PUSH1 0x40 DUP3 ADD SWAP1 POP SWAP2 SWAP1 POP JUMP JUMPDEST PUSH1 0x0 PUSH3 0x5A8 PUSH1 0x20 DUP4 PUSH3 0x663 JUMP JUMPDEST SWAP2 POP PUSH3 0x5B5 DUP3 PUSH3 0x81C JUMP JUMPDEST PUSH1 0x20 DUP3 ADD SWAP1 POP SWAP2 SWAP1 POP JUMP JUMPDEST PUSH1 0x0 PUSH1 0x20 DUP3 ADD SWAP1 POP DUP2 DUP2 SUB PUSH1 0x0 DUP4 ADD MSTORE PUSH3 0x5DB DUP2 PUSH3 0x572 JUMP JUMPDEST SWAP1 POP SWAP2 SWAP1 POP JUMP JUMPDEST PUSH1 0x0 PUSH1 0x20 DUP3 ADD SWAP1 POP DUP2 DUP2 SUB PUSH1 0x0 DUP4 ADD MSTORE PUSH3 0x5FD DUP2 PUSH3 0x599 JUMP JUMPDEST SWAP1 POP SWAP2 SWAP1 POP JUMP JUMPDEST PUSH1 0x0 PUSH3 0x610 PUSH3 0x623 JUMP JUMPDEST SWAP1 POP PUSH3 0x61E DUP3 DUP3 PUSH3 0x714 JUMP JUMPDEST SWAP2 SWAP1 POP JUMP JUMPDEST PUSH1 0x0 PUSH1 0x40 MLOAD SWAP1 POP SWAP1 JUMP JUMPDEST PUSH1 0x0 PUSH8 0xFFFFFFFFFFFFFFFF DUP3 GT ISZERO PUSH3 0x64B JUMPI PUSH3 0x64A PUSH3 0x779 JUMP JUMPDEST JUMPDEST PUSH3 0x656 DUP3 PUSH3 0x7BC JUMP JUMPDEST SWAP1 POP PUSH1 0x20 DUP2 ADD SWAP1 POP SWAP2 SWAP1 POP JUMP JUMPDEST PUSH1 0x0 DUP3 DUP3 MSTORE PUSH1 0x20 DUP3 ADD SWAP1 POP SWAP3 SWAP2 POP POP JUMP JUMPDEST PUSH1 0x0 PUSH3 0x681 DUP3 PUSH3 0x688 JUMP JUMPDEST SWAP1 POP SWAP2 SWAP1 POP JUMP JUMPDEST PUSH1 0x0 PUSH20 0xFFFFFFFFFFFFFFFFFFFFFFFFFFFFFFFFFFFFFFFF DUP3 AND SWAP1 POP SWAP2 SWAP1 POP JUMP JUMPDEST PUSH1 0x0 JUMPDEST DUP4 DUP2 LT ISZERO PUSH3 0x6C8 JUMPI DUP1 DUP3 ADD MLOAD DUP2 DUP5 ADD MSTORE PUSH1 0x20 DUP2 ADD SWAP1 POP PUSH3 0x6AB JUMP JUMPDEST DUP4 DUP2 GT ISZERO PUSH3 0x6D8 JUMPI PUSH1 0x0 DUP5 DUP5 ADD MSTORE JUMPDEST POP POP POP POP JUMP JUMPDEST PUSH1 0x0 PUSH1 0x2 DUP3 DIV SWAP1 POP PUSH1 0x1 DUP3 AND DUP1 PUSH3 0x6F7 JUMPI PUSH1 0x7F DUP3 AND SWAP2 POP JUMPDEST PUSH1 0x20 DUP3 LT DUP2 EQ ISZERO PUSH3 0x70E JUMPI PUSH3 0x70D PUSH3 0x74A JUMP JUMPDEST JUMPDEST POP SWAP2 SWAP1 POP JUMP JUMPDEST PUSH3 0x71F DUP3 PUSH3 0x7BC JUMP JUMPDEST DUP2 ADD DUP2 DUP2 LT PUSH8 0xFFFFFFFFFFFFFFFF DUP3 GT OR ISZERO PUSH3 0x741 JUMPI PUSH3 0x740 PUSH3 0x779 JUMP JUMPDEST JUMPDEST DUP1 PUSH1 0x40 MSTORE POP POP POP JUMP JUMPDEST PUSH32 0x4E487B7100000000000000000000000000000000000000000000000000000000 PUSH1 0x0 MSTORE PUSH1 0x22 PUSH1 0x4 MSTORE PUSH1 0x24 PUSH1 0x0 REVERT JUMPDEST PUSH32 0x4E487B7100000000000000000000000000000000000000000000000000000000 PUSH1 0x0 MSTORE PUSH1 0x41 PUSH1 0x4 MSTORE PUSH1 0x24 PUSH1 0x0 REVERT JUMPDEST PUSH1 0x0 DUP1 REVERT JUMPDEST PUSH1 0x0 DUP1 REVERT JUMPDEST PUSH1 0x0 DUP1 REVERT JUMPDEST PUSH1 0x0 DUP1 REVERT JUMPDEST PUSH1 0x0 PUSH1 0x1F NOT PUSH1 0x1F DUP4 ADD AND SWAP1 POP SWAP2 SWAP1 POP JUMP JUMPDEST PUSH32 0x4F776E61626C653A206E6577206F776E657220697320746865207A65726F2061 PUSH1 0x0 DUP3 ADD MSTORE PUSH32 0x6464726573730000000000000000000000000000000000000000000000000000 PUSH1 0x20 DUP3 ADD MSTORE POP JUMP JUMPDEST PUSH32 0x4F776E61626C653A2063616C6C6572206973206E6F7420746865206F776E6572 PUSH1 0x0 DUP3 ADD MSTORE POP JUMP JUMPDEST PUSH3 0x850 DUP2 PUSH3 0x674 JUMP JUMPDEST DUP2 EQ PUSH3 0x85C JUMPI PUSH1 0x0 DUP1 REVERT JUMPDEST POP JUMP JUMPDEST PUSH1 0x80 MLOAD PUSH1 0x60 SHR PUSH2 0x6B41 PUSH3 0x8A1 PUSH1 0x0 CODECOPY PUSH1 0x0 DUP2 DUP2 PUSH2 0x5E1 ADD MSTORE DUP2 DUP2 PUSH2 0x8FB ADD MSTORE DUP2 DUP2 PUSH2 0xB58 ADD MSTORE DUP2 DUP2 PUSH2 0xBF5 ADD MSTORE DUP2 DUP2 PUSH2 0x1E55 ADD MSTORE PUSH2 0x225A ADD MSTORE PUSH2 0x6B41 PUSH1 0x0 RETURN INVALID PUSH1 0x80 PUSH1 0x40 MSTORE CALLVALUE DUP1 ISZERO PUSH3 0x11 JUMPI PUSH1 0x0 DUP1 REVERT JUMPDEST POP PUSH1 0x4 CALLDATASIZE LT PUSH3 0x1D2 JUMPI PUSH1 0x0 CALLDATALOAD PUSH1 0xE0 SHR DUP1 PUSH4 0x715018A6 GT PUSH3 0x111 JUMPI DUP1 PUSH4 0xA9C58844 GT PUSH3 0xA5 JUMPI DUP1 PUSH4 0xE7BDA8F8 GT PUSH3 0x7B JUMPI DUP1 PUSH4 0xE7BDA8F8 EQ PUSH3 0x547 JUMPI DUP1 PUSH4 0xF2F91519 EQ PUSH3 0x569 JUMPI DUP1 PUSH4 0xF2FDE38B EQ PUSH3 0x59F JUMPI DUP1 PUSH4 0xFD66ED8E EQ PUSH3 0x5BF JUMPI PUSH3 0x1D2 JUMP JUMPDEST DUP1 PUSH4 0xA9C58844 EQ PUSH3 0x4C4 JUMPI DUP1 PUSH4 0xB6F37093 EQ PUSH3 0x4E4 JUMPI DUP1 PUSH4 0xD1DBE7D8 EQ PUSH3 0x506 JUMPI PUSH3 0x1D2 JUMP JUMPDEST DUP1 PUSH4 0x8DA5CB5B GT PUSH3 0xE7 JUMPI DUP1 PUSH4 0x8DA5CB5B EQ PUSH3 0x427 JUMPI DUP1 PUSH4 0x8F52B4DD EQ PUSH3 0x449 JUMPI DUP1 PUSH4 0xA9647F41 EQ PUSH3 0x469 JUMPI DUP1 PUSH4 0xA9A99C0D EQ PUSH3 0x4A4 JUMPI PUSH3 0x1D2 JUMP JUMPDEST DUP1 PUSH4 0x715018A6 EQ PUSH3 0x3D9 JUMPI DUP1 PUSH4 0x7284E416 EQ PUSH3 0x3E5 JUMPI DUP1 PUSH4 0x79DE8D35 EQ PUSH3 0x407 JUMPI PUSH3 0x1D2 JUMP JUMPDEST DUP1 PUSH4 0x339FBDBB GT PUSH3 0x189 JUMPI DUP1 PUSH4 0x4B2A10A6 GT PUSH3 0x15F JUMPI DUP1 PUSH4 0x4B2A10A6 EQ PUSH3 0x329 JUMPI DUP1 PUSH4 0x4F0086FC EQ PUSH3 0x35F JUMPI DUP1 PUSH4 0x6347A377 EQ PUSH3 0x395 JUMPI DUP1 PUSH4 0x6AE3638C EQ PUSH3 0x3B7 JUMPI PUSH3 0x1D2 JUMP JUMPDEST DUP1 PUSH4 0x339FBDBB EQ PUSH3 0x29B JUMPI DUP1 PUSH4 0x3C28CAE2 EQ PUSH3 0x2D1 JUMPI DUP1 PUSH4 0x3E7D7FF2 EQ PUSH3 0x307 JUMPI PUSH3 0x1D2 JUMP JUMPDEST DUP1 PUSH4 0x2D05D3F EQ PUSH3 0x1D7 JUMPI DUP1 PUSH4 0x6FDDE03 EQ PUSH3 0x1F9 JUMPI DUP1 PUSH4 0x1163705D EQ PUSH3 0x21B JUMPI DUP1 PUSH4 0x14174F33 EQ PUSH3 0x23B JUMPI DUP1 PUSH4 0x1614665C EQ PUSH3 0x25B JUMPI DUP1 PUSH4 0x252891BA EQ PUSH3 0x27B JUMPI JUMPDEST PUSH1 0x0 DUP1 REVERT JUMPDEST PUSH3 0x1E1 PUSH3 0x5DF JUMP JUMPDEST PUSH1 0x40 MLOAD PUSH3 0x1F0 SWAP2 SWAP1 PUSH3 0x35E1 JUMP JUMPDEST PUSH1 0x40 MLOAD DUP1 SWAP2 SUB SWAP1 RETURN JUMPDEST PUSH3 0x203 PUSH3 0x603 JUMP JUMPDEST PUSH1 0x40 MLOAD PUSH3 0x212 SWAP2 SWAP1 PUSH3 0x3809 JUMP JUMPDEST PUSH1 0x40 MLOAD DUP1 SWAP2 SUB SWAP1 RETURN JUMPDEST PUSH3 0x239 PUSH1 0x4 DUP1 CALLDATASIZE SUB DUP2 ADD SWAP1 PUSH3 0x233 SWAP2 SWAP1 PUSH3 0x3056 JUMP JUMPDEST PUSH3 0x699 JUMP JUMPDEST STOP JUMPDEST PUSH3 0x259 PUSH1 0x4 DUP1 CALLDATASIZE SUB DUP2 ADD SWAP1 PUSH3 0x253 SWAP2 SWAP1 PUSH3 0x3056 JUMP JUMPDEST PUSH3 0x6E9 JUMP JUMPDEST STOP JUMPDEST PUSH3 0x279 PUSH1 0x4 DUP1 CALLDATASIZE SUB DUP2 ADD SWAP1 PUSH3 0x273 SWAP2 SWAP1 PUSH3 0x3101 JUMP JUMPDEST PUSH3 0x9A3 JUMP JUMPDEST STOP JUMPDEST PUSH3 0x299 PUSH1 0x4 DUP1 CALLDATASIZE SUB DUP2 ADD SWAP1 PUSH3 0x293 SWAP2 SWAP1 PUSH3 0x30BA JUMP JUMPDEST PUSH3 0xD33 JUMP JUMPDEST STOP JUMPDEST PUSH3 0x2B9 PUSH1 0x4 DUP1 CALLDATASIZE SUB DUP2 ADD SWAP1 PUSH3 0x2B3 SWAP2 SWAP1 PUSH3 0x2E72 JUMP JUMPDEST PUSH3 0xFC1 JUMP JUMPDEST PUSH1 0x40 MLOAD PUSH3 0x2C8 SWAP2 SWAP1 PUSH3 0x37EC JUMP JUMPDEST PUSH1 0x40 MLOAD DUP1 SWAP2 SUB SWAP1 RETURN JUMPDEST PUSH3 0x2EF PUSH1 0x4 DUP1 CALLDATASIZE SUB DUP2 ADD SWAP1 PUSH3 0x2E9 SWAP2 SWAP1 PUSH3 0x3056 JUMP JUMPDEST PUSH3 0x1017 JUMP JUMPDEST PUSH1 0x40 MLOAD PUSH3 0x2FE SWAP2 SWAP1 PUSH3 0x37EC JUMP JUMPDEST PUSH1 0x40 MLOAD DUP1 SWAP2 SUB SWAP1 RETURN JUMPDEST PUSH3 0x311 PUSH3 0x12AC JUMP JUMPDEST PUSH1 0x40 MLOAD PUSH3 0x320 SWAP2 SWAP1 PUSH3 0x3809 JUMP JUMPDEST PUSH1 0x40 MLOAD DUP1 SWAP2 SUB SWAP1 RETURN JUMPDEST PUSH3 0x347 PUSH1 0x4 DUP1 CALLDATASIZE SUB DUP2 ADD SWAP1 PUSH3 0x341 SWAP2 SWAP1 PUSH3 0x3148 JUMP JUMPDEST PUSH3 0x1342 JUMP JUMPDEST PUSH1 0x40 MLOAD PUSH3 0x356 SWAP2 SWAP1 PUSH3 0x35E1 JUMP JUMPDEST PUSH1 0x40 MLOAD DUP1 SWAP2 SUB SWAP1 RETURN JUMPDEST PUSH3 0x37D PUSH1 0x4 DUP1 CALLDATASIZE SUB DUP2 ADD SWAP1 PUSH3 0x377 SWAP2 SWAP1 PUSH3 0x3056 JUMP JUMPDEST PUSH3 0x16D2 JUMP JUMPDEST PUSH1 0x40 MLOAD PUSH3 0x38C SWAP2 SWAP1 PUSH3 0x37EC JUMP JUMPDEST PUSH1 0x40 MLOAD DUP1 SWAP2 SUB SWAP1 RETURN JUMPDEST PUSH3 0x39F PUSH3 0x1943 JUMP JUMPDEST PUSH1 0x40 MLOAD PUSH3 0x3AE SWAP2 SWAP1 PUSH3 0x3B1A JUMP JUMPDEST PUSH1 0x40 MLOAD DUP1 SWAP2 SUB SWAP1 RETURN JUMPDEST PUSH3 0x3C1 PUSH3 0x1949 JUMP JUMPDEST PUSH1 0x40 MLOAD PUSH3 0x3D0 SWAP2 SWAP1 PUSH3 0x3B1A JUMP JUMPDEST PUSH1 0x40 MLOAD DUP1 SWAP2 SUB SWAP1 RETURN JUMPDEST PUSH3 0x3E3 PUSH3 0x194F JUMP JUMPDEST STOP JUMPDEST PUSH3 0x3EF PUSH3 0x19E0 JUMP JUMPDEST PUSH1 0x40 MLOAD PUSH3 0x3FE SWAP2 SWAP1 PUSH3 0x3809 JUMP JUMPDEST PUSH1 0x40 MLOAD DUP1 SWAP2 SUB SWAP1 RETURN JUMPDEST PUSH3 0x425 PUSH1 0x4 DUP1 CALLDATASIZE SUB DUP2 ADD SWAP1 PUSH3 0x41F SWAP2 SWAP1 PUSH3 0x2E72 JUMP JUMPDEST PUSH3 0x1A76 JUMP JUMPDEST STOP JUMPDEST PUSH3 0x431 PUSH3 0x1B54 JUMP JUMPDEST PUSH1 0x40 MLOAD PUSH3 0x440 SWAP2 SWAP1 PUSH3 0x35E1 JUMP JUMPDEST PUSH1 0x40 MLOAD DUP1 SWAP2 SUB SWAP1 RETURN JUMPDEST PUSH3 0x467 PUSH1 0x4 DUP1 CALLDATASIZE SUB DUP2 ADD SWAP1 PUSH3 0x461 SWAP2 SWAP1 PUSH3 0x2F4F JUMP JUMPDEST PUSH3 0x1B7D JUMP JUMPDEST STOP JUMPDEST PUSH3 0x487 PUSH1 0x4 DUP1 CALLDATASIZE SUB DUP2 ADD SWAP1 PUSH3 0x481 SWAP2 SWAP1 PUSH3 0x2ED6 JUMP JUMPDEST PUSH3 0x1DAF JUMP JUMPDEST PUSH1 0x40 MLOAD PUSH3 0x49B SWAP7 SWAP6 SWAP5 SWAP4 SWAP3 SWAP2 SWAP1 PUSH3 0x382D JUMP JUMPDEST PUSH1 0x40 MLOAD DUP1 SWAP2 SUB SWAP1 RETURN JUMPDEST PUSH3 0x4C2 PUSH1 0x4 DUP1 CALLDATASIZE SUB DUP2 ADD SWAP1 PUSH3 0x4BC SWAP2 SWAP1 PUSH3 0x2E72 JUMP JUMPDEST PUSH3 0x20DB JUMP JUMPDEST STOP JUMPDEST PUSH3 0x4E2 PUSH1 0x4 DUP1 CALLDATASIZE SUB DUP2 ADD SWAP1 PUSH3 0x4DC SWAP2 SWAP1 PUSH3 0x2F08 JUMP JUMPDEST PUSH3 0x21B9 JUMP JUMPDEST STOP JUMPDEST PUSH3 0x4EE PUSH3 0x22F4 JUMP JUMPDEST PUSH1 0x40 MLOAD PUSH3 0x4FD SWAP2 SWAP1 PUSH3 0x3809 JUMP JUMPDEST PUSH1 0x40 MLOAD DUP1 SWAP2 SUB SWAP1 RETURN JUMPDEST PUSH3 0x524 PUSH1 0x4 DUP1 CALLDATASIZE SUB DUP2 ADD SWAP1 PUSH3 0x51E SWAP2 SWAP1 PUSH3 0x3056 JUMP JUMPDEST PUSH3 0x238A JUMP JUMPDEST PUSH1 0x40 MLOAD PUSH3 0x53E SWAP13 SWAP12 SWAP11 SWAP10 SWAP9 SWAP8 SWAP7 SWAP6 SWAP5 SWAP4 SWAP3 SWAP2 SWAP1 PUSH3 0x3C22 JUMP JUMPDEST PUSH1 0x40 MLOAD DUP1 SWAP2 SUB SWAP1 RETURN JUMPDEST PUSH3 0x551 PUSH3 0x24B4 JUMP JUMPDEST PUSH1 0x40 MLOAD PUSH3 0x560 SWAP2 SWAP1 PUSH3 0x3B1A JUMP JUMPDEST PUSH1 0x40 MLOAD DUP1 SWAP2 SUB SWAP1 RETURN JUMPDEST PUSH3 0x587 PUSH1 0x4 DUP1 CALLDATASIZE SUB DUP2 ADD SWAP1 PUSH3 0x581 SWAP2 SWAP1 PUSH3 0x3056 JUMP JUMPDEST PUSH3 0x24BA JUMP JUMPDEST PUSH1 0x40 MLOAD PUSH3 0x596 SWAP2 SWAP1 PUSH3 0x35E1 JUMP JUMPDEST PUSH1 0x40 MLOAD DUP1 SWAP2 SUB SWAP1 RETURN JUMPDEST PUSH3 0x5BD PUSH1 0x4 DUP1 CALLDATASIZE SUB DUP2 ADD SWAP1 PUSH3 0x5B7 SWAP2 SWAP1 PUSH3 0x2E72 JUMP JUMPDEST PUSH3 0x24ED JUMP JUMPDEST STOP JUMPDEST PUSH3 0x5DD PUSH1 0x4 DUP1 CALLDATASIZE SUB DUP2 ADD SWAP1 PUSH3 0x5D7 SWAP2 SWAP1 PUSH3 0x3056 JUMP JUMPDEST PUSH3 0x25F1 JUMP JUMPDEST STOP JUMPDEST PUSH32 0x0 DUP2 JUMP JUMPDEST PUSH1 0x1 DUP1 SLOAD PUSH3 0x612 SWAP1 PUSH3 0x4023 JUMP JUMPDEST DUP1 PUSH1 0x1F ADD PUSH1 0x20 DUP1 SWAP2 DIV MUL PUSH1 0x20 ADD PUSH1 0x40 MLOAD SWAP1 DUP2 ADD PUSH1 0x40 MSTORE DUP1 SWAP3 SWAP2 SWAP1 DUP2 DUP2 MSTORE PUSH1 0x20 ADD DUP3 DUP1 SLOAD PUSH3 0x640 SWAP1 PUSH3 0x4023 JUMP JUMPDEST DUP1 ISZERO PUSH3 0x691 JUMPI DUP1 PUSH1 0x1F LT PUSH3 0x665 JUMPI PUSH2 0x100 DUP1 DUP4 SLOAD DIV MUL DUP4 MSTORE SWAP2 PUSH1 0x20 ADD SWAP2 PUSH3 0x691 JUMP JUMPDEST DUP3 ADD SWAP2 SWAP1 PUSH1 0x0 MSTORE PUSH1 0x20 PUSH1 0x0 KECCAK256 SWAP1 JUMPDEST DUP2 SLOAD DUP2 MSTORE SWAP1 PUSH1 0x1 ADD SWAP1 PUSH1 0x20 ADD DUP1 DUP4 GT PUSH3 0x673 JUMPI DUP3 SWAP1 SUB PUSH1 0x1F AND DUP3 ADD SWAP2 JUMPDEST POP POP POP POP POP DUP2 JUMP JUMPDEST PUSH1 0x0 DUP2 GT PUSH3 0x6DF JUMPI PUSH1 0x40 MLOAD PUSH32 0x8C379A000000000000000000000000000000000000000000000000000000000 DUP2 MSTORE PUSH1 0x4 ADD PUSH3 0x6D6 SWAP1 PUSH3 0x3AF8 JUMP JUMPDEST PUSH1 0x40 MLOAD DUP1 SWAP2 SUB SWAP1 REVERT JUMPDEST DUP1 PUSH1 0x7 DUP2 SWAP1 SSTORE POP POP JUMP JUMPDEST PUSH3 0x6F3 PUSH3 0x28B1 JUMP JUMPDEST PUSH20 0xFFFFFFFFFFFFFFFFFFFFFFFFFFFFFFFFFFFFFFFF AND PUSH3 0x713 PUSH3 0x1B54 JUMP JUMPDEST PUSH20 0xFFFFFFFFFFFFFFFFFFFFFFFFFFFFFFFFFFFFFFFF AND EQ PUSH3 0x76C JUMPI PUSH1 0x40 MLOAD PUSH32 0x8C379A000000000000000000000000000000000000000000000000000000000 DUP2 MSTORE PUSH1 0x4 ADD PUSH3 0x763 SWAP1 PUSH3 0x39A4 JUMP JUMPDEST PUSH1 0x40 MLOAD DUP1 SWAP2 SUB SWAP1 REVERT JUMPDEST PUSH1 0x1 PUSH1 0x9 PUSH1 0x0 DUP4 DUP2 MSTORE PUSH1 0x20 ADD SWAP1 DUP2 MSTORE PUSH1 0x20 ADD PUSH1 0x0 KECCAK256 PUSH1 0x7 ADD SLOAD EQ PUSH3 0x7C8 JUMPI PUSH1 0x40 MLOAD PUSH32 0x8C379A000000000000000000000000000000000000000000000000000000000 DUP2 MSTORE PUSH1 0x4 ADD PUSH3 0x7BF SWAP1 PUSH3 0x3A92 JUMP JUMPDEST PUSH1 0x40 MLOAD DUP1 SWAP2 SUB SWAP1 REVERT JUMPDEST PUSH1 0x1 ISZERO ISZERO PUSH1 0x9 PUSH1 0x0 DUP4 DUP2 MSTORE PUSH1 0x20 ADD SWAP1 DUP2 MSTORE PUSH1 0x20 ADD PUSH1 0x0 KECCAK256 PUSH1 0x8 ADD PUSH1 0x0 SWAP1 SLOAD SWAP1 PUSH2 0x100 EXP SWAP1 DIV PUSH1 0xFF AND ISZERO ISZERO EQ PUSH3 0x835 JUMPI PUSH1 0x40 MLOAD PUSH32 0x8C379A000000000000000000000000000000000000000000000000000000000 DUP2 MSTORE PUSH1 0x4 ADD PUSH3 0x82C SWAP1 PUSH3 0x3A0A JUMP JUMPDEST PUSH1 0x40 MLOAD DUP1 SWAP2 SUB SWAP1 REVERT JUMPDEST PUSH1 0x0 ISZERO ISZERO PUSH1 0x9 PUSH1 0x0 DUP4 DUP2 MSTORE PUSH1 0x20 ADD SWAP1 DUP2 MSTORE PUSH1 0x20 ADD PUSH1 0x0 KECCAK256 PUSH1 0xA ADD PUSH1 0x0 SWAP1 SLOAD SWAP1 PUSH2 0x100 EXP SWAP1 DIV PUSH1 0xFF AND ISZERO ISZERO EQ PUSH3 0x8A2 JUMPI PUSH1 0x40 MLOAD PUSH32 0x8C379A000000000000000000000000000000000000000000000000000000000 DUP2 MSTORE PUSH1 0x4 ADD PUSH3 0x899 SWAP1 PUSH3 0x38B6 JUMP JUMPDEST PUSH1 0x40 MLOAD DUP1 SWAP2 SUB SWAP1 REVERT JUMPDEST PUSH1 0x0 PUSH1 0x9 PUSH1 0x0 DUP4 DUP2 MSTORE PUSH1 0x20 ADD SWAP1 DUP2 MSTORE PUSH1 0x20 ADD PUSH1 0x0 KECCAK256 SWAP1 POP DUP1 PUSH1 0x8 ADD PUSH1 0x1 SWAP1 SLOAD SWAP1 PUSH2 0x100 EXP SWAP1 DIV PUSH20 0xFFFFFFFFFFFFFFFFFFFFFFFFFFFFFFFFFFFFFFFF AND PUSH20 0xFFFFFFFFFFFFFFFFFFFFFFFFFFFFFFFFFFFFFFFF AND PUSH4 0xA9059CBB PUSH32 0x0 DUP4 PUSH1 0x9 ADD SLOAD PUSH1 0x40 MLOAD DUP4 PUSH4 0xFFFFFFFF AND PUSH1 0xE0 SHL DUP2 MSTORE PUSH1 0x4 ADD PUSH3 0x93E SWAP3 SWAP2 SWAP1 PUSH3 0x3731 JUMP JUMPDEST PUSH1 0x20 PUSH1 0x40 MLOAD DUP1 DUP4 SUB DUP2 PUSH1 0x0 DUP8 DUP1 EXTCODESIZE ISZERO DUP1 ISZERO PUSH3 0x959 JUMPI PUSH1 0x0 DUP1 REVERT JUMPDEST POP GAS CALL ISZERO DUP1 ISZERO PUSH3 0x96E JUMPI RETURNDATASIZE PUSH1 0x0 DUP1 RETURNDATACOPY RETURNDATASIZE PUSH1 0x0 REVERT JUMPDEST POP POP POP POP PUSH1 0x40 MLOAD RETURNDATASIZE PUSH1 0x1F NOT PUSH1 0x1F DUP3 ADD AND DUP3 ADD DUP1 PUSH1 0x40 MSTORE POP DUP2 ADD SWAP1 PUSH3 0x994 SWAP2 SWAP1 PUSH3 0x2EA4 JUMP JUMPDEST POP PUSH1 0x2 DUP2 PUSH1 0x7 ADD DUP2 SWAP1 SSTORE POP POP POP JUMP JUMPDEST PUSH1 0x5 SLOAD DUP3 LT PUSH3 0x9EA JUMPI PUSH1 0x40 MLOAD PUSH32 0x8C379A000000000000000000000000000000000000000000000000000000000 DUP2 MSTORE PUSH1 0x4 ADD PUSH3 0x9E1 SWAP1 PUSH3 0x3982 JUMP JUMPDEST PUSH1 0x40 MLOAD DUP1 SWAP2 SUB SWAP1 REVERT JUMPDEST PUSH3 0x9F6 DUP3 CALLER PUSH3 0x28B9 JUMP JUMPDEST PUSH3 0xA38 JUMPI PUSH1 0x40 MLOAD PUSH32 0x8C379A000000000000000000000000000000000000000000000000000000000 DUP2 MSTORE PUSH1 0x4 ADD PUSH3 0xA2F SWAP1 PUSH3 0x3AB4 JUMP JUMPDEST PUSH1 0x40 MLOAD DUP1 SWAP2 SUB SWAP1 REVERT JUMPDEST PUSH1 0x9 PUSH1 0x0 DUP4 DUP2 MSTORE PUSH1 0x20 ADD SWAP1 DUP2 MSTORE PUSH1 0x20 ADD PUSH1 0x0 KECCAK256 PUSH1 0x6 ADD PUSH1 0x0 CALLER PUSH20 0xFFFFFFFFFFFFFFFFFFFFFFFFFFFFFFFFFFFFFFFF AND PUSH20 0xFFFFFFFFFFFFFFFFFFFFFFFFFFFFFFFFFFFFFFFF AND DUP2 MSTORE PUSH1 0x20 ADD SWAP1 DUP2 MSTORE PUSH1 0x20 ADD PUSH1 0x0 KECCAK256 PUSH1 0x0 SWAP1 SLOAD SWAP1 PUSH2 0x100 EXP SWAP1 DIV PUSH1 0xFF AND ISZERO PUSH3 0xADC JUMPI PUSH1 0x40 MLOAD PUSH32 0x8C379A000000000000000000000000000000000000000000000000000000000 DUP2 MSTORE PUSH1 0x4 ADD PUSH3 0xAD3 SWAP1 PUSH3 0x391C JUMP JUMPDEST PUSH1 0x40 MLOAD DUP1 SWAP2 SUB SWAP1 REVERT JUMPDEST PUSH1 0x9 PUSH1 0x0 DUP4 DUP2 MSTORE PUSH1 0x20 ADD SWAP1 DUP2 MSTORE PUSH1 0x20 ADD PUSH1 0x0 KECCAK256 PUSH1 0x2 ADD SLOAD NUMBER GT ISZERO PUSH3 0xB38 JUMPI PUSH1 0x40 MLOAD PUSH32 0x8C379A000000000000000000000000000000000000000000000000000000000 DUP2 MSTORE PUSH1 0x4 ADD PUSH3 0xB2F SWAP1 PUSH3 0x39C6 JUMP JUMPDEST PUSH1 0x40 MLOAD DUP1 SWAP2 SUB SWAP1 REVERT JUMPDEST PUSH1 0x0 PUSH1 0x9 PUSH1 0x0 DUP5 DUP2 MSTORE PUSH1 0x20 ADD SWAP1 DUP2 MSTORE PUSH1 0x20 ADD PUSH1 0x0 KECCAK256 SWAP1 POP DUP2 ISZERO PUSH3 0xBF3 JUMPI PUSH32 0x0 PUSH20 0xFFFFFFFFFFFFFFFFFFFFFFFFFFFFFFFFFFFFFFFF AND CALLER PUSH20 0xFFFFFFFFFFFFFFFFFFFFFFFFFFFFFFFFFFFFFFFF AND EQ ISZERO PUSH3 0xBD0 JUMPI PUSH1 0x7 SLOAD DUP2 PUSH1 0x3 ADD PUSH1 0x0 DUP3 DUP3 SLOAD PUSH3 0xBC3 SWAP2 SWAP1 PUSH3 0x3E3B JUMP JUMPDEST SWAP3 POP POP DUP2 SWAP1 SSTORE POP PUSH3 0xBED JUMP JUMPDEST DUP1 PUSH1 0x3 ADD PUSH1 0x0 DUP2 SLOAD DUP1 SWAP3 SWAP2 SWAP1 PUSH3 0xBE7 SWAP1 PUSH3 0x408F JUMP JUMPDEST SWAP2 SWAP1 POP SSTORE POP JUMPDEST PUSH3 0xC8B JUMP JUMPDEST PUSH32 0x0 PUSH20 0xFFFFFFFFFFFFFFFFFFFFFFFFFFFFFFFFFFFFFFFF AND CALLER PUSH20 0xFFFFFFFFFFFFFFFFFFFFFFFFFFFFFFFFFFFFFFFF AND EQ ISZERO PUSH3 0xC6D JUMPI PUSH1 0x7 SLOAD DUP2 PUSH1 0x4 ADD PUSH1 0x0 DUP3 DUP3 SLOAD PUSH3 0xC60 SWAP2 SWAP1 PUSH3 0x3E3B JUMP JUMPDEST SWAP3 POP POP DUP2 SWAP1 SSTORE POP PUSH3 0xC8A JUMP JUMPDEST DUP1 PUSH1 0x4 ADD PUSH1 0x0 DUP2 SLOAD DUP1 SWAP3 SWAP2 SWAP1 PUSH3 0xC84 SWAP1 PUSH3 0x408F JUMP JUMPDEST SWAP2 SWAP1 POP SSTORE POP JUMPDEST JUMPDEST PUSH1 0x1 DUP2 PUSH1 0x6 ADD PUSH1 0x0 CALLER PUSH20 0xFFFFFFFFFFFFFFFFFFFFFFFFFFFFFFFFFFFFFFFF AND PUSH20 0xFFFFFFFFFFFFFFFFFFFFFFFFFFFFFFFFFFFFFFFF AND DUP2 MSTORE PUSH1 0x20 ADD SWAP1 DUP2 MSTORE PUSH1 0x20 ADD PUSH1 0x0 KECCAK256 PUSH1 0x0 PUSH2 0x100 EXP DUP2 SLOAD DUP2 PUSH1 0xFF MUL NOT AND SWAP1 DUP4 ISZERO ISZERO MUL OR SWAP1 SSTORE POP PUSH32 0x97A3ED91F0B116DC155F238AC92AA5B825720A7BB096F53156E05D9C8AB6A30A DUP2 PUSH1 0x3 ADD SLOAD DUP3 PUSH1 0x4 ADD SLOAD CALLER DUP7 DUP7 PUSH1 0x40 MLOAD PUSH3 0xD26 SWAP6 SWAP5 SWAP4 SWAP3 SWAP2 SWAP1 PUSH3 0x3CFB JUMP JUMPDEST PUSH1 0x40 MLOAD DUP1 SWAP2 SUB SWAP1 LOG1 POP POP POP JUMP JUMPDEST PUSH1 0x1 ISZERO ISZERO PUSH1 0x8 PUSH1 0x0 CALLER PUSH20 0xFFFFFFFFFFFFFFFFFFFFFFFFFFFFFFFFFFFFFFFF AND PUSH20 0xFFFFFFFFFFFFFFFFFFFFFFFFFFFFFFFFFFFFFFFF AND DUP2 MSTORE PUSH1 0x20 ADD SWAP1 DUP2 MSTORE PUSH1 0x20 ADD PUSH1 0x0 KECCAK256 PUSH1 0x0 SWAP1 SLOAD SWAP1 PUSH2 0x100 EXP SWAP1 DIV PUSH1 0xFF AND ISZERO ISZERO ISZERO EQ PUSH3 0xDCA JUMPI PUSH1 0x40 MLOAD PUSH32 0x8C379A000000000000000000000000000000000000000000000000000000000 DUP2 MSTORE PUSH1 0x4 ADD PUSH3 0xDC1 SWAP1 PUSH3 0x3A4E JUMP JUMPDEST PUSH1 0x40 MLOAD DUP1 SWAP2 SUB SWAP1 REVERT JUMPDEST PUSH1 0x1 PUSH1 0x9 PUSH1 0x0 DUP5 DUP2 MSTORE PUSH1 0x20 ADD SWAP1 DUP2 MSTORE PUSH1 0x20 ADD PUSH1 0x0 KECCAK256 PUSH1 0x7 ADD SLOAD EQ PUSH3 0xE26 JUMPI PUSH1 0x40 MLOAD PUSH32 0x8C379A000000000000000000000000000000000000000000000000000000000 DUP2 MSTORE PUSH1 0x4 ADD PUSH3 0xE1D SWAP1 PUSH3 0x393E JUMP JUMPDEST PUSH1 0x40 MLOAD DUP1 SWAP2 SUB SWAP1 REVERT JUMPDEST PUSH1 0x1 ISZERO ISZERO PUSH1 0x9 PUSH1 0x0 DUP5 DUP2 MSTORE PUSH1 0x20 ADD SWAP1 DUP2 MSTORE PUSH1 0x20 ADD PUSH1 0x0 KECCAK256 PUSH1 0x8 ADD PUSH1 0x0 SWAP1 SLOAD SWAP1 PUSH2 0x100 EXP SWAP1 DIV PUSH1 0xFF AND ISZERO ISZERO EQ PUSH3 0xE93 JUMPI PUSH1 0x40 MLOAD PUSH32 0x8C379A000000000000000000000000000000000000000000000000000000000 DUP2 MSTORE PUSH1 0x4 ADD PUSH3 0xE8A SWAP1 PUSH3 0x3960 JUMP JUMPDEST PUSH1 0x40 MLOAD DUP1 SWAP2 SUB SWAP1 REVERT JUMPDEST PUSH1 0x1 ISZERO ISZERO PUSH1 0x9 PUSH1 0x0 DUP5 DUP2 MSTORE PUSH1 0x20 ADD SWAP1 DUP2 MSTORE PUSH1 0x20 ADD PUSH1 0x0 KECCAK256 PUSH1 0xA ADD PUSH1 0x0 SWAP1 SLOAD SWAP1 PUSH2 0x100 EXP SWAP1 DIV PUSH1 0xFF AND ISZERO ISZERO EQ PUSH3 0xF00 JUMPI PUSH1 0x40 MLOAD PUSH32 0x8C379A000000000000000000000000000000000000000000000000000000000 DUP2 MSTORE PUSH1 0x4 ADD PUSH3 0xEF7 SWAP1 PUSH3 0x3A70 JUMP JUMPDEST PUSH1 0x40 MLOAD DUP1 SWAP2 SUB SWAP1 REVERT JUMPDEST PUSH1 0x0 PUSH1 0x9 PUSH1 0x0 DUP5 DUP2 MSTORE PUSH1 0x20 ADD SWAP1 DUP2 MSTORE PUSH1 0x20 ADD PUSH1 0x0 KECCAK256 SWAP1 POP DUP1 PUSH1 0x8 ADD PUSH1 0x1 SWAP1 SLOAD SWAP1 PUSH2 0x100 EXP SWAP1 DIV PUSH20 0xFFFFFFFFFFFFFFFFFFFFFFFFFFFFFFFFFFFFFFFF AND PUSH20 0xFFFFFFFFFFFFFFFFFFFFFFFFFFFFFFFFFFFFFFFF AND PUSH4 0x23B872DD ADDRESS DUP5 DUP5 PUSH1 0x9 ADD SLOAD PUSH1 0x40 MLOAD DUP5 PUSH4 0xFFFFFFFF AND PUSH1 0xE0 SHL DUP2 MSTORE PUSH1 0x4 ADD PUSH3 0xF7E SWAP4 SWAP3 SWAP2 SWAP1 PUSH3 0x35FE JUMP JUMPDEST PUSH1 0x0 PUSH1 0x40 MLOAD DUP1 DUP4 SUB DUP2 PUSH1 0x0 DUP8 DUP1 EXTCODESIZE ISZERO DUP1 ISZERO PUSH3 0xF99 JUMPI PUSH1 0x0 DUP1 REVERT JUMPDEST POP GAS CALL ISZERO DUP1 ISZERO PUSH3 0xFAE JUMPI RETURNDATASIZE PUSH1 0x0 DUP1 RETURNDATACOPY RETURNDATASIZE PUSH1 0x0 REVERT JUMPDEST POP POP POP POP PUSH1 0x2 DUP2 PUSH1 0x7 ADD DUP2 SWAP1 SSTORE POP POP POP POP JUMP JUMPDEST PUSH1 0x0 PUSH1 0x8 PUSH1 0x0 DUP4 PUSH20 0xFFFFFFFFFFFFFFFFFFFFFFFFFFFFFFFFFFFFFFFF AND PUSH20 0xFFFFFFFFFFFFFFFFFFFFFFFFFFFFFFFFFFFFFFFF AND DUP2 MSTORE PUSH1 0x20 ADD SWAP1 DUP2 MSTORE PUSH1 0x20 ADD PUSH1 0x0 KECCAK256 PUSH1 0x0 SWAP1 SLOAD SWAP1 PUSH2 0x100 EXP SWAP1 DIV PUSH1 0xFF AND SWAP1 POP SWAP2 SWAP1 POP JUMP JUMPDEST PUSH1 0x0 PUSH1 0x1 ISZERO ISZERO PUSH1 0x8 PUSH1 0x0 CALLER PUSH20 0xFFFFFFFFFFFFFFFFFFFFFFFFFFFFFFFFFFFFFFFF AND PUSH20 0xFFFFFFFFFFFFFFFFFFFFFFFFFFFFFFFFFFFFFFFF AND DUP2 MSTORE PUSH1 0x20 ADD SWAP1 DUP2 MSTORE PUSH1 0x20 ADD PUSH1 0x0 KECCAK256 PUSH1 0x0 SWAP1 SLOAD SWAP1 PUSH2 0x100 EXP SWAP1 DIV PUSH1 0xFF AND ISZERO ISZERO ISZERO EQ PUSH3 0x10B0 JUMPI PUSH1 0x40 MLOAD PUSH32 0x8C379A000000000000000000000000000000000000000000000000000000000 DUP2 MSTORE PUSH1 0x4 ADD PUSH3 0x10A7 SWAP1 PUSH3 0x3A4E JUMP JUMPDEST PUSH1 0x40 MLOAD DUP1 SWAP2 SUB SWAP1 REVERT JUMPDEST PUSH1 0x0 PUSH1 0x9 PUSH1 0x0 DUP5 DUP2 MSTORE PUSH1 0x20 ADD SWAP1 DUP2 MSTORE PUSH1 0x20 ADD PUSH1 0x0 KECCAK256 SWAP1 POP PUSH1 0x5 SLOAD DUP4 LT PUSH3 0x110E JUMPI PUSH1 0x40 MLOAD PUSH32 0x8C379A000000000000000000000000000000000000000000000000000000000 DUP2 MSTORE PUSH1 0x4 ADD PUSH3 0x1105 SWAP1 PUSH3 0x3982 JUMP JUMPDEST PUSH1 0x40 MLOAD DUP1 SWAP2 SUB SWAP1 REVERT JUMPDEST PUSH1 0x0 DUP2 PUSH1 0x7 ADD SLOAD EQ PUSH3 0x1158 JUMPI PUSH1 0x40 MLOAD PUSH32 0x8C379A000000000000000000000000000000000000000000000000000000000 DUP2 MSTORE PUSH1 0x4 ADD PUSH3 0x114F SWAP1 PUSH3 0x38D8 JUMP JUMPDEST PUSH1 0x40 MLOAD DUP1 SWAP2 SUB SWAP1 REVERT JUMPDEST PUSH3 0x1163 DUP4 PUSH3 0x299A JUMP JUMPDEST DUP1 PUSH3 0x11A7 JUMPI POP DUP1 PUSH1 0x3 ADD SLOAD PUSH1 0x7 SLOAD PUSH1 0x1 DUP4 PUSH1 0x5 ADD DUP1 SLOAD SWAP1 POP PUSH3 0x1188 SWAP2 SWAP1 PUSH3 0x3F31 JUMP JUMPDEST PUSH3 0x1194 SWAP2 SWAP1 PUSH3 0x3E3B JUMP JUMPDEST PUSH3 0x11A0 SWAP2 SWAP1 PUSH3 0x3F31 JUMP JUMPDEST DUP2 PUSH1 0x3 ADD SLOAD GT JUMPDEST PUSH3 0x11E9 JUMPI PUSH1 0x40 MLOAD PUSH32 0x8C379A000000000000000000000000000000000000000000000000000000000 DUP2 MSTORE PUSH1 0x4 ADD PUSH3 0x11E0 SWAP1 PUSH3 0x3AD6 JUMP JUMPDEST PUSH1 0x40 MLOAD DUP1 SWAP2 SUB SWAP1 REVERT JUMPDEST PUSH1 0x9 PUSH1 0x0 DUP5 DUP2 MSTORE PUSH1 0x20 ADD SWAP1 DUP2 MSTORE PUSH1 0x20 ADD PUSH1 0x0 KECCAK256 PUSH1 0x3 ADD SLOAD PUSH1 0x9 PUSH1 0x0 DUP6 DUP2 MSTORE PUSH1 0x20 ADD SWAP1 DUP2 MSTORE PUSH1 0x20 ADD PUSH1 0x0 KECCAK256 PUSH1 0x4 ADD SLOAD LT ISZERO PUSH3 0x123C JUMPI PUSH1 0x1 DUP2 PUSH1 0x8 ADD PUSH1 0x0 PUSH2 0x100 EXP DUP2 SLOAD DUP2 PUSH1 0xFF MUL NOT AND SWAP1 DUP4 ISZERO ISZERO MUL OR SWAP1 SSTORE POP JUMPDEST PUSH32 0x4556FCF667EE704924EEA359363D28F06708B744AD113340982B07EF9919FB91 DUP4 DUP3 PUSH1 0x8 ADD PUSH1 0x0 SWAP1 SLOAD SWAP1 PUSH2 0x100 EXP SWAP1 DIV PUSH1 0xFF AND PUSH1 0x40 MLOAD PUSH3 0x1280 SWAP3 SWAP2 SWAP1 PUSH3 0x3B37 JUMP JUMPDEST PUSH1 0x40 MLOAD DUP1 SWAP2 SUB SWAP1 LOG1 PUSH1 0x1 DUP2 PUSH1 0x7 ADD DUP2 SWAP1 SSTORE POP DUP1 PUSH1 0x8 ADD PUSH1 0x0 SWAP1 SLOAD SWAP1 PUSH2 0x100 EXP SWAP1 DIV PUSH1 0xFF AND SWAP2 POP POP SWAP2 SWAP1 POP JUMP JUMPDEST PUSH1 0x3 DUP1 SLOAD PUSH3 0x12BB SWAP1 PUSH3 0x4023 JUMP JUMPDEST DUP1 PUSH1 0x1F ADD PUSH1 0x20 DUP1 SWAP2 DIV MUL PUSH1 0x20 ADD PUSH1 0x40 MLOAD SWAP1 DUP2 ADD PUSH1 0x40 MSTORE DUP1 SWAP3 SWAP2 SWAP1 DUP2 DUP2 MSTORE PUSH1 0x20 ADD DUP3 DUP1 SLOAD PUSH3 0x12E9 SWAP1 PUSH3 0x4023 JUMP JUMPDEST DUP1 ISZERO PUSH3 0x133A JUMPI DUP1 PUSH1 0x1F LT PUSH3 0x130E JUMPI PUSH2 0x100 DUP1 DUP4 SLOAD DIV MUL DUP4 MSTORE SWAP2 PUSH1 0x20 ADD SWAP2 PUSH3 0x133A JUMP JUMPDEST DUP3 ADD SWAP2 SWAP1 PUSH1 0x0 MSTORE PUSH1 0x20 PUSH1 0x0 KECCAK256 SWAP1 JUMPDEST DUP2 SLOAD DUP2 MSTORE SWAP1 PUSH1 0x1 ADD SWAP1 PUSH1 0x20 ADD DUP1 DUP4 GT PUSH3 0x131C JUMPI DUP3 SWAP1 SUB PUSH1 0x1F AND DUP3 ADD SWAP2 JUMPDEST POP POP POP POP POP DUP2 JUMP JUMPDEST PUSH1 0x0 PUSH1 0x1 ISZERO ISZERO PUSH1 0x8 PUSH1 0x0 CALLER PUSH20 0xFFFFFFFFFFFFFFFFFFFFFFFFFFFFFFFFFFFFFFFF AND PUSH20 0xFFFFFFFFFFFFFFFFFFFFFFFFFFFFFFFFFFFFFFFF AND DUP2 MSTORE PUSH1 0x20 ADD SWAP1 DUP2 MSTORE PUSH1 0x20 ADD PUSH1 0x0 KECCAK256 PUSH1 0x0 SWAP1 SLOAD SWAP1 PUSH2 0x100 EXP SWAP1 DIV PUSH1 0xFF AND ISZERO ISZERO ISZERO EQ PUSH3 0x13DB JUMPI PUSH1 0x40 MLOAD PUSH32 0x8C379A000000000000000000000000000000000000000000000000000000000 DUP2 MSTORE PUSH1 0x4 ADD PUSH3 0x13D2 SWAP1 PUSH3 0x3A4E JUMP JUMPDEST PUSH1 0x40 MLOAD DUP1 SWAP2 SUB SWAP1 REVERT JUMPDEST PUSH1 0x1 PUSH1 0x9 PUSH1 0x0 DUP7 DUP2 MSTORE PUSH1 0x20 ADD SWAP1 DUP2 MSTORE PUSH1 0x20 ADD PUSH1 0x0 KECCAK256 PUSH1 0x7 ADD SLOAD EQ PUSH3 0x1437 JUMPI PUSH1 0x40 MLOAD PUSH32 0x8C379A000000000000000000000000000000000000000000000000000000000 DUP2 MSTORE PUSH1 0x4 ADD PUSH3 0x142E SWAP1 PUSH3 0x3A92 JUMP JUMPDEST PUSH1 0x40 MLOAD DUP1 SWAP2 SUB SWAP1 REVERT JUMPDEST PUSH1 0x1 ISZERO ISZERO PUSH1 0x9 PUSH1 0x0 DUP7 DUP2 MSTORE PUSH1 0x20 ADD SWAP1 DUP2 MSTORE PUSH1 0x20 ADD PUSH1 0x0 KECCAK256 PUSH1 0x8 ADD PUSH1 0x0 SWAP1 SLOAD SWAP1 PUSH2 0x100 EXP SWAP1 DIV PUSH1 0xFF AND ISZERO ISZERO EQ PUSH3 0x14A4 JUMPI PUSH1 0x40 MLOAD PUSH32 0x8C379A000000000000000000000000000000000000000000000000000000000 DUP2 MSTORE PUSH1 0x4 ADD PUSH3 0x149B SWAP1 PUSH3 0x3960 JUMP JUMPDEST PUSH1 0x40 MLOAD DUP1 SWAP2 SUB SWAP1 REVERT JUMPDEST PUSH1 0x1 ISZERO ISZERO PUSH1 0x9 PUSH1 0x0 DUP7 DUP2 MSTORE PUSH1 0x20 ADD SWAP1 DUP2 MSTORE PUSH1 0x20 ADD PUSH1 0x0 KECCAK256 PUSH1 0xA ADD PUSH1 0x0 SWAP1 SLOAD SWAP1 PUSH2 0x100 EXP SWAP1 DIV PUSH1 0xFF AND ISZERO ISZERO EQ PUSH3 0x1511 JUMPI PUSH1 0x40 MLOAD PUSH32 0x8C379A000000000000000000000000000000000000000000000000000000000 DUP2 MSTORE PUSH1 0x4 ADD PUSH3 0x1508 SWAP1 PUSH3 0x3A70 JUMP JUMPDEST PUSH1 0x40 MLOAD DUP1 SWAP2 SUB SWAP1 REVERT JUMPDEST PUSH1 0x0 PUSH1 0x9 PUSH1 0x0 DUP7 DUP2 MSTORE PUSH1 0x20 ADD SWAP1 DUP2 MSTORE PUSH1 0x20 ADD PUSH1 0x0 KECCAK256 SWAP1 POP PUSH1 0x0 TIMESTAMP SWAP1 POP PUSH1 0x0 PUSH3 0x93A80 TIMESTAMP PUSH3 0x1540 SWAP2 SWAP1 PUSH3 0x3E3B JUMP JUMPDEST SWAP1 POP PUSH1 0x0 PUSH3 0x93A80 DUP5 PUSH1 0xC ADD SLOAD DUP6 PUSH1 0xB ADD SLOAD PUSH3 0x155E SWAP2 SWAP1 PUSH3 0x3F31 JUMP JUMPDEST PUSH3 0x156A SWAP2 SWAP1 PUSH3 0x3E98 JUMP JUMPDEST SWAP1 POP PUSH1 0x0 DUP5 PUSH1 0x8 ADD PUSH1 0x1 SWAP1 SLOAD SWAP1 PUSH2 0x100 EXP SWAP1 DIV PUSH20 0xFFFFFFFFFFFFFFFFFFFFFFFFFFFFFFFFFFFFFFFF AND DUP6 PUSH1 0x9 ADD SLOAD DUP7 PUSH1 0xB ADD SLOAD DUP8 PUSH1 0xC ADD SLOAD DUP6 ADDRESS DUP10 DUP10 PUSH1 0x40 MLOAD PUSH3 0x15B4 SWAP1 PUSH3 0x2B6F JUMP JUMPDEST PUSH3 0x15C7 SWAP9 SWAP8 SWAP7 SWAP6 SWAP5 SWAP4 SWAP3 SWAP2 SWAP1 PUSH3 0x375E JUMP JUMPDEST PUSH1 0x40 MLOAD DUP1 SWAP2 SUB SWAP1 PUSH1 0x0 CREATE DUP1 ISZERO DUP1 ISZERO PUSH3 0x15E4 JUMPI RETURNDATASIZE PUSH1 0x0 DUP1 RETURNDATACOPY RETURNDATASIZE PUSH1 0x0 REVERT JUMPDEST POP SWAP1 POP DUP1 PUSH1 0xA PUSH1 0x0 DUP12 DUP2 MSTORE PUSH1 0x20 ADD SWAP1 DUP2 MSTORE PUSH1 0x20 ADD PUSH1 0x0 KECCAK256 PUSH1 0x0 PUSH2 0x100 EXP DUP2 SLOAD DUP2 PUSH20 0xFFFFFFFFFFFFFFFFFFFFFFFFFFFFFFFFFFFFFFFF MUL NOT AND SWAP1 DUP4 PUSH20 0xFFFFFFFFFFFFFFFFFFFFFFFFFFFFFFFFFFFFFFFF AND MUL OR SWAP1 SSTORE POP PUSH1 0x3 DUP6 PUSH1 0x7 ADD DUP2 SWAP1 SSTORE POP PUSH32 0x2F5BB6B4CDE88B5E9759FF8455C92DE89D53F58958D6A16951C91C08369F40C4 DUP2 DUP10 DUP10 DUP9 PUSH1 0x8 ADD PUSH1 0x1 SWAP1 SLOAD SWAP1 PUSH2 0x100 EXP SWAP1 DIV PUSH20 0xFFFFFFFFFFFFFFFFFFFFFFFFFFFFFFFFFFFFFFFF AND DUP10 PUSH1 0x9 ADD SLOAD DUP11 PUSH1 0xB ADD SLOAD DUP12 PUSH1 0xC ADD SLOAD DUP10 DUP12 CALLER PUSH1 0x0 DUP1 PUSH1 0x40 MLOAD PUSH3 0x16BB SWAP13 SWAP12 SWAP11 SWAP10 SWAP9 SWAP8 SWAP7 SWAP6 SWAP5 SWAP4 SWAP3 SWAP2 SWAP1 PUSH3 0x363B JUMP JUMPDEST PUSH1 0x40 MLOAD DUP1 SWAP2 SUB SWAP1 LOG1 DUP1 SWAP6 POP POP POP POP POP POP SWAP4 SWAP3 POP POP POP JUMP JUMPDEST PUSH1 0x0 PUSH1 0x1 ISZERO ISZERO PUSH1 0x8 PUSH1 0x0 CALLER PUSH20 0xFFFFFFFFFFFFFFFFFFFFFFFFFFFFFFFFFFFFFFFF AND PUSH20 0xFFFFFFFFFFFFFFFFFFFFFFFFFFFFFFFFFFFFFFFF AND DUP2 MSTORE PUSH1 0x20 ADD SWAP1 DUP2 MSTORE PUSH1 0x20 ADD PUSH1 0x0 KECCAK256 PUSH1 0x0 SWAP1 SLOAD SWAP1 PUSH2 0x100 EXP SWAP1 DIV PUSH1 0xFF AND ISZERO ISZERO ISZERO EQ PUSH3 0x176B JUMPI PUSH1 0x40 MLOAD PUSH32 0x8C379A000000000000000000000000000000000000000000000000000000000 DUP2 MSTORE PUSH1 0x4 ADD PUSH3 0x1762 SWAP1 PUSH3 0x3A4E JUMP JUMPDEST PUSH1 0x40 MLOAD DUP1 SWAP2 SUB SWAP1 REVERT JUMPDEST PUSH1 0x5 SLOAD DUP3 LT PUSH3 0x17B2 JUMPI PUSH1 0x40 MLOAD PUSH32 0x8C379A000000000000000000000000000000000000000000000000000000000 DUP2 MSTORE PUSH1 0x4 ADD PUSH3 0x17A9 SWAP1 PUSH3 0x3982 JUMP JUMPDEST PUSH1 0x40 MLOAD DUP1 SWAP2 SUB SWAP1 REVERT JUMPDEST PUSH1 0x9 PUSH1 0x0 DUP4 DUP2 MSTORE PUSH1 0x20 ADD SWAP1 DUP2 MSTORE PUSH1 0x20 ADD PUSH1 0x0 KECCAK256 PUSH1 0x2 ADD SLOAD TIMESTAMP GT PUSH3 0x180D JUMPI PUSH1 0x40 MLOAD PUSH32 0x8C379A000000000000000000000000000000000000000000000000000000000 DUP2 MSTORE PUSH1 0x4 ADD PUSH3 0x1804 SWAP1 PUSH3 0x39E8 JUMP JUMPDEST PUSH1 0x40 MLOAD DUP1 SWAP2 SUB SWAP1 REVERT JUMPDEST PUSH1 0x0 PUSH1 0x9 PUSH1 0x0 DUP5 DUP2 MSTORE PUSH1 0x20 ADD SWAP1 DUP2 MSTORE PUSH1 0x20 ADD PUSH1 0x0 KECCAK256 PUSH1 0x7 ADD SLOAD EQ PUSH3 0x1869 JUMPI PUSH1 0x40 MLOAD PUSH32 0x8C379A000000000000000000000000000000000000000000000000000000000 DUP2 MSTORE PUSH1 0x4 ADD PUSH3 0x1860 SWAP1 PUSH3 0x38D8 JUMP JUMPDEST PUSH1 0x40 MLOAD DUP1 SWAP2 SUB SWAP1 REVERT JUMPDEST PUSH1 0x0 PUSH1 0x9 PUSH1 0x0 DUP5 DUP2 MSTORE PUSH1 0x20 ADD SWAP1 DUP2 MSTORE PUSH1 0x20 ADD PUSH1 0x0 KECCAK256 SWAP1 POP PUSH1 0x9 PUSH1 0x0 DUP5 DUP2 MSTORE PUSH1 0x20 ADD SWAP1 DUP2 MSTORE PUSH1 0x20 ADD PUSH1 0x0 KECCAK256 PUSH1 0x3 ADD SLOAD PUSH1 0x9 PUSH1 0x0 DUP6 DUP2 MSTORE PUSH1 0x20 ADD SWAP1 DUP2 MSTORE PUSH1 0x20 ADD PUSH1 0x0 KECCAK256 PUSH1 0x4 ADD SLOAD LT ISZERO PUSH3 0x18D3 JUMPI PUSH1 0x1 DUP2 PUSH1 0x8 ADD PUSH1 0x0 PUSH2 0x100 EXP DUP2 SLOAD DUP2 PUSH1 0xFF MUL NOT AND SWAP1 DUP4 ISZERO ISZERO MUL OR SWAP1 SSTORE POP JUMPDEST PUSH1 0x1 DUP2 PUSH1 0x7 ADD DUP2 SWAP1 SSTORE POP PUSH32 0x4556FCF667EE704924EEA359363D28F06708B744AD113340982B07EF9919FB91 DUP4 DUP3 PUSH1 0x8 ADD PUSH1 0x0 SWAP1 SLOAD SWAP1 PUSH2 0x100 EXP SWAP1 DIV PUSH1 0xFF AND PUSH1 0x40 MLOAD PUSH3 0x1921 SWAP3 SWAP2 SWAP1 PUSH3 0x3B37 JUMP JUMPDEST PUSH1 0x40 MLOAD DUP1 SWAP2 SUB SWAP1 LOG1 DUP1 PUSH1 0x8 ADD PUSH1 0x0 SWAP1 SLOAD SWAP1 PUSH2 0x100 EXP SWAP1 DIV PUSH1 0xFF AND SWAP2 POP POP SWAP2 SWAP1 POP JUMP JUMPDEST PUSH1 0x6 SLOAD DUP2 JUMP JUMPDEST PUSH1 0x5 SLOAD DUP2 JUMP JUMPDEST PUSH3 0x1959 PUSH3 0x28B1 JUMP JUMPDEST PUSH20 0xFFFFFFFFFFFFFFFFFFFFFFFFFFFFFFFFFFFFFFFF AND PUSH3 0x1979 PUSH3 0x1B54 JUMP JUMPDEST PUSH20 0xFFFFFFFFFFFFFFFFFFFFFFFFFFFFFFFFFFFFFFFF AND EQ PUSH3 0x19D2 JUMPI PUSH1 0x40 MLOAD PUSH32 0x8C379A000000000000000000000000000000000000000000000000000000000 DUP2 MSTORE PUSH1 0x4 ADD PUSH3 0x19C9 SWAP1 PUSH3 0x39A4 JUMP JUMPDEST PUSH1 0x40 MLOAD DUP1 SWAP2 SUB SWAP1 REVERT JUMPDEST PUSH3 0x19DE PUSH1 0x0 PUSH3 0x2AAB JUMP JUMPDEST JUMP JUMPDEST PUSH1 0x2 DUP1 SLOAD PUSH3 0x19EF SWAP1 PUSH3 0x4023 JUMP JUMPDEST DUP1 PUSH1 0x1F ADD PUSH1 0x20 DUP1 SWAP2 DIV MUL PUSH1 0x20 ADD PUSH1 0x40 MLOAD SWAP1 DUP2 ADD PUSH1 0x40 MSTORE DUP1 SWAP3 SWAP2 SWAP1 DUP2 DUP2 MSTORE PUSH1 0x20 ADD DUP3 DUP1 SLOAD PUSH3 0x1A1D SWAP1 PUSH3 0x4023 JUMP JUMPDEST DUP1 ISZERO PUSH3 0x1A6E JUMPI DUP1 PUSH1 0x1F LT PUSH3 0x1A42 JUMPI PUSH2 0x100 DUP1 DUP4 SLOAD DIV MUL DUP4 MSTORE SWAP2 PUSH1 0x20 ADD SWAP2 PUSH3 0x1A6E JUMP JUMPDEST DUP3 ADD SWAP2 SWAP1 PUSH1 0x0 MSTORE PUSH1 0x20 PUSH1 0x0 KECCAK256 SWAP1 JUMPDEST DUP2 SLOAD DUP2 MSTORE SWAP1 PUSH1 0x1 ADD SWAP1 PUSH1 0x20 ADD DUP1 DUP4 GT PUSH3 0x1A50 JUMPI DUP3 SWAP1 SUB PUSH1 0x1F AND DUP3 ADD SWAP2 JUMPDEST POP POP POP POP POP DUP2 JUMP JUMPDEST PUSH3 0x1A80 PUSH3 0x28B1 JUMP JUMPDEST PUSH20 0xFFFFFFFFFFFFFFFFFFFFFFFFFFFFFFFFFFFFFFFF AND PUSH3 0x1AA0 PUSH3 0x1B54 JUMP JUMPDEST PUSH20 0xFFFFFFFFFFFFFFFFFFFFFFFFFFFFFFFFFFFFFFFF AND EQ PUSH3 0x1AF9 JUMPI PUSH1 0x40 MLOAD PUSH32 0x8C379A000000000000000000000000000000000000000000000000000000000 DUP2 MSTORE PUSH1 0x4 ADD PUSH3 0x1AF0 SWAP1 PUSH3 0x39A4 JUMP JUMPDEST PUSH1 0x40 MLOAD DUP1 SWAP2 SUB SWAP1 REVERT JUMPDEST PUSH1 0x0 PUSH1 0x8 PUSH1 0x0 DUP4 PUSH20 0xFFFFFFFFFFFFFFFFFFFFFFFFFFFFFFFFFFFFFFFF AND PUSH20 0xFFFFFFFFFFFFFFFFFFFFFFFFFFFFFFFFFFFFFFFF AND DUP2 MSTORE PUSH1 0x20 ADD SWAP1 DUP2 MSTORE PUSH1 0x20 ADD PUSH1 0x0 KECCAK256 PUSH1 0x0 PUSH2 0x100 EXP DUP2 SLOAD DUP2 PUSH1 0xFF MUL NOT AND SWAP1 DUP4 ISZERO ISZERO MUL OR SWAP1 SSTORE POP POP JUMP JUMPDEST PUSH1 0x0 DUP1 PUSH1 0x0 SWAP1 SLOAD SWAP1 PUSH2 0x100 EXP SWAP1 DIV PUSH20 0xFFFFFFFFFFFFFFFFFFFFFFFFFFFFFFFFFFFFFFFF AND SWAP1 POP SWAP1 JUMP JUMPDEST PUSH1 0x1 ISZERO ISZERO PUSH1 0x8 PUSH1 0x0 CALLER PUSH20 0xFFFFFFFFFFFFFFFFFFFFFFFFFFFFFFFFFFFFFFFF AND PUSH20 0xFFFFFFFFFFFFFFFFFFFFFFFFFFFFFFFFFFFFFFFF AND DUP2 MSTORE PUSH1 0x20 ADD SWAP1 DUP2 MSTORE PUSH1 0x20 ADD PUSH1 0x0 KECCAK256 PUSH1 0x0 SWAP1 SLOAD SWAP1 PUSH2 0x100 EXP SWAP1 DIV PUSH1 0xFF AND ISZERO ISZERO ISZERO EQ PUSH3 0x1C14 JUMPI PUSH1 0x40 MLOAD PUSH32 0x8C379A000000000000000000000000000000000000000000000000000000000 DUP2 MSTORE PUSH1 0x4 ADD PUSH3 0x1C0B SWAP1 PUSH3 0x3A4E JUMP JUMPDEST PUSH1 0x40 MLOAD DUP1 SWAP2 SUB SWAP1 REVERT JUMPDEST PUSH1 0x0 PUSH1 0x9 PUSH1 0x0 PUSH1 0x5 SLOAD DUP2 MSTORE PUSH1 0x20 ADD SWAP1 DUP2 MSTORE PUSH1 0x20 ADD PUSH1 0x0 KECCAK256 SWAP1 POP PUSH1 0x5 SLOAD DUP2 PUSH1 0x0 ADD DUP2 SWAP1 SSTORE POP DUP9 DUP2 PUSH1 0x1 ADD SWAP1 DUP1 MLOAD SWAP1 PUSH1 0x20 ADD SWAP1 PUSH3 0x1C52 SWAP3 SWAP2 SWAP1 PUSH3 0x2B7D JUMP JUMPDEST POP PUSH1 0x3C DUP1 PUSH1 0x18 DUP8 PUSH3 0x1C65 SWAP2 SWAP1 PUSH3 0x3ED0 JUMP JUMPDEST PUSH3 0x1C71 SWAP2 SWAP1 PUSH3 0x3ED0 JUMP JUMPDEST PUSH3 0x1C7D SWAP2 SWAP1 PUSH3 0x3ED0 JUMP JUMPDEST TIMESTAMP PUSH3 0x1C8A SWAP2 SWAP1 PUSH3 0x3E3B JUMP JUMPDEST DUP2 PUSH1 0x2 ADD DUP2 SWAP1 SSTORE POP DUP8 DUP2 PUSH1 0x5 ADD SWAP1 DUP1 MLOAD SWAP1 PUSH1 0x20 ADD SWAP1 PUSH3 0x1CAC SWAP3 SWAP2 SWAP1 PUSH3 0x2C0E JUMP JUMPDEST POP PUSH1 0x0 DUP2 PUSH1 0x7 ADD DUP2 SWAP1 SSTORE POP DUP7 DUP2 PUSH1 0x8 ADD PUSH1 0x1 PUSH2 0x100 EXP DUP2 SLOAD DUP2 PUSH20 0xFFFFFFFFFFFFFFFFFFFFFFFFFFFFFFFFFFFFFFFF MUL NOT AND SWAP1 DUP4 PUSH20 0xFFFFFFFFFFFFFFFFFFFFFFFFFFFFFFFFFFFFFFFF AND MUL OR SWAP1 SSTORE POP DUP6 DUP2 PUSH1 0x9 ADD DUP2 SWAP1 SSTORE POP DUP4 ISZERO PUSH3 0x1D39 JUMPI DUP4 DUP2 PUSH1 0xA ADD PUSH1 0x0 PUSH2 0x100 EXP DUP2 SLOAD DUP2 PUSH1 0xFF MUL NOT AND SWAP1 DUP4 ISZERO ISZERO MUL OR SWAP1 SSTORE POP DUP3 DUP2 PUSH1 0xB ADD DUP2 SWAP1 SSTORE POP DUP2 DUP2 PUSH1 0xC ADD DUP2 SWAP1 SSTORE POP JUMPDEST PUSH32 0x34BD6CA319029D63211EFFD148E6E49D375FF026EA6FDCFEB4F63A2DE6D6E544 PUSH1 0x5 SLOAD DUP11 DUP4 PUSH1 0x2 ADD SLOAD DUP12 DUP12 DUP12 CALLER DUP12 DUP12 DUP12 PUSH1 0x40 MLOAD PUSH3 0x1D82 SWAP11 SWAP10 SWAP9 SWAP8 SWAP7 SWAP6 SWAP5 SWAP4 SWAP3 SWAP2 SWAP1 PUSH3 0x3B64 JUMP JUMPDEST PUSH1 0x40 MLOAD DUP1 SWAP2 SUB SWAP1 LOG1 PUSH1 0x5 PUSH1 0x0 DUP2 SLOAD DUP1 SWAP3 SWAP2 SWAP1 PUSH3 0x1D9F SWAP1 PUSH3 0x408F JUMP JUMPDEST SWAP2 SWAP1 POP SSTORE POP POP POP POP POP POP POP POP POP POP JUMP JUMPDEST PUSH1 0x60 DUP1 PUSH1 0x60 DUP1 PUSH1 0x0 DUP1 PUSH1 0x0 DUP8 PUSH20 0xFFFFFFFFFFFFFFFFFFFFFFFFFFFFFFFFFFFFFFFF AND PUSH4 0x70A08231 ADDRESS PUSH1 0x40 MLOAD DUP3 PUSH4 0xFFFFFFFF AND PUSH1 0xE0 SHL DUP2 MSTORE PUSH1 0x4 ADD PUSH3 0x1DF5 SWAP2 SWAP1 PUSH3 0x35E1 JUMP JUMPDEST PUSH1 0x20 PUSH1 0x40 MLOAD DUP1 DUP4 SUB DUP2 DUP7 DUP1 EXTCODESIZE ISZERO DUP1 ISZERO PUSH3 0x1E0E JUMPI PUSH1 0x0 DUP1 REVERT JUMPDEST POP GAS STATICCALL ISZERO DUP1 ISZERO PUSH3 0x1E23 JUMPI RETURNDATASIZE PUSH1 0x0 DUP1 RETURNDATACOPY RETURNDATASIZE PUSH1 0x0 REVERT JUMPDEST POP POP POP POP PUSH1 0x40 MLOAD RETURNDATASIZE PUSH1 0x1F NOT PUSH1 0x1F DUP3 ADD AND DUP3 ADD DUP1 PUSH1 0x40 MSTORE POP DUP2 ADD SWAP1 PUSH3 0x1E49 SWAP2 SWAP1 PUSH3 0x3088 JUMP JUMPDEST SWAP1 POP PUSH1 0x1 PUSH1 0x2 PUSH1 0x3 PUSH1 0x4 PUSH32 0x0 DUP6 DUP6 DUP1 SLOAD PUSH3 0x1E83 SWAP1 PUSH3 0x4023 JUMP JUMPDEST DUP1 PUSH1 0x1F ADD PUSH1 0x20 DUP1 SWAP2 DIV MUL PUSH1 0x20 ADD PUSH1 0x40 MLOAD SWAP1 DUP2 ADD PUSH1 0x40 MSTORE DUP1 SWAP3 SWAP2 SWAP1 DUP2 DUP2 MSTORE PUSH1 0x20 ADD DUP3 DUP1 SLOAD PUSH3 0x1EB1 SWAP1 PUSH3 0x4023 JUMP JUMPDEST DUP1 ISZERO PUSH3 0x1F02 JUMPI DUP1 PUSH1 0x1F LT PUSH3 0x1ED6 JUMPI PUSH2 0x100 DUP1 DUP4 SLOAD DIV MUL DUP4 MSTORE SWAP2 PUSH1 0x20 ADD SWAP2 PUSH3 0x1F02 JUMP JUMPDEST DUP3 ADD SWAP2 SWAP1 PUSH1 0x0 MSTORE PUSH1 0x20 PUSH1 0x0 KECCAK256 SWAP1 JUMPDEST DUP2 SLOAD DUP2 MSTORE SWAP1 PUSH1 0x1 ADD SWAP1 PUSH1 0x20 ADD DUP1 DUP4 GT PUSH3 0x1EE4 JUMPI DUP3 SWAP1 SUB PUSH1 0x1F AND DUP3 ADD SWAP2 JUMPDEST POP POP POP POP POP SWAP6 POP DUP5 DUP1 SLOAD PUSH3 0x1F17 SWAP1 PUSH3 0x4023 JUMP JUMPDEST DUP1 PUSH1 0x1F ADD PUSH1 0x20 DUP1 SWAP2 DIV MUL PUSH1 0x20 ADD PUSH1 0x40 MLOAD SWAP1 DUP2 ADD PUSH1 0x40 MSTORE DUP1 SWAP3 SWAP2 SWAP1 DUP2 DUP2 MSTORE PUSH1 0x20 ADD DUP3 DUP1 SLOAD PUSH3 0x1F45 SWAP1 PUSH3 0x4023 JUMP JUMPDEST DUP1 ISZERO PUSH3 0x1F96 JUMPI DUP1 PUSH1 0x1F LT PUSH3 0x1F6A JUMPI PUSH2 0x100 DUP1 DUP4 SLOAD DIV MUL DUP4 MSTORE SWAP2 PUSH1 0x20 ADD SWAP2 PUSH3 0x1F96 JUMP JUMPDEST DUP3 ADD SWAP2 SWAP1 PUSH1 0x0 MSTORE PUSH1 0x20 PUSH1 0x0 KECCAK256 SWAP1 JUMPDEST DUP2 SLOAD DUP2 MSTORE SWAP1 PUSH1 0x1 ADD SWAP1 PUSH1 0x20 ADD DUP1 DUP4 GT PUSH3 0x1F78 JUMPI DUP3 SWAP1 SUB PUSH1 0x1F AND DUP3 ADD SWAP2 JUMPDEST POP POP POP POP POP SWAP5 POP DUP4 DUP1 SLOAD PUSH3 0x1FAB SWAP1 PUSH3 0x4023 JUMP JUMPDEST DUP1 PUSH1 0x1F ADD PUSH1 0x20 DUP1 SWAP2 DIV MUL PUSH1 0x20 ADD PUSH1 0x40 MLOAD SWAP1 DUP2 ADD PUSH1 0x40 MSTORE DUP1 SWAP3 SWAP2 SWAP1 DUP2 DUP2 MSTORE PUSH1 0x20 ADD DUP3 DUP1 SLOAD PUSH3 0x1FD9 SWAP1 PUSH3 0x4023 JUMP JUMPDEST DUP1 ISZERO PUSH3 0x202A JUMPI DUP1 PUSH1 0x1F LT PUSH3 0x1FFE JUMPI PUSH2 0x100 DUP1 DUP4 SLOAD DIV MUL DUP4 MSTORE SWAP2 PUSH1 0x20 ADD SWAP2 PUSH3 0x202A JUMP JUMPDEST DUP3 ADD SWAP2 SWAP1 PUSH1 0x0 MSTORE PUSH1 0x20 PUSH1 0x0 KECCAK256 SWAP1 JUMPDEST DUP2 SLOAD DUP2 MSTORE SWAP1 PUSH1 0x1 ADD SWAP1 PUSH1 0x20 ADD DUP1 DUP4 GT PUSH3 0x200C JUMPI DUP3 SWAP1 SUB PUSH1 0x1F AND DUP3 ADD SWAP2 JUMPDEST POP POP POP POP POP SWAP4 POP DUP3 DUP1 SLOAD PUSH3 0x203F SWAP1 PUSH3 0x4023 JUMP JUMPDEST DUP1 PUSH1 0x1F ADD PUSH1 0x20 DUP1 SWAP2 DIV MUL PUSH1 0x20 ADD PUSH1 0x40 MLOAD SWAP1 DUP2 ADD PUSH1 0x40 MSTORE DUP1 SWAP3 SWAP2 SWAP1 DUP2 DUP2 MSTORE PUSH1 0x20 ADD DUP3 DUP1 SLOAD PUSH3 0x206D SWAP1 PUSH3 0x4023 JUMP JUMPDEST DUP1 ISZERO PUSH3 0x20BE JUMPI DUP1 PUSH1 0x1F LT PUSH3 0x2092 JUMPI PUSH2 0x100 DUP1 DUP4 SLOAD DIV MUL DUP4 MSTORE SWAP2 PUSH1 0x20 ADD SWAP2 PUSH3 0x20BE JUMP JUMPDEST DUP3 ADD SWAP2 SWAP1 PUSH1 0x0 MSTORE PUSH1 0x20 PUSH1 0x0 KECCAK256 SWAP1 JUMPDEST DUP2 SLOAD DUP2 MSTORE SWAP1 PUSH1 0x1 ADD SWAP1 PUSH1 0x20 ADD DUP1 DUP4 GT PUSH3 0x20A0 JUMPI DUP3 SWAP1 SUB PUSH1 0x1F AND DUP3 ADD SWAP2 JUMPDEST POP POP POP POP POP SWAP3 POP SWAP7 POP SWAP7 POP SWAP7 POP SWAP7 POP SWAP7 POP SWAP7 POP POP SWAP2 SWAP4 SWAP6 POP SWAP2 SWAP4 SWAP6 JUMP JUMPDEST PUSH3 0x20E5 PUSH3 0x28B1 JUMP JUMPDEST PUSH20 0xFFFFFFFFFFFFFFFFFFFFFFFFFFFFFFFFFFFFFFFF AND PUSH3 0x2105 PUSH3 0x1B54 JUMP JUMPDEST PUSH20 0xFFFFFFFFFFFFFFFFFFFFFFFFFFFFFFFFFFFFFFFF AND EQ PUSH3 0x215E JUMPI PUSH1 0x40 MLOAD PUSH32 0x8C379A000000000000000000000000000000000000000000000000000000000 DUP2 MSTORE PUSH1 0x4 ADD PUSH3 0x2155 SWAP1 PUSH3 0x39A4 JUMP JUMPDEST PUSH1 0x40 MLOAD DUP1 SWAP2 SUB SWAP1 REVERT JUMPDEST PUSH1 0x1 PUSH1 0x8 PUSH1 0x0 DUP4 PUSH20 0xFFFFFFFFFFFFFFFFFFFFFFFFFFFFFFFFFFFFFFFF AND PUSH20 0xFFFFFFFFFFFFFFFFFFFFFFFFFFFFFFFFFFFFFFFF AND DUP2 MSTORE PUSH1 0x20 ADD SWAP1 DUP2 MSTORE PUSH1 0x20 ADD PUSH1 0x0 KECCAK256 PUSH1 0x0 PUSH2 0x100 EXP DUP2 SLOAD DUP2 PUSH1 0xFF MUL NOT AND SWAP1 DUP4 ISZERO ISZERO MUL OR SWAP1 SSTORE POP POP JUMP JUMPDEST PUSH3 0x21C3 PUSH3 0x28B1 JUMP JUMPDEST PUSH20 0xFFFFFFFFFFFFFFFFFFFFFFFFFFFFFFFFFFFFFFFF AND PUSH3 0x21E3 PUSH3 0x1B54 JUMP JUMPDEST PUSH20 0xFFFFFFFFFFFFFFFFFFFFFFFFFFFFFFFFFFFFFFFF AND EQ PUSH3 0x223C JUMPI PUSH1 0x40 MLOAD PUSH32 0x8C379A000000000000000000000000000000000000000000000000000000000 DUP2 MSTORE PUSH1 0x4 ADD PUSH3 0x2233 SWAP1 PUSH3 0x39A4 JUMP JUMPDEST PUSH1 0x40 MLOAD DUP1 SWAP2 SUB SWAP1 REVERT JUMPDEST DUP2 PUSH20 0xFFFFFFFFFFFFFFFFFFFFFFFFFFFFFFFFFFFFFFFF AND PUSH4 0xA9059CBB PUSH32 0x0 DUP4 PUSH1 0x40 MLOAD DUP4 PUSH4 0xFFFFFFFF AND PUSH1 0xE0 SHL DUP2 MSTORE PUSH1 0x4 ADD PUSH3 0x2299 SWAP3 SWAP2 SWAP1 PUSH3 0x3731 JUMP JUMPDEST PUSH1 0x20 PUSH1 0x40 MLOAD DUP1 DUP4 SUB DUP2 PUSH1 0x0 DUP8 DUP1 EXTCODESIZE ISZERO DUP1 ISZERO PUSH3 0x22B4 JUMPI PUSH1 0x0 DUP1 REVERT JUMPDEST POP GAS CALL ISZERO DUP1 ISZERO PUSH3 0x22C9 JUMPI RETURNDATASIZE PUSH1 0x0 DUP1 RETURNDATACOPY RETURNDATASIZE PUSH1 0x0 REVERT JUMPDEST POP POP POP POP PUSH1 0x40 MLOAD RETURNDATASIZE PUSH1 0x1F NOT PUSH1 0x1F DUP3 ADD AND DUP3 ADD DUP1 PUSH1 0x40 MSTORE POP DUP2 ADD SWAP1 PUSH3 0x22EF SWAP2 SWAP1 PUSH3 0x2EA4 JUMP JUMPDEST POP POP POP JUMP JUMPDEST PUSH1 0x4 DUP1 SLOAD PUSH3 0x2303 SWAP1 PUSH3 0x4023 JUMP JUMPDEST DUP1 PUSH1 0x1F ADD PUSH1 0x20 DUP1 SWAP2 DIV MUL PUSH1 0x20 ADD PUSH1 0x40 MLOAD SWAP1 DUP2 ADD PUSH1 0x40 MSTORE DUP1 SWAP3 SWAP2 SWAP1 DUP2 DUP2 MSTORE PUSH1 0x20 ADD DUP3 DUP1 SLOAD PUSH3 0x2331 SWAP1 PUSH3 0x4023 JUMP JUMPDEST DUP1 ISZERO PUSH3 0x2382 JUMPI DUP1 PUSH1 0x1F LT PUSH3 0x2356 JUMPI PUSH2 0x100 DUP1 DUP4 SLOAD DIV MUL DUP4 MSTORE SWAP2 PUSH1 0x20 ADD SWAP2 PUSH3 0x2382 JUMP JUMPDEST DUP3 ADD SWAP2 SWAP1 PUSH1 0x0 MSTORE PUSH1 0x20 PUSH1 0x0 KECCAK256 SWAP1 JUMPDEST DUP2 SLOAD DUP2 MSTORE SWAP1 PUSH1 0x1 ADD SWAP1 PUSH1 0x20 ADD DUP1 DUP4 GT PUSH3 0x2364 JUMPI DUP3 SWAP1 SUB PUSH1 0x1F AND DUP3 ADD SWAP2 JUMPDEST POP POP POP POP POP DUP2 JUMP JUMPDEST PUSH1 0x9 PUSH1 0x20 MSTORE DUP1 PUSH1 0x0 MSTORE PUSH1 0x40 PUSH1 0x0 KECCAK256 PUSH1 0x0 SWAP2 POP SWAP1 POP DUP1 PUSH1 0x0 ADD SLOAD SWAP1 DUP1 PUSH1 0x1 ADD DUP1 SLOAD PUSH3 0x23B5 SWAP1 PUSH3 0x4023 JUMP JUMPDEST DUP1 PUSH1 0x1F ADD PUSH1 0x20 DUP1 SWAP2 DIV MUL PUSH1 0x20 ADD PUSH1 0x40 MLOAD SWAP1 DUP2 ADD PUSH1 0x40 MSTORE DUP1 SWAP3 SWAP2 SWAP1 DUP2 DUP2 MSTORE PUSH1 0x20 ADD DUP3 DUP1 SLOAD PUSH3 0x23E3 SWAP1 PUSH3 0x4023 JUMP JUMPDEST DUP1 ISZERO PUSH3 0x2434 JUMPI DUP1 PUSH1 0x1F LT PUSH3 0x2408 JUMPI PUSH2 0x100 DUP1 DUP4 SLOAD DIV MUL DUP4 MSTORE SWAP2 PUSH1 0x20 ADD SWAP2 PUSH3 0x2434 JUMP JUMPDEST DUP3 ADD SWAP2 SWAP1 PUSH1 0x0 MSTORE PUSH1 0x20 PUSH1 0x0 KECCAK256 SWAP1 JUMPDEST DUP2 SLOAD DUP2 MSTORE SWAP1 PUSH1 0x1 ADD SWAP1 PUSH1 0x20 ADD DUP1 DUP4 GT PUSH3 0x2416 JUMPI DUP3 SWAP1 SUB PUSH1 0x1F AND DUP3 ADD SWAP2 JUMPDEST POP POP POP POP POP SWAP1 DUP1 PUSH1 0x2 ADD SLOAD SWAP1 DUP1 PUSH1 0x3 ADD SLOAD SWAP1 DUP1 PUSH1 0x4 ADD SLOAD SWAP1 DUP1 PUSH1 0x7 ADD SLOAD SWAP1 DUP1 PUSH1 0x8 ADD PUSH1 0x0 SWAP1 SLOAD SWAP1 PUSH2 0x100 EXP SWAP1 DIV PUSH1 0xFF AND SWAP1 DUP1 PUSH1 0x8 ADD PUSH1 0x1 SWAP1 SLOAD SWAP1 PUSH2 0x100 EXP SWAP1 DIV PUSH20 0xFFFFFFFFFFFFFFFFFFFFFFFFFFFFFFFFFFFFFFFF AND SWAP1 DUP1 PUSH1 0x9 ADD SLOAD SWAP1 DUP1 PUSH1 0xA ADD PUSH1 0x0 SWAP1 SLOAD SWAP1 PUSH2 0x100 EXP SWAP1 DIV PUSH1 0xFF AND SWAP1 DUP1 PUSH1 0xB ADD SLOAD SWAP1 DUP1 PUSH1 0xC ADD SLOAD SWAP1 POP DUP13 JUMP JUMPDEST PUSH1 0x7 SLOAD DUP2 JUMP JUMPDEST PUSH1 0xA PUSH1 0x20 MSTORE DUP1 PUSH1 0x0 MSTORE PUSH1 0x40 PUSH1 0x0 KECCAK256 PUSH1 0x0 SWAP2 POP SLOAD SWAP1 PUSH2 0x100 EXP SWAP1 DIV PUSH20 0xFFFFFFFFFFFFFFFFFFFFFFFFFFFFFFFFFFFFFFFF AND DUP2 JUMP JUMPDEST PUSH3 0x24F7 PUSH3 0x28B1 JUMP JUMPDEST PUSH20 0xFFFFFFFFFFFFFFFFFFFFFFFFFFFFFFFFFFFFFFFF AND PUSH3 0x2517 PUSH3 0x1B54 JUMP JUMPDEST PUSH20 0xFFFFFFFFFFFFFFFFFFFFFFFFFFFFFFFFFFFFFFFF AND EQ PUSH3 0x2570 JUMPI PUSH1 0x40 MLOAD PUSH32 0x8C379A000000000000000000000000000000000000000000000000000000000 DUP2 MSTORE PUSH1 0x4 ADD PUSH3 0x2567 SWAP1 PUSH3 0x39A4 JUMP JUMPDEST PUSH1 0x40 MLOAD DUP1 SWAP2 SUB SWAP1 REVERT JUMPDEST PUSH1 0x0 PUSH20 0xFFFFFFFFFFFFFFFFFFFFFFFFFFFFFFFFFFFFFFFF AND DUP2 PUSH20 0xFFFFFFFFFFFFFFFFFFFFFFFFFFFFFFFFFFFFFFFF AND EQ ISZERO PUSH3 0x25E3 JUMPI PUSH1 0x40 MLOAD PUSH32 0x8C379A000000000000000000000000000000000000000000000000000000000 DUP2 MSTORE PUSH1 0x4 ADD PUSH3 0x25DA SWAP1 PUSH3 0x38FA JUMP JUMPDEST PUSH1 0x40 MLOAD DUP1 SWAP2 SUB SWAP1 REVERT JUMPDEST PUSH3 0x25EE DUP2 PUSH3 0x2AAB JUMP JUMPDEST POP JUMP JUMPDEST PUSH1 0x1 ISZERO ISZERO PUSH1 0x8 PUSH1 0x0 CALLER PUSH20 0xFFFFFFFFFFFFFFFFFFFFFFFFFFFFFFFFFFFFFFFF AND PUSH20 0xFFFFFFFFFFFFFFFFFFFFFFFFFFFFFFFFFFFFFFFF AND DUP2 MSTORE PUSH1 0x20 ADD SWAP1 DUP2 MSTORE PUSH1 0x20 ADD PUSH1 0x0 KECCAK256 PUSH1 0x0 SWAP1 SLOAD SWAP1 PUSH2 0x100 EXP SWAP1 DIV PUSH1 0xFF AND ISZERO ISZERO ISZERO EQ PUSH3 0x2688 JUMPI PUSH1 0x40 MLOAD PUSH32 0x8C379A000000000000000000000000000000000000000000000000000000000 DUP2 MSTORE PUSH1 0x4 ADD PUSH3 0x267F SWAP1 PUSH3 0x3A4E JUMP JUMPDEST PUSH1 0x40 MLOAD DUP1 SWAP2 SUB SWAP1 REVERT JUMPDEST PUSH1 0x3 PUSH1 0x9 PUSH1 0x0 DUP4 DUP2 MSTORE PUSH1 0x20 ADD SWAP1 DUP2 MSTORE PUSH1 0x20 ADD PUSH1 0x0 KECCAK256 PUSH1 0x7 ADD SLOAD EQ PUSH3 0x26E4 JUMPI PUSH1 0x40 MLOAD PUSH32 0x8C379A000000000000000000000000000000000000000000000000000000000 DUP2 MSTORE PUSH1 0x4 ADD PUSH3 0x26DB SWAP1 PUSH3 0x3A2C JUMP JUMPDEST PUSH1 0x40 MLOAD DUP1 SWAP2 SUB SWAP1 REVERT JUMPDEST PUSH1 0x1 ISZERO ISZERO PUSH1 0x9 PUSH1 0x0 DUP4 DUP2 MSTORE PUSH1 0x20 ADD SWAP1 DUP2 MSTORE PUSH1 0x20 ADD PUSH1 0x0 KECCAK256 PUSH1 0x8 ADD PUSH1 0x0 SWAP1 SLOAD SWAP1 PUSH2 0x100 EXP SWAP1 DIV PUSH1 0xFF AND ISZERO ISZERO EQ PUSH3 0x2751 JUMPI PUSH1 0x40 MLOAD PUSH32 0x8C379A000000000000000000000000000000000000000000000000000000000 DUP2 MSTORE PUSH1 0x4 ADD PUSH3 0x2748 SWAP1 PUSH3 0x3960 JUMP JUMPDEST PUSH1 0x40 MLOAD DUP1 SWAP2 SUB SWAP1 REVERT JUMPDEST PUSH1 0x1 ISZERO ISZERO PUSH1 0x9 PUSH1 0x0 DUP4 DUP2 MSTORE PUSH1 0x20 ADD SWAP1 DUP2 MSTORE PUSH1 0x20 ADD PUSH1 0x0 KECCAK256 PUSH1 0xA ADD PUSH1 0x0 SWAP1 SLOAD SWAP1 PUSH2 0x100 EXP SWAP1 DIV PUSH1 0xFF AND ISZERO ISZERO EQ PUSH3 0x27BE JUMPI PUSH1 0x40 MLOAD PUSH32 0x8C379A000000000000000000000000000000000000000000000000000000000 DUP2 MSTORE PUSH1 0x4 ADD PUSH3 0x27B5 SWAP1 PUSH3 0x3A70 JUMP JUMPDEST PUSH1 0x40 MLOAD DUP1 SWAP2 SUB SWAP1 REVERT JUMPDEST PUSH1 0x0 PUSH1 0x9 PUSH1 0x0 DUP4 DUP2 MSTORE PUSH1 0x20 ADD SWAP1 DUP2 MSTORE PUSH1 0x20 ADD PUSH1 0x0 KECCAK256 SWAP1 POP DUP1 PUSH1 0x8 ADD PUSH1 0x1 SWAP1 SLOAD SWAP1 PUSH2 0x100 EXP SWAP1 DIV PUSH20 0xFFFFFFFFFFFFFFFFFFFFFFFFFFFFFFFFFFFFFFFF AND PUSH20 0xFFFFFFFFFFFFFFFFFFFFFFFFFFFFFFFFFFFFFFFF AND PUSH4 0x23B872DD ADDRESS PUSH1 0xA PUSH1 0x0 DUP7 DUP2 MSTORE PUSH1 0x20 ADD SWAP1 DUP2 MSTORE PUSH1 0x20 ADD PUSH1 0x0 KECCAK256 PUSH1 0x0 SWAP1 SLOAD SWAP1 PUSH2 0x100 EXP SWAP1 DIV PUSH20 0xFFFFFFFFFFFFFFFFFFFFFFFFFFFFFFFFFFFFFFFF AND DUP5 PUSH1 0x9 ADD SLOAD PUSH1 0x40 MLOAD DUP5 PUSH4 0xFFFFFFFF AND PUSH1 0xE0 SHL DUP2 MSTORE PUSH1 0x4 ADD PUSH3 0x286F SWAP4 SWAP3 SWAP2 SWAP1 PUSH3 0x35FE JUMP JUMPDEST PUSH1 0x0 PUSH1 0x40 MLOAD DUP1 DUP4 SUB DUP2 PUSH1 0x0 DUP8 DUP1 EXTCODESIZE ISZERO DUP1 ISZERO PUSH3 0x288A JUMPI PUSH1 0x0 DUP1 REVERT JUMPDEST POP GAS CALL ISZERO DUP1 ISZERO PUSH3 0x289F JUMPI RETURNDATASIZE PUSH1 0x0 DUP1 RETURNDATACOPY RETURNDATASIZE PUSH1 0x0 REVERT JUMPDEST POP POP POP POP PUSH1 0x2 DUP2 PUSH1 0x7 ADD DUP2 SWAP1 SSTORE POP POP POP JUMP JUMPDEST PUSH1 0x0 CALLER SWAP1 POP SWAP1 JUMP JUMPDEST PUSH1 0x0 DUP1 PUSH1 0x0 SWAP1 POP JUMPDEST PUSH1 0x9 PUSH1 0x0 DUP6 DUP2 MSTORE PUSH1 0x20 ADD SWAP1 DUP2 MSTORE PUSH1 0x20 ADD PUSH1 0x0 KECCAK256 PUSH1 0x5 ADD DUP1 SLOAD SWAP1 POP DUP2 LT ISZERO PUSH3 0x298E JUMPI DUP3 PUSH20 0xFFFFFFFFFFFFFFFFFFFFFFFFFFFFFFFFFFFFFFFF AND PUSH1 0x9 PUSH1 0x0 DUP7 DUP2 MSTORE PUSH1 0x20 ADD SWAP1 DUP2 MSTORE PUSH1 0x20 ADD PUSH1 0x0 KECCAK256 PUSH1 0x5 ADD DUP3 DUP2 SLOAD DUP2 LT PUSH3 0x2925 JUMPI PUSH3 0x2924 PUSH3 0x416A JUMP JUMPDEST JUMPDEST SWAP1 PUSH1 0x0 MSTORE PUSH1 0x20 PUSH1 0x0 KECCAK256 ADD PUSH1 0x0 SWAP1 SLOAD SWAP1 PUSH2 0x100 EXP SWAP1 DIV PUSH20 0xFFFFFFFFFFFFFFFFFFFFFFFFFFFFFFFFFFFFFFFF AND PUSH20 0xFFFFFFFFFFFFFFFFFFFFFFFFFFFFFFFFFFFFFFFF AND EQ ISZERO PUSH3 0x2978 JUMPI PUSH1 0x1 SWAP2 POP POP PUSH3 0x2994 JUMP JUMPDEST DUP1 DUP1 PUSH3 0x2985 SWAP1 PUSH3 0x408F JUMP JUMPDEST SWAP2 POP POP PUSH3 0x28C1 JUMP JUMPDEST POP PUSH1 0x0 SWAP1 POP JUMPDEST SWAP3 SWAP2 POP POP JUMP JUMPDEST PUSH1 0x0 DUP1 PUSH1 0x0 SWAP1 POP JUMPDEST PUSH1 0x9 PUSH1 0x0 DUP5 DUP2 MSTORE PUSH1 0x20 ADD SWAP1 DUP2 MSTORE PUSH1 0x20 ADD PUSH1 0x0 KECCAK256 PUSH1 0x5 ADD DUP1 SLOAD SWAP1 POP DUP2 LT ISZERO PUSH3 0x2AA0 JUMPI PUSH1 0x9 PUSH1 0x0 DUP5 DUP2 MSTORE PUSH1 0x20 ADD SWAP1 DUP2 MSTORE PUSH1 0x20 ADD PUSH1 0x0 KECCAK256 PUSH1 0x6 ADD PUSH1 0x0 PUSH1 0x9 PUSH1 0x0 DUP7 DUP2 MSTORE PUSH1 0x20 ADD SWAP1 DUP2 MSTORE PUSH1 0x20 ADD PUSH1 0x0 KECCAK256 PUSH1 0x5 ADD DUP4 DUP2 SLOAD DUP2 LT PUSH3 0x2A07 JUMPI PUSH3 0x2A06 PUSH3 0x416A JUMP JUMPDEST JUMPDEST SWAP1 PUSH1 0x0 MSTORE PUSH1 0x20 PUSH1 0x0 KECCAK256 ADD PUSH1 0x0 SWAP1 SLOAD SWAP1 PUSH2 0x100 EXP SWAP1 DIV PUSH20 0xFFFFFFFFFFFFFFFFFFFFFFFFFFFFFFFFFFFFFFFF AND PUSH20 0xFFFFFFFFFFFFFFFFFFFFFFFFFFFFFFFFFFFFFFFF AND PUSH20 0xFFFFFFFFFFFFFFFFFFFFFFFFFFFFFFFFFFFFFFFF AND DUP2 MSTORE PUSH1 0x20 ADD SWAP1 DUP2 MSTORE PUSH1 0x20 ADD PUSH1 0x0 KECCAK256 PUSH1 0x0 SWAP1 SLOAD SWAP1 PUSH2 0x100 EXP SWAP1 DIV PUSH1 0xFF AND PUSH3 0x2A8A JUMPI PUSH1 0x0 SWAP2 POP POP PUSH3 0x2AA6 JUMP JUMPDEST DUP1 DUP1 PUSH3 0x2A97 SWAP1 PUSH3 0x408F JUMP JUMPDEST SWAP2 POP POP PUSH3 0x29A2 JUMP JUMPDEST POP PUSH1 0x1 SWAP1 POP JUMPDEST SWAP2 SWAP1 POP JUMP JUMPDEST PUSH1 0x0 DUP1 PUSH1 0x0 SWAP1 SLOAD SWAP1 PUSH2 0x100 EXP SWAP1 DIV PUSH20 0xFFFFFFFFFFFFFFFFFFFFFFFFFFFFFFFFFFFFFFFF AND SWAP1 POP DUP2 PUSH1 0x0 DUP1 PUSH2 0x100 EXP DUP2 SLOAD DUP2 PUSH20 0xFFFFFFFFFFFFFFFFFFFFFFFFFFFFFFFFFFFFFFFF MUL NOT AND SWAP1 DUP4 PUSH20 0xFFFFFFFFFFFFFFFFFFFFFFFFFFFFFFFFFFFFFFFF AND MUL OR SWAP1 SSTORE POP DUP2 PUSH20 0xFFFFFFFFFFFFFFFFFFFFFFFFFFFFFFFFFFFFFFFF AND DUP2 PUSH20 0xFFFFFFFFFFFFFFFFFFFFFFFFFFFFFFFFFFFFFFFF AND PUSH32 0x8BE0079C531659141344CD1FD0A4F28419497F9722A3DAAFE3B4186F6B6457E0 PUSH1 0x40 MLOAD PUSH1 0x40 MLOAD DUP1 SWAP2 SUB SWAP1 LOG3 POP POP JUMP JUMPDEST PUSH2 0x2450 DUP1 PUSH3 0x46BC DUP4 CODECOPY ADD SWAP1 JUMP JUMPDEST DUP3 DUP1 SLOAD PUSH3 0x2B8B SWAP1 PUSH3 0x4023 JUMP JUMPDEST SWAP1 PUSH1 0x0 MSTORE PUSH1 0x20 PUSH1 0x0 KECCAK256 SWAP1 PUSH1 0x1F ADD PUSH1 0x20 SWAP1 DIV DUP2 ADD SWAP3 DUP3 PUSH3 0x2BAF JUMPI PUSH1 0x0 DUP6 SSTORE PUSH3 0x2BFB JUMP JUMPDEST DUP3 PUSH1 0x1F LT PUSH3 0x2BCA JUMPI DUP1 MLOAD PUSH1 0xFF NOT AND DUP4 DUP1 ADD OR DUP6 SSTORE PUSH3 0x2BFB JUMP JUMPDEST DUP3 DUP1 ADD PUSH1 0x1 ADD DUP6 SSTORE DUP3 ISZERO PUSH3 0x2BFB JUMPI SWAP2 DUP3 ADD JUMPDEST DUP3 DUP2 GT ISZERO PUSH3 0x2BFA JUMPI DUP3 MLOAD DUP3 SSTORE SWAP2 PUSH1 0x20 ADD SWAP2 SWAP1 PUSH1 0x1 ADD SWAP1 PUSH3 0x2BDD JUMP JUMPDEST JUMPDEST POP SWAP1 POP PUSH3 0x2C0A SWAP2 SWAP1 PUSH3 0x2C9D JUMP JUMPDEST POP SWAP1 JUMP JUMPDEST DUP3 DUP1 SLOAD DUP3 DUP3 SSTORE SWAP1 PUSH1 0x0 MSTORE PUSH1 0x20 PUSH1 0x0 KECCAK256 SWAP1 DUP2 ADD SWAP3 DUP3 ISZERO PUSH3 0x2C8A JUMPI SWAP2 PUSH1 0x20 MUL DUP3 ADD JUMPDEST DUP3 DUP2 GT ISZERO PUSH3 0x2C89 JUMPI DUP3 MLOAD DUP3 PUSH1 0x0 PUSH2 0x100 EXP DUP2 SLOAD DUP2 PUSH20 0xFFFFFFFFFFFFFFFFFFFFFFFFFFFFFFFFFFFFFFFF MUL NOT AND SWAP1 DUP4 PUSH20 0xFFFFFFFFFFFFFFFFFFFFFFFFFFFFFFFFFFFFFFFF AND MUL OR SWAP1 SSTORE POP SWAP2 PUSH1 0x20 ADD SWAP2 SWAP1 PUSH1 0x1 ADD SWAP1 PUSH3 0x2C2F JUMP JUMPDEST JUMPDEST POP SWAP1 POP PUSH3 0x2C99 SWAP2 SWAP1 PUSH3 0x2C9D JUMP JUMPDEST POP SWAP1 JUMP JUMPDEST JUMPDEST DUP1 DUP3 GT ISZERO PUSH3 0x2CB8 JUMPI PUSH1 0x0 DUP2 PUSH1 0x0 SWAP1 SSTORE POP PUSH1 0x1 ADD PUSH3 0x2C9E JUMP JUMPDEST POP SWAP1 JUMP JUMPDEST PUSH1 0x0 PUSH3 0x2CD3 PUSH3 0x2CCD DUP5 PUSH3 0x3D81 JUMP JUMPDEST PUSH3 0x3D58 JUMP JUMPDEST SWAP1 POP DUP1 DUP4 DUP3 MSTORE PUSH1 0x20 DUP3 ADD SWAP1 POP DUP3 DUP6 PUSH1 0x20 DUP7 MUL DUP3 ADD GT ISZERO PUSH3 0x2CF9 JUMPI PUSH3 0x2CF8 PUSH3 0x41CD JUMP JUMPDEST JUMPDEST PUSH1 0x0 JUMPDEST DUP6 DUP2 LT ISZERO PUSH3 0x2D2D JUMPI DUP2 PUSH3 0x2D12 DUP9 DUP3 PUSH3 0x2D82 JUMP JUMPDEST DUP5 MSTORE PUSH1 0x20 DUP5 ADD SWAP4 POP PUSH1 0x20 DUP4 ADD SWAP3 POP POP PUSH1 0x1 DUP2 ADD SWAP1 POP PUSH3 0x2CFC JUMP JUMPDEST POP POP POP SWAP4 SWAP3 POP POP POP JUMP JUMPDEST PUSH1 0x0 PUSH3 0x2D4E PUSH3 0x2D48 DUP5 PUSH3 0x3DB0 JUMP JUMPDEST PUSH3 0x3D58 JUMP JUMPDEST SWAP1 POP DUP3 DUP2 MSTORE PUSH1 0x20 DUP2 ADD DUP5 DUP5 DUP5 ADD GT ISZERO PUSH3 0x2D6D JUMPI PUSH3 0x2D6C PUSH3 0x41D2 JUMP JUMPDEST JUMPDEST PUSH3 0x2D7A DUP5 DUP3 DUP6 PUSH3 0x3FDE JUMP JUMPDEST POP SWAP4 SWAP3 POP POP POP JUMP JUMPDEST PUSH1 0x0 DUP2 CALLDATALOAD SWAP1 POP PUSH3 0x2D93 DUP2 PUSH3 0x4653 JUMP JUMPDEST SWAP3 SWAP2 POP POP JUMP JUMPDEST PUSH1 0x0 DUP3 PUSH1 0x1F DUP4 ADD SLT PUSH3 0x2DB1 JUMPI PUSH3 0x2DB0 PUSH3 0x41C8 JUMP JUMPDEST JUMPDEST DUP2 CALLDATALOAD PUSH3 0x2DC3 DUP5 DUP3 PUSH1 0x20 DUP7 ADD PUSH3 0x2CBC JUMP JUMPDEST SWAP2 POP POP SWAP3 SWAP2 POP POP JUMP JUMPDEST PUSH1 0x0 DUP2 CALLDATALOAD SWAP1 POP PUSH3 0x2DDD DUP2 PUSH3 0x466D JUMP JUMPDEST SWAP3 SWAP2 POP POP JUMP JUMPDEST PUSH1 0x0 DUP2 MLOAD SWAP1 POP PUSH3 0x2DF4 DUP2 PUSH3 0x466D JUMP JUMPDEST SWAP3 SWAP2 POP POP JUMP JUMPDEST PUSH1 0x0 DUP2 CALLDATALOAD SWAP1 POP PUSH3 0x2E0B DUP2 PUSH3 0x4687 JUMP JUMPDEST SWAP3 SWAP2 POP POP JUMP JUMPDEST PUSH1 0x0 DUP3 PUSH1 0x1F DUP4 ADD SLT PUSH3 0x2E29 JUMPI PUSH3 0x2E28 PUSH3 0x41C8 JUMP JUMPDEST JUMPDEST DUP2 CALLDATALOAD PUSH3 0x2E3B DUP5 DUP3 PUSH1 0x20 DUP7 ADD PUSH3 0x2D37 JUMP JUMPDEST SWAP2 POP POP SWAP3 SWAP2 POP POP JUMP JUMPDEST PUSH1 0x0 DUP2 CALLDATALOAD SWAP1 POP PUSH3 0x2E55 DUP2 PUSH3 0x46A1 JUMP JUMPDEST SWAP3 SWAP2 POP POP JUMP JUMPDEST PUSH1 0x0 DUP2 MLOAD SWAP1 POP PUSH3 0x2E6C DUP2 PUSH3 0x46A1 JUMP JUMPDEST SWAP3 SWAP2 POP POP JUMP JUMPDEST PUSH1 0x0 PUSH1 0x20 DUP3 DUP5 SUB SLT ISZERO PUSH3 0x2E8B JUMPI PUSH3 0x2E8A PUSH3 0x41DC JUMP JUMPDEST JUMPDEST PUSH1 0x0 PUSH3 0x2E9B DUP5 DUP3 DUP6 ADD PUSH3 0x2D82 JUMP JUMPDEST SWAP2 POP POP SWAP3 SWAP2 POP POP JUMP JUMPDEST PUSH1 0x0 PUSH1 0x20 DUP3 DUP5 SUB SLT ISZERO PUSH3 0x2EBD JUMPI PUSH3 0x2EBC PUSH3 0x41DC JUMP JUMPDEST JUMPDEST PUSH1 0x0 PUSH3 0x2ECD DUP5 DUP3 DUP6 ADD PUSH3 0x2DE3 JUMP JUMPDEST SWAP2 POP POP SWAP3 SWAP2 POP POP JUMP JUMPDEST PUSH1 0x0 PUSH1 0x20 DUP3 DUP5 SUB SLT ISZERO PUSH3 0x2EEF JUMPI PUSH3 0x2EEE PUSH3 0x41DC JUMP JUMPDEST JUMPDEST PUSH1 0x0 PUSH3 0x2EFF DUP5 DUP3 DUP6 ADD PUSH3 0x2DFA JUMP JUMPDEST SWAP2 POP POP SWAP3 SWAP2 POP POP JUMP JUMPDEST PUSH1 0x0 DUP1 PUSH1 0x40 DUP4 DUP6 SUB SLT ISZERO PUSH3 0x2F22 JUMPI PUSH3 0x2F21 PUSH3 0x41DC JUMP JUMPDEST JUMPDEST PUSH1 0x0 PUSH3 0x2F32 DUP6 DUP3 DUP7 ADD PUSH3 0x2DFA JUMP JUMPDEST SWAP3 POP POP PUSH1 0x20 PUSH3 0x2F45 DUP6 DUP3 DUP7 ADD PUSH3 0x2E44 JUMP JUMPDEST SWAP2 POP POP SWAP3 POP SWAP3 SWAP1 POP JUMP JUMPDEST PUSH1 0x0 DUP1 PUSH1 0x0 DUP1 PUSH1 0x0 DUP1 PUSH1 0x0 DUP1 PUSH2 0x100 DUP10 DUP12 SUB SLT ISZERO PUSH3 0x2F73 JUMPI PUSH3 0x2F72 PUSH3 0x41DC JUMP JUMPDEST JUMPDEST PUSH1 0x0 DUP10 ADD CALLDATALOAD PUSH8 0xFFFFFFFFFFFFFFFF DUP2 GT ISZERO PUSH3 0x2F94 JUMPI PUSH3 0x2F93 PUSH3 0x41D7 JUMP JUMPDEST JUMPDEST PUSH3 0x2FA2 DUP12 DUP3 DUP13 ADD PUSH3 0x2E11 JUMP JUMPDEST SWAP9 POP POP PUSH1 0x20 DUP10 ADD CALLDATALOAD PUSH8 0xFFFFFFFFFFFFFFFF DUP2 GT ISZERO PUSH3 0x2FC6 JUMPI PUSH3 0x2FC5 PUSH3 0x41D7 JUMP JUMPDEST JUMPDEST PUSH3 0x2FD4 DUP12 DUP3 DUP13 ADD PUSH3 0x2D99 JUMP JUMPDEST SWAP8 POP POP PUSH1 0x40 PUSH3 0x2FE7 DUP12 DUP3 DUP13 ADD PUSH3 0x2D82 JUMP JUMPDEST SWAP7 POP POP PUSH1 0x60 PUSH3 0x2FFA DUP12 DUP3 DUP13 ADD PUSH3 0x2E44 JUMP JUMPDEST SWAP6 POP POP PUSH1 0x80 PUSH3 0x300D DUP12 DUP3 DUP13 ADD PUSH3 0x2E44 JUMP JUMPDEST SWAP5 POP POP PUSH1 0xA0 PUSH3 0x3020 DUP12 DUP3 DUP13 ADD PUSH3 0x2DCC JUMP JUMPDEST SWAP4 POP POP PUSH1 0xC0 PUSH3 0x3033 DUP12 DUP3 DUP13 ADD PUSH3 0x2E44 JUMP JUMPDEST SWAP3 POP POP PUSH1 0xE0 PUSH3 0x3046 DUP12 DUP3 DUP13 ADD PUSH3 0x2E44 JUMP JUMPDEST SWAP2 POP POP SWAP3 SWAP6 SWAP9 POP SWAP3 SWAP6 SWAP9 SWAP1 SWAP4 SWAP7 POP JUMP JUMPDEST PUSH1 0x0 PUSH1 0x20 DUP3 DUP5 SUB SLT ISZERO PUSH3 0x306F JUMPI PUSH3 0x306E PUSH3 0x41DC JUMP JUMPDEST JUMPDEST PUSH1 0x0 PUSH3 0x307F DUP5 DUP3 DUP6 ADD PUSH3 0x2E44 JUMP JUMPDEST SWAP2 POP POP SWAP3 SWAP2 POP POP JUMP JUMPDEST PUSH1 0x0 PUSH1 0x20 DUP3 DUP5 SUB SLT ISZERO PUSH3 0x30A1 JUMPI PUSH3 0x30A0 PUSH3 0x41DC JUMP JUMPDEST JUMPDEST PUSH1 0x0 PUSH3 0x30B1 DUP5 DUP3 DUP6 ADD PUSH3 0x2E5B JUMP JUMPDEST SWAP2 POP POP SWAP3 SWAP2 POP POP JUMP JUMPDEST PUSH1 0x0 DUP1 PUSH1 0x40 DUP4 DUP6 SUB SLT ISZERO PUSH3 0x30D4 JUMPI PUSH3 0x30D3 PUSH3 0x41DC JUMP JUMPDEST JUMPDEST PUSH1 0x0 PUSH3 0x30E4 DUP6 DUP3 DUP7 ADD PUSH3 0x2E44 JUMP JUMPDEST SWAP3 POP POP PUSH1 0x20 PUSH3 0x30F7 DUP6 DUP3 DUP7 ADD PUSH3 0x2D82 JUMP JUMPDEST SWAP2 POP POP SWAP3 POP SWAP3 SWAP1 POP JUMP JUMPDEST PUSH1 0x0 DUP1 PUSH1 0x40 DUP4 DUP6 SUB SLT ISZERO PUSH3 0x311B JUMPI PUSH3 0x311A PUSH3 0x41DC JUMP JUMPDEST JUMPDEST PUSH1 0x0 PUSH3 0x312B DUP6 DUP3 DUP7 ADD PUSH3 0x2E44 JUMP JUMPDEST SWAP3 POP POP PUSH1 0x20 PUSH3 0x313E DUP6 DUP3 DUP7 ADD PUSH3 0x2DCC JUMP JUMPDEST SWAP2 POP POP SWAP3 POP SWAP3 SWAP1 POP JUMP JUMPDEST PUSH1 0x0 DUP1 PUSH1 0x0 PUSH1 0x60 DUP5 DUP7 SUB SLT ISZERO PUSH3 0x3164 JUMPI PUSH3 0x3163 PUSH3 0x41DC JUMP JUMPDEST JUMPDEST PUSH1 0x0 PUSH3 0x3174 DUP7 DUP3 DUP8 ADD PUSH3 0x2E44 JUMP JUMPDEST SWAP4 POP POP PUSH1 0x20 DUP5 ADD CALLDATALOAD PUSH8 0xFFFFFFFFFFFFFFFF DUP2 GT ISZERO PUSH3 0x3198 JUMPI PUSH3 0x3197 PUSH3 0x41D7 JUMP JUMPDEST JUMPDEST PUSH3 0x31A6 DUP7 DUP3 DUP8 ADD PUSH3 0x2E11 JUMP JUMPDEST SWAP3 POP POP PUSH1 0x40 DUP5 ADD CALLDATALOAD PUSH8 0xFFFFFFFFFFFFFFFF DUP2 GT ISZERO PUSH3 0x31CA JUMPI PUSH3 0x31C9 PUSH3 0x41D7 JUMP JUMPDEST JUMPDEST PUSH3 0x31D8 DUP7 DUP3 DUP8 ADD PUSH3 0x2E11 JUMP JUMPDEST SWAP2 POP POP SWAP3 POP SWAP3 POP SWAP3 JUMP JUMPDEST PUSH1 0x0 PUSH3 0x31F0 DUP4 DUP4 PUSH3 0x31FC JUMP JUMPDEST PUSH1 0x20 DUP4 ADD SWAP1 POP SWAP3 SWAP2 POP POP JUMP JUMPDEST PUSH3 0x3207 DUP2 PUSH3 0x3F6C JUMP JUMPDEST DUP3 MSTORE POP POP JUMP JUMPDEST PUSH3 0x3218 DUP2 PUSH3 0x3F6C JUMP JUMPDEST DUP3 MSTORE POP POP JUMP JUMPDEST PUSH1 0x0 PUSH3 0x322B DUP3 PUSH3 0x3DF6 JUMP JUMPDEST PUSH3 0x3237 DUP2 DUP6 PUSH3 0x3E19 JUMP JUMPDEST SWAP4 POP PUSH3 0x3244 DUP4 PUSH3 0x3DE6 JUMP JUMPDEST DUP1 PUSH1 0x0 JUMPDEST DUP4 DUP2 LT ISZERO PUSH3 0x327B JUMPI DUP2 MLOAD PUSH3 0x325F DUP9 DUP3 PUSH3 0x31E2 JUMP JUMPDEST SWAP8 POP PUSH3 0x326C DUP4 PUSH3 0x3E0C JUMP JUMPDEST SWAP3 POP POP PUSH1 0x1 DUP2 ADD SWAP1 POP PUSH3 0x3248 JUMP JUMPDEST POP DUP6 SWAP4 POP POP POP POP SWAP3 SWAP2 POP POP JUMP JUMPDEST PUSH3 0x3293 DUP2 PUSH3 0x3F80 JUMP JUMPDEST DUP3 MSTORE POP POP JUMP JUMPDEST PUSH3 0x32A4 DUP2 PUSH3 0x3FCA JUMP JUMPDEST DUP3 MSTORE POP POP JUMP JUMPDEST PUSH1 0x0 PUSH3 0x32B7 DUP3 PUSH3 0x3E01 JUMP JUMPDEST PUSH3 0x32C3 DUP2 DUP6 PUSH3 0x3E2A JUMP JUMPDEST SWAP4 POP PUSH3 0x32D5 DUP2 DUP6 PUSH1 0x20 DUP7 ADD PUSH3 0x3FED JUMP JUMPDEST PUSH3 0x32E0 DUP2 PUSH3 0x41E1 JUMP JUMPDEST DUP5 ADD SWAP2 POP POP SWAP3 SWAP2 POP POP JUMP JUMPDEST PUSH1 0x0 PUSH3 0x32FA PUSH1 0x22 DUP4 PUSH3 0x3E2A JUMP JUMPDEST SWAP2 POP PUSH3 0x3307 DUP3 PUSH3 0x41F2 JUMP JUMPDEST PUSH1 0x40 DUP3 ADD SWAP1 POP SWAP2 SWAP1 POP JUMP JUMPDEST PUSH1 0x0 PUSH3 0x3321 PUSH1 0x13 DUP4 PUSH3 0x3E2A JUMP JUMPDEST SWAP2 POP PUSH3 0x332E DUP3 PUSH3 0x4241 JUMP JUMPDEST PUSH1 0x20 DUP3 ADD SWAP1 POP SWAP2 SWAP1 POP JUMP JUMPDEST PUSH1 0x0 PUSH3 0x3348 PUSH1 0x26 DUP4 PUSH3 0x3E2A JUMP JUMPDEST SWAP2 POP PUSH3 0x3355 DUP3 PUSH3 0x426A JUMP JUMPDEST PUSH1 0x40 DUP3 ADD SWAP1 POP SWAP2 SWAP1 POP JUMP JUMPDEST PUSH1 0x0 PUSH3 0x336F PUSH1 0x27 DUP4 PUSH3 0x3E2A JUMP JUMPDEST SWAP2 POP PUSH3 0x337C DUP3 PUSH3 0x42B9 JUMP JUMPDEST PUSH1 0x40 DUP3 ADD SWAP1 POP SWAP2 SWAP1 POP JUMP JUMPDEST PUSH1 0x0 PUSH3 0x3396 PUSH1 0x1A DUP4 PUSH3 0x3E2A JUMP JUMPDEST SWAP2 POP PUSH3 0x33A3 DUP3 PUSH3 0x4308 JUMP JUMPDEST PUSH1 0x20 DUP3 ADD SWAP1 POP SWAP2 SWAP1 POP JUMP JUMPDEST PUSH1 0x0 PUSH3 0x33BD PUSH1 0x28 DUP4 PUSH3 0x3E2A JUMP JUMPDEST SWAP2 POP PUSH3 0x33CA DUP3 PUSH3 0x4331 JUMP JUMPDEST PUSH1 0x40 DUP3 ADD SWAP1 POP SWAP2 SWAP1 POP JUMP JUMPDEST PUSH1 0x0 PUSH3 0x33E4 PUSH1 0x1C DUP4 PUSH3 0x3E2A JUMP JUMPDEST SWAP2 POP PUSH3 0x33F1 DUP3 PUSH3 0x4380 JUMP JUMPDEST PUSH1 0x20 DUP3 ADD SWAP1 POP SWAP2 SWAP1 POP JUMP JUMPDEST PUSH1 0x0 PUSH3 0x340B PUSH1 0x20 DUP4 PUSH3 0x3E2A JUMP JUMPDEST SWAP2 POP PUSH3 0x3418 DUP3 PUSH3 0x43A9 JUMP JUMPDEST PUSH1 0x20 DUP3 ADD SWAP1 POP SWAP2 SWAP1 POP JUMP JUMPDEST PUSH1 0x0 PUSH3 0x3432 PUSH1 0x29 DUP4 PUSH3 0x3E2A JUMP JUMPDEST SWAP2 POP PUSH3 0x343F DUP3 PUSH3 0x43D2 JUMP JUMPDEST PUSH1 0x40 DUP3 ADD SWAP1 POP SWAP2 SWAP1 POP JUMP JUMPDEST PUSH1 0x0 PUSH3 0x3459 PUSH1 0x12 DUP4 PUSH3 0x3E2A JUMP JUMPDEST SWAP2 POP PUSH3 0x3466 DUP3 PUSH3 0x4421 JUMP JUMPDEST PUSH1 0x20 DUP3 ADD SWAP1 POP SWAP2 SWAP1 POP JUMP JUMPDEST PUSH1 0x0 PUSH3 0x3480 PUSH1 0x1F DUP4 PUSH3 0x3E2A JUMP JUMPDEST SWAP2 POP PUSH3 0x348D DUP3 PUSH3 0x444A JUMP JUMPDEST PUSH1 0x20 DUP3 ADD SWAP1 POP SWAP2 SWAP1 POP JUMP JUMPDEST PUSH1 0x0 PUSH3 0x34A7 PUSH1 0x0 DUP4 PUSH3 0x3E2A JUMP JUMPDEST SWAP2 POP PUSH3 0x34B4 DUP3 PUSH3 0x4473 JUMP JUMPDEST PUSH1 0x0 DUP3 ADD SWAP1 POP SWAP2 SWAP1 POP JUMP JUMPDEST PUSH1 0x0 PUSH3 0x34CE PUSH1 0x3A DUP4 PUSH3 0x3E2A JUMP JUMPDEST SWAP2 POP PUSH3 0x34DB DUP3 PUSH3 0x4476 JUMP JUMPDEST PUSH1 0x40 DUP3 ADD SWAP1 POP SWAP2 SWAP1 POP JUMP JUMPDEST PUSH1 0x0 PUSH3 0x34F5 PUSH1 0x24 DUP4 PUSH3 0x3E2A JUMP JUMPDEST SWAP2 POP PUSH3 0x3502 DUP3 PUSH3 0x44C5 JUMP JUMPDEST PUSH1 0x40 DUP3 ADD SWAP1 POP SWAP2 SWAP1 POP JUMP JUMPDEST PUSH1 0x0 PUSH3 0x351C PUSH1 0x31 DUP4 PUSH3 0x3E2A JUMP JUMPDEST SWAP2 POP PUSH3 0x3529 DUP3 PUSH3 0x4514 JUMP JUMPDEST PUSH1 0x40 DUP3 ADD SWAP1 POP SWAP2 SWAP1 POP JUMP JUMPDEST PUSH1 0x0 PUSH3 0x3543 PUSH1 0x1C DUP4 PUSH3 0x3E2A JUMP JUMPDEST SWAP2 POP PUSH3 0x3550 DUP3 PUSH3 0x4563 JUMP JUMPDEST PUSH1 0x20 DUP3 ADD SWAP1 POP SWAP2 SWAP1 POP JUMP JUMPDEST PUSH1 0x0 PUSH3 0x356A PUSH1 0x21 DUP4 PUSH3 0x3E2A JUMP JUMPDEST SWAP2 POP PUSH3 0x3577 DUP3 PUSH3 0x458C JUMP JUMPDEST PUSH1 0x40 DUP3 ADD SWAP1 POP SWAP2 SWAP1 POP JUMP JUMPDEST PUSH1 0x0 PUSH3 0x3591 PUSH1 0x2A DUP4 PUSH3 0x3E2A JUMP JUMPDEST SWAP2 POP PUSH3 0x359E DUP3 PUSH3 0x45DB JUMP JUMPDEST PUSH1 0x40 DUP3 ADD SWAP1 POP SWAP2 SWAP1 POP JUMP JUMPDEST PUSH1 0x0 PUSH3 0x35B8 PUSH1 0x1B DUP4 PUSH3 0x3E2A JUMP JUMPDEST SWAP2 POP PUSH3 0x35C5 DUP3 PUSH3 0x462A JUMP JUMPDEST PUSH1 0x20 DUP3 ADD SWAP1 POP SWAP2 SWAP1 POP JUMP JUMPDEST PUSH3 0x35DB DUP2 PUSH3 0x3FC0 JUMP JUMPDEST DUP3 MSTORE POP POP JUMP JUMPDEST PUSH1 0x0 PUSH1 0x20 DUP3 ADD SWAP1 POP PUSH3 0x35F8 PUSH1 0x0 DUP4 ADD DUP5 PUSH3 0x320D JUMP JUMPDEST SWAP3 SWAP2 POP POP JUMP JUMPDEST PUSH1 0x0 PUSH1 0x60 DUP3 ADD SWAP1 POP PUSH3 0x3615 PUSH1 0x0 DUP4 ADD DUP7 PUSH3 0x320D JUMP JUMPDEST PUSH3 0x3624 PUSH1 0x20 DUP4 ADD DUP6 PUSH3 0x320D JUMP JUMPDEST PUSH3 0x3633 PUSH1 0x40 DUP4 ADD DUP5 PUSH3 0x35D0 JUMP JUMPDEST SWAP5 SWAP4 POP POP POP POP JUMP JUMPDEST PUSH1 0x0 PUSH2 0x1A0 DUP3 ADD SWAP1 POP PUSH3 0x3653 PUSH1 0x0 DUP4 ADD DUP16 PUSH3 0x320D JUMP JUMPDEST DUP2 DUP2 SUB PUSH1 0x20 DUP4 ADD MSTORE PUSH3 0x3667 DUP2 DUP15 PUSH3 0x32AA JUMP JUMPDEST SWAP1 POP DUP2 DUP2 SUB PUSH1 0x40 DUP4 ADD MSTORE PUSH3 0x367D DUP2 DUP14 PUSH3 0x32AA JUMP JUMPDEST SWAP1 POP PUSH3 0x368E PUSH1 0x60 DUP4 ADD DUP13 PUSH3 0x320D JUMP JUMPDEST PUSH3 0x369D PUSH1 0x80 DUP4 ADD DUP12 PUSH3 0x35D0 JUMP JUMPDEST PUSH3 0x36AC PUSH1 0xA0 DUP4 ADD DUP11 PUSH3 0x35D0 JUMP JUMPDEST PUSH3 0x36BB PUSH1 0xC0 DUP4 ADD DUP10 PUSH3 0x35D0 JUMP JUMPDEST PUSH3 0x36CA PUSH1 0xE0 DUP4 ADD DUP9 PUSH3 0x35D0 JUMP JUMPDEST PUSH3 0x36DA PUSH2 0x100 DUP4 ADD DUP8 PUSH3 0x35D0 JUMP JUMPDEST PUSH3 0x36EA PUSH2 0x120 DUP4 ADD DUP7 PUSH3 0x320D JUMP JUMPDEST PUSH3 0x36FA PUSH2 0x140 DUP4 ADD DUP6 PUSH3 0x3288 JUMP JUMPDEST PUSH3 0x370A PUSH2 0x160 DUP4 ADD DUP5 PUSH3 0x3299 JUMP JUMPDEST DUP2 DUP2 SUB PUSH2 0x180 DUP4 ADD MSTORE PUSH3 0x371E DUP2 PUSH3 0x3498 JUMP JUMPDEST SWAP1 POP SWAP14 SWAP13 POP POP POP POP POP POP POP POP POP POP POP POP POP JUMP JUMPDEST PUSH1 0x0 PUSH1 0x40 DUP3 ADD SWAP1 POP PUSH3 0x3748 PUSH1 0x0 DUP4 ADD DUP6 PUSH3 0x320D JUMP JUMPDEST PUSH3 0x3757 PUSH1 0x20 DUP4 ADD DUP5 PUSH3 0x35D0 JUMP JUMPDEST SWAP4 SWAP3 POP POP POP JUMP JUMPDEST PUSH1 0x0 PUSH2 0x100 DUP3 ADD SWAP1 POP PUSH3 0x3776 PUSH1 0x0 DUP4 ADD DUP12 PUSH3 0x320D JUMP JUMPDEST PUSH3 0x3785 PUSH1 0x20 DUP4 ADD DUP11 PUSH3 0x35D0 JUMP JUMPDEST PUSH3 0x3794 PUSH1 0x40 DUP4 ADD DUP10 PUSH3 0x35D0 JUMP JUMPDEST PUSH3 0x37A3 PUSH1 0x60 DUP4 ADD DUP9 PUSH3 0x35D0 JUMP JUMPDEST PUSH3 0x37B2 PUSH1 0x80 DUP4 ADD DUP8 PUSH3 0x35D0 JUMP JUMPDEST PUSH3 0x37C1 PUSH1 0xA0 DUP4 ADD DUP7 PUSH3 0x320D JUMP JUMPDEST PUSH3 0x37D0 PUSH1 0xC0 DUP4 ADD DUP6 PUSH3 0x35D0 JUMP JUMPDEST PUSH3 0x37DF PUSH1 0xE0 DUP4 ADD DUP5 PUSH3 0x35D0 JUMP JUMPDEST SWAP10 SWAP9 POP POP POP POP POP POP POP POP POP JUMP JUMPDEST PUSH1 0x0 PUSH1 0x20 DUP3 ADD SWAP1 POP PUSH3 0x3803 PUSH1 0x0 DUP4 ADD DUP5 PUSH3 0x3288 JUMP JUMPDEST SWAP3 SWAP2 POP POP JUMP JUMPDEST PUSH1 0x0 PUSH1 0x20 DUP3 ADD SWAP1 POP DUP2 DUP2 SUB PUSH1 0x0 DUP4 ADD MSTORE PUSH3 0x3825 DUP2 DUP5 PUSH3 0x32AA JUMP JUMPDEST SWAP1 POP SWAP3 SWAP2 POP POP JUMP JUMPDEST PUSH1 0x0 PUSH1 0xC0 DUP3 ADD SWAP1 POP DUP2 DUP2 SUB PUSH1 0x0 DUP4 ADD MSTORE PUSH3 0x3849 DUP2 DUP10 PUSH3 0x32AA JUMP JUMPDEST SWAP1 POP DUP2 DUP2 SUB PUSH1 0x20 DUP4 ADD MSTORE PUSH3 0x385F DUP2 DUP9 PUSH3 0x32AA JUMP JUMPDEST SWAP1 POP DUP2 DUP2 SUB PUSH1 0x40 DUP4 ADD MSTORE PUSH3 0x3875 DUP2 DUP8 PUSH3 0x32AA JUMP JUMPDEST SWAP1 POP DUP2 DUP2 SUB PUSH1 0x60 DUP4 ADD MSTORE PUSH3 0x388B DUP2 DUP7 PUSH3 0x32AA JUMP JUMPDEST SWAP1 POP PUSH3 0x389C PUSH1 0x80 DUP4 ADD DUP6 PUSH3 0x320D JUMP JUMPDEST PUSH3 0x38AB PUSH1 0xA0 DUP4 ADD DUP5 PUSH3 0x35D0 JUMP JUMPDEST SWAP8 SWAP7 POP POP POP POP POP POP POP JUMP JUMPDEST PUSH1 0x0 PUSH1 0x20 DUP3 ADD SWAP1 POP DUP2 DUP2 SUB PUSH1 0x0 DUP4 ADD MSTORE PUSH3 0x38D1 DUP2 PUSH3 0x32EB JUMP JUMPDEST SWAP1 POP SWAP2 SWAP1 POP JUMP JUMPDEST PUSH1 0x0 PUSH1 0x20 DUP3 ADD SWAP1 POP DUP2 DUP2 SUB PUSH1 0x0 DUP4 ADD MSTORE PUSH3 0x38F3 DUP2 PUSH3 0x3312 JUMP JUMPDEST SWAP1 POP SWAP2 SWAP1 POP JUMP JUMPDEST PUSH1 0x0 PUSH1 0x20 DUP3 ADD SWAP1 POP DUP2 DUP2 SUB PUSH1 0x0 DUP4 ADD MSTORE PUSH3 0x3915 DUP2 PUSH3 0x3339 JUMP JUMPDEST SWAP1 POP SWAP2 SWAP1 POP JUMP JUMPDEST PUSH1 0x0 PUSH1 0x20 DUP3 ADD SWAP1 POP DUP2 DUP2 SUB PUSH1 0x0 DUP4 ADD MSTORE PUSH3 0x3937 DUP2 PUSH3 0x3360 JUMP JUMPDEST SWAP1 POP SWAP2 SWAP1 POP JUMP JUMPDEST PUSH1 0x0 PUSH1 0x20 DUP3 ADD SWAP1 POP DUP2 DUP2 SUB PUSH1 0x0 DUP4 ADD MSTORE PUSH3 0x3959 DUP2 PUSH3 0x3387 JUMP JUMPDEST SWAP1 POP SWAP2 SWAP1 POP JUMP JUMPDEST PUSH1 0x0 PUSH1 0x20 DUP3 ADD SWAP1 POP DUP2 DUP2 SUB PUSH1 0x0 DUP4 ADD MSTORE PUSH3 0x397B DUP2 PUSH3 0x33AE JUMP JUMPDEST SWAP1 POP SWAP2 SWAP1 POP JUMP JUMPDEST PUSH1 0x0 PUSH1 0x20 DUP3 ADD SWAP1 POP DUP2 DUP2 SUB PUSH1 0x0 DUP4 ADD MSTORE PUSH3 0x399D DUP2 PUSH3 0x33D5 JUMP JUMPDEST SWAP1 POP SWAP2 SWAP1 POP JUMP JUMPDEST PUSH1 0x0 PUSH1 0x20 DUP3 ADD SWAP1 POP DUP2 DUP2 SUB PUSH1 0x0 DUP4 ADD MSTORE PUSH3 0x39BF DUP2 PUSH3 0x33FC JUMP JUMPDEST SWAP1 POP SWAP2 SWAP1 POP JUMP JUMPDEST PUSH1 0x0 PUSH1 0x20 DUP3 ADD SWAP1 POP DUP2 DUP2 SUB PUSH1 0x0 DUP4 ADD MSTORE PUSH3 0x39E1 DUP2 PUSH3 0x3423 JUMP JUMPDEST SWAP1 POP SWAP2 SWAP1 POP JUMP JUMPDEST PUSH1 0x0 PUSH1 0x20 DUP3 ADD SWAP1 POP DUP2 DUP2 SUB PUSH1 0x0 DUP4 ADD MSTORE PUSH3 0x3A03 DUP2 PUSH3 0x344A JUMP JUMPDEST SWAP1 POP SWAP2 SWAP1 POP JUMP JUMPDEST PUSH1 0x0 PUSH1 0x20 DUP3 ADD SWAP1 POP DUP2 DUP2 SUB PUSH1 0x0 DUP4 ADD MSTORE PUSH3 0x3A25 DUP2 PUSH3 0x3471 JUMP JUMPDEST SWAP1 POP SWAP2 SWAP1 POP JUMP JUMPDEST PUSH1 0x0 PUSH1 0x20 DUP3 ADD SWAP1 POP DUP2 DUP2 SUB PUSH1 0x0 DUP4 ADD MSTORE PUSH3 0x3A47 DUP2 PUSH3 0x34BF JUMP JUMPDEST SWAP1 POP SWAP2 SWAP1 POP JUMP JUMPDEST PUSH1 0x0 PUSH1 0x20 DUP3 ADD SWAP1 POP DUP2 DUP2 SUB PUSH1 0x0 DUP4 ADD MSTORE PUSH3 0x3A69 DUP2 PUSH3 0x34E6 JUMP JUMPDEST SWAP1 POP SWAP2 SWAP1 POP JUMP JUMPDEST PUSH1 0x0 PUSH1 0x20 DUP3 ADD SWAP1 POP DUP2 DUP2 SUB PUSH1 0x0 DUP4 ADD MSTORE PUSH3 0x3A8B DUP2 PUSH3 0x350D JUMP JUMPDEST SWAP1 POP SWAP2 SWAP1 POP JUMP JUMPDEST PUSH1 0x0 PUSH1 0x20 DUP3 ADD SWAP1 POP DUP2 DUP2 SUB PUSH1 0x0 DUP4 ADD MSTORE PUSH3 0x3AAD DUP2 PUSH3 0x3534 JUMP JUMPDEST SWAP1 POP SWAP2 SWAP1 POP JUMP JUMPDEST PUSH1 0x0 PUSH1 0x20 DUP3 ADD SWAP1 POP DUP2 DUP2 SUB PUSH1 0x0 DUP4 ADD MSTORE PUSH3 0x3ACF DUP2 PUSH3 0x355B JUMP JUMPDEST SWAP1 POP SWAP2 SWAP1 POP JUMP JUMPDEST PUSH1 0x0 PUSH1 0x20 DUP3 ADD SWAP1 POP DUP2 DUP2 SUB PUSH1 0x0 DUP4 ADD MSTORE PUSH3 0x3AF1 DUP2 PUSH3 0x3582 JUMP JUMPDEST SWAP1 POP SWAP2 SWAP1 POP JUMP JUMPDEST PUSH1 0x0 PUSH1 0x20 DUP3 ADD SWAP1 POP DUP2 DUP2 SUB PUSH1 0x0 DUP4 ADD MSTORE PUSH3 0x3B13 DUP2 PUSH3 0x35A9 JUMP JUMPDEST SWAP1 POP SWAP2 SWAP1 POP JUMP JUMPDEST PUSH1 0x0 PUSH1 0x20 DUP3 ADD SWAP1 POP PUSH3 0x3B31 PUSH1 0x0 DUP4 ADD DUP5 PUSH3 0x35D0 JUMP JUMPDEST SWAP3 SWAP2 POP POP JUMP JUMPDEST PUSH1 0x0 PUSH1 0x40 DUP3 ADD SWAP1 POP PUSH3 0x3B4E PUSH1 0x0 DUP4 ADD DUP6 PUSH3 0x35D0 JUMP JUMPDEST PUSH3 0x3B5D PUSH1 0x20 DUP4 ADD DUP5 PUSH3 0x3288 JUMP JUMPDEST SWAP4 SWAP3 POP POP POP JUMP JUMPDEST PUSH1 0x0 PUSH2 0x140 DUP3 ADD SWAP1 POP PUSH3 0x3B7C PUSH1 0x0 DUP4 ADD DUP14 PUSH3 0x35D0 JUMP JUMPDEST DUP2 DUP2 SUB PUSH1 0x20 DUP4 ADD MSTORE PUSH3 0x3B90 DUP2 DUP13 PUSH3 0x32AA JUMP JUMPDEST SWAP1 POP PUSH3 0x3BA1 PUSH1 0x40 DUP4 ADD DUP12 PUSH3 0x35D0 JUMP JUMPDEST DUP2 DUP2 SUB PUSH1 0x60 DUP4 ADD MSTORE PUSH3 0x3BB5 DUP2 DUP11 PUSH3 0x321E JUMP JUMPDEST SWAP1 POP PUSH3 0x3BC6 PUSH1 0x80 DUP4 ADD DUP10 PUSH3 0x320D JUMP JUMPDEST PUSH3 0x3BD5 PUSH1 0xA0 DUP4 ADD DUP9 PUSH3 0x35D0 JUMP JUMPDEST PUSH3 0x3BE4 PUSH1 0xC0 DUP4 ADD DUP8 PUSH3 0x320D JUMP JUMPDEST PUSH3 0x3BF3 PUSH1 0xE0 DUP4 ADD DUP7 PUSH3 0x3288 JUMP JUMPDEST PUSH3 0x3C03 PUSH2 0x100 DUP4 ADD DUP6 PUSH3 0x35D0 JUMP JUMPDEST PUSH3 0x3C13 PUSH2 0x120 DUP4 ADD DUP5 PUSH3 0x35D0 JUMP JUMPDEST SWAP12 SWAP11 POP POP POP POP POP POP POP POP POP POP POP JUMP JUMPDEST PUSH1 0x0 PUSH2 0x180 DUP3 ADD SWAP1 POP PUSH3 0x3C3A PUSH1 0x0 DUP4 ADD DUP16 PUSH3 0x35D0 JUMP JUMPDEST DUP2 DUP2 SUB PUSH1 0x20 DUP4 ADD MSTORE PUSH3 0x3C4E DUP2 DUP15 PUSH3 0x32AA JUMP JUMPDEST SWAP1 POP PUSH3 0x3C5F PUSH1 0x40 DUP4 ADD DUP14 PUSH3 0x35D0 JUMP JUMPDEST PUSH3 0x3C6E PUSH1 0x60 DUP4 ADD DUP13 PUSH3 0x35D0 JUMP JUMPDEST PUSH3 0x3C7D PUSH1 0x80 DUP4 ADD DUP12 PUSH3 0x35D0 JUMP JUMPDEST PUSH3 0x3C8C PUSH1 0xA0 DUP4 ADD DUP11 PUSH3 0x35D0 JUMP JUMPDEST PUSH3 0x3C9B PUSH1 0xC0 DUP4 ADD DUP10 PUSH3 0x3288 JUMP JUMPDEST PUSH3 0x3CAA PUSH1 0xE0 DUP4 ADD DUP9 PUSH3 0x320D JUMP JUMPDEST PUSH3 0x3CBA PUSH2 0x100 DUP4 ADD DUP8 PUSH3 0x35D0 JUMP JUMPDEST PUSH3 0x3CCA PUSH2 0x120 DUP4 ADD DUP7 PUSH3 0x3288 JUMP JUMPDEST PUSH3 0x3CDA PUSH2 0x140 DUP4 ADD DUP6 PUSH3 0x35D0 JUMP JUMPDEST PUSH3 0x3CEA PUSH2 0x160 DUP4 ADD DUP5 PUSH3 0x35D0 JUMP JUMPDEST SWAP14 SWAP13 POP POP POP POP POP POP POP POP POP POP POP POP POP JUMP JUMPDEST PUSH1 0x0 PUSH1 0xA0 DUP3 ADD SWAP1 POP PUSH3 0x3D12 PUSH1 0x0 DUP4 ADD DUP9 PUSH3 0x35D0 JUMP JUMPDEST PUSH3 0x3D21 PUSH1 0x20 DUP4 ADD DUP8 PUSH3 0x35D0 JUMP JUMPDEST PUSH3 0x3D30 PUSH1 0x40 DUP4 ADD DUP7 PUSH3 0x320D JUMP JUMPDEST PUSH3 0x3D3F PUSH1 0x60 DUP4 ADD DUP6 PUSH3 0x35D0 JUMP JUMPDEST PUSH3 0x3D4E PUSH1 0x80 DUP4 ADD DUP5 PUSH3 0x3288 JUMP JUMPDEST SWAP7 SWAP6 POP POP POP POP POP POP JUMP JUMPDEST PUSH1 0x0 PUSH3 0x3D64 PUSH3 0x3D77 JUMP JUMPDEST SWAP1 POP PUSH3 0x3D72 DUP3 DUP3 PUSH3 0x4059 JUMP JUMPDEST SWAP2 SWAP1 POP JUMP JUMPDEST PUSH1 0x0 PUSH1 0x40 MLOAD SWAP1 POP SWAP1 JUMP JUMPDEST PUSH1 0x0 PUSH8 0xFFFFFFFFFFFFFFFF DUP3 GT ISZERO PUSH3 0x3D9F JUMPI PUSH3 0x3D9E PUSH3 0x4199 JUMP JUMPDEST JUMPDEST PUSH1 0x20 DUP3 MUL SWAP1 POP PUSH1 0x20 DUP2 ADD SWAP1 POP SWAP2 SWAP1 POP JUMP JUMPDEST PUSH1 0x0 PUSH8 0xFFFFFFFFFFFFFFFF DUP3 GT ISZERO PUSH3 0x3DCE JUMPI PUSH3 0x3DCD PUSH3 0x4199 JUMP JUMPDEST JUMPDEST PUSH3 0x3DD9 DUP3 PUSH3 0x41E1 JUMP JUMPDEST SWAP1 POP PUSH1 0x20 DUP2 ADD SWAP1 POP SWAP2 SWAP1 POP JUMP JUMPDEST PUSH1 0x0 DUP2 SWAP1 POP PUSH1 0x20 DUP3 ADD SWAP1 POP SWAP2 SWAP1 POP JUMP JUMPDEST PUSH1 0x0 DUP2 MLOAD SWAP1 POP SWAP2 SWAP1 POP JUMP JUMPDEST PUSH1 0x0 DUP2 MLOAD SWAP1 POP SWAP2 SWAP1 POP JUMP JUMPDEST PUSH1 0x0 PUSH1 0x20 DUP3 ADD SWAP1 POP SWAP2 SWAP1 POP JUMP JUMPDEST PUSH1 0x0 DUP3 DUP3 MSTORE PUSH1 0x20 DUP3 ADD SWAP1 POP SWAP3 SWAP2 POP POP JUMP JUMPDEST PUSH1 0x0 DUP3 DUP3 MSTORE PUSH1 0x20 DUP3 ADD SWAP1 POP SWAP3 SWAP2 POP POP JUMP JUMPDEST PUSH1 0x0 PUSH3 0x3E48 DUP3 PUSH3 0x3FC0 JUMP JUMPDEST SWAP2 POP PUSH3 0x3E55 DUP4 PUSH3 0x3FC0 JUMP JUMPDEST SWAP3 POP DUP3 PUSH32 0xFFFFFFFFFFFFFFFFFFFFFFFFFFFFFFFFFFFFFFFFFFFFFFFFFFFFFFFFFFFFFFFF SUB DUP3 GT ISZERO PUSH3 0x3E8D JUMPI PUSH3 0x3E8C PUSH3 0x40DD JUMP JUMPDEST JUMPDEST DUP3 DUP3 ADD SWAP1 POP SWAP3 SWAP2 POP POP JUMP JUMPDEST PUSH1 0x0 PUSH3 0x3EA5 DUP3 PUSH3 0x3FC0 JUMP JUMPDEST SWAP2 POP PUSH3 0x3EB2 DUP4 PUSH3 0x3FC0 JUMP JUMPDEST SWAP3 POP DUP3 PUSH3 0x3EC5 JUMPI PUSH3 0x3EC4 PUSH3 0x410C JUMP JUMPDEST JUMPDEST DUP3 DUP3 DIV SWAP1 POP SWAP3 SWAP2 POP POP JUMP JUMPDEST PUSH1 0x0 PUSH3 0x3EDD DUP3 PUSH3 0x3FC0 JUMP JUMPDEST SWAP2 POP PUSH3 0x3EEA DUP4 PUSH3 0x3FC0 JUMP JUMPDEST SWAP3 POP DUP2 PUSH32 0xFFFFFFFFFFFFFFFFFFFFFFFFFFFFFFFFFFFFFFFFFFFFFFFFFFFFFFFFFFFFFFFF DIV DUP4 GT DUP3 ISZERO ISZERO AND ISZERO PUSH3 0x3F26 JUMPI PUSH3 0x3F25 PUSH3 0x40DD JUMP JUMPDEST JUMPDEST DUP3 DUP3 MUL SWAP1 POP SWAP3 SWAP2 POP POP JUMP JUMPDEST PUSH1 0x0 PUSH3 0x3F3E DUP3 PUSH3 0x3FC0 JUMP JUMPDEST SWAP2 POP PUSH3 0x3F4B DUP4 PUSH3 0x3FC0 JUMP JUMPDEST SWAP3 POP DUP3 DUP3 LT ISZERO PUSH3 0x3F61 JUMPI PUSH3 0x3F60 PUSH3 0x40DD JUMP JUMPDEST JUMPDEST DUP3 DUP3 SUB SWAP1 POP SWAP3 SWAP2 POP POP JUMP JUMPDEST PUSH1 0x0 PUSH3 0x3F79 DUP3 PUSH3 0x3FA0 JUMP JUMPDEST SWAP1 POP SWAP2 SWAP1 POP JUMP JUMPDEST PUSH1 0x0 DUP2 ISZERO ISZERO SWAP1 POP SWAP2 SWAP1 POP JUMP JUMPDEST PUSH1 0x0 PUSH3 0x3F99 DUP3 PUSH3 0x3F6C JUMP JUMPDEST SWAP1 POP SWAP2 SWAP1 POP JUMP JUMPDEST PUSH1 0x0 PUSH20 0xFFFFFFFFFFFFFFFFFFFFFFFFFFFFFFFFFFFFFFFF DUP3 AND SWAP1 POP SWAP2 SWAP1 POP JUMP JUMPDEST PUSH1 0x0 DUP2 SWAP1 POP SWAP2 SWAP1 POP JUMP JUMPDEST PUSH1 0x0 PUSH3 0x3FD7 DUP3 PUSH3 0x3FC0 JUMP JUMPDEST SWAP1 POP SWAP2 SWAP1 POP JUMP JUMPDEST DUP3 DUP2 DUP4 CALLDATACOPY PUSH1 0x0 DUP4 DUP4 ADD MSTORE POP POP POP JUMP JUMPDEST PUSH1 0x0 JUMPDEST DUP4 DUP2 LT ISZERO PUSH3 0x400D JUMPI DUP1 DUP3 ADD MLOAD DUP2 DUP5 ADD MSTORE PUSH1 0x20 DUP2 ADD SWAP1 POP PUSH3 0x3FF0 JUMP JUMPDEST DUP4 DUP2 GT ISZERO PUSH3 0x401D JUMPI PUSH1 0x0 DUP5 DUP5 ADD MSTORE JUMPDEST POP POP POP POP JUMP JUMPDEST PUSH1 0x0 PUSH1 0x2 DUP3 DIV SWAP1 POP PUSH1 0x1 DUP3 AND DUP1 PUSH3 0x403C JUMPI PUSH1 0x7F DUP3 AND SWAP2 POP JUMPDEST PUSH1 0x20 DUP3 LT DUP2 EQ ISZERO PUSH3 0x4053 JUMPI PUSH3 0x4052 PUSH3 0x413B JUMP JUMPDEST JUMPDEST POP SWAP2 SWAP1 POP JUMP JUMPDEST PUSH3 0x4064 DUP3 PUSH3 0x41E1 JUMP JUMPDEST DUP2 ADD DUP2 DUP2 LT PUSH8 0xFFFFFFFFFFFFFFFF DUP3 GT OR ISZERO PUSH3 0x4086 JUMPI PUSH3 0x4085 PUSH3 0x4199 JUMP JUMPDEST JUMPDEST DUP1 PUSH1 0x40 MSTORE POP POP POP JUMP JUMPDEST PUSH1 0x0 PUSH3 0x409C DUP3 PUSH3 0x3FC0 JUMP JUMPDEST SWAP2 POP PUSH32 0xFFFFFFFFFFFFFFFFFFFFFFFFFFFFFFFFFFFFFFFFFFFFFFFFFFFFFFFFFFFFFFFF DUP3 EQ ISZERO PUSH3 0x40D2 JUMPI PUSH3 0x40D1 PUSH3 0x40DD JUMP JUMPDEST JUMPDEST PUSH1 0x1 DUP3 ADD SWAP1 POP SWAP2 SWAP1 POP JUMP JUMPDEST PUSH32 0x4E487B7100000000000000000000000000000000000000000000000000000000 PUSH1 0x0 MSTORE PUSH1 0x11 PUSH1 0x4 MSTORE PUSH1 0x24 PUSH1 0x0 REVERT JUMPDEST PUSH32 0x4E487B7100000000000000000000000000000000000000000000000000000000 PUSH1 0x0 MSTORE PUSH1 0x12 PUSH1 0x4 MSTORE PUSH1 0x24 PUSH1 0x0 REVERT JUMPDEST PUSH32 0x4E487B7100000000000000000000000000000000000000000000000000000000 PUSH1 0x0 MSTORE PUSH1 0x22 PUSH1 0x4 MSTORE PUSH1 0x24 PUSH1 0x0 REVERT JUMPDEST PUSH32 0x4E487B7100000000000000000000000000000000000000000000000000000000 PUSH1 0x0 MSTORE PUSH1 0x32 PUSH1 0x4 MSTORE PUSH1 0x24 PUSH1 0x0 REVERT JUMPDEST PUSH32 0x4E487B7100000000000000000000000000000000000000000000000000000000 PUSH1 0x0 MSTORE PUSH1 0x41 PUSH1 0x4 MSTORE PUSH1 0x24 PUSH1 0x0 REVERT JUMPDEST PUSH1 0x0 DUP1 REVERT JUMPDEST PUSH1 0x0 DUP1 REVERT JUMPDEST PUSH1 0x0 DUP1 REVERT JUMPDEST PUSH1 0x0 DUP1 REVERT JUMPDEST PUSH1 0x0 DUP1 REVERT JUMPDEST PUSH1 0x0 PUSH1 0x1F NOT PUSH1 0x1F DUP4 ADD AND SWAP1 POP SWAP2 SWAP1 POP JUMP JUMPDEST PUSH32 0x43616E27742077697468647261772069662070726F706F73616C20666F72204E PUSH1 0x0 DUP3 ADD MSTORE PUSH32 0x4654000000000000000000000000000000000000000000000000000000000000 PUSH1 0x20 DUP3 ADD MSTORE POP JUMP JUMPDEST PUSH32 0x50726F706F73616C20697320636F756E74656400000000000000000000000000 PUSH1 0x0 DUP3 ADD MSTORE POP JUMP JUMPDEST PUSH32 0x4F776E61626C653A206E6577206F776E657220697320746865207A65726F2061 PUSH1 0x0 DUP3 ADD MSTORE PUSH32 0x6464726573730000000000000000000000000000000000000000000000000000 PUSH1 0x20 DUP3 ADD MSTORE POP JUMP JUMPDEST PUSH32 0x596F75206861766520616C726561647920766F746564206F6E20746869732050 PUSH1 0x0 DUP3 ADD MSTORE PUSH32 0x726F706F73616C00000000000000000000000000000000000000000000000000 PUSH1 0x20 DUP3 ADD MSTORE POP JUMP JUMPDEST PUSH32 0x50726F706F73616C206E6F742079657420656E642C2075736564000000000000 PUSH1 0x0 DUP3 ADD MSTORE POP JUMP JUMPDEST PUSH32 0x43616E277420696E7465726163742077697468204E46542069662070726F706F PUSH1 0x0 DUP3 ADD MSTORE PUSH32 0x73616C206661696C000000000000000000000000000000000000000000000000 PUSH1 0x20 DUP3 ADD MSTORE POP JUMP JUMPDEST PUSH32 0x546869732050726F706F73616C20646F6573206E6F7420657869737400000000 PUSH1 0x0 DUP3 ADD MSTORE POP JUMP JUMPDEST PUSH32 0x4F776E61626C653A2063616C6C6572206973206E6F7420746865206F776E6572 PUSH1 0x0 DUP3 ADD MSTORE POP JUMP JUMPDEST PUSH32 0x54686520646561646C696E65206861732070617373656420666F722074686973 PUSH1 0x0 DUP3 ADD MSTORE PUSH32 0x2050726F706F73616C0000000000000000000000000000000000000000000000 PUSH1 0x20 DUP3 ADD MSTORE POP JUMP JUMPDEST PUSH32 0x50726F706F73616C206E6F7420656E6465640000000000000000000000000000 PUSH1 0x0 DUP3 ADD MSTORE POP JUMP JUMPDEST PUSH32 0x43616E27742077697468647261772069662070726F706F73616C206661696C00 PUSH1 0x0 DUP3 ADD MSTORE POP JUMP JUMPDEST POP JUMP JUMPDEST PUSH32 0x50726F706F73616C206E6F742079657420656E642C2075736564206F72206E6F PUSH1 0x0 DUP3 ADD MSTORE PUSH32 0x7420637265617465204E465441756374696F6E206265666F7265000000000000 PUSH1 0x20 DUP3 ADD MSTORE POP JUMP JUMPDEST PUSH32 0x4F776E61626C653A2063616C6C657220697320696E2074686520626C61636B20 PUSH1 0x0 DUP3 ADD MSTORE PUSH32 0x6C69737400000000000000000000000000000000000000000000000000000000 PUSH1 0x20 DUP3 ADD MSTORE POP JUMP JUMPDEST PUSH32 0x43616E277420696E7465726163742077697468204E46542069662070726F706F PUSH1 0x0 DUP3 ADD MSTORE PUSH32 0x73616C2069736E277420666F72204E4654000000000000000000000000000000 PUSH1 0x20 DUP3 ADD MSTORE POP JUMP JUMPDEST PUSH32 0x50726F706F73616C206E6F742079657420656E64206F72207573656400000000 PUSH1 0x0 DUP3 ADD MSTORE POP JUMP JUMPDEST PUSH32 0x596F752063616E206E6F7420766F7465206F6E20746869732050726F706F7361 PUSH1 0x0 DUP3 ADD MSTORE PUSH32 0x6C00000000000000000000000000000000000000000000000000000000000000 PUSH1 0x20 DUP3 ADD MSTORE POP JUMP JUMPDEST PUSH32 0x4861766520766F746572206E6F7420766F746520796574206F7220766F746520 PUSH1 0x0 DUP3 ADD MSTORE PUSH32 0x63616E2774207061737300000000000000000000000000000000000000000000 PUSH1 0x20 DUP3 ADD MSTORE POP JUMP JUMPDEST PUSH32 0x56616C75652073686F756C642067726561746572207468616E20300000000000 PUSH1 0x0 DUP3 ADD MSTORE POP JUMP JUMPDEST PUSH3 0x465E DUP2 PUSH3 0x3F6C JUMP JUMPDEST DUP2 EQ PUSH3 0x466A JUMPI PUSH1 0x0 DUP1 REVERT JUMPDEST POP JUMP JUMPDEST PUSH3 0x4678 DUP2 PUSH3 0x3F80 JUMP JUMPDEST DUP2 EQ PUSH3 0x4684 JUMPI PUSH1 0x0 DUP1 REVERT JUMPDEST POP JUMP JUMPDEST PUSH3 0x4692 DUP2 PUSH3 0x3F8C JUMP JUMPDEST DUP2 EQ PUSH3 0x469E JUMPI PUSH1 0x0 DUP1 REVERT JUMPDEST POP JUMP JUMPDEST PUSH3 0x46AC DUP2 PUSH3 0x3FC0 JUMP JUMPDEST DUP2 EQ PUSH3 0x46B8 JUMPI PUSH1 0x0 DUP1 REVERT JUMPDEST POP JUMP INVALID PUSH2 0x180 PUSH1 0x40 MSTORE CALLVALUE DUP1 ISZERO PUSH3 0x12 JUMPI PUSH1 0x0 DUP1 REVERT JUMPDEST POP PUSH1 0x40 MLOAD PUSH3 0x2450 CODESIZE SUB DUP1 PUSH3 0x2450 DUP4 CODECOPY DUP2 DUP2 ADD PUSH1 0x40 MSTORE DUP2 ADD SWAP1 PUSH3 0x38 SWAP2 SWAP1 PUSH3 0x50D JUMP JUMPDEST PUSH3 0x58 PUSH3 0x4C PUSH3 0x2A2 PUSH1 0x20 SHL PUSH1 0x20 SHR JUMP JUMPDEST PUSH3 0x2AA PUSH1 0x20 SHL PUSH1 0x20 SHR JUMP JUMPDEST DUP3 PUSH20 0xFFFFFFFFFFFFFFFFFFFFFFFFFFFFFFFFFFFFFFFF AND DUP9 PUSH20 0xFFFFFFFFFFFFFFFFFFFFFFFFFFFFFFFFFFFFFFFF AND PUSH4 0x6352211E DUP10 PUSH1 0x40 MLOAD DUP3 PUSH4 0xFFFFFFFF AND PUSH1 0xE0 SHL DUP2 MSTORE PUSH1 0x4 ADD PUSH3 0xAA SWAP2 SWAP1 PUSH3 0x70B JUMP JUMPDEST PUSH1 0x20 PUSH1 0x40 MLOAD DUP1 DUP4 SUB DUP2 DUP7 DUP1 EXTCODESIZE ISZERO DUP1 ISZERO PUSH3 0xC3 JUMPI PUSH1 0x0 DUP1 REVERT JUMPDEST POP GAS STATICCALL ISZERO DUP1 ISZERO PUSH3 0xD8 JUMPI RETURNDATASIZE PUSH1 0x0 DUP1 RETURNDATACOPY RETURNDATASIZE PUSH1 0x0 REVERT JUMPDEST POP POP POP POP PUSH1 0x40 MLOAD RETURNDATASIZE PUSH1 0x1F NOT PUSH1 0x1F DUP3 ADD AND DUP3 ADD DUP1 PUSH1 0x40 MSTORE POP DUP2 ADD SWAP1 PUSH3 0xFE SWAP2 SWAP1 PUSH3 0x4DB JUMP JUMPDEST PUSH20 0xFFFFFFFFFFFFFFFFFFFFFFFFFFFFFFFFFFFFFFFF AND EQ PUSH3 0x157 JUMPI PUSH1 0x40 MLOAD PUSH32 0x8C379A000000000000000000000000000000000000000000000000000000000 DUP2 MSTORE PUSH1 0x4 ADD PUSH3 0x14E SWAP1 PUSH3 0x6C7 JUMP JUMPDEST PUSH1 0x40 MLOAD DUP1 SWAP2 SUB SWAP1 REVERT JUMPDEST DUP8 PUSH20 0xFFFFFFFFFFFFFFFFFFFFFFFFFFFFFFFFFFFFFFFF AND PUSH1 0x80 DUP2 PUSH20 0xFFFFFFFFFFFFFFFFFFFFFFFFFFFFFFFFFFFFFFFF AND PUSH1 0x60 SHL DUP2 MSTORE POP POP DUP7 PUSH1 0xA0 DUP2 DUP2 MSTORE POP POP DUP3 PUSH20 0xFFFFFFFFFFFFFFFFFFFFFFFFFFFFFFFFFFFFFFFF AND PUSH1 0xC0 DUP2 PUSH20 0xFFFFFFFFFFFFFFFFFFFFFFFFFFFFFFFFFFFFFFFF AND PUSH1 0x60 SHL DUP2 MSTORE POP POP DUP6 PUSH1 0xE0 DUP2 DUP2 MSTORE POP POP DUP5 PUSH2 0x100 DUP2 DUP2 MSTORE POP POP DUP4 PUSH2 0x120 DUP2 DUP2 MSTORE POP POP DUP2 PUSH2 0x140 DUP2 DUP2 MSTORE POP POP DUP1 PUSH2 0x160 DUP2 DUP2 MSTORE POP POP PUSH1 0x0 DUP1 PUSH1 0x14 PUSH2 0x100 EXP DUP2 SLOAD DUP2 PUSH1 0xFF MUL NOT AND SWAP1 DUP4 ISZERO ISZERO MUL OR SWAP1 SSTORE POP PUSH1 0x0 DUP1 PUSH1 0x15 PUSH2 0x100 EXP DUP2 SLOAD DUP2 PUSH1 0xFF MUL NOT AND SWAP1 DUP4 ISZERO ISZERO MUL OR SWAP1 SSTORE POP PUSH3 0x93A80 DUP5 PUSH3 0x23E SWAP2 SWAP1 PUSH3 0x739 JUMP JUMPDEST DUP7 LT ISZERO PUSH3 0x283 JUMPI PUSH1 0x40 MLOAD PUSH32 0x8C379A000000000000000000000000000000000000000000000000000000000 DUP2 MSTORE PUSH1 0x4 ADD PUSH3 0x27A SWAP1 PUSH3 0x6E9 JUMP JUMPDEST PUSH1 0x40 MLOAD DUP1 SWAP2 SUB SWAP1 REVERT JUMPDEST PUSH3 0x294 DUP4 PUSH3 0x36E PUSH1 0x20 SHL PUSH1 0x20 SHR JUMP JUMPDEST POP POP POP POP POP POP POP POP PUSH3 0x90A JUMP JUMPDEST PUSH1 0x0 CALLER SWAP1 POP SWAP1 JUMP JUMPDEST PUSH1 0x0 DUP1 PUSH1 0x0 SWAP1 SLOAD SWAP1 PUSH2 0x100 EXP SWAP1 DIV PUSH20 0xFFFFFFFFFFFFFFFFFFFFFFFFFFFFFFFFFFFFFFFF AND SWAP1 POP DUP2 PUSH1 0x0 DUP1 PUSH2 0x100 EXP DUP2 SLOAD DUP2 PUSH20 0xFFFFFFFFFFFFFFFFFFFFFFFFFFFFFFFFFFFFFFFF MUL NOT AND SWAP1 DUP4 PUSH20 0xFFFFFFFFFFFFFFFFFFFFFFFFFFFFFFFFFFFFFFFF AND MUL OR SWAP1 SSTORE POP DUP2 PUSH20 0xFFFFFFFFFFFFFFFFFFFFFFFFFFFFFFFFFFFFFFFF AND DUP2 PUSH20 0xFFFFFFFFFFFFFFFFFFFFFFFFFFFFFFFFFFFFFFFF AND PUSH32 0x8BE0079C531659141344CD1FD0A4F28419497F9722A3DAAFE3B4186F6B6457E0 PUSH1 0x40 MLOAD PUSH1 0x40 MLOAD DUP1 SWAP2 SUB SWAP1 LOG3 POP POP JUMP JUMPDEST PUSH3 0x37E PUSH3 0x2A2 PUSH1 0x20 SHL PUSH1 0x20 SHR JUMP JUMPDEST PUSH20 0xFFFFFFFFFFFFFFFFFFFFFFFFFFFFFFFFFFFFFFFF AND PUSH3 0x3A4 PUSH3 0x484 PUSH1 0x20 SHL PUSH1 0x20 SHR JUMP JUMPDEST PUSH20 0xFFFFFFFFFFFFFFFFFFFFFFFFFFFFFFFFFFFFFFFF AND EQ PUSH3 0x3FD JUMPI PUSH1 0x40 MLOAD PUSH32 0x8C379A000000000000000000000000000000000000000000000000000000000 DUP2 MSTORE PUSH1 0x4 ADD PUSH3 0x3F4 SWAP1 PUSH3 0x6A5 JUMP JUMPDEST PUSH1 0x40 MLOAD DUP1 SWAP2 SUB SWAP1 REVERT JUMPDEST PUSH1 0x0 PUSH20 0xFFFFFFFFFFFFFFFFFFFFFFFFFFFFFFFFFFFFFFFF AND DUP2 PUSH20 0xFFFFFFFFFFFFFFFFFFFFFFFFFFFFFFFFFFFFFFFF AND EQ ISZERO PUSH3 0x470 JUMPI PUSH1 0x40 MLOAD PUSH32 0x8C379A000000000000000000000000000000000000000000000000000000000 DUP2 MSTORE PUSH1 0x4 ADD PUSH3 0x467 SWAP1 PUSH3 0x683 JUMP JUMPDEST PUSH1 0x40 MLOAD DUP1 SWAP2 SUB SWAP1 REVERT JUMPDEST PUSH3 0x481 DUP2 PUSH3 0x2AA PUSH1 0x20 SHL PUSH1 0x20 SHR JUMP JUMPDEST POP JUMP JUMPDEST PUSH1 0x0 DUP1 PUSH1 0x0 SWAP1 SLOAD SWAP1 PUSH2 0x100 EXP SWAP1 DIV PUSH20 0xFFFFFFFFFFFFFFFFFFFFFFFFFFFFFFFFFFFFFFFF AND SWAP1 POP SWAP1 JUMP JUMPDEST PUSH1 0x0 DUP2 MLOAD SWAP1 POP PUSH3 0x4BE DUP2 PUSH3 0x8D6 JUMP JUMPDEST SWAP3 SWAP2 POP POP JUMP JUMPDEST PUSH1 0x0 DUP2 MLOAD SWAP1 POP PUSH3 0x4D5 DUP2 PUSH3 0x8F0 JUMP JUMPDEST SWAP3 SWAP2 POP POP JUMP JUMPDEST PUSH1 0x0 PUSH1 0x20 DUP3 DUP5 SUB SLT ISZERO PUSH3 0x4F4 JUMPI PUSH3 0x4F3 PUSH3 0x807 JUMP JUMPDEST JUMPDEST PUSH1 0x0 PUSH3 0x504 DUP5 DUP3 DUP6 ADD PUSH3 0x4AD JUMP JUMPDEST SWAP2 POP POP SWAP3 SWAP2 POP POP JUMP JUMPDEST PUSH1 0x0 DUP1 PUSH1 0x0 DUP1 PUSH1 0x0 DUP1 PUSH1 0x0 DUP1 PUSH2 0x100 DUP10 DUP12 SUB SLT ISZERO PUSH3 0x531 JUMPI PUSH3 0x530 PUSH3 0x807 JUMP JUMPDEST JUMPDEST PUSH1 0x0 PUSH3 0x541 DUP12 DUP3 DUP13 ADD PUSH3 0x4AD JUMP JUMPDEST SWAP9 POP POP PUSH1 0x20 PUSH3 0x554 DUP12 DUP3 DUP13 ADD PUSH3 0x4C4 JUMP JUMPDEST SWAP8 POP POP PUSH1 0x40 PUSH3 0x567 DUP12 DUP3 DUP13 ADD PUSH3 0x4C4 JUMP JUMPDEST SWAP7 POP POP PUSH1 0x60 PUSH3 0x57A DUP12 DUP3 DUP13 ADD PUSH3 0x4C4 JUMP JUMPDEST SWAP6 POP POP PUSH1 0x80 PUSH3 0x58D DUP12 DUP3 DUP13 ADD PUSH3 0x4C4 JUMP JUMPDEST SWAP5 POP POP PUSH1 0xA0 PUSH3 0x5A0 DUP12 DUP3 DUP13 ADD PUSH3 0x4AD JUMP JUMPDEST SWAP4 POP POP PUSH1 0xC0 PUSH3 0x5B3 DUP12 DUP3 DUP13 ADD PUSH3 0x4C4 JUMP JUMPDEST SWAP3 POP POP PUSH1 0xE0 PUSH3 0x5C6 DUP12 DUP3 DUP13 ADD PUSH3 0x4C4 JUMP JUMPDEST SWAP2 POP POP SWAP3 SWAP6 SWAP9 POP SWAP3 SWAP6 SWAP9 SWAP1 SWAP4 SWAP7 POP JUMP JUMPDEST PUSH1 0x0 PUSH3 0x5E5 PUSH1 0x26 DUP4 PUSH3 0x728 JUMP JUMPDEST SWAP2 POP PUSH3 0x5F2 DUP3 PUSH3 0x80C JUMP JUMPDEST PUSH1 0x40 DUP3 ADD SWAP1 POP SWAP2 SWAP1 POP JUMP JUMPDEST PUSH1 0x0 PUSH3 0x60C PUSH1 0x20 DUP4 PUSH3 0x728 JUMP JUMPDEST SWAP2 POP PUSH3 0x619 DUP3 PUSH3 0x85B JUMP JUMPDEST PUSH1 0x20 DUP3 ADD SWAP1 POP SWAP2 SWAP1 POP JUMP JUMPDEST PUSH1 0x0 PUSH3 0x633 PUSH1 0x16 DUP4 PUSH3 0x728 JUMP JUMPDEST SWAP2 POP PUSH3 0x640 DUP3 PUSH3 0x884 JUMP JUMPDEST PUSH1 0x20 DUP3 ADD SWAP1 POP SWAP2 SWAP1 POP JUMP JUMPDEST PUSH1 0x0 PUSH3 0x65A PUSH1 0x19 DUP4 PUSH3 0x728 JUMP JUMPDEST SWAP2 POP PUSH3 0x667 DUP3 PUSH3 0x8AD JUMP JUMPDEST PUSH1 0x20 DUP3 ADD SWAP1 POP SWAP2 SWAP1 POP JUMP JUMPDEST PUSH3 0x67D DUP2 PUSH3 0x7CE JUMP JUMPDEST DUP3 MSTORE POP POP JUMP JUMPDEST PUSH1 0x0 PUSH1 0x20 DUP3 ADD SWAP1 POP DUP2 DUP2 SUB PUSH1 0x0 DUP4 ADD MSTORE PUSH3 0x69E DUP2 PUSH3 0x5D6 JUMP JUMPDEST SWAP1 POP SWAP2 SWAP1 POP JUMP JUMPDEST PUSH1 0x0 PUSH1 0x20 DUP3 ADD SWAP1 POP DUP2 DUP2 SUB PUSH1 0x0 DUP4 ADD MSTORE PUSH3 0x6C0 DUP2 PUSH3 0x5FD JUMP JUMPDEST SWAP1 POP SWAP2 SWAP1 POP JUMP JUMPDEST PUSH1 0x0 PUSH1 0x20 DUP3 ADD SWAP1 POP DUP2 DUP2 SUB PUSH1 0x0 DUP4 ADD MSTORE PUSH3 0x6E2 DUP2 PUSH3 0x624 JUMP JUMPDEST SWAP1 POP SWAP2 SWAP1 POP JUMP JUMPDEST PUSH1 0x0 PUSH1 0x20 DUP3 ADD SWAP1 POP DUP2 DUP2 SUB PUSH1 0x0 DUP4 ADD MSTORE PUSH3 0x704 DUP2 PUSH3 0x64B JUMP JUMPDEST SWAP1 POP SWAP2 SWAP1 POP JUMP JUMPDEST PUSH1 0x0 PUSH1 0x20 DUP3 ADD SWAP1 POP PUSH3 0x722 PUSH1 0x0 DUP4 ADD DUP5 PUSH3 0x672 JUMP JUMPDEST SWAP3 SWAP2 POP POP JUMP JUMPDEST PUSH1 0x0 DUP3 DUP3 MSTORE PUSH1 0x20 DUP3 ADD SWAP1 POP SWAP3 SWAP2 POP POP JUMP JUMPDEST PUSH1 0x0 PUSH3 0x746 DUP3 PUSH3 0x7CE JUMP JUMPDEST SWAP2 POP PUSH3 0x753 DUP4 PUSH3 0x7CE JUMP JUMPDEST SWAP3 POP DUP2 PUSH32 0xFFFFFFFFFFFFFFFFFFFFFFFFFFFFFFFFFFFFFFFFFFFFFFFFFFFFFFFFFFFFFFFF DIV DUP4 GT DUP3 ISZERO ISZERO AND ISZERO PUSH3 0x78F JUMPI PUSH3 0x78E PUSH3 0x7D8 JUMP JUMPDEST JUMPDEST DUP3 DUP3 MUL SWAP1 POP SWAP3 SWAP2 POP POP JUMP JUMPDEST PUSH1 0x0 PUSH3 0x7A7 DUP3 PUSH3 0x7AE JUMP JUMPDEST SWAP1 POP SWAP2 SWAP1 POP JUMP JUMPDEST PUSH1 0x0 PUSH20 0xFFFFFFFFFFFFFFFFFFFFFFFFFFFFFFFFFFFFFFFF DUP3 AND SWAP1 POP SWAP2 SWAP1 POP JUMP JUMPDEST PUSH1 0x0 DUP2 SWAP1 POP SWAP2 SWAP1 POP JUMP JUMPDEST PUSH32 0x4E487B7100000000000000000000000000000000000000000000000000000000 PUSH1 0x0 MSTORE PUSH1 0x11 PUSH1 0x4 MSTORE PUSH1 0x24 PUSH1 0x0 REVERT JUMPDEST PUSH1 0x0 DUP1 REVERT JUMPDEST PUSH32 0x4F776E61626C653A206E6577206F776E657220697320746865207A65726F2061 PUSH1 0x0 DUP3 ADD MSTORE PUSH32 0x6464726573730000000000000000000000000000000000000000000000000000 PUSH1 0x20 DUP3 ADD MSTORE POP JUMP JUMPDEST PUSH32 0x4F776E61626C653A2063616C6C6572206973206E6F7420746865206F776E6572 PUSH1 0x0 DUP3 ADD MSTORE POP JUMP JUMPDEST PUSH32 0x53656C6C657220646F65736E2774206F776E204E465400000000000000000000 PUSH1 0x0 DUP3 ADD MSTORE POP JUMP JUMPDEST PUSH32 0x5374617274696E6720707269636520697320746F6F206C6F7700000000000000 PUSH1 0x0 DUP3 ADD MSTORE POP JUMP JUMPDEST PUSH3 0x8E1 DUP2 PUSH3 0x79A JUMP JUMPDEST DUP2 EQ PUSH3 0x8ED JUMPI PUSH1 0x0 DUP1 REVERT JUMPDEST POP JUMP JUMPDEST PUSH3 0x8FB DUP2 PUSH3 0x7CE JUMP JUMPDEST DUP2 EQ PUSH3 0x907 JUMPI PUSH1 0x0 DUP1 REVERT JUMPDEST POP JUMP JUMPDEST PUSH1 0x80 MLOAD PUSH1 0x60 SHR PUSH1 0xA0 MLOAD PUSH1 0xC0 MLOAD PUSH1 0x60 SHR PUSH1 0xE0 MLOAD PUSH2 0x100 MLOAD PUSH2 0x120 MLOAD PUSH2 0x140 MLOAD PUSH2 0x160 MLOAD PUSH2 0x1A39 PUSH3 0xA17 PUSH1 0x0 CODECOPY PUSH1 0x0 DUP2 DUP2 PUSH2 0x56A ADD MSTORE DUP2 DUP2 PUSH2 0x7EA ADD MSTORE DUP2 DUP2 PUSH2 0xBA4 ADD MSTORE DUP2 DUP2 PUSH2 0xCCD ADD MSTORE PUSH2 0x1202 ADD MSTORE PUSH1 0x0 DUP2 DUP2 PUSH2 0xBF4 ADD MSTORE PUSH2 0xCA9 ADD MSTORE PUSH1 0x0 DUP2 DUP2 PUSH2 0xC25 ADD MSTORE PUSH2 0xF7C ADD MSTORE PUSH1 0x0 PUSH2 0x493 ADD MSTORE PUSH1 0x0 DUP2 DUP2 PUSH2 0xC53 ADD MSTORE PUSH2 0xF45 ADD MSTORE PUSH1 0x0 DUP2 DUP2 PUSH2 0x4B7 ADD MSTORE DUP2 DUP2 PUSH2 0x60A ADD MSTORE DUP2 DUP2 PUSH2 0x9D3 ADD MSTORE DUP2 DUP2 PUSH2 0xD9B ADD MSTORE PUSH2 0x1151 ADD MSTORE PUSH1 0x0 DUP2 DUP2 PUSH2 0x62B ADD MSTORE DUP2 DUP2 PUSH2 0x746 ADD MSTORE DUP2 DUP2 PUSH2 0x9F5 ADD MSTORE DUP2 DUP2 PUSH2 0xAB9 ADD MSTORE DUP2 DUP2 PUSH2 0xC85 ADD MSTORE DUP2 DUP2 PUSH2 0xE6C ADD MSTORE PUSH2 0x1172 ADD MSTORE PUSH1 0x0 DUP2 DUP2 PUSH2 0x5CD ADD MSTORE DUP2 DUP2 PUSH2 0x6B9 ADD MSTORE DUP2 DUP2 PUSH2 0x70A ADD MSTORE DUP2 DUP2 PUSH2 0x997 ADD MSTORE DUP2 DUP2 PUSH2 0xA7D ADD MSTORE DUP2 DUP2 PUSH2 0xE2E ADD MSTORE PUSH2 0x1114 ADD MSTORE PUSH2 0x1A39 PUSH1 0x0 RETURN INVALID PUSH1 0x80 PUSH1 0x40 MSTORE PUSH1 0x4 CALLDATASIZE LT PUSH2 0x135 JUMPI PUSH1 0x0 CALLDATALOAD PUSH1 0xE0 SHR DUP1 PUSH4 0x8DA5CB5B GT PUSH2 0xAB JUMPI DUP1 PUSH4 0xD6FBF202 GT PUSH2 0x6F JUMPI DUP1 PUSH4 0xD6FBF202 EQ PUSH2 0x3A5 JUMPI DUP1 PUSH4 0xE1345416 EQ PUSH2 0x3D0 JUMPI DUP1 PUSH4 0xE6C0E6D5 EQ PUSH2 0x3FB JUMPI DUP1 PUSH4 0xF2FDE38B EQ PUSH2 0x426 JUMPI DUP1 PUSH4 0xFAE1DB4C EQ PUSH2 0x44F JUMPI DUP1 PUSH4 0xFFC2BDB1 EQ PUSH2 0x466 JUMPI PUSH2 0x135 JUMP JUMPDEST DUP1 PUSH4 0x8DA5CB5B EQ PUSH2 0x2DD JUMPI DUP1 PUSH4 0x98D5FDCA EQ PUSH2 0x308 JUMPI DUP1 PUSH4 0xC6BC5182 EQ PUSH2 0x333 JUMPI DUP1 PUSH4 0xC7446565 EQ PUSH2 0x35E JUMPI DUP1 PUSH4 0xCCE7EC13 EQ PUSH2 0x389 JUMPI PUSH2 0x135 JUMP JUMPDEST DUP1 PUSH4 0x4E69D560 GT PUSH2 0xFD JUMPI DUP1 PUSH4 0x4E69D560 EQ PUSH2 0x1FD JUMPI DUP1 PUSH4 0x715018A6 EQ PUSH2 0x22E JUMPI DUP1 PUSH4 0x7150D8AE EQ PUSH2 0x245 JUMPI DUP1 PUSH4 0x7698EF02 EQ PUSH2 0x270 JUMPI DUP1 PUSH4 0x8620410B EQ PUSH2 0x287 JUMPI DUP1 PUSH4 0x8622A689 EQ PUSH2 0x2B2 JUMPI PUSH2 0x135 JUMP JUMPDEST DUP1 PUSH4 0x53F14DA EQ PUSH2 0x13A JUMPI DUP1 PUSH4 0x8551A53 EQ PUSH2 0x165 JUMPI DUP1 PUSH4 0xC570C86 EQ PUSH2 0x190 JUMPI DUP1 PUSH4 0xFDB1C10 EQ PUSH2 0x1BB JUMPI DUP1 PUSH4 0x47CCCA02 EQ PUSH2 0x1D2 JUMPI JUMPDEST PUSH1 0x0 DUP1 REVERT JUMPDEST CALLVALUE DUP1 ISZERO PUSH2 0x146 JUMPI PUSH1 0x0 DUP1 REVERT JUMPDEST POP PUSH2 0x14F PUSH2 0x491 JUMP JUMPDEST PUSH1 0x40 MLOAD PUSH2 0x15C SWAP2 SWAP1 PUSH2 0x16E7 JUMP JUMPDEST PUSH1 0x40 MLOAD DUP1 SWAP2 SUB SWAP1 RETURN JUMPDEST CALLVALUE DUP1 ISZERO PUSH2 0x171 JUMPI PUSH1 0x0 DUP1 REVERT JUMPDEST POP PUSH2 0x17A PUSH2 0x4B5 JUMP JUMPDEST PUSH1 0x40 MLOAD PUSH2 0x187 SWAP2 SWAP1 PUSH2 0x1530 JUMP JUMPDEST PUSH1 0x40 MLOAD DUP1 SWAP2 SUB SWAP1 RETURN JUMPDEST CALLVALUE DUP1 ISZERO PUSH2 0x19C JUMPI PUSH1 0x0 DUP1 REVERT JUMPDEST POP PUSH2 0x1A5 PUSH2 0x4D9 JUMP JUMPDEST PUSH1 0x40 MLOAD PUSH2 0x1B2 SWAP2 SWAP1 PUSH2 0x1582 JUMP JUMPDEST PUSH1 0x40 MLOAD DUP1 SWAP2 SUB SWAP1 RETURN JUMPDEST CALLVALUE DUP1 ISZERO PUSH2 0x1C7 JUMPI PUSH1 0x0 DUP1 REVERT JUMPDEST POP PUSH2 0x1D0 PUSH2 0x4EC JUMP JUMPDEST STOP JUMPDEST CALLVALUE DUP1 ISZERO PUSH2 0x1DE JUMPI PUSH1 0x0 DUP1 REVERT JUMPDEST POP PUSH2 0x1E7 PUSH2 0x6B7 JUMP JUMPDEST PUSH1 0x40 MLOAD PUSH2 0x1F4 SWAP2 SWAP1 PUSH2 0x160C JUMP JUMPDEST PUSH1 0x40 MLOAD DUP1 SWAP2 SUB SWAP1 RETURN JUMPDEST CALLVALUE DUP1 ISZERO PUSH2 0x209 JUMPI PUSH1 0x0 DUP1 REVERT JUMPDEST POP PUSH2 0x212 PUSH2 0x6DB JUMP JUMPDEST PUSH1 0x40 MLOAD PUSH2 0x225 SWAP8 SWAP7 SWAP6 SWAP5 SWAP4 SWAP3 SWAP2 SWAP1 PUSH2 0x159D JUMP JUMPDEST PUSH1 0x40 MLOAD DUP1 SWAP2 SUB SWAP1 RETURN JUMPDEST CALLVALUE DUP1 ISZERO PUSH2 0x23A JUMPI PUSH1 0x0 DUP1 REVERT JUMPDEST POP PUSH2 0x243 PUSH2 0x86B JUMP JUMPDEST STOP JUMPDEST CALLVALUE DUP1 ISZERO PUSH2 0x251 JUMPI PUSH1 0x0 DUP1 REVERT JUMPDEST POP PUSH2 0x25A PUSH2 0x8F3 JUMP JUMPDEST PUSH1 0x40 MLOAD PUSH2 0x267 SWAP2 SWAP1 PUSH2 0x1530 JUMP JUMPDEST PUSH1 0x40 MLOAD DUP1 SWAP2 SUB SWAP1 RETURN JUMPDEST CALLVALUE DUP1 ISZERO PUSH2 0x27C JUMPI PUSH1 0x0 DUP1 REVERT JUMPDEST POP PUSH2 0x285 PUSH2 0x919 JUMP JUMPDEST STOP JUMPDEST CALLVALUE DUP1 ISZERO PUSH2 0x293 JUMPI PUSH1 0x0 DUP1 REVERT JUMPDEST POP PUSH2 0x29C PUSH2 0xB9C JUMP JUMPDEST PUSH1 0x40 MLOAD PUSH2 0x2A9 SWAP2 SWAP1 PUSH2 0x16E7 JUMP JUMPDEST PUSH1 0x40 MLOAD DUP1 SWAP2 SUB SWAP1 RETURN JUMPDEST CALLVALUE DUP1 ISZERO PUSH2 0x2BE JUMPI PUSH1 0x0 DUP1 REVERT JUMPDEST POP PUSH2 0x2C7 PUSH2 0xBA2 JUMP JUMPDEST PUSH1 0x40 MLOAD PUSH2 0x2D4 SWAP2 SWAP1 PUSH2 0x16E7 JUMP JUMPDEST PUSH1 0x40 MLOAD DUP1 SWAP2 SUB SWAP1 RETURN JUMPDEST CALLVALUE DUP1 ISZERO PUSH2 0x2E9 JUMPI PUSH1 0x0 DUP1 REVERT JUMPDEST POP PUSH2 0x2F2 PUSH2 0xBC6 JUMP JUMPDEST PUSH1 0x40 MLOAD PUSH2 0x2FF SWAP2 SWAP1 PUSH2 0x1530 JUMP JUMPDEST PUSH1 0x40 MLOAD DUP1 SWAP2 SUB SWAP1 RETURN JUMPDEST CALLVALUE DUP1 ISZERO PUSH2 0x314 JUMPI PUSH1 0x0 DUP1 REVERT JUMPDEST POP PUSH2 0x31D PUSH2 0xBEF JUMP JUMPDEST PUSH1 0x40 MLOAD PUSH2 0x32A SWAP2 SWAP1 PUSH2 0x16E7 JUMP JUMPDEST PUSH1 0x40 MLOAD DUP1 SWAP2 SUB SWAP1 RETURN JUMPDEST CALLVALUE DUP1 ISZERO PUSH2 0x33F JUMPI PUSH1 0x0 DUP1 REVERT JUMPDEST POP PUSH2 0x348 PUSH2 0xC83 JUMP JUMPDEST PUSH1 0x40 MLOAD PUSH2 0x355 SWAP2 SWAP1 PUSH2 0x16E7 JUMP JUMPDEST PUSH1 0x40 MLOAD DUP1 SWAP2 SUB SWAP1 RETURN JUMPDEST CALLVALUE DUP1 ISZERO PUSH2 0x36A JUMPI PUSH1 0x0 DUP1 REVERT JUMPDEST POP PUSH2 0x373 PUSH2 0xCA7 JUMP JUMPDEST PUSH1 0x40 MLOAD PUSH2 0x380 SWAP2 SWAP1 PUSH2 0x16E7 JUMP JUMPDEST PUSH1 0x40 MLOAD DUP1 SWAP2 SUB SWAP1 RETURN JUMPDEST PUSH2 0x3A3 PUSH1 0x4 DUP1 CALLDATASIZE SUB DUP2 ADD SWAP1 PUSH2 0x39E SWAP2 SWAP1 PUSH2 0x13E2 JUMP JUMPDEST PUSH2 0xCCB JUMP JUMPDEST STOP JUMPDEST CALLVALUE DUP1 ISZERO PUSH2 0x3B1 JUMPI PUSH1 0x0 DUP1 REVERT JUMPDEST POP PUSH2 0x3BA PUSH2 0xF43 JUMP JUMPDEST PUSH1 0x40 MLOAD PUSH2 0x3C7 SWAP2 SWAP1 PUSH2 0x16E7 JUMP JUMPDEST PUSH1 0x40 MLOAD DUP1 SWAP2 SUB SWAP1 RETURN JUMPDEST CALLVALUE DUP1 ISZERO PUSH2 0x3DC JUMPI PUSH1 0x0 DUP1 REVERT JUMPDEST POP PUSH2 0x3E5 PUSH2 0xF67 JUMP JUMPDEST PUSH1 0x40 MLOAD PUSH2 0x3F2 SWAP2 SWAP1 PUSH2 0x1582 JUMP JUMPDEST PUSH1 0x40 MLOAD DUP1 SWAP2 SUB SWAP1 RETURN JUMPDEST CALLVALUE DUP1 ISZERO PUSH2 0x407 JUMPI PUSH1 0x0 DUP1 REVERT JUMPDEST POP PUSH2 0x410 PUSH2 0xF7A JUMP JUMPDEST PUSH1 0x40 MLOAD PUSH2 0x41D SWAP2 SWAP1 PUSH2 0x16E7 JUMP JUMPDEST PUSH1 0x40 MLOAD DUP1 SWAP2 SUB SWAP1 RETURN JUMPDEST CALLVALUE DUP1 ISZERO PUSH2 0x432 JUMPI PUSH1 0x0 DUP1 REVERT JUMPDEST POP PUSH2 0x44D PUSH1 0x4 DUP1 CALLDATASIZE SUB DUP2 ADD SWAP1 PUSH2 0x448 SWAP2 SWAP1 PUSH2 0x135B JUMP JUMPDEST PUSH2 0xF9E JUMP JUMPDEST STOP JUMPDEST CALLVALUE DUP1 ISZERO PUSH2 0x45B JUMPI PUSH1 0x0 DUP1 REVERT JUMPDEST POP PUSH2 0x464 PUSH2 0x1096 JUMP JUMPDEST STOP JUMPDEST CALLVALUE DUP1 ISZERO PUSH2 0x472 JUMPI PUSH1 0x0 DUP1 REVERT JUMPDEST POP PUSH2 0x47B PUSH2 0x11FE JUMP JUMPDEST PUSH1 0x40 MLOAD PUSH2 0x488 SWAP2 SWAP1 PUSH2 0x16E7 JUMP JUMPDEST PUSH1 0x40 MLOAD DUP1 SWAP2 SUB SWAP1 RETURN JUMPDEST PUSH32 0x0 DUP2 JUMP JUMPDEST PUSH32 0x0 DUP2 JUMP JUMPDEST PUSH1 0x0 PUSH1 0x14 SWAP1 SLOAD SWAP1 PUSH2 0x100 EXP SWAP1 DIV PUSH1 0xFF AND DUP2 JUMP JUMPDEST PUSH2 0x4F4 PUSH2 0x1226 JUMP JUMPDEST PUSH20 0xFFFFFFFFFFFFFFFFFFFFFFFFFFFFFFFFFFFFFFFF AND PUSH2 0x512 PUSH2 0xBC6 JUMP JUMPDEST PUSH20 0xFFFFFFFFFFFFFFFFFFFFFFFFFFFFFFFFFFFFFFFF AND EQ PUSH2 0x568 JUMPI PUSH1 0x40 MLOAD PUSH32 0x8C379A000000000000000000000000000000000000000000000000000000000 DUP2 MSTORE PUSH1 0x4 ADD PUSH2 0x55F SWAP1 PUSH2 0x1667 JUMP JUMPDEST PUSH1 0x40 MLOAD DUP1 SWAP2 SUB SWAP1 REVERT JUMPDEST PUSH32 0x0 TIMESTAMP LT ISZERO PUSH2 0x5CB JUMPI PUSH1 0x40 MLOAD PUSH32 0x8C379A000000000000000000000000000000000000000000000000000000000 DUP2 MSTORE PUSH1 0x4 ADD PUSH2 0x5C2 SWAP1 PUSH2 0x1687 JUMP JUMPDEST PUSH1 0x40 MLOAD DUP1 SWAP2 SUB SWAP1 REVERT JUMPDEST PUSH32 0x0 PUSH20 0xFFFFFFFFFFFFFFFFFFFFFFFFFFFFFFFFFFFFFFFF AND PUSH4 0x23B872DD ADDRESS PUSH32 0x0 PUSH32 0x0 PUSH1 0x40 MLOAD DUP5 PUSH4 0xFFFFFFFF AND PUSH1 0xE0 SHL DUP2 MSTORE PUSH1 0x4 ADD PUSH2 0x668 SWAP4 SWAP3 SWAP2 SWAP1 PUSH2 0x154B JUMP JUMPDEST PUSH1 0x0 PUSH1 0x40 MLOAD DUP1 DUP4 SUB DUP2 PUSH1 0x0 DUP8 DUP1 EXTCODESIZE ISZERO DUP1 ISZERO PUSH2 0x682 JUMPI PUSH1 0x0 DUP1 REVERT JUMPDEST POP GAS CALL ISZERO DUP1 ISZERO PUSH2 0x696 JUMPI RETURNDATASIZE PUSH1 0x0 DUP1 RETURNDATACOPY RETURNDATASIZE PUSH1 0x0 REVERT JUMPDEST POP POP POP POP PUSH1 0x1 PUSH1 0x0 PUSH1 0x15 PUSH2 0x100 EXP DUP2 SLOAD DUP2 PUSH1 0xFF MUL NOT AND SWAP1 DUP4 ISZERO ISZERO MUL OR SWAP1 SSTORE POP JUMP JUMPDEST PUSH32 0x0 DUP2 JUMP JUMPDEST PUSH1 0x0 DUP1 PUSH1 0x0 DUP1 PUSH1 0x0 DUP1 PUSH1 0x0 DUP1 PUSH2 0x6EF PUSH2 0xBEF JUMP JUMPDEST SWAP1 POP ADDRESS PUSH20 0xFFFFFFFFFFFFFFFFFFFFFFFFFFFFFFFFFFFFFFFF AND PUSH32 0x0 PUSH20 0xFFFFFFFFFFFFFFFFFFFFFFFFFFFFFFFFFFFFFFFF AND PUSH4 0x6352211E PUSH32 0x0 PUSH1 0x40 MLOAD DUP3 PUSH4 0xFFFFFFFF AND PUSH1 0xE0 SHL DUP2 MSTORE PUSH1 0x4 ADD PUSH2 0x781 SWAP2 SWAP1 PUSH2 0x16E7 JUMP JUMPDEST PUSH1 0x20 PUSH1 0x40 MLOAD DUP1 DUP4 SUB DUP2 DUP7 DUP1 EXTCODESIZE ISZERO DUP1 ISZERO PUSH2 0x799 JUMPI PUSH1 0x0 DUP1 REVERT JUMPDEST POP GAS STATICCALL ISZERO DUP1 ISZERO PUSH2 0x7AD JUMPI RETURNDATASIZE PUSH1 0x0 DUP1 RETURNDATACOPY RETURNDATASIZE PUSH1 0x0 REVERT JUMPDEST POP POP POP POP PUSH1 0x40 MLOAD RETURNDATASIZE PUSH1 0x1F NOT PUSH1 0x1F DUP3 ADD AND DUP3 ADD DUP1 PUSH1 0x40 MSTORE POP DUP2 ADD SWAP1 PUSH2 0x7D1 SWAP2 SWAP1 PUSH2 0x1388 JUMP JUMPDEST PUSH20 0xFFFFFFFFFFFFFFFFFFFFFFFFFFFFFFFFFFFFFFFF AND EQ PUSH32 0x0 TIMESTAMP LT ISZERO PUSH1 0x0 PUSH1 0x14 SWAP1 SLOAD SWAP1 PUSH2 0x100 EXP SWAP1 DIV PUSH1 0xFF AND DUP4 PUSH1 0x1 PUSH1 0x0 SWAP1 SLOAD SWAP1 PUSH2 0x100 EXP SWAP1 DIV PUSH20 0xFFFFFFFFFFFFFFFFFFFFFFFFFFFFFFFFFFFFFFFF AND PUSH1 0x2 SLOAD PUSH1 0x0 PUSH1 0x15 SWAP1 SLOAD SWAP1 PUSH2 0x100 EXP SWAP1 DIV PUSH1 0xFF AND SWAP8 POP SWAP8 POP SWAP8 POP SWAP8 POP SWAP8 POP SWAP8 POP SWAP8 POP POP SWAP1 SWAP2 SWAP3 SWAP4 SWAP5 SWAP6 SWAP7 JUMP JUMPDEST PUSH2 0x873 PUSH2 0x1226 JUMP JUMPDEST PUSH20 0xFFFFFFFFFFFFFFFFFFFFFFFFFFFFFFFFFFFFFFFF AND PUSH2 0x891 PUSH2 0xBC6 JUMP JUMPDEST PUSH20 0xFFFFFFFFFFFFFFFFFFFFFFFFFFFFFFFFFFFFFFFF AND EQ PUSH2 0x8E7 JUMPI PUSH1 0x40 MLOAD PUSH32 0x8C379A000000000000000000000000000000000000000000000000000000000 DUP2 MSTORE PUSH1 0x4 ADD PUSH2 0x8DE SWAP1 PUSH2 0x1667 JUMP JUMPDEST PUSH1 0x40 MLOAD DUP1 SWAP2 SUB SWAP1 REVERT JUMPDEST PUSH2 0x8F1 PUSH1 0x0 PUSH2 0x122E JUMP JUMPDEST JUMP JUMPDEST PUSH1 0x1 PUSH1 0x0 SWAP1 SLOAD SWAP1 PUSH2 0x100 EXP SWAP1 DIV PUSH20 0xFFFFFFFFFFFFFFFFFFFFFFFFFFFFFFFFFFFFFFFF AND DUP2 JUMP JUMPDEST PUSH2 0x921 PUSH2 0x1226 JUMP JUMPDEST PUSH20 0xFFFFFFFFFFFFFFFFFFFFFFFFFFFFFFFFFFFFFFFF AND PUSH2 0x93F PUSH2 0xBC6 JUMP JUMPDEST PUSH20 0xFFFFFFFFFFFFFFFFFFFFFFFFFFFFFFFFFFFFFFFF AND EQ PUSH2 0x995 JUMPI PUSH1 0x40 MLOAD PUSH32 0x8C379A000000000000000000000000000000000000000000000000000000000 DUP2 MSTORE PUSH1 0x4 ADD PUSH2 0x98C SWAP1 PUSH2 0x1667 JUMP JUMPDEST PUSH1 0x40 MLOAD DUP1 SWAP2 SUB SWAP1 REVERT JUMPDEST PUSH32 0x0 PUSH20 0xFFFFFFFFFFFFFFFFFFFFFFFFFFFFFFFFFFFFFFFF AND PUSH4 0x23B872DD PUSH32 0x0 ADDRESS PUSH32 0x0 PUSH1 0x40 MLOAD DUP5 PUSH4 0xFFFFFFFF AND PUSH1 0xE0 SHL DUP2 MSTORE PUSH1 0x4 ADD PUSH2 0xA32 SWAP4 SWAP3 SWAP2 SWAP1 PUSH2 0x154B JUMP JUMPDEST PUSH1 0x0 PUSH1 0x40 MLOAD DUP1 DUP4 SUB DUP2 PUSH1 0x0 DUP8 DUP1 EXTCODESIZE ISZERO DUP1 ISZERO PUSH2 0xA4C JUMPI PUSH1 0x0 DUP1 REVERT JUMPDEST POP GAS CALL ISZERO DUP1 ISZERO PUSH2 0xA60 JUMPI RETURNDATASIZE PUSH1 0x0 DUP1 RETURNDATACOPY RETURNDATASIZE PUSH1 0x0 REVERT JUMPDEST POP POP POP POP ADDRESS PUSH20 0xFFFFFFFFFFFFFFFFFFFFFFFFFFFFFFFFFFFFFFFF AND PUSH32 0x0 PUSH20 0xFFFFFFFFFFFFFFFFFFFFFFFFFFFFFFFFFFFFFFFF AND PUSH4 0x6352211E PUSH32 0x0 PUSH1 0x40 MLOAD DUP3 PUSH4 0xFFFFFFFF AND PUSH1 0xE0 SHL DUP2 MSTORE PUSH1 0x4 ADD PUSH2 0xAF4 SWAP2 SWAP1 PUSH2 0x16E7 JUMP JUMPDEST PUSH1 0x20 PUSH1 0x40 MLOAD DUP1 DUP4 SUB DUP2 DUP7 DUP1 EXTCODESIZE ISZERO DUP1 ISZERO PUSH2 0xB0C JUMPI PUSH1 0x0 DUP1 REVERT JUMPDEST POP GAS STATICCALL ISZERO DUP1 ISZERO PUSH2 0xB20 JUMPI RETURNDATASIZE PUSH1 0x0 DUP1 RETURNDATACOPY RETURNDATASIZE PUSH1 0x0 REVERT JUMPDEST POP POP POP POP PUSH1 0x40 MLOAD RETURNDATASIZE PUSH1 0x1F NOT PUSH1 0x1F DUP3 ADD AND DUP3 ADD DUP1 PUSH1 0x40 MSTORE POP DUP2 ADD SWAP1 PUSH2 0xB44 SWAP2 SWAP1 PUSH2 0x1388 JUMP JUMPDEST PUSH20 0xFFFFFFFFFFFFFFFFFFFFFFFFFFFFFFFFFFFFFFFF AND EQ PUSH2 0xB9A JUMPI PUSH1 0x40 MLOAD PUSH32 0x8C379A000000000000000000000000000000000000000000000000000000000 DUP2 MSTORE PUSH1 0x4 ADD PUSH2 0xB91 SWAP1 PUSH2 0x16A7 JUMP JUMPDEST PUSH1 0x40 MLOAD DUP1 SWAP2 SUB SWAP1 REVERT JUMPDEST JUMP JUMPDEST PUSH1 0x2 SLOAD DUP2 JUMP JUMPDEST PUSH32 0x0 DUP2 JUMP JUMPDEST PUSH1 0x0 DUP1 PUSH1 0x0 SWAP1 SLOAD SWAP1 PUSH2 0x100 EXP SWAP1 DIV PUSH20 0xFFFFFFFFFFFFFFFFFFFFFFFFFFFFFFFFFFFFFFFF AND SWAP1 POP SWAP1 JUMP JUMPDEST PUSH1 0x0 DUP1 PUSH32 0x0 TIMESTAMP PUSH2 0xC1E SWAP2 SWAP1 PUSH2 0x176D JUMP JUMPDEST SWAP1 POP PUSH1 0x0 DUP2 PUSH32 0x0 PUSH2 0xC4E SWAP2 SWAP1 PUSH2 0x1713 JUMP JUMPDEST SWAP1 POP DUP1 PUSH32 0x0 PUSH2 0xC7C SWAP2 SWAP1 PUSH2 0x176D JUMP JUMPDEST SWAP3 POP POP POP SWAP1 JUMP JUMPDEST PUSH32 0x0 DUP2 JUMP JUMPDEST PUSH32 0x0 DUP2 JUMP JUMPDEST PUSH32 0x0 TIMESTAMP LT PUSH2 0xD2D JUMPI PUSH1 0x40 MLOAD PUSH32 0x8C379A000000000000000000000000000000000000000000000000000000000 DUP2 MSTORE PUSH1 0x4 ADD PUSH2 0xD24 SWAP1 PUSH2 0x1647 JUMP JUMPDEST PUSH1 0x40 MLOAD DUP1 SWAP2 SUB SWAP1 REVERT JUMPDEST PUSH1 0x0 PUSH2 0xD37 PUSH2 0xBEF JUMP JUMPDEST SWAP1 POP DUP1 DUP3 LT ISZERO PUSH2 0xD7C JUMPI PUSH1 0x40 MLOAD PUSH32 0x8C379A000000000000000000000000000000000000000000000000000000000 DUP2 MSTORE PUSH1 0x4 ADD PUSH2 0xD73 SWAP1 PUSH2 0x16C7 JUMP JUMPDEST PUSH1 0x40 MLOAD DUP1 SWAP2 SUB SWAP1 REVERT JUMPDEST DUP3 PUSH20 0xFFFFFFFFFFFFFFFFFFFFFFFFFFFFFFFFFFFFFFFF AND PUSH4 0x23B872DD CALLER PUSH32 0x0 DUP5 PUSH1 0x40 MLOAD DUP5 PUSH4 0xFFFFFFFF AND PUSH1 0xE0 SHL DUP2 MSTORE PUSH1 0x4 ADD PUSH2 0xDD9 SWAP4 SWAP3 SWAP2 SWAP1 PUSH2 0x154B JUMP JUMPDEST PUSH1 0x20 PUSH1 0x40 MLOAD DUP1 DUP4 SUB DUP2 PUSH1 0x0 DUP8 DUP1 EXTCODESIZE ISZERO DUP1 ISZERO PUSH2 0xDF3 JUMPI PUSH1 0x0 DUP1 REVERT JUMPDEST POP GAS CALL ISZERO DUP1 ISZERO PUSH2 0xE07 JUMPI RETURNDATASIZE PUSH1 0x0 DUP1 RETURNDATACOPY RETURNDATASIZE PUSH1 0x0 REVERT JUMPDEST POP POP POP POP PUSH1 0x40 MLOAD RETURNDATASIZE PUSH1 0x1F NOT PUSH1 0x1F DUP3 ADD AND DUP3 ADD DUP1 PUSH1 0x40 MSTORE POP DUP2 ADD SWAP1 PUSH2 0xE2B SWAP2 SWAP1 PUSH2 0x13B5 JUMP JUMPDEST POP PUSH32 0x0 PUSH20 0xFFFFFFFFFFFFFFFFFFFFFFFFFFFFFFFFFFFFFFFF AND PUSH4 0x23B872DD ADDRESS CALLER PUSH32 0x0 PUSH1 0x40 MLOAD DUP5 PUSH4 0xFFFFFFFF AND PUSH1 0xE0 SHL DUP2 MSTORE PUSH1 0x4 ADD PUSH2 0xEA9 SWAP4 SWAP3 SWAP2 SWAP1 PUSH2 0x154B JUMP JUMPDEST PUSH1 0x0 PUSH1 0x40 MLOAD DUP1 DUP4 SUB DUP2 PUSH1 0x0 DUP8 DUP1 EXTCODESIZE ISZERO DUP1 ISZERO PUSH2 0xEC3 JUMPI PUSH1 0x0 DUP1 REVERT JUMPDEST POP GAS CALL ISZERO DUP1 ISZERO PUSH2 0xED7 JUMPI RETURNDATASIZE PUSH1 0x0 DUP1 RETURNDATACOPY RETURNDATASIZE PUSH1 0x0 REVERT JUMPDEST POP POP POP POP PUSH1 0x1 PUSH1 0x0 PUSH1 0x14 PUSH2 0x100 EXP DUP2 SLOAD DUP2 PUSH1 0xFF MUL NOT AND SWAP1 DUP4 ISZERO ISZERO MUL OR SWAP1 SSTORE POP CALLER PUSH1 0x1 PUSH1 0x0 PUSH2 0x100 EXP DUP2 SLOAD DUP2 PUSH20 0xFFFFFFFFFFFFFFFFFFFFFFFFFFFFFFFFFFFFFFFF MUL NOT AND SWAP1 DUP4 PUSH20 0xFFFFFFFFFFFFFFFFFFFFFFFFFFFFFFFFFFFFFFFF AND MUL OR SWAP1 SSTORE POP DUP1 PUSH1 0x2 DUP2 SWAP1 SSTORE POP POP POP POP JUMP JUMPDEST PUSH32 0x0 DUP2 JUMP JUMPDEST PUSH1 0x0 PUSH1 0x15 SWAP1 SLOAD SWAP1 PUSH2 0x100 EXP SWAP1 DIV PUSH1 0xFF AND DUP2 JUMP JUMPDEST PUSH32 0x0 DUP2 JUMP JUMPDEST PUSH2 0xFA6 PUSH2 0x1226 JUMP JUMPDEST PUSH20 0xFFFFFFFFFFFFFFFFFFFFFFFFFFFFFFFFFFFFFFFF AND PUSH2 0xFC4 PUSH2 0xBC6 JUMP JUMPDEST PUSH20 0xFFFFFFFFFFFFFFFFFFFFFFFFFFFFFFFFFFFFFFFF AND EQ PUSH2 0x101A JUMPI PUSH1 0x40 MLOAD PUSH32 0x8C379A000000000000000000000000000000000000000000000000000000000 DUP2 MSTORE PUSH1 0x4 ADD PUSH2 0x1011 SWAP1 PUSH2 0x1667 JUMP JUMPDEST PUSH1 0x40 MLOAD DUP1 SWAP2 SUB SWAP1 REVERT JUMPDEST PUSH1 0x0 PUSH20 0xFFFFFFFFFFFFFFFFFFFFFFFFFFFFFFFFFFFFFFFF AND DUP2 PUSH20 0xFFFFFFFFFFFFFFFFFFFFFFFFFFFFFFFFFFFFFFFF AND EQ ISZERO PUSH2 0x108A JUMPI PUSH1 0x40 MLOAD PUSH32 0x8C379A000000000000000000000000000000000000000000000000000000000 DUP2 MSTORE PUSH1 0x4 ADD PUSH2 0x1081 SWAP1 PUSH2 0x1627 JUMP JUMPDEST PUSH1 0x40 MLOAD DUP1 SWAP2 SUB SWAP1 REVERT JUMPDEST PUSH2 0x1093 DUP2 PUSH2 0x122E JUMP JUMPDEST POP JUMP JUMPDEST PUSH2 0x109E PUSH2 0x1226 JUMP JUMPDEST PUSH20 0xFFFFFFFFFFFFFFFFFFFFFFFFFFFFFFFFFFFFFFFF AND PUSH2 0x10BC PUSH2 0xBC6 JUMP JUMPDEST PUSH20 0xFFFFFFFFFFFFFFFFFFFFFFFFFFFFFFFFFFFFFFFF AND EQ PUSH2 0x1112 JUMPI PUSH1 0x40 MLOAD PUSH32 0x8C379A000000000000000000000000000000000000000000000000000000000 DUP2 MSTORE PUSH1 0x4 ADD PUSH2 0x1109 SWAP1 PUSH2 0x1667 JUMP JUMPDEST PUSH1 0x40 MLOAD DUP1 SWAP2 SUB SWAP1 REVERT JUMPDEST PUSH32 0x0 PUSH20 0xFFFFFFFFFFFFFFFFFFFFFFFFFFFFFFFFFFFFFFFF AND PUSH4 0x23B872DD ADDRESS PUSH32 0x0 PUSH32 0x0 PUSH1 0x40 MLOAD DUP5 PUSH4 0xFFFFFFFF AND PUSH1 0xE0 SHL DUP2 MSTORE PUSH1 0x4 ADD PUSH2 0x11AF SWAP4 SWAP3 SWAP2 SWAP1 PUSH2 0x154B JUMP JUMPDEST PUSH1 0x0 PUSH1 0x40 MLOAD DUP1 DUP4 SUB DUP2 PUSH1 0x0 DUP8 DUP1 EXTCODESIZE ISZERO DUP1 ISZERO PUSH2 0x11C9 JUMPI PUSH1 0x0 DUP1 REVERT JUMPDEST POP GAS CALL ISZERO DUP1 ISZERO PUSH2 0x11DD JUMPI RETURNDATASIZE PUSH1 0x0 DUP1 RETURNDATACOPY RETURNDATASIZE PUSH1 0x0 REVERT JUMPDEST POP POP POP POP PUSH1 0x1 PUSH1 0x0 PUSH1 0x15 PUSH2 0x100 EXP DUP2 SLOAD DUP2 PUSH1 0xFF MUL NOT AND SWAP1 DUP4 ISZERO ISZERO MUL OR SWAP1 SSTORE POP JUMP JUMPDEST PUSH1 0x0 PUSH32 0x0 SWAP1 POP SWAP1 JUMP JUMPDEST PUSH1 0x0 CALLER SWAP1 POP SWAP1 JUMP JUMPDEST PUSH1 0x0 DUP1 PUSH1 0x0 SWAP1 SLOAD SWAP1 PUSH2 0x100 EXP SWAP1 DIV PUSH20 0xFFFFFFFFFFFFFFFFFFFFFFFFFFFFFFFFFFFFFFFF AND SWAP1 POP DUP2 PUSH1 0x0 DUP1 PUSH2 0x100 EXP DUP2 SLOAD DUP2 PUSH20 0xFFFFFFFFFFFFFFFFFFFFFFFFFFFFFFFFFFFFFFFF MUL NOT AND SWAP1 DUP4 PUSH20 0xFFFFFFFFFFFFFFFFFFFFFFFFFFFFFFFFFFFFFFFF AND MUL OR SWAP1 SSTORE POP DUP2 PUSH20 0xFFFFFFFFFFFFFFFFFFFFFFFFFFFFFFFFFFFFFFFF AND DUP2 PUSH20 0xFFFFFFFFFFFFFFFFFFFFFFFFFFFFFFFFFFFFFFFF AND PUSH32 0x8BE0079C531659141344CD1FD0A4F28419497F9722A3DAAFE3B4186F6B6457E0 PUSH1 0x40 MLOAD PUSH1 0x40 MLOAD DUP1 SWAP2 SUB SWAP1 LOG3 POP POP JUMP JUMPDEST PUSH1 0x0 DUP2 CALLDATALOAD SWAP1 POP PUSH2 0x1301 DUP2 PUSH2 0x19A7 JUMP JUMPDEST SWAP3 SWAP2 POP POP JUMP JUMPDEST PUSH1 0x0 DUP2 MLOAD SWAP1 POP PUSH2 0x1316 DUP2 PUSH2 0x19A7 JUMP JUMPDEST SWAP3 SWAP2 POP POP JUMP JUMPDEST PUSH1 0x0 DUP2 MLOAD SWAP1 POP PUSH2 0x132B DUP2 PUSH2 0x19BE JUMP JUMPDEST SWAP3 SWAP2 POP POP JUMP JUMPDEST PUSH1 0x0 DUP2 CALLDATALOAD SWAP1 POP PUSH2 0x1340 DUP2 PUSH2 0x19D5 JUMP JUMPDEST SWAP3 SWAP2 POP POP JUMP JUMPDEST PUSH1 0x0 DUP2 CALLDATALOAD SWAP1 POP PUSH2 0x1355 DUP2 PUSH2 0x19EC JUMP JUMPDEST SWAP3 SWAP2 POP POP JUMP JUMPDEST PUSH1 0x0 PUSH1 0x20 DUP3 DUP5 SUB SLT ISZERO PUSH2 0x1371 JUMPI PUSH2 0x1370 PUSH2 0x1860 JUMP JUMPDEST JUMPDEST PUSH1 0x0 PUSH2 0x137F DUP5 DUP3 DUP6 ADD PUSH2 0x12F2 JUMP JUMPDEST SWAP2 POP POP SWAP3 SWAP2 POP POP JUMP JUMPDEST PUSH1 0x0 PUSH1 0x20 DUP3 DUP5 SUB SLT ISZERO PUSH2 0x139E JUMPI PUSH2 0x139D PUSH2 0x1860 JUMP JUMPDEST JUMPDEST PUSH1 0x0 PUSH2 0x13AC DUP5 DUP3 DUP6 ADD PUSH2 0x1307 JUMP JUMPDEST SWAP2 POP POP SWAP3 SWAP2 POP POP JUMP JUMPDEST PUSH1 0x0 PUSH1 0x20 DUP3 DUP5 SUB SLT ISZERO PUSH2 0x13CB JUMPI PUSH2 0x13CA PUSH2 0x1860 JUMP JUMPDEST JUMPDEST PUSH1 0x0 PUSH2 0x13D9 DUP5 DUP3 DUP6 ADD PUSH2 0x131C JUMP JUMPDEST SWAP2 POP POP SWAP3 SWAP2 POP POP JUMP JUMPDEST PUSH1 0x0 DUP1 PUSH1 0x40 DUP4 DUP6 SUB SLT ISZERO PUSH2 0x13F9 JUMPI PUSH2 0x13F8 PUSH2 0x1860 JUMP JUMPDEST JUMPDEST PUSH1 0x0 PUSH2 0x1407 DUP6 DUP3 DUP7 ADD PUSH2 0x1331 JUMP JUMPDEST SWAP3 POP POP PUSH1 0x20 PUSH2 0x1418 DUP6 DUP3 DUP7 ADD PUSH2 0x1346 JUMP JUMPDEST SWAP2 POP POP SWAP3 POP SWAP3 SWAP1 POP JUMP JUMPDEST PUSH2 0x142B DUP2 PUSH2 0x17A1 JUMP JUMPDEST DUP3 MSTORE POP POP JUMP JUMPDEST PUSH2 0x143A DUP2 PUSH2 0x17B3 JUMP JUMPDEST DUP3 MSTORE POP POP JUMP JUMPDEST PUSH2 0x1449 DUP2 PUSH2 0x17FB JUMP JUMPDEST DUP3 MSTORE POP POP JUMP JUMPDEST PUSH1 0x0 PUSH2 0x145C PUSH1 0x26 DUP4 PUSH2 0x1702 JUMP JUMPDEST SWAP2 POP PUSH2 0x1467 DUP3 PUSH2 0x1865 JUMP JUMPDEST PUSH1 0x40 DUP3 ADD SWAP1 POP SWAP2 SWAP1 POP JUMP JUMPDEST PUSH1 0x0 PUSH2 0x147F PUSH1 0x16 DUP4 PUSH2 0x1702 JUMP JUMPDEST SWAP2 POP PUSH2 0x148A DUP3 PUSH2 0x18B4 JUMP JUMPDEST PUSH1 0x20 DUP3 ADD SWAP1 POP SWAP2 SWAP1 POP JUMP JUMPDEST PUSH1 0x0 PUSH2 0x14A2 PUSH1 0x20 DUP4 PUSH2 0x1702 JUMP JUMPDEST SWAP2 POP PUSH2 0x14AD DUP3 PUSH2 0x18DD JUMP JUMPDEST PUSH1 0x20 DUP3 ADD SWAP1 POP SWAP2 SWAP1 POP JUMP JUMPDEST PUSH1 0x0 PUSH2 0x14C5 PUSH1 0x16 DUP4 PUSH2 0x1702 JUMP JUMPDEST SWAP2 POP PUSH2 0x14D0 DUP3 PUSH2 0x1906 JUMP JUMPDEST PUSH1 0x20 DUP3 ADD SWAP1 POP SWAP2 SWAP1 POP JUMP JUMPDEST PUSH1 0x0 PUSH2 0x14E8 PUSH1 0x13 DUP4 PUSH2 0x1702 JUMP JUMPDEST SWAP2 POP PUSH2 0x14F3 DUP3 PUSH2 0x192F JUMP JUMPDEST PUSH1 0x20 DUP3 ADD SWAP1 POP SWAP2 SWAP1 POP JUMP JUMPDEST PUSH1 0x0 PUSH2 0x150B PUSH1 0x2F DUP4 PUSH2 0x1702 JUMP JUMPDEST SWAP2 POP PUSH2 0x1516 DUP3 PUSH2 0x1958 JUMP JUMPDEST PUSH1 0x40 DUP3 ADD SWAP1 POP SWAP2 SWAP1 POP JUMP JUMPDEST PUSH2 0x152A DUP2 PUSH2 0x17F1 JUMP JUMPDEST DUP3 MSTORE POP POP JUMP JUMPDEST PUSH1 0x0 PUSH1 0x20 DUP3 ADD SWAP1 POP PUSH2 0x1545 PUSH1 0x0 DUP4 ADD DUP5 PUSH2 0x1422 JUMP JUMPDEST SWAP3 SWAP2 POP POP JUMP JUMPDEST PUSH1 0x0 PUSH1 0x60 DUP3 ADD SWAP1 POP PUSH2 0x1560 PUSH1 0x0 DUP4 ADD DUP7 PUSH2 0x1422 JUMP JUMPDEST PUSH2 0x156D PUSH1 0x20 DUP4 ADD DUP6 PUSH2 0x1422 JUMP JUMPDEST PUSH2 0x157A PUSH1 0x40 DUP4 ADD DUP5 PUSH2 0x1521 JUMP JUMPDEST SWAP5 SWAP4 POP POP POP POP JUMP JUMPDEST PUSH1 0x0 PUSH1 0x20 DUP3 ADD SWAP1 POP PUSH2 0x1597 PUSH1 0x0 DUP4 ADD DUP5 PUSH2 0x1431 JUMP JUMPDEST SWAP3 SWAP2 POP POP JUMP JUMPDEST PUSH1 0x0 PUSH1 0xE0 DUP3 ADD SWAP1 POP PUSH2 0x15B2 PUSH1 0x0 DUP4 ADD DUP11 PUSH2 0x1431 JUMP JUMPDEST PUSH2 0x15BF PUSH1 0x20 DUP4 ADD DUP10 PUSH2 0x1431 JUMP JUMPDEST PUSH2 0x15CC PUSH1 0x40 DUP4 ADD DUP9 PUSH2 0x1431 JUMP JUMPDEST PUSH2 0x15D9 PUSH1 0x60 DUP4 ADD DUP8 PUSH2 0x1521 JUMP JUMPDEST PUSH2 0x15E6 PUSH1 0x80 DUP4 ADD DUP7 PUSH2 0x1422 JUMP JUMPDEST PUSH2 0x15F3 PUSH1 0xA0 DUP4 ADD DUP6 PUSH2 0x1521 JUMP JUMPDEST PUSH2 0x1600 PUSH1 0xC0 DUP4 ADD DUP5 PUSH2 0x1431 JUMP JUMPDEST SWAP9 SWAP8 POP POP POP POP POP POP POP POP JUMP JUMPDEST PUSH1 0x0 PUSH1 0x20 DUP3 ADD SWAP1 POP PUSH2 0x1621 PUSH1 0x0 DUP4 ADD DUP5 PUSH2 0x1440 JUMP JUMPDEST SWAP3 SWAP2 POP POP JUMP JUMPDEST PUSH1 0x0 PUSH1 0x20 DUP3 ADD SWAP1 POP DUP2 DUP2 SUB PUSH1 0x0 DUP4 ADD MSTORE PUSH2 0x1640 DUP2 PUSH2 0x144F JUMP JUMPDEST SWAP1 POP SWAP2 SWAP1 POP JUMP JUMPDEST PUSH1 0x0 PUSH1 0x20 DUP3 ADD SWAP1 POP DUP2 DUP2 SUB PUSH1 0x0 DUP4 ADD MSTORE PUSH2 0x1660 DUP2 PUSH2 0x1472 JUMP JUMPDEST SWAP1 POP SWAP2 SWAP1 POP JUMP JUMPDEST PUSH1 0x0 PUSH1 0x20 DUP3 ADD SWAP1 POP DUP2 DUP2 SUB PUSH1 0x0 DUP4 ADD MSTORE PUSH2 0x1680 DUP2 PUSH2 0x1495 JUMP JUMPDEST SWAP1 POP SWAP2 SWAP1 POP JUMP JUMPDEST PUSH1 0x0 PUSH1 0x20 DUP3 ADD SWAP1 POP DUP2 DUP2 SUB PUSH1 0x0 DUP4 ADD MSTORE PUSH2 0x16A0 DUP2 PUSH2 0x14B8 JUMP JUMPDEST SWAP1 POP SWAP2 SWAP1 POP JUMP JUMPDEST PUSH1 0x0 PUSH1 0x20 DUP3 ADD SWAP1 POP DUP2 DUP2 SUB PUSH1 0x0 DUP4 ADD MSTORE PUSH2 0x16C0 DUP2 PUSH2 0x14DB JUMP JUMPDEST SWAP1 POP SWAP2 SWAP1 POP JUMP JUMPDEST PUSH1 0x0 PUSH1 0x20 DUP3 ADD SWAP1 POP DUP2 DUP2 SUB PUSH1 0x0 DUP4 ADD MSTORE PUSH2 0x16E0 DUP2 PUSH2 0x14FE JUMP JUMPDEST SWAP1 POP SWAP2 SWAP1 POP JUMP JUMPDEST PUSH1 0x0 PUSH1 0x20 DUP3 ADD SWAP1 POP PUSH2 0x16FC PUSH1 0x0 DUP4 ADD DUP5 PUSH2 0x1521 JUMP JUMPDEST SWAP3 SWAP2 POP POP JUMP JUMPDEST PUSH1 0x0 DUP3 DUP3 MSTORE PUSH1 0x20 DUP3 ADD SWAP1 POP SWAP3 SWAP2 POP POP JUMP JUMPDEST PUSH1 0x0 PUSH2 0x171E DUP3 PUSH2 0x17F1 JUMP JUMPDEST SWAP2 POP PUSH2 0x1729 DUP4 PUSH2 0x17F1 JUMP JUMPDEST SWAP3 POP DUP2 PUSH32 0xFFFFFFFFFFFFFFFFFFFFFFFFFFFFFFFFFFFFFFFFFFFFFFFFFFFFFFFFFFFFFFFF DIV DUP4 GT DUP3 ISZERO ISZERO AND ISZERO PUSH2 0x1762 JUMPI PUSH2 0x1761 PUSH2 0x1831 JUMP JUMPDEST JUMPDEST DUP3 DUP3 MUL SWAP1 POP SWAP3 SWAP2 POP POP JUMP JUMPDEST PUSH1 0x0 PUSH2 0x1778 DUP3 PUSH2 0x17F1 JUMP JUMPDEST SWAP2 POP PUSH2 0x1783 DUP4 PUSH2 0x17F1 JUMP JUMPDEST SWAP3 POP DUP3 DUP3 LT ISZERO PUSH2 0x1796 JUMPI PUSH2 0x1795 PUSH2 0x1831 JUMP JUMPDEST JUMPDEST DUP3 DUP3 SUB SWAP1 POP SWAP3 SWAP2 POP POP JUMP JUMPDEST PUSH1 0x0 PUSH2 0x17AC DUP3 PUSH2 0x17D1 JUMP JUMPDEST SWAP1 POP SWAP2 SWAP1 POP JUMP JUMPDEST PUSH1 0x0 DUP2 ISZERO ISZERO SWAP1 POP SWAP2 SWAP1 POP JUMP JUMPDEST PUSH1 0x0 PUSH2 0x17CA DUP3 PUSH2 0x17A1 JUMP JUMPDEST SWAP1 POP SWAP2 SWAP1 POP JUMP JUMPDEST PUSH1 0x0 PUSH20 0xFFFFFFFFFFFFFFFFFFFFFFFFFFFFFFFFFFFFFFFF DUP3 AND SWAP1 POP SWAP2 SWAP1 POP JUMP JUMPDEST PUSH1 0x0 DUP2 SWAP1 POP SWAP2 SWAP1 POP JUMP JUMPDEST PUSH1 0x0 PUSH2 0x1806 DUP3 PUSH2 0x180D JUMP JUMPDEST SWAP1 POP SWAP2 SWAP1 POP JUMP JUMPDEST PUSH1 0x0 PUSH2 0x1818 DUP3 PUSH2 0x181F JUMP JUMPDEST SWAP1 POP SWAP2 SWAP1 POP JUMP JUMPDEST PUSH1 0x0 PUSH2 0x182A DUP3 PUSH2 0x17D1 JUMP JUMPDEST SWAP1 POP SWAP2 SWAP1 POP JUMP JUMPDEST PUSH32 0x4E487B7100000000000000000000000000000000000000000000000000000000 PUSH1 0x0 MSTORE PUSH1 0x11 PUSH1 0x4 MSTORE PUSH1 0x24 PUSH1 0x0 REVERT JUMPDEST PUSH1 0x0 DUP1 REVERT JUMPDEST PUSH32 0x4F776E61626C653A206E6577206F776E657220697320746865207A65726F2061 PUSH1 0x0 DUP3 ADD MSTORE PUSH32 0x6464726573730000000000000000000000000000000000000000000000000000 PUSH1 0x20 DUP3 ADD MSTORE POP JUMP JUMPDEST PUSH32 0x546869732061756374696F6E2068617320656E64656400000000000000000000 PUSH1 0x0 DUP3 ADD MSTORE POP JUMP JUMPDEST PUSH32 0x4F776E61626C653A2063616C6C6572206973206E6F7420746865206F776E6572 PUSH1 0x0 DUP3 ADD MSTORE POP JUMP JUMPDEST PUSH32 0x41756374696F6E73206E6F742079657420656E64656400000000000000000000 PUSH1 0x0 DUP3 ADD MSTORE POP JUMP JUMPDEST PUSH32 0x4E4654207472616E73666572206661696C656400000000000000000000000000 PUSH1 0x0 DUP3 ADD MSTORE POP JUMP JUMPDEST PUSH32 0x54686520616D6F756E74206F6620546F6B656E2073656E74206973206C657373 PUSH1 0x0 DUP3 ADD MSTORE PUSH32 0x207468616E207468652070726963650000000000000000000000000000000000 PUSH1 0x20 DUP3 ADD MSTORE POP JUMP JUMPDEST PUSH2 0x19B0 DUP2 PUSH2 0x17A1 JUMP JUMPDEST DUP2 EQ PUSH2 0x19BB JUMPI PUSH1 0x0 DUP1 REVERT JUMPDEST POP JUMP JUMPDEST PUSH2 0x19C7 DUP2 PUSH2 0x17B3 JUMP JUMPDEST DUP2 EQ PUSH2 0x19D2 JUMPI PUSH1 0x0 DUP1 REVERT JUMPDEST POP JUMP JUMPDEST PUSH2 0x19DE DUP2 PUSH2 0x17BF JUMP JUMPDEST DUP2 EQ PUSH2 0x19E9 JUMPI PUSH1 0x0 DUP1 REVERT JUMPDEST POP JUMP JUMPDEST PUSH2 0x19F5 DUP2 PUSH2 0x17F1 JUMP JUMPDEST DUP2 EQ PUSH2 0x1A00 JUMPI PUSH1 0x0 DUP1 REVERT JUMPDEST POP JUMP INVALID LOG2 PUSH5 0x6970667358 0x22 SLT KECCAK256 0xA7 0xBF SWAP7 SLOAD 0x25 CALLCODE PUSH30 0xD7DEB0114164E04294477290FE64AE9B8C51E360AE436CB38064736F6C63 NUMBER STOP ADDMOD SMOD STOP CALLER LOG2 PUSH5 0x6970667358 0x22 SLT KECCAK256 PUSH23 0xACCE72C58E8706B40E026D13978C38C34F9AC1FCA09511 BYTE JUMPI DUP16 0xC1 SGT 0xEA XOR 0xD4 PUSH5 0x736F6C6343 STOP ADDMOD SMOD STOP CALLER "
    },
    "gasEstimates": {
      "creation": {
        "codeDepositCost": "5491400",
        "executionCost": "infinite",
        "totalCost": "infinite"
      },
      "external": {
        "NFTAuctions(uint256)": "2905",
        "OrganizationType()": "infinite",
        "Proposals(uint256)": "infinite",
        "addBlackLister(address)": "27163",
        "changeNumberVoteOwner(uint256)": "22611",
        "countVoteBeforeEnd(uint256)": "infinite",
        "countVoteWithEndTime(uint256)": "infinite",
        "coverImgUrl()": "infinite",
        "createNFTAuctionOrBuy(uint256,string,string)": "infinite",
        "createProposal(string,address[],address,uint256,uint256,bool,uint256,uint256)": "infinite",
        "creator()": "infinite",
        "description()": "infinite",
        "getOrganizationInfo(address)": "infinite",
        "isBlackLister(address)": "2929",
        "name()": "infinite",
        "nextAuction()": "2518",
        "nextProposal()": "2540",
        "numberVoteOwner()": "2473",
        "owner()": "2567",
        "removeBlackLister(address)": "27142",
        "renounceOwnership()": "30420",
        "sendNFT(uint256)": "infinite",
        "sendNFT2(uint256,address)": "infinite",
        "transferOwnership(address)": "30811",
        "voteOnProposal(uint256,bool)": "infinite",
        "withDraw(uint256)": "infinite",
        "withDraw2(address,uint256)": "infinite"
      },
      "internal": {
        "checkAllVoterVoted(uint256)": "infinite",
        "checkVoteEligibility(uint256,address)": "infinite"
      }
    },
    "methodIdentifiers": {
      "NFTAuctions(uint256)": "f2f91519",
      "OrganizationType()": "b6f37093",
      "Proposals(uint256)": "d1dbe7d8",
      "addBlackLister(address)": "a9a99c0d",
      "changeNumberVoteOwner(uint256)": "1163705d",
      "countVoteBeforeEnd(uint256)": "3c28cae2",
      "countVoteWithEndTime(uint256)": "4f0086fc",
      "coverImgUrl()": "3e7d7ff2",
      "createNFTAuctionOrBuy(uint256,string,string)": "4b2a10a6",
      "createProposal(string,address[],address,uint256,uint256,bool,uint256,uint256)": "8f52b4dd",
      "creator()": "02d05d3f",
      "description()": "7284e416",
      "getOrganizationInfo(address)": "a9647f41",
      "isBlackLister(address)": "339fbdbb",
      "name()": "06fdde03",
      "nextAuction()": "6347a377",
      "nextProposal()": "6ae3638c",
      "numberVoteOwner()": "e7bda8f8",
      "owner()": "8da5cb5b",
      "removeBlackLister(address)": "79de8d35",
      "renounceOwnership()": "715018a6",
      "sendNFT(uint256)": "fd66ed8e",
      "sendNFT2(uint256,address)": "252891ba",
      "transferOwnership(address)": "f2fde38b",
      "voteOnProposal(uint256,bool)": "1614665c",
      "withDraw(uint256)": "14174f33",
      "withDraw2(address,uint256)": "a9c58844"
    }
  },
  "abi": [
    {
      "inputs": [
        {
          "internalType": "string",
          "name": "_name",
          "type": "string"
        },
        {
          "internalType": "string",
          "name": "_description",
          "type": "string"
        },
        {
          "internalType": "string",
          "name": "_coverImgUrl",
          "type": "string"
        },
        {
          "internalType": "string",
          "name": "_OrganizationType",
          "type": "string"
        },
        {
          "internalType": "address",
          "name": "_creator",
          "type": "address"
        }
      ],
      "stateMutability": "nonpayable",
      "type": "constructor"
    },
    {
      "anonymous": false,
      "inputs": [
        {
          "indexed": false,
          "internalType": "address",
          "name": "campaignAddress",
          "type": "address"
        },
        {
          "indexed": false,
          "internalType": "string",
          "name": "name",
          "type": "string"
        },
        {
          "indexed": false,
          "internalType": "string",
          "name": "description",
          "type": "string"
        },
        {
          "indexed": false,
          "internalType": "address",
          "name": "nft",
          "type": "address"
        },
        {
          "indexed": false,
          "internalType": "uint256",
          "name": "tokenId",
          "type": "uint256"
        },
        {
          "indexed": false,
          "internalType": "uint256",
          "name": "startingPrice",
          "type": "uint256"
        },
        {
          "indexed": false,
          "internalType": "uint256",
          "name": "lastPrice",
          "type": "uint256"
        },
        {
          "indexed": false,
          "internalType": "uint256",
          "name": "discountRate",
          "type": "uint256"
        },
        {
          "indexed": false,
          "internalType": "uint256",
          "name": "end",
          "type": "uint256"
        },
        {
          "indexed": false,
          "internalType": "address",
          "name": "creator",
          "type": "address"
        },
        {
          "indexed": false,
          "internalType": "bool",
          "name": "isStart",
          "type": "bool"
        },
        {
          "indexed": false,
          "internalType": "uint256",
          "name": "sellPrice",
          "type": "uint256"
        },
        {
          "indexed": false,
          "internalType": "string",
          "name": "buyer",
          "type": "string"
        }
      ],
      "name": "NftCampaignCreated",
      "type": "event"
    },
    {
      "anonymous": false,
      "inputs": [
        {
          "indexed": true,
          "internalType": "address",
          "name": "previousOwner",
          "type": "address"
        },
        {
          "indexed": true,
          "internalType": "address",
          "name": "newOwner",
          "type": "address"
        }
      ],
      "name": "OwnershipTransferred",
      "type": "event"
    },
    {
      "anonymous": false,
      "inputs": [
        {
          "indexed": false,
          "internalType": "uint256",
          "name": "votesUp",
          "type": "uint256"
        },
        {
          "indexed": false,
          "internalType": "uint256",
          "name": "votesDown",
          "type": "uint256"
        },
        {
          "indexed": false,
          "internalType": "address",
          "name": "voter",
          "type": "address"
        },
        {
          "indexed": false,
          "internalType": "uint256",
          "name": "proposal",
          "type": "uint256"
        },
        {
          "indexed": false,
          "internalType": "bool",
          "name": "votedFor",
          "type": "bool"
        }
      ],
      "name": "newVote",
      "type": "event"
    },
    {
      "anonymous": false,
      "inputs": [
        {
          "indexed": false,
          "internalType": "uint256",
          "name": "id",
          "type": "uint256"
        },
        {
          "indexed": false,
          "internalType": "bool",
          "name": "passed",
          "type": "bool"
        }
      ],
      "name": "proposalCount",
      "type": "event"
    },
    {
      "anonymous": false,
      "inputs": [
        {
          "indexed": false,
          "internalType": "uint256",
          "name": "id",
          "type": "uint256"
        },
        {
          "indexed": false,
          "internalType": "string",
          "name": "description",
          "type": "string"
        },
        {
          "indexed": false,
          "internalType": "uint256",
          "name": "deadline",
          "type": "uint256"
        },
        {
          "indexed": false,
          "internalType": "address[]",
          "name": "canVote",
          "type": "address[]"
        },
        {
          "indexed": false,
          "internalType": "address",
          "name": "token",
          "type": "address"
        },
        {
          "indexed": false,
          "internalType": "uint256",
          "name": "amount",
          "type": "uint256"
        },
        {
          "indexed": false,
          "internalType": "address",
          "name": "proposer",
          "type": "address"
        },
        {
          "indexed": false,
          "internalType": "bool",
          "name": "",
          "type": "bool"
        },
        {
          "indexed": false,
          "internalType": "uint256",
          "name": "",
          "type": "uint256"
        },
        {
          "indexed": false,
          "internalType": "uint256",
          "name": "",
          "type": "uint256"
        }
      ],
      "name": "proposalCreated",
      "type": "event"
    },
    {
      "inputs": [
        {
          "internalType": "uint256",
          "name": "",
          "type": "uint256"
        }
      ],
      "name": "NFTAuctions",
      "outputs": [
        {
          "internalType": "address",
          "name": "",
          "type": "address"
        }
      ],
      "stateMutability": "view",
      "type": "function"
    },
    {
      "inputs": [],
      "name": "OrganizationType",
      "outputs": [
        {
          "internalType": "string",
          "name": "",
          "type": "string"
        }
      ],
      "stateMutability": "view",
      "type": "function"
    },
    {
      "inputs": [
        {
          "internalType": "uint256",
          "name": "",
          "type": "uint256"
        }
      ],
      "name": "Proposals",
      "outputs": [
        {
          "internalType": "uint256",
          "name": "id",
          "type": "uint256"
        },
        {
          "internalType": "string",
          "name": "description",
          "type": "string"
        },
        {
          "internalType": "uint256",
          "name": "deadline",
          "type": "uint256"
        },
        {
          "internalType": "uint256",
          "name": "votesUp",
          "type": "uint256"
        },
        {
          "internalType": "uint256",
          "name": "votesDown",
          "type": "uint256"
        },
        {
          "internalType": "uint256",
          "name": "status",
          "type": "uint256"
        },
        {
          "internalType": "bool",
          "name": "passed",
          "type": "bool"
        },
        {
          "internalType": "address",
          "name": "token",
          "type": "address"
        },
        {
          "internalType": "uint256",
          "name": "amount",
          "type": "uint256"
        },
        {
          "internalType": "bool",
          "name": "isProposalForNFT",
          "type": "bool"
        },
        {
          "internalType": "uint256",
          "name": "startingPrice",
          "type": "uint256"
        },
        {
          "internalType": "uint256",
          "name": "endPrice",
          "type": "uint256"
        }
      ],
      "stateMutability": "view",
      "type": "function"
    },
    {
      "inputs": [
        {
          "internalType": "address",
          "name": "user",
          "type": "address"
        }
      ],
      "name": "addBlackLister",
      "outputs": [],
      "stateMutability": "nonpayable",
      "type": "function"
    },
    {
      "inputs": [
        {
          "internalType": "uint256",
          "name": "value",
          "type": "uint256"
        }
      ],
      "name": "changeNumberVoteOwner",
      "outputs": [],
      "stateMutability": "nonpayable",
      "type": "function"
    },
    {
      "inputs": [
        {
          "internalType": "uint256",
          "name": "_id",
          "type": "uint256"
        }
      ],
      "name": "countVoteBeforeEnd",
      "outputs": [
        {
          "internalType": "bool",
          "name": "",
          "type": "bool"
        }
      ],
      "stateMutability": "nonpayable",
      "type": "function"
    },
    {
      "inputs": [
        {
          "internalType": "uint256",
          "name": "_id",
          "type": "uint256"
        }
      ],
      "name": "countVoteWithEndTime",
      "outputs": [
        {
          "internalType": "bool",
          "name": "",
          "type": "bool"
        }
      ],
      "stateMutability": "nonpayable",
      "type": "function"
    },
    {
      "inputs": [],
      "name": "coverImgUrl",
      "outputs": [
        {
          "internalType": "string",
          "name": "",
          "type": "string"
        }
      ],
      "stateMutability": "view",
      "type": "function"
    },
    {
      "inputs": [
        {
          "internalType": "uint256",
          "name": "_id",
          "type": "uint256"
        },
        {
          "internalType": "string",
          "name": "_name",
          "type": "string"
        },
        {
          "internalType": "string",
          "name": "_description",
          "type": "string"
        }
      ],
      "name": "createNFTAuctionOrBuy",
      "outputs": [
        {
          "internalType": "address",
          "name": "",
          "type": "address"
        }
      ],
      "stateMutability": "nonpayable",
      "type": "function"
    },
    {
      "inputs": [
        {
          "internalType": "string",
          "name": "_description",
          "type": "string"
        },
        {
          "internalType": "address[]",
          "name": "_canVote",
          "type": "address[]"
        },
        {
          "internalType": "address",
          "name": "_token",
          "type": "address"
        },
        {
          "internalType": "uint256",
          "name": "_amount",
          "type": "uint256"
        },
        {
          "internalType": "uint256",
          "name": "endTime",
          "type": "uint256"
        },
        {
          "internalType": "bool",
          "name": "isProposalForNFT",
          "type": "bool"
        },
        {
          "internalType": "uint256",
          "name": "_startingPrice",
          "type": "uint256"
        },
        {
          "internalType": "uint256",
          "name": "_endPrice",
          "type": "uint256"
        }
      ],
      "name": "createProposal",
      "outputs": [],
      "stateMutability": "nonpayable",
      "type": "function"
    },
    {
      "inputs": [],
      "name": "creator",
      "outputs": [
        {
          "internalType": "address",
          "name": "",
          "type": "address"
        }
      ],
      "stateMutability": "view",
      "type": "function"
    },
    {
      "inputs": [],
      "name": "description",
      "outputs": [
        {
          "internalType": "string",
          "name": "",
          "type": "string"
        }
      ],
      "stateMutability": "view",
      "type": "function"
    },
    {
      "inputs": [
        {
          "internalType": "contract IERC20",
          "name": "token",
          "type": "address"
        }
      ],
      "name": "getOrganizationInfo",
      "outputs": [
        {
          "internalType": "string",
          "name": "",
          "type": "string"
        },
        {
          "internalType": "string",
          "name": "",
          "type": "string"
        },
        {
          "internalType": "string",
          "name": "",
          "type": "string"
        },
        {
          "internalType": "string",
          "name": "",
          "type": "string"
        },
        {
          "internalType": "address",
          "name": "",
          "type": "address"
        },
        {
          "internalType": "uint256",
          "name": "",
          "type": "uint256"
        }
      ],
      "stateMutability": "view",
      "type": "function"
    },
    {
      "inputs": [
        {
          "internalType": "address",
          "name": "user",
          "type": "address"
        }
      ],
      "name": "isBlackLister",
      "outputs": [
        {
          "internalType": "bool",
          "name": "",
          "type": "bool"
        }
      ],
      "stateMutability": "view",
      "type": "function"
    },
    {
      "inputs": [],
      "name": "name",
      "outputs": [
        {
          "internalType": "string",
          "name": "",
          "type": "string"
        }
      ],
      "stateMutability": "view",
      "type": "function"
    },
    {
      "inputs": [],
      "name": "nextAuction",
      "outputs": [
        {
          "internalType": "uint256",
          "name": "",
          "type": "uint256"
        }
      ],
      "stateMutability": "view",
      "type": "function"
    },
    {
      "inputs": [],
      "name": "nextProposal",
      "outputs": [
        {
          "internalType": "uint256",
          "name": "",
          "type": "uint256"
        }
      ],
      "stateMutability": "view",
      "type": "function"
    },
    {
      "inputs": [],
      "name": "numberVoteOwner",
      "outputs": [
        {
          "internalType": "uint256",
          "name": "",
          "type": "uint256"
        }
      ],
      "stateMutability": "view",
      "type": "function"
    },
    {
      "inputs": [],
      "name": "owner",
      "outputs": [
        {
          "internalType": "address",
          "name": "",
          "type": "address"
        }
      ],
      "stateMutability": "view",
      "type": "function"
    },
    {
      "inputs": [
        {
          "internalType": "address",
          "name": "user",
          "type": "address"
        }
      ],
      "name": "removeBlackLister",
      "outputs": [],
      "stateMutability": "nonpayable",
      "type": "function"
    },
    {
      "inputs": [],
      "name": "renounceOwnership",
      "outputs": [],
      "stateMutability": "nonpayable",
      "type": "function"
    },
    {
      "inputs": [
        {
          "internalType": "uint256",
          "name": "_id",
          "type": "uint256"
        }
      ],
      "name": "sendNFT",
      "outputs": [],
      "stateMutability": "nonpayable",
      "type": "function"
    },
    {
      "inputs": [
        {
          "internalType": "uint256",
          "name": "_id",
          "type": "uint256"
        },
        {
          "internalType": "address",
          "name": "NFTAuction",
          "type": "address"
        }
      ],
      "name": "sendNFT2",
      "outputs": [],
      "stateMutability": "nonpayable",
      "type": "function"
    },
    {
      "inputs": [
        {
          "internalType": "address",
          "name": "newOwner",
          "type": "address"
        }
      ],
      "name": "transferOwnership",
      "outputs": [],
      "stateMutability": "nonpayable",
      "type": "function"
    },
    {
      "inputs": [
        {
          "internalType": "uint256",
          "name": "_id",
          "type": "uint256"
        },
        {
          "internalType": "bool",
          "name": "_vote",
          "type": "bool"
        }
      ],
      "name": "voteOnProposal",
      "outputs": [],
      "stateMutability": "nonpayable",
      "type": "function"
    },
    {
      "inputs": [
        {
          "internalType": "uint256",
          "name": "_id",
          "type": "uint256"
        }
      ],
      "name": "withDraw",
      "outputs": [],
      "stateMutability": "nonpayable",
      "type": "function"
    },
    {
      "inputs": [
        {
          "internalType": "contract IERC20",
          "name": "token",
          "type": "address"
        },
        {
          "internalType": "uint256",
          "name": "amount",
          "type": "uint256"
        }
      ],
      "name": "withDraw2",
      "outputs": [],
      "stateMutability": "nonpayable",
      "type": "function"
    }
  ]
}