{
  "data": {
    "bytecode": {
      "linkReferences": {},
      "object": "60a06040523480156200001157600080fd5b506040516200421c3803806200421c83398101604081905262000034916200034b565b6200003f33620000c9565b845162000054906001906020880190620001ee565b5083516200006a906002906020870190620001ee565b50825162000080906003906020860190620001ee565b50815162000096906004906020850190620001ee565b506001600160601b0319606082901b16608052620000b48162000119565b5050600160055550506002600755506200047b565b600080546001600160a01b038381166001600160a01b0319831681178455604051919092169283917f8be0079c531659141344cd1fd0a4f28419497f9722a3daafe3b4186f6b6457e09190a35050565b6000546001600160a01b03163314620001795760405162461bcd60e51b815260206004820181905260248201527f4f776e61626c653a2063616c6c6572206973206e6f7420746865206f776e657260448201526064015b60405180910390fd5b6001600160a01b038116620001e05760405162461bcd60e51b815260206004820152602660248201527f4f776e61626c653a206e6577206f776e657220697320746865207a65726f206160448201526564647265737360d01b606482015260840162000170565b620001eb81620000c9565b50565b828054620001fc9062000428565b90600052602060002090601f0160209004810192826200022057600085556200026b565b82601f106200023b57805160ff19168380011785556200026b565b828001600101855582156200026b579182015b828111156200026b5782518255916020019190600101906200024e565b50620002799291506200027d565b5090565b5b808211156200027957600081556001016200027e565b600082601f830112620002a657600080fd5b81516001600160401b0380821115620002c357620002c362000465565b604051601f8301601f19908116603f01168101908282118183101715620002ee57620002ee62000465565b816040528381526020925086838588010111156200030b57600080fd5b600091505b838210156200032f578582018301518183018401529082019062000310565b83821115620003415760008385830101525b9695505050505050565b600080600080600060a086880312156200036457600080fd5b85516001600160401b03808211156200037c57600080fd5b6200038a89838a0162000294565b96506020880151915080821115620003a157600080fd5b620003af89838a0162000294565b95506040880151915080821115620003c657600080fd5b620003d489838a0162000294565b94506060880151915080821115620003eb57600080fd5b50620003fa8882890162000294565b608088015190935090506001600160a01b03811681146200041a57600080fd5b809150509295509295909350565b600181811c908216806200043d57607f821691505b602082108114156200045f57634e487b7160e01b600052602260045260246000fd5b50919050565b634e487b7160e01b600052604160045260246000fd5b60805160601c613d5f620004bd600039600081816101d70152818161071601528181610955015281816109ca0152818161159901526118b40152613d5f6000f3fe60806040523480156200001157600080fd5b5060043610620001cc5760003560e01c80636ae3638c116200010d578063a9c5884411620000a3578063e7bda8f8116200007a578063e7bda8f81462000428578063f2f915191462000432578063f2fde38b146200045e578063fd66ed8e146200047557600080fd5b8063a9c5884414620003d5578063b6f3709314620003ec578063d1dbe7d814620003f657600080fd5b806379de8d3511620000e457806379de8d35146200036a5780638da5cb5b1462000381578063a9647f411462000393578063a9a99c0d14620003be57600080fd5b80636ae3638c146200034c578063715018a614620003565780637284e416146200036057600080fd5b8063252891ba11620001835780633e7d7ff2116200015a5780633e7d7ff214620002fb5780634b2a10a614620003055780634f0086fc146200031c5780636347a377146200033357600080fd5b8063252891ba146200028d578063339fbdbb14620002a45780633c28cae214620002e457600080fd5b806302d05d3f14620001d157806306fdde0314620002165780631163705d146200022f57806314174f3314620002485780631614665c146200025f578063203ba6891462000276575b600080fd5b620001f97f000000000000000000000000000000000000000000000000000000000000000081565b6040516001600160a01b0390911681526020015b60405180910390f35b620002206200048c565b6040516200020d919062002487565b620002466200024036600462002275565b62000522565b005b620002466200025936600462002275565b6200057d565b6200024662000270366004620022dc565b620007b9565b620002466200028736600462002196565b62000aa1565b620002466200029e366004620022a9565b62000c39565b620002d3620002b536600462002120565b6001600160a01b031660009081526008602052604090205460ff1690565b60405190151581526020016200020d565b620002d3620002f536600462002275565b62000de0565b6200022062001010565b620001f96200031636600462002304565b6200101f565b620002d36200032d36600462002275565b620012dc565b6200033d60065481565b6040519081526020016200020d565b6200033d60055481565b620002466200146a565b62000220620014a5565b620002466200037b36600462002120565b620014b4565b6000546001600160a01b0316620001f9565b620003aa620003a436600462002120565b62001502565b6040516200020d969594939291906200249c565b62000246620003cf36600462002120565b6200181f565b62000246620003e636600462002167565b62001870565b6200022062001948565b6200040d6200040736600462002275565b62001957565b6040516200020d9d9c9b9a999897969594939291906200272f565b6200033d60075481565b620001f96200044336600462002275565b600a602052600090815260409020546001600160a01b031681565b620002466200046f36600462002120565b62001aeb565b620002466200048636600462002275565b62001b8d565b600180546200049b9062002874565b80601f0160208091040260200160405190810160405280929190818152602001828054620004c99062002874565b80156200051a5780601f10620004ee576101008083540402835291602001916200051a565b820191906000526020600020905b815481529060010190602001808311620004fc57829003601f168201915b505050505081565b60008111620005785760405162461bcd60e51b815260206004820152601b60248201527f56616c75652073686f756c642067726561746572207468616e2030000000000060448201526064015b60405180910390fd5b600755565b6000546001600160a01b03163314620005aa5760405162461bcd60e51b81526004016200056f906200258f565b6000818152600960205260409020600801546001146200060d5760405162461bcd60e51b815260206004820152601c60248201527f50726f706f73616c206e6f742079657420656e64206f7220757365640000000060448201526064016200056f565b6000818152600960208190526040909120015460ff161515600114620006765760405162461bcd60e51b815260206004820152601f60248201527f43616e27742077697468647261772069662070726f706f73616c206661696c0060448201526064016200056f565b6000818152600960205260409020600b015460ff1615620006e55760405162461bcd60e51b815260206004820152602260248201527f43616e27742077697468647261772069662070726f706f73616c20666f72204e604482015261119560f21b60648201526084016200056f565b60008181526009602081905260409182902090810154600a820154925163a9059cbb60e01b81526001600160a01b037f00000000000000000000000000000000000000000000000000000000000000008116600483015260248201949094529192610100909104169063a9059cbb90604401602060405180830381600087803b1580156200077257600080fd5b505af115801562000787573d6000803e3d6000fd5b505050506040513d601f19601f82011682018060405250810190620007ad919062002147565b50600260089091015550565b6005548210620007dd5760405162461bcd60e51b81526004016200056f9062002558565b620007e9823362001d61565b620008415760405162461bcd60e51b815260206004820152602160248201527f596f752063616e206e6f7420766f7465206f6e20746869732050726f706f73616044820152601b60fa1b60648201526084016200056f565b600082815260096020908152604080832033845260070190915290205460ff1615620008c05760405162461bcd60e51b815260206004820152602760248201527f596f75206861766520616c726561647920766f746564206f6e207468697320506044820152661c9bdc1bdcd85b60ca1b60648201526084016200056f565b600082815260096020526040902060030154431115620009355760405162461bcd60e51b815260206004820152602960248201527f54686520646561646c696e65206861732070617373656420666f72207468697360448201526808141c9bdc1bdcd85b60ba1b60648201526084016200056f565b60008281526009602052604090208115620009bf57336001600160a01b037f0000000000000000000000000000000000000000000000000000000000000000161415620009a057600754816004016000828254620009949190620027fa565b9091555062000a239050565b600481018054906000620009b483620028b1565b919050555062000a23565b336001600160a01b037f000000000000000000000000000000000000000000000000000000000000000016141562000a0957600754816005016000828254620009949190620027fa565b60058101805490600062000a1d83620028b1565b91905055505b336000818152600783016020908152604091829020805460ff1916600117905560048401546005850154835191825291810191909152908101919091526060810184905282151560808201527f97a3ed91f0b116dc155f238ac92aa5b825720a7bb096f53156e05d9c8ab6a30a9060a00160405180910390a1505050565b3360009081526008602052604090205460ff161560011462000ad75760405162461bcd60e51b81526004016200056f90620025c4565b60055460008181526009602090815260409091209182558a5162000b04916001840191908d019062001ee9565b50885162000b1c90600283019060208c019062001ee9565b5062000b2a85601862002838565b62000b3790603c62002838565b62000b4490603c62002838565b62000b509042620027fa565b6003820155875162000b6c90600683019060208b019062001f78565b5060006008820155600981018054610100600160a81b0319166101006001600160a01b038a1602179055600a8101869055831562000bc357600b8101805460ff1916851515179055600c8101839055600d81018290555b7f3782a3868ad23e117b96d925dcd46dff36b7a242f0696a6042116660d90fd9136005548b8b84600301548c8c8c338c8c8c60405162000c0e9b9a9998979695949392919062002659565b60405180910390a16005805490600062000c2883620028b1565b919050555050505050505050505050565b3360009081526008602052604090205460ff161560011462000c6f5760405162461bcd60e51b81526004016200056f90620025c4565b60008281526009602052604090206008015460011462000cd25760405162461bcd60e51b815260206004820152601a60248201527f50726f706f73616c206e6f742079657420656e642c207573656400000000000060448201526064016200056f565b6000828152600960208190526040909120015460ff16151560011462000d0c5760405162461bcd60e51b81526004016200056f9062002510565b6000828152600960205260409020600b015460ff16151560011462000d455760405162461bcd60e51b81526004016200056f9062002608565b60008281526009602081905260409182902090810154600a82015492516323b872dd60e01b81523060048201526001600160a01b0385811660248301526044820194909452919261010090910416906323b872dd90606401600060405180830381600087803b15801562000db857600080fd5b505af115801562000dcd573d6000803e3d6000fd5b5050505060028160080181905550505050565b3360009081526008602052604081205460ff161560011462000e165760405162461bcd60e51b81526004016200056f90620025c4565b6000828152600960205260409020600554831062000e485760405162461bcd60e51b81526004016200056f9062002558565b60088101541562000e925760405162461bcd60e51b8152602060048201526013602482015272141c9bdc1bdcd85b081a5cc818dbdd5b9d1959606a1b60448201526064016200056f565b62000e9d8362001df9565b8062000ede57506004810154600754600683015462000ebf906001906200285a565b62000ecb9190620027fa565b62000ed791906200285a565b8160040154115b8062000f1f57506005810154600754600683015462000f00906001906200285a565b62000f0c9190620027fa565b62000f1891906200285a565b8160050154115b62000f875760405162461bcd60e51b815260206004820152603160248201527f4861766520766f746572206e6f7420766f746520796574206f7220766f74652060448201527018d85b89dd081a185d99481c995cdd5b1d607a1b60648201526084016200056f565b60008381526009602052604090206004810154600590910154101562000fb75760098101805460ff191660011790555b60098101546040805185815260ff909216151560208301527f4556fcf667ee704924eea359363d28f06708b744ad113340982b07ef9919fb91910160405180910390a1600160088201556009015460ff1690505b919050565b600380546200049b9062002874565b3360009081526008602052604081205460ff1615600114620010555760405162461bcd60e51b81526004016200056f90620025c4565b600084815260096020526040902060080154600114620010b85760405162461bcd60e51b815260206004820152601c60248201527f50726f706f73616c206e6f742079657420656e64206f7220757365640000000060448201526064016200056f565b6000848152600960208190526040909120015460ff161515600114620010f25760405162461bcd60e51b81526004016200056f9062002510565b6000848152600960205260409020600b015460ff1615156001146200112b5760405162461bcd60e51b81526004016200056f9062002608565b60008481526009602052604081209042906200114b8262093a80620027fa565b9050600062093a8084600d015485600c01546200116991906200285a565b62001175919062002815565b905060008460090160019054906101000a90046001600160a01b031685600a015486600c015487600d015485308989604051620011b29062001fd0565b6001600160a01b039889168152602081019790975260408701959095526060860193909352608085019190915290931660a083015260c082019290925260e081019190915261010001604051809103906000f08015801562001218573d6000803e3d6000fd5b50905080600a60008b815260200190815260200160002060006101000a8154816001600160a01b0302191690836001600160a01b03160217905550600385600801819055507f2f5bb6b4cde88b5e9759ff8455c92de89d53f58958d6a16951c91c08369f40c48189898860090160019054906101000a90046001600160a01b031689600a01548a600c01548b600d0154898b33600080604051620012c89c9b9a99989796959493929190620023c8565b60405180910390a198975050505050505050565b3360009081526008602052604081205460ff1615600114620013125760405162461bcd60e51b81526004016200056f90620025c4565b6005548210620013365760405162461bcd60e51b81526004016200056f9062002558565b60008281526009602052604090206003015442116200138d5760405162461bcd60e51b8152602060048201526012602482015271141c9bdc1bdcd85b081b9bdd08195b99195960721b60448201526064016200056f565b60008281526009602052604090206008015415620013e45760405162461bcd60e51b8152602060048201526013602482015272141c9bdc1bdcd85b081a5cc818dbdd5b9d1959606a1b60448201526064016200056f565b6000828152600960205260409020600481015460058201541015620014135760098101805460ff191660011790555b6001600882015560098101546040805185815260ff909216151560208301527f4556fcf667ee704924eea359363d28f06708b744ad113340982b07ef9919fb91910160405180910390a16009015460ff1692915050565b6000546001600160a01b03163314620014975760405162461bcd60e51b81526004016200056f906200258f565b620014a3600062001e99565b565b600280546200049b9062002874565b6000546001600160a01b03163314620014e15760405162461bcd60e51b81526004016200056f906200258f565b6001600160a01b03166000908152600860205260409020805460ff19169055565b6040516370a0823160e01b8152306004820152606090819081908190600090819081906001600160a01b038916906370a082319060240160206040518083038186803b1580156200155257600080fd5b505afa15801562001567573d6000803e3d6000fd5b505050506040513d601f19601f820116820180604052508101906200158d91906200228f565b905060016002600360047f000000000000000000000000000000000000000000000000000000000000000085858054620015c79062002874565b80601f0160208091040260200160405190810160405280929190818152602001828054620015f59062002874565b8015620016465780601f106200161a5761010080835404028352916020019162001646565b820191906000526020600020905b8154815290600101906020018083116200162857829003601f168201915b505050505095508480546200165b9062002874565b80601f0160208091040260200160405190810160405280929190818152602001828054620016899062002874565b8015620016da5780601f10620016ae57610100808354040283529160200191620016da565b820191906000526020600020905b815481529060010190602001808311620016bc57829003601f168201915b50505050509450838054620016ef9062002874565b80601f01602080910402602001604051908101604052809291908181526020018280546200171d9062002874565b80156200176e5780601f1062001742576101008083540402835291602001916200176e565b820191906000526020600020905b8154815290600101906020018083116200175057829003601f168201915b50505050509350828054620017839062002874565b80601f0160208091040260200160405190810160405280929190818152602001828054620017b19062002874565b8015620018025780601f10620017d65761010080835404028352916020019162001802565b820191906000526020600020905b815481529060010190602001808311620017e457829003601f168201915b505050505092509650965096509650965096505091939550919395565b6000546001600160a01b031633146200184c5760405162461bcd60e51b81526004016200056f906200258f565b6001600160a01b03166000908152600860205260409020805460ff19166001179055565b6000546001600160a01b031633146200189d5760405162461bcd60e51b81526004016200056f906200258f565b60405163a9059cbb60e01b81526001600160a01b037f0000000000000000000000000000000000000000000000000000000000000000811660048301526024820183905283169063a9059cbb90604401602060405180830381600087803b1580156200190857600080fd5b505af11580156200191d573d6000803e3d6000fd5b505050506040513d601f19601f8201168201806040525081019062001943919062002147565b505050565b600480546200049b9062002874565b600960205260009081526040902080546001820180549192916200197b9062002874565b80601f0160208091040260200160405190810160405280929190818152602001828054620019a99062002874565b8015620019fa5780601f10620019ce57610100808354040283529160200191620019fa565b820191906000526020600020905b815481529060010190602001808311620019dc57829003601f168201915b50505050509080600201805462001a119062002874565b80601f016020809104026020016040519081016040528092919081815260200182805462001a3f9062002874565b801562001a905780601f1062001a645761010080835404028352916020019162001a90565b820191906000526020600020905b81548152906001019060200180831162001a7257829003601f168201915b50505060038401546004850154600586015460088701546009880154600a890154600b8a0154600c8b0154600d909b0154999a9699959850939650919460ff808316956001600160a01b03610100909404939093169416918d565b6000546001600160a01b0316331462001b185760405162461bcd60e51b81526004016200056f906200258f565b6001600160a01b03811662001b7f5760405162461bcd60e51b815260206004820152602660248201527f4f776e61626c653a206e6577206f776e657220697320746865207a65726f206160448201526564647265737360d01b60648201526084016200056f565b62001b8a8162001e99565b50565b3360009081526008602052604090205460ff161560011462001bc35760405162461bcd60e51b81526004016200056f90620025c4565b60008181526009602052604090206008015460031462001c4c5760405162461bcd60e51b815260206004820152603a60248201527f50726f706f73616c206e6f742079657420656e642c2075736564206f72206e6f60448201527f7420637265617465204e465441756374696f6e206265666f726500000000000060648201526084016200056f565b6000818152600960208190526040909120015460ff16151560011462001c865760405162461bcd60e51b81526004016200056f9062002510565b6000818152600960205260409020600b015460ff16151560011462001cbf5760405162461bcd60e51b81526004016200056f9062002608565b600081815260096020818152604080842092830154600a9283905293819020549183015490516323b872dd60e01b81523060048201526001600160a01b03928316602482015260448101919091529192610100900416906323b872dd90606401600060405180830381600087803b15801562001d3a57600080fd5b505af115801562001d4f573d6000803e3d6000fd5b50505050600281600801819055505050565b6000805b60008481526009602052604090206006015481101562001ded57600084815260096020526040902060060180546001600160a01b03851691908390811062001db15762001db1620028e5565b6000918252602090912001546001600160a01b0316141562001dd857600191505062001df3565b8062001de481620028b1565b91505062001d65565b50600090505b92915050565b6000805b60008381526009602052604090206006015481101562001e90576000838152600960205260408120600681018054600790920192918490811062001e455762001e45620028e5565b60009182526020808320909101546001600160a01b0316835282019290925260400190205460ff1662001e7b5750600092915050565b8062001e8781620028b1565b91505062001dfd565b50600192915050565b600080546001600160a01b038381166001600160a01b0319831681178455604051919092169283917f8be0079c531659141344cd1fd0a4f28419497f9722a3daafe3b4186f6b6457e09190a35050565b82805462001ef79062002874565b90600052602060002090601f01602090048101928262001f1b576000855562001f66565b82601f1062001f3657805160ff191683800117855562001f66565b8280016001018555821562001f66579182015b8281111562001f6657825182559160200191906001019062001f49565b5062001f7492915062001fde565b5090565b82805482825590600052602060002090810192821562001f66579160200282015b8281111562001f6657825182546001600160a01b0319166001600160a01b0390911617825560209092019160019091019062001f99565b6113f3806200293783390190565b5b8082111562001f74576000815560010162001fdf565b80356200100b8162002911565b600082601f8301126200201457600080fd5b8135602067ffffffffffffffff821115620020335762002033620028fb565b8160051b62002044828201620027c6565b8381528281019086840183880185018910156200206057600080fd5b600093505b85841015620020905780356200207b8162002911565b83526001939093019291840191840162002065565b50979650505050505050565b80356200100b8162002927565b600082601f830112620020bb57600080fd5b813567ffffffffffffffff811115620020d857620020d8620028fb565b620020ed601f8201601f1916602001620027c6565b8181528460208386010111156200210357600080fd5b816020850160208301376000918101602001919091529392505050565b6000602082840312156200213357600080fd5b8135620021408162002911565b9392505050565b6000602082840312156200215a57600080fd5b8151620021408162002927565b600080604083850312156200217b57600080fd5b8235620021888162002911565b946020939093013593505050565b60008060008060008060008060006101208a8c031215620021b657600080fd5b893567ffffffffffffffff80821115620021cf57600080fd5b620021dd8d838e01620020a9565b9a5060208c0135915080821115620021f457600080fd5b620022028d838e01620020a9565b995060408c01359150808211156200221957600080fd5b50620022288c828d0162002002565b9750506200223960608b0162001ff5565b955060808a0135945060a08a013593506200225760c08b016200209c565b925060e08a013591506101008a013590509295985092959850929598565b6000602082840312156200228857600080fd5b5035919050565b600060208284031215620022a257600080fd5b5051919050565b60008060408385031215620022bd57600080fd5b823591506020830135620022d18162002911565b809150509250929050565b60008060408385031215620022f057600080fd5b823591506020830135620022d18162002927565b6000806000606084860312156200231a57600080fd5b83359250602084013567ffffffffffffffff808211156200233a57600080fd5b6200234887838801620020a9565b935060408601359150808211156200235f57600080fd5b506200236e86828701620020a9565b9150509250925092565b6000815180845260005b81811015620023a05760208185018101518683018201520162002382565b81811115620023b3576000602083870101525b50601f01601f19169290920160200192915050565b6001600160a01b038d1681526101a060208201819052600090620023ef8382018f62002378565b9050828103604084015262002405818e62002378565b6001600160a01b038d16606085015290508a60808401528960a08401528860c08401528760e0840152866101008401526200244c6101208401876001600160a01b03169052565b8415156101408401528361016084015282810361018084015262002474816000815260200190565b9f9e505050505050505050505050505050565b60208152600062002140602083018462002378565b60c081526000620024b160c083018962002378565b8281036020840152620024c5818962002378565b90508281036040840152620024db818862002378565b90508281036060840152620024f1818762002378565b6001600160a01b03959095166080840152505060a00152949350505050565b60208082526028908201527f43616e277420696e7465726163742077697468204e46542069662070726f706f6040820152671cd85b0819985a5b60c21b606082015260800190565b6020808252601c908201527f546869732050726f706f73616c20646f6573206e6f7420657869737400000000604082015260600190565b6020808252818101527f4f776e61626c653a2063616c6c6572206973206e6f7420746865206f776e6572604082015260600190565b60208082526024908201527f4f776e61626c653a2063616c6c657220697320696e2074686520626c61636b206040820152631b1a5cdd60e21b606082015260800190565b60208082526031908201527f43616e277420696e7465726163742077697468204e46542069662070726f706f6040820152701cd85b081a5cdb89dd08199bdc88139195607a1b606082015260800190565b60006101608d835260208181850152620026768285018f62002378565b915083820360408501526200268c828e62002378565b606085018d905284810360808601528b51808252828d0193509082019060005b81811015620026d35784516001600160a01b031683529383019391830191600101620026ac565b50506001600160a01b038b1660a08601529250620026ef915050565b8660c08301526200270b60e08301876001600160a01b03169052565b84151561010083015261012082019390935261014001529998505050505050505050565b8d81526101a0602082015260006200274c6101a083018f62002378565b828103604084015262002760818f62002378565b9150508b60608301528a60808301528960a08301528860c083015287151560e083015260018060a01b03871661010083015285610120830152620027a961014083018615159052565b61016082019390935261018001529b9a5050505050505050505050565b604051601f8201601f1916810167ffffffffffffffff81118282101715620027f257620027f2620028fb565b604052919050565b60008219821115620028105762002810620028cf565b500190565b6000826200283357634e487b7160e01b600052601260045260246000fd5b500490565b6000816000190483118215151615620028555762002855620028cf565b500290565b6000828210156200286f576200286f620028cf565b500390565b600181811c908216806200288957607f821691505b60208210811415620028ab57634e487b7160e01b600052602260045260246000fd5b50919050565b6000600019821415620028c857620028c8620028cf565b5060010190565b634e487b7160e01b600052601160045260246000fd5b634e487b7160e01b600052603260045260246000fd5b634e487b7160e01b600052604160045260246000fd5b6001600160a01b038116811462001b8a57600080fd5b801515811462001b8a57600080fdfe6101806040523480156200001257600080fd5b50604051620013f3380380620013f3833981016040819052620000359162000343565b6200004033620001e0565b6040516331a9108f60e11b8152600481018890526001600160a01b0380851691908a1690636352211e9060240160206040518083038186803b1580156200008657600080fd5b505afa1580156200009b573d6000803e3d6000fd5b505050506040513d601f19601f82011682018060405250810190620000c191906200031e565b6001600160a01b0316146200011d5760405162461bcd60e51b815260206004820152601660248201527f53656c6c657220646f65736e2774206f776e204e46540000000000000000000060448201526064015b60405180910390fd5b6001600160601b0319606089811b821660805260a089905284901b1660c05260e08690526101008590526101208490526101408290526101608190526000805461ffff60a01b191690556200017662093a8085620003b4565b861015620001c75760405162461bcd60e51b815260206004820152601960248201527f5374617274696e6720707269636520697320746f6f206c6f7700000000000000604482015260640162000114565b620001d28362000230565b5050505050505050620003e2565b600080546001600160a01b038381166001600160a01b0319831681178455604051919092169283917f8be0079c531659141344cd1fd0a4f28419497f9722a3daafe3b4186f6b6457e09190a35050565b6000546001600160a01b031633146200028c5760405162461bcd60e51b815260206004820181905260248201527f4f776e61626c653a2063616c6c6572206973206e6f7420746865206f776e6572604482015260640162000114565b6001600160a01b038116620002f35760405162461bcd60e51b815260206004820152602660248201527f4f776e61626c653a206e6577206f776e657220697320746865207a65726f206160448201526564647265737360d01b606482015260840162000114565b620002fe81620001e0565b50565b80516001600160a01b03811681146200031957600080fd5b919050565b6000602082840312156200033157600080fd5b6200033c8262000301565b9392505050565b600080600080600080600080610100898b0312156200036157600080fd5b6200036c8962000301565b9750602089015196506040890151955060608901519450608089015193506200039860a08a0162000301565b60c08a015160e0909a0151989b979a5095989497939692505050565b6000816000190483118215151615620003dd57634e487b7160e01b600052601160045260246000fd5b500290565b60805160601c60a05160c05160601c60e05161010051610120516101405161016051610f19620004da60003960008181610318015281816104b50152818161050e015281816107370152610a3a0152600081816103b301526109b201526000818161044f01526109e10152600061014c0152600081816103fa0152610a0d015260008181610193015281816105bb015281816108270152610b3a01526000818161037f015281816105dd0152818161066f0152818161084b015281816108b20152610bff0152600081816102270152818161058c015281816106a2015281816107fa015281816108e30152610bce0152610f196000f3fe6080604052600436106101355760003560e01c80638da5cb5b116100ab578063d6fbf2021161006f578063d6fbf202146103e8578063e13454161461041c578063e6c0e6d51461043d578063f2fde38b14610471578063fae1db4c14610491578063ffc2bdb1146104a657600080fd5b80638da5cb5b1461033a57806398d5fdca14610358578063c6bc51821461036d578063c7446565146103a1578063cce7ec13146103d557600080fd5b80634e69d560116100fd5780634e69d56014610249578063715018a6146102a65780637150d8ae146102bb5780637698ef02146102db5780638620410b146102f05780638622a6891461030657600080fd5b8063053f14da1461013a57806308551a53146101815780630c570c86146101cd5780630fdb1c10146101fe57806347ccca0214610215575b600080fd5b34801561014657600080fd5b5061016e7f000000000000000000000000000000000000000000000000000000000000000081565b6040519081526020015b60405180910390f35b34801561018d57600080fd5b506101b57f000000000000000000000000000000000000000000000000000000000000000081565b6040516001600160a01b039091168152602001610178565b3480156101d957600080fd5b506000546101ee90600160a01b900460ff1681565b6040519015158152602001610178565b34801561020a57600080fd5b506102136104d9565b005b34801561022157600080fd5b506101b57f000000000000000000000000000000000000000000000000000000000000000081565b34801561025557600080fd5b5061025e61064c565b60408051971515885295151560208801529315159486019490945260608501919091526001600160a01b0316608084015260a0830191909152151560c082015260e001610178565b3480156102b257600080fd5b50610213610783565b3480156102c757600080fd5b506001546101b5906001600160a01b031681565b3480156102e757600080fd5b506102136107b9565b3480156102fc57600080fd5b5061016e60025481565b34801561031257600080fd5b5061016e7f000000000000000000000000000000000000000000000000000000000000000081565b34801561034657600080fd5b506000546001600160a01b03166101b5565b34801561036457600080fd5b5061016e6109aa565b34801561037957600080fd5b5061016e7f000000000000000000000000000000000000000000000000000000000000000081565b3480156103ad57600080fd5b5061016e7f000000000000000000000000000000000000000000000000000000000000000081565b6102136103e3366004610dfd565b610a38565b3480156103f457600080fd5b5061016e7f000000000000000000000000000000000000000000000000000000000000000081565b34801561042857600080fd5b506000546101ee90600160a81b900460ff1681565b34801561044957600080fd5b5061016e7f000000000000000000000000000000000000000000000000000000000000000081565b34801561047d57600080fd5b5061021361048c366004610d9a565b610c85565b34801561049d57600080fd5b50610213610d20565b3480156104b257600080fd5b507f000000000000000000000000000000000000000000000000000000000000000061016e565b6000546001600160a01b0316331461050c5760405162461bcd60e51b815260040161050390610e4d565b60405180910390fd5b7f00000000000000000000000000000000000000000000000000000000000000004210156105755760405162461bcd60e51b8152602060048201526016602482015275105d58dd1a5bdb9cc81b9bdd081e595d08195b99195960521b6044820152606401610503565b6040516323b872dd60e01b81526001600160a01b037f000000000000000000000000000000000000000000000000000000000000000016906323b872dd906106059030907f0000000000000000000000000000000000000000000000000000000000000000907f000000000000000000000000000000000000000000000000000000000000000090600401610e29565b600060405180830381600087803b15801561061f57600080fd5b505af1158015610633573d6000803e3d6000fd5b50506000805460ff60a81b1916600160a81b1790555050565b6000806000806000806000806106606109aa565b6040516331a9108f60e11b81527f0000000000000000000000000000000000000000000000000000000000000000600482015290915030906001600160a01b037f00000000000000000000000000000000000000000000000000000000000000001690636352211e9060240160206040518083038186803b1580156106e457600080fd5b505afa1580156106f8573d6000803e3d6000fd5b505050506040513d601f19601f8201168201806040525081019061071c9190610dbe565b6000546001546002546001600160a01b03938416949094149c7f00000000000000000000000000000000000000000000000000000000000000004210159c5060ff600160a01b840481169c50959a5092169750919550600160a81b90910490911692509050565b6000546001600160a01b031633146107ad5760405162461bcd60e51b815260040161050390610e4d565b6107b76000610d4a565b565b6000546001600160a01b031633146107e35760405162461bcd60e51b815260040161050390610e4d565b6040516323b872dd60e01b81526001600160a01b037f000000000000000000000000000000000000000000000000000000000000000016906323b872dd90610873907f00000000000000000000000000000000000000000000000000000000000000009030907f000000000000000000000000000000000000000000000000000000000000000090600401610e29565b600060405180830381600087803b15801561088d57600080fd5b505af11580156108a1573d6000803e3d6000fd5b50506040516331a9108f60e11b81527f000000000000000000000000000000000000000000000000000000000000000060048201523092506001600160a01b037f0000000000000000000000000000000000000000000000000000000000000000169150636352211e9060240160206040518083038186803b15801561092657600080fd5b505afa15801561093a573d6000803e3d6000fd5b505050506040513d601f19601f8201168201806040525081019061095e9190610dbe565b6001600160a01b0316146107b75760405162461bcd60e51b8152602060048201526013602482015272139195081d1c985b9cd9995c8819985a5b1959606a1b6044820152606401610503565b6000806109d77f000000000000000000000000000000000000000000000000000000000000000042610ea1565b90506000610a05827f0000000000000000000000000000000000000000000000000000000000000000610e82565b9050610a31817f0000000000000000000000000000000000000000000000000000000000000000610ea1565b9250505090565b7f00000000000000000000000000000000000000000000000000000000000000004210610aa05760405162461bcd60e51b8152602060048201526016602482015275151a1a5cc8185d58dd1a5bdb881a185cc8195b99195960521b6044820152606401610503565b6000610aaa6109aa565b905080821015610b145760405162461bcd60e51b815260206004820152602f60248201527f54686520616d6f756e74206f6620546f6b656e2073656e74206973206c65737360448201526e207468616e2074686520707269636560881b6064820152608401610503565b6040516323b872dd60e01b81526001600160a01b038416906323b872dd90610b649033907f0000000000000000000000000000000000000000000000000000000000000000908690600401610e29565b602060405180830381600087803b158015610b7e57600080fd5b505af1158015610b92573d6000803e3d6000fd5b505050506040513d601f19601f82011682018060405250810190610bb69190610ddb565b506040516323b872dd60e01b81526001600160a01b037f000000000000000000000000000000000000000000000000000000000000000016906323b872dd90610c2790309033907f000000000000000000000000000000000000000000000000000000000000000090600401610e29565b600060405180830381600087803b158015610c4157600080fd5b505af1158015610c55573d6000803e3d6000fd5b50506000805460ff60a01b1916600160a01b1790555050600180546001600160a01b031916331790556002555050565b6000546001600160a01b03163314610caf5760405162461bcd60e51b815260040161050390610e4d565b6001600160a01b038116610d145760405162461bcd60e51b815260206004820152602660248201527f4f776e61626c653a206e6577206f776e657220697320746865207a65726f206160448201526564647265737360d01b6064820152608401610503565b610d1d81610d4a565b50565b6000546001600160a01b031633146105755760405162461bcd60e51b815260040161050390610e4d565b600080546001600160a01b038381166001600160a01b0319831681178455604051919092169283917f8be0079c531659141344cd1fd0a4f28419497f9722a3daafe3b4186f6b6457e09190a35050565b600060208284031215610dac57600080fd5b8135610db781610ece565b9392505050565b600060208284031215610dd057600080fd5b8151610db781610ece565b600060208284031215610ded57600080fd5b81518015158114610db757600080fd5b60008060408385031215610e1057600080fd5b8235610e1b81610ece565b946020939093013593505050565b6001600160a01b039384168152919092166020820152604081019190915260600190565b6020808252818101527f4f776e61626c653a2063616c6c6572206973206e6f7420746865206f776e6572604082015260600190565b6000816000190483118215151615610e9c57610e9c610eb8565b500290565b600082821015610eb357610eb3610eb8565b500390565b634e487b7160e01b600052601160045260246000fd5b6001600160a01b0381168114610d1d57600080fdfea2646970667358221220fe97a125632b95a2df54db60e7c444950d9ead3af4f54293e579157470168cfd64736f6c63430008070033a2646970667358221220f7bdbf35ebf9ceacf0898a31d8920400ee0501f1f7a857dafcfd429b264c322364736f6c63430008070033",
      "opcodes": "PUSH1 0xA0 PUSH1 0x40 MSTORE CALLVALUE DUP1 ISZERO PUSH3 0x11 JUMPI PUSH1 0x0 DUP1 REVERT JUMPDEST POP PUSH1 0x40 MLOAD PUSH3 0x421C CODESIZE SUB DUP1 PUSH3 0x421C DUP4 CODECOPY DUP2 ADD PUSH1 0x40 DUP2 SWAP1 MSTORE PUSH3 0x34 SWAP2 PUSH3 0x34B JUMP JUMPDEST PUSH3 0x3F CALLER PUSH3 0xC9 JUMP JUMPDEST DUP5 MLOAD PUSH3 0x54 SWAP1 PUSH1 0x1 SWAP1 PUSH1 0x20 DUP9 ADD SWAP1 PUSH3 0x1EE JUMP JUMPDEST POP DUP4 MLOAD PUSH3 0x6A SWAP1 PUSH1 0x2 SWAP1 PUSH1 0x20 DUP8 ADD SWAP1 PUSH3 0x1EE JUMP JUMPDEST POP DUP3 MLOAD PUSH3 0x80 SWAP1 PUSH1 0x3 SWAP1 PUSH1 0x20 DUP7 ADD SWAP1 PUSH3 0x1EE JUMP JUMPDEST POP DUP2 MLOAD PUSH3 0x96 SWAP1 PUSH1 0x4 SWAP1 PUSH1 0x20 DUP6 ADD SWAP1 PUSH3 0x1EE JUMP JUMPDEST POP PUSH1 0x1 PUSH1 0x1 PUSH1 0x60 SHL SUB NOT PUSH1 0x60 DUP3 SWAP1 SHL AND PUSH1 0x80 MSTORE PUSH3 0xB4 DUP2 PUSH3 0x119 JUMP JUMPDEST POP POP PUSH1 0x1 PUSH1 0x5 SSTORE POP POP PUSH1 0x2 PUSH1 0x7 SSTORE POP PUSH3 0x47B JUMP JUMPDEST PUSH1 0x0 DUP1 SLOAD PUSH1 0x1 PUSH1 0x1 PUSH1 0xA0 SHL SUB DUP4 DUP2 AND PUSH1 0x1 PUSH1 0x1 PUSH1 0xA0 SHL SUB NOT DUP4 AND DUP2 OR DUP5 SSTORE PUSH1 0x40 MLOAD SWAP2 SWAP1 SWAP3 AND SWAP3 DUP4 SWAP2 PUSH32 0x8BE0079C531659141344CD1FD0A4F28419497F9722A3DAAFE3B4186F6B6457E0 SWAP2 SWAP1 LOG3 POP POP JUMP JUMPDEST PUSH1 0x0 SLOAD PUSH1 0x1 PUSH1 0x1 PUSH1 0xA0 SHL SUB AND CALLER EQ PUSH3 0x179 JUMPI PUSH1 0x40 MLOAD PUSH3 0x461BCD PUSH1 0xE5 SHL DUP2 MSTORE PUSH1 0x20 PUSH1 0x4 DUP3 ADD DUP2 SWAP1 MSTORE PUSH1 0x24 DUP3 ADD MSTORE PUSH32 0x4F776E61626C653A2063616C6C6572206973206E6F7420746865206F776E6572 PUSH1 0x44 DUP3 ADD MSTORE PUSH1 0x64 ADD JUMPDEST PUSH1 0x40 MLOAD DUP1 SWAP2 SUB SWAP1 REVERT JUMPDEST PUSH1 0x1 PUSH1 0x1 PUSH1 0xA0 SHL SUB DUP2 AND PUSH3 0x1E0 JUMPI PUSH1 0x40 MLOAD PUSH3 0x461BCD PUSH1 0xE5 SHL DUP2 MSTORE PUSH1 0x20 PUSH1 0x4 DUP3 ADD MSTORE PUSH1 0x26 PUSH1 0x24 DUP3 ADD MSTORE PUSH32 0x4F776E61626C653A206E6577206F776E657220697320746865207A65726F2061 PUSH1 0x44 DUP3 ADD MSTORE PUSH6 0x646472657373 PUSH1 0xD0 SHL PUSH1 0x64 DUP3 ADD MSTORE PUSH1 0x84 ADD PUSH3 0x170 JUMP JUMPDEST PUSH3 0x1EB DUP2 PUSH3 0xC9 JUMP JUMPDEST POP JUMP JUMPDEST DUP3 DUP1 SLOAD PUSH3 0x1FC SWAP1 PUSH3 0x428 JUMP JUMPDEST SWAP1 PUSH1 0x0 MSTORE PUSH1 0x20 PUSH1 0x0 KECCAK256 SWAP1 PUSH1 0x1F ADD PUSH1 0x20 SWAP1 DIV DUP2 ADD SWAP3 DUP3 PUSH3 0x220 JUMPI PUSH1 0x0 DUP6 SSTORE PUSH3 0x26B JUMP JUMPDEST DUP3 PUSH1 0x1F LT PUSH3 0x23B JUMPI DUP1 MLOAD PUSH1 0xFF NOT AND DUP4 DUP1 ADD OR DUP6 SSTORE PUSH3 0x26B JUMP JUMPDEST DUP3 DUP1 ADD PUSH1 0x1 ADD DUP6 SSTORE DUP3 ISZERO PUSH3 0x26B JUMPI SWAP2 DUP3 ADD JUMPDEST DUP3 DUP2 GT ISZERO PUSH3 0x26B JUMPI DUP3 MLOAD DUP3 SSTORE SWAP2 PUSH1 0x20 ADD SWAP2 SWAP1 PUSH1 0x1 ADD SWAP1 PUSH3 0x24E JUMP JUMPDEST POP PUSH3 0x279 SWAP3 SWAP2 POP PUSH3 0x27D JUMP JUMPDEST POP SWAP1 JUMP JUMPDEST JUMPDEST DUP1 DUP3 GT ISZERO PUSH3 0x279 JUMPI PUSH1 0x0 DUP2 SSTORE PUSH1 0x1 ADD PUSH3 0x27E JUMP JUMPDEST PUSH1 0x0 DUP3 PUSH1 0x1F DUP4 ADD SLT PUSH3 0x2A6 JUMPI PUSH1 0x0 DUP1 REVERT JUMPDEST DUP2 MLOAD PUSH1 0x1 PUSH1 0x1 PUSH1 0x40 SHL SUB DUP1 DUP3 GT ISZERO PUSH3 0x2C3 JUMPI PUSH3 0x2C3 PUSH3 0x465 JUMP JUMPDEST PUSH1 0x40 MLOAD PUSH1 0x1F DUP4 ADD PUSH1 0x1F NOT SWAP1 DUP2 AND PUSH1 0x3F ADD AND DUP2 ADD SWAP1 DUP3 DUP3 GT DUP2 DUP4 LT OR ISZERO PUSH3 0x2EE JUMPI PUSH3 0x2EE PUSH3 0x465 JUMP JUMPDEST DUP2 PUSH1 0x40 MSTORE DUP4 DUP2 MSTORE PUSH1 0x20 SWAP3 POP DUP7 DUP4 DUP6 DUP9 ADD ADD GT ISZERO PUSH3 0x30B JUMPI PUSH1 0x0 DUP1 REVERT JUMPDEST PUSH1 0x0 SWAP2 POP JUMPDEST DUP4 DUP3 LT ISZERO PUSH3 0x32F JUMPI DUP6 DUP3 ADD DUP4 ADD MLOAD DUP2 DUP4 ADD DUP5 ADD MSTORE SWAP1 DUP3 ADD SWAP1 PUSH3 0x310 JUMP JUMPDEST DUP4 DUP3 GT ISZERO PUSH3 0x341 JUMPI PUSH1 0x0 DUP4 DUP6 DUP4 ADD ADD MSTORE JUMPDEST SWAP7 SWAP6 POP POP POP POP POP POP JUMP JUMPDEST PUSH1 0x0 DUP1 PUSH1 0x0 DUP1 PUSH1 0x0 PUSH1 0xA0 DUP7 DUP9 SUB SLT ISZERO PUSH3 0x364 JUMPI PUSH1 0x0 DUP1 REVERT JUMPDEST DUP6 MLOAD PUSH1 0x1 PUSH1 0x1 PUSH1 0x40 SHL SUB DUP1 DUP3 GT ISZERO PUSH3 0x37C JUMPI PUSH1 0x0 DUP1 REVERT JUMPDEST PUSH3 0x38A DUP10 DUP4 DUP11 ADD PUSH3 0x294 JUMP JUMPDEST SWAP7 POP PUSH1 0x20 DUP9 ADD MLOAD SWAP2 POP DUP1 DUP3 GT ISZERO PUSH3 0x3A1 JUMPI PUSH1 0x0 DUP1 REVERT JUMPDEST PUSH3 0x3AF DUP10 DUP4 DUP11 ADD PUSH3 0x294 JUMP JUMPDEST SWAP6 POP PUSH1 0x40 DUP9 ADD MLOAD SWAP2 POP DUP1 DUP3 GT ISZERO PUSH3 0x3C6 JUMPI PUSH1 0x0 DUP1 REVERT JUMPDEST PUSH3 0x3D4 DUP10 DUP4 DUP11 ADD PUSH3 0x294 JUMP JUMPDEST SWAP5 POP PUSH1 0x60 DUP9 ADD MLOAD SWAP2 POP DUP1 DUP3 GT ISZERO PUSH3 0x3EB JUMPI PUSH1 0x0 DUP1 REVERT JUMPDEST POP PUSH3 0x3FA DUP9 DUP3 DUP10 ADD PUSH3 0x294 JUMP JUMPDEST PUSH1 0x80 DUP9 ADD MLOAD SWAP1 SWAP4 POP SWAP1 POP PUSH1 0x1 PUSH1 0x1 PUSH1 0xA0 SHL SUB DUP2 AND DUP2 EQ PUSH3 0x41A JUMPI PUSH1 0x0 DUP1 REVERT JUMPDEST DUP1 SWAP2 POP POP SWAP3 SWAP6 POP SWAP3 SWAP6 SWAP1 SWAP4 POP JUMP JUMPDEST PUSH1 0x1 DUP2 DUP2 SHR SWAP1 DUP3 AND DUP1 PUSH3 0x43D JUMPI PUSH1 0x7F DUP3 AND SWAP2 POP JUMPDEST PUSH1 0x20 DUP3 LT DUP2 EQ ISZERO PUSH3 0x45F JUMPI PUSH4 0x4E487B71 PUSH1 0xE0 SHL PUSH1 0x0 MSTORE PUSH1 0x22 PUSH1 0x4 MSTORE PUSH1 0x24 PUSH1 0x0 REVERT JUMPDEST POP SWAP2 SWAP1 POP JUMP JUMPDEST PUSH4 0x4E487B71 PUSH1 0xE0 SHL PUSH1 0x0 MSTORE PUSH1 0x41 PUSH1 0x4 MSTORE PUSH1 0x24 PUSH1 0x0 REVERT JUMPDEST PUSH1 0x80 MLOAD PUSH1 0x60 SHR PUSH2 0x3D5F PUSH3 0x4BD PUSH1 0x0 CODECOPY PUSH1 0x0 DUP2 DUP2 PUSH2 0x1D7 ADD MSTORE DUP2 DUP2 PUSH2 0x716 ADD MSTORE DUP2 DUP2 PUSH2 0x955 ADD MSTORE DUP2 DUP2 PUSH2 0x9CA ADD MSTORE DUP2 DUP2 PUSH2 0x1599 ADD MSTORE PUSH2 0x18B4 ADD MSTORE PUSH2 0x3D5F PUSH1 0x0 RETURN INVALID PUSH1 0x80 PUSH1 0x40 MSTORE CALLVALUE DUP1 ISZERO PUSH3 0x11 JUMPI PUSH1 0x0 DUP1 REVERT JUMPDEST POP PUSH1 0x4 CALLDATASIZE LT PUSH3 0x1CC JUMPI PUSH1 0x0 CALLDATALOAD PUSH1 0xE0 SHR DUP1 PUSH4 0x6AE3638C GT PUSH3 0x10D JUMPI DUP1 PUSH4 0xA9C58844 GT PUSH3 0xA3 JUMPI DUP1 PUSH4 0xE7BDA8F8 GT PUSH3 0x7A JUMPI DUP1 PUSH4 0xE7BDA8F8 EQ PUSH3 0x428 JUMPI DUP1 PUSH4 0xF2F91519 EQ PUSH3 0x432 JUMPI DUP1 PUSH4 0xF2FDE38B EQ PUSH3 0x45E JUMPI DUP1 PUSH4 0xFD66ED8E EQ PUSH3 0x475 JUMPI PUSH1 0x0 DUP1 REVERT JUMPDEST DUP1 PUSH4 0xA9C58844 EQ PUSH3 0x3D5 JUMPI DUP1 PUSH4 0xB6F37093 EQ PUSH3 0x3EC JUMPI DUP1 PUSH4 0xD1DBE7D8 EQ PUSH3 0x3F6 JUMPI PUSH1 0x0 DUP1 REVERT JUMPDEST DUP1 PUSH4 0x79DE8D35 GT PUSH3 0xE4 JUMPI DUP1 PUSH4 0x79DE8D35 EQ PUSH3 0x36A JUMPI DUP1 PUSH4 0x8DA5CB5B EQ PUSH3 0x381 JUMPI DUP1 PUSH4 0xA9647F41 EQ PUSH3 0x393 JUMPI DUP1 PUSH4 0xA9A99C0D EQ PUSH3 0x3BE JUMPI PUSH1 0x0 DUP1 REVERT JUMPDEST DUP1 PUSH4 0x6AE3638C EQ PUSH3 0x34C JUMPI DUP1 PUSH4 0x715018A6 EQ PUSH3 0x356 JUMPI DUP1 PUSH4 0x7284E416 EQ PUSH3 0x360 JUMPI PUSH1 0x0 DUP1 REVERT JUMPDEST DUP1 PUSH4 0x252891BA GT PUSH3 0x183 JUMPI DUP1 PUSH4 0x3E7D7FF2 GT PUSH3 0x15A JUMPI DUP1 PUSH4 0x3E7D7FF2 EQ PUSH3 0x2FB JUMPI DUP1 PUSH4 0x4B2A10A6 EQ PUSH3 0x305 JUMPI DUP1 PUSH4 0x4F0086FC EQ PUSH3 0x31C JUMPI DUP1 PUSH4 0x6347A377 EQ PUSH3 0x333 JUMPI PUSH1 0x0 DUP1 REVERT JUMPDEST DUP1 PUSH4 0x252891BA EQ PUSH3 0x28D JUMPI DUP1 PUSH4 0x339FBDBB EQ PUSH3 0x2A4 JUMPI DUP1 PUSH4 0x3C28CAE2 EQ PUSH3 0x2E4 JUMPI PUSH1 0x0 DUP1 REVERT JUMPDEST DUP1 PUSH4 0x2D05D3F EQ PUSH3 0x1D1 JUMPI DUP1 PUSH4 0x6FDDE03 EQ PUSH3 0x216 JUMPI DUP1 PUSH4 0x1163705D EQ PUSH3 0x22F JUMPI DUP1 PUSH4 0x14174F33 EQ PUSH3 0x248 JUMPI DUP1 PUSH4 0x1614665C EQ PUSH3 0x25F JUMPI DUP1 PUSH4 0x203BA689 EQ PUSH3 0x276 JUMPI JUMPDEST PUSH1 0x0 DUP1 REVERT JUMPDEST PUSH3 0x1F9 PUSH32 0x0 DUP2 JUMP JUMPDEST PUSH1 0x40 MLOAD PUSH1 0x1 PUSH1 0x1 PUSH1 0xA0 SHL SUB SWAP1 SWAP2 AND DUP2 MSTORE PUSH1 0x20 ADD JUMPDEST PUSH1 0x40 MLOAD DUP1 SWAP2 SUB SWAP1 RETURN JUMPDEST PUSH3 0x220 PUSH3 0x48C JUMP JUMPDEST PUSH1 0x40 MLOAD PUSH3 0x20D SWAP2 SWAP1 PUSH3 0x2487 JUMP JUMPDEST PUSH3 0x246 PUSH3 0x240 CALLDATASIZE PUSH1 0x4 PUSH3 0x2275 JUMP JUMPDEST PUSH3 0x522 JUMP JUMPDEST STOP JUMPDEST PUSH3 0x246 PUSH3 0x259 CALLDATASIZE PUSH1 0x4 PUSH3 0x2275 JUMP JUMPDEST PUSH3 0x57D JUMP JUMPDEST PUSH3 0x246 PUSH3 0x270 CALLDATASIZE PUSH1 0x4 PUSH3 0x22DC JUMP JUMPDEST PUSH3 0x7B9 JUMP JUMPDEST PUSH3 0x246 PUSH3 0x287 CALLDATASIZE PUSH1 0x4 PUSH3 0x2196 JUMP JUMPDEST PUSH3 0xAA1 JUMP JUMPDEST PUSH3 0x246 PUSH3 0x29E CALLDATASIZE PUSH1 0x4 PUSH3 0x22A9 JUMP JUMPDEST PUSH3 0xC39 JUMP JUMPDEST PUSH3 0x2D3 PUSH3 0x2B5 CALLDATASIZE PUSH1 0x4 PUSH3 0x2120 JUMP JUMPDEST PUSH1 0x1 PUSH1 0x1 PUSH1 0xA0 SHL SUB AND PUSH1 0x0 SWAP1 DUP2 MSTORE PUSH1 0x8 PUSH1 0x20 MSTORE PUSH1 0x40 SWAP1 KECCAK256 SLOAD PUSH1 0xFF AND SWAP1 JUMP JUMPDEST PUSH1 0x40 MLOAD SWAP1 ISZERO ISZERO DUP2 MSTORE PUSH1 0x20 ADD PUSH3 0x20D JUMP JUMPDEST PUSH3 0x2D3 PUSH3 0x2F5 CALLDATASIZE PUSH1 0x4 PUSH3 0x2275 JUMP JUMPDEST PUSH3 0xDE0 JUMP JUMPDEST PUSH3 0x220 PUSH3 0x1010 JUMP JUMPDEST PUSH3 0x1F9 PUSH3 0x316 CALLDATASIZE PUSH1 0x4 PUSH3 0x2304 JUMP JUMPDEST PUSH3 0x101F JUMP JUMPDEST PUSH3 0x2D3 PUSH3 0x32D CALLDATASIZE PUSH1 0x4 PUSH3 0x2275 JUMP JUMPDEST PUSH3 0x12DC JUMP JUMPDEST PUSH3 0x33D PUSH1 0x6 SLOAD DUP2 JUMP JUMPDEST PUSH1 0x40 MLOAD SWAP1 DUP2 MSTORE PUSH1 0x20 ADD PUSH3 0x20D JUMP JUMPDEST PUSH3 0x33D PUSH1 0x5 SLOAD DUP2 JUMP JUMPDEST PUSH3 0x246 PUSH3 0x146A JUMP JUMPDEST PUSH3 0x220 PUSH3 0x14A5 JUMP JUMPDEST PUSH3 0x246 PUSH3 0x37B CALLDATASIZE PUSH1 0x4 PUSH3 0x2120 JUMP JUMPDEST PUSH3 0x14B4 JUMP JUMPDEST PUSH1 0x0 SLOAD PUSH1 0x1 PUSH1 0x1 PUSH1 0xA0 SHL SUB AND PUSH3 0x1F9 JUMP JUMPDEST PUSH3 0x3AA PUSH3 0x3A4 CALLDATASIZE PUSH1 0x4 PUSH3 0x2120 JUMP JUMPDEST PUSH3 0x1502 JUMP JUMPDEST PUSH1 0x40 MLOAD PUSH3 0x20D SWAP7 SWAP6 SWAP5 SWAP4 SWAP3 SWAP2 SWAP1 PUSH3 0x249C JUMP JUMPDEST PUSH3 0x246 PUSH3 0x3CF CALLDATASIZE PUSH1 0x4 PUSH3 0x2120 JUMP JUMPDEST PUSH3 0x181F JUMP JUMPDEST PUSH3 0x246 PUSH3 0x3E6 CALLDATASIZE PUSH1 0x4 PUSH3 0x2167 JUMP JUMPDEST PUSH3 0x1870 JUMP JUMPDEST PUSH3 0x220 PUSH3 0x1948 JUMP JUMPDEST PUSH3 0x40D PUSH3 0x407 CALLDATASIZE PUSH1 0x4 PUSH3 0x2275 JUMP JUMPDEST PUSH3 0x1957 JUMP JUMPDEST PUSH1 0x40 MLOAD PUSH3 0x20D SWAP14 SWAP13 SWAP12 SWAP11 SWAP10 SWAP9 SWAP8 SWAP7 SWAP6 SWAP5 SWAP4 SWAP3 SWAP2 SWAP1 PUSH3 0x272F JUMP JUMPDEST PUSH3 0x33D PUSH1 0x7 SLOAD DUP2 JUMP JUMPDEST PUSH3 0x1F9 PUSH3 0x443 CALLDATASIZE PUSH1 0x4 PUSH3 0x2275 JUMP JUMPDEST PUSH1 0xA PUSH1 0x20 MSTORE PUSH1 0x0 SWAP1 DUP2 MSTORE PUSH1 0x40 SWAP1 KECCAK256 SLOAD PUSH1 0x1 PUSH1 0x1 PUSH1 0xA0 SHL SUB AND DUP2 JUMP JUMPDEST PUSH3 0x246 PUSH3 0x46F CALLDATASIZE PUSH1 0x4 PUSH3 0x2120 JUMP JUMPDEST PUSH3 0x1AEB JUMP JUMPDEST PUSH3 0x246 PUSH3 0x486 CALLDATASIZE PUSH1 0x4 PUSH3 0x2275 JUMP JUMPDEST PUSH3 0x1B8D JUMP JUMPDEST PUSH1 0x1 DUP1 SLOAD PUSH3 0x49B SWAP1 PUSH3 0x2874 JUMP JUMPDEST DUP1 PUSH1 0x1F ADD PUSH1 0x20 DUP1 SWAP2 DIV MUL PUSH1 0x20 ADD PUSH1 0x40 MLOAD SWAP1 DUP2 ADD PUSH1 0x40 MSTORE DUP1 SWAP3 SWAP2 SWAP1 DUP2 DUP2 MSTORE PUSH1 0x20 ADD DUP3 DUP1 SLOAD PUSH3 0x4C9 SWAP1 PUSH3 0x2874 JUMP JUMPDEST DUP1 ISZERO PUSH3 0x51A JUMPI DUP1 PUSH1 0x1F LT PUSH3 0x4EE JUMPI PUSH2 0x100 DUP1 DUP4 SLOAD DIV MUL DUP4 MSTORE SWAP2 PUSH1 0x20 ADD SWAP2 PUSH3 0x51A JUMP JUMPDEST DUP3 ADD SWAP2 SWAP1 PUSH1 0x0 MSTORE PUSH1 0x20 PUSH1 0x0 KECCAK256 SWAP1 JUMPDEST DUP2 SLOAD DUP2 MSTORE SWAP1 PUSH1 0x1 ADD SWAP1 PUSH1 0x20 ADD DUP1 DUP4 GT PUSH3 0x4FC JUMPI DUP3 SWAP1 SUB PUSH1 0x1F AND DUP3 ADD SWAP2 JUMPDEST POP POP POP POP POP DUP2 JUMP JUMPDEST PUSH1 0x0 DUP2 GT PUSH3 0x578 JUMPI PUSH1 0x40 MLOAD PUSH3 0x461BCD PUSH1 0xE5 SHL DUP2 MSTORE PUSH1 0x20 PUSH1 0x4 DUP3 ADD MSTORE PUSH1 0x1B PUSH1 0x24 DUP3 ADD MSTORE PUSH32 0x56616C75652073686F756C642067726561746572207468616E20300000000000 PUSH1 0x44 DUP3 ADD MSTORE PUSH1 0x64 ADD JUMPDEST PUSH1 0x40 MLOAD DUP1 SWAP2 SUB SWAP1 REVERT JUMPDEST PUSH1 0x7 SSTORE JUMP JUMPDEST PUSH1 0x0 SLOAD PUSH1 0x1 PUSH1 0x1 PUSH1 0xA0 SHL SUB AND CALLER EQ PUSH3 0x5AA JUMPI PUSH1 0x40 MLOAD PUSH3 0x461BCD PUSH1 0xE5 SHL DUP2 MSTORE PUSH1 0x4 ADD PUSH3 0x56F SWAP1 PUSH3 0x258F JUMP JUMPDEST PUSH1 0x0 DUP2 DUP2 MSTORE PUSH1 0x9 PUSH1 0x20 MSTORE PUSH1 0x40 SWAP1 KECCAK256 PUSH1 0x8 ADD SLOAD PUSH1 0x1 EQ PUSH3 0x60D JUMPI PUSH1 0x40 MLOAD PUSH3 0x461BCD PUSH1 0xE5 SHL DUP2 MSTORE PUSH1 0x20 PUSH1 0x4 DUP3 ADD MSTORE PUSH1 0x1C PUSH1 0x24 DUP3 ADD MSTORE PUSH32 0x50726F706F73616C206E6F742079657420656E64206F72207573656400000000 PUSH1 0x44 DUP3 ADD MSTORE PUSH1 0x64 ADD PUSH3 0x56F JUMP JUMPDEST PUSH1 0x0 DUP2 DUP2 MSTORE PUSH1 0x9 PUSH1 0x20 DUP2 SWAP1 MSTORE PUSH1 0x40 SWAP1 SWAP2 KECCAK256 ADD SLOAD PUSH1 0xFF AND ISZERO ISZERO PUSH1 0x1 EQ PUSH3 0x676 JUMPI PUSH1 0x40 MLOAD PUSH3 0x461BCD PUSH1 0xE5 SHL DUP2 MSTORE PUSH1 0x20 PUSH1 0x4 DUP3 ADD MSTORE PUSH1 0x1F PUSH1 0x24 DUP3 ADD MSTORE PUSH32 0x43616E27742077697468647261772069662070726F706F73616C206661696C00 PUSH1 0x44 DUP3 ADD MSTORE PUSH1 0x64 ADD PUSH3 0x56F JUMP JUMPDEST PUSH1 0x0 DUP2 DUP2 MSTORE PUSH1 0x9 PUSH1 0x20 MSTORE PUSH1 0x40 SWAP1 KECCAK256 PUSH1 0xB ADD SLOAD PUSH1 0xFF AND ISZERO PUSH3 0x6E5 JUMPI PUSH1 0x40 MLOAD PUSH3 0x461BCD PUSH1 0xE5 SHL DUP2 MSTORE PUSH1 0x20 PUSH1 0x4 DUP3 ADD MSTORE PUSH1 0x22 PUSH1 0x24 DUP3 ADD MSTORE PUSH32 0x43616E27742077697468647261772069662070726F706F73616C20666F72204E PUSH1 0x44 DUP3 ADD MSTORE PUSH2 0x1195 PUSH1 0xF2 SHL PUSH1 0x64 DUP3 ADD MSTORE PUSH1 0x84 ADD PUSH3 0x56F JUMP JUMPDEST PUSH1 0x0 DUP2 DUP2 MSTORE PUSH1 0x9 PUSH1 0x20 DUP2 SWAP1 MSTORE PUSH1 0x40 SWAP2 DUP3 SWAP1 KECCAK256 SWAP1 DUP2 ADD SLOAD PUSH1 0xA DUP3 ADD SLOAD SWAP3 MLOAD PUSH4 0xA9059CBB PUSH1 0xE0 SHL DUP2 MSTORE PUSH1 0x1 PUSH1 0x1 PUSH1 0xA0 SHL SUB PUSH32 0x0 DUP2 AND PUSH1 0x4 DUP4 ADD MSTORE PUSH1 0x24 DUP3 ADD SWAP5 SWAP1 SWAP5 MSTORE SWAP2 SWAP3 PUSH2 0x100 SWAP1 SWAP2 DIV AND SWAP1 PUSH4 0xA9059CBB SWAP1 PUSH1 0x44 ADD PUSH1 0x20 PUSH1 0x40 MLOAD DUP1 DUP4 SUB DUP2 PUSH1 0x0 DUP8 DUP1 EXTCODESIZE ISZERO DUP1 ISZERO PUSH3 0x772 JUMPI PUSH1 0x0 DUP1 REVERT JUMPDEST POP GAS CALL ISZERO DUP1 ISZERO PUSH3 0x787 JUMPI RETURNDATASIZE PUSH1 0x0 DUP1 RETURNDATACOPY RETURNDATASIZE PUSH1 0x0 REVERT JUMPDEST POP POP POP POP PUSH1 0x40 MLOAD RETURNDATASIZE PUSH1 0x1F NOT PUSH1 0x1F DUP3 ADD AND DUP3 ADD DUP1 PUSH1 0x40 MSTORE POP DUP2 ADD SWAP1 PUSH3 0x7AD SWAP2 SWAP1 PUSH3 0x2147 JUMP JUMPDEST POP PUSH1 0x2 PUSH1 0x8 SWAP1 SWAP2 ADD SSTORE POP JUMP JUMPDEST PUSH1 0x5 SLOAD DUP3 LT PUSH3 0x7DD JUMPI PUSH1 0x40 MLOAD PUSH3 0x461BCD PUSH1 0xE5 SHL DUP2 MSTORE PUSH1 0x4 ADD PUSH3 0x56F SWAP1 PUSH3 0x2558 JUMP JUMPDEST PUSH3 0x7E9 DUP3 CALLER PUSH3 0x1D61 JUMP JUMPDEST PUSH3 0x841 JUMPI PUSH1 0x40 MLOAD PUSH3 0x461BCD PUSH1 0xE5 SHL DUP2 MSTORE PUSH1 0x20 PUSH1 0x4 DUP3 ADD MSTORE PUSH1 0x21 PUSH1 0x24 DUP3 ADD MSTORE PUSH32 0x596F752063616E206E6F7420766F7465206F6E20746869732050726F706F7361 PUSH1 0x44 DUP3 ADD MSTORE PUSH1 0x1B PUSH1 0xFA SHL PUSH1 0x64 DUP3 ADD MSTORE PUSH1 0x84 ADD PUSH3 0x56F JUMP JUMPDEST PUSH1 0x0 DUP3 DUP2 MSTORE PUSH1 0x9 PUSH1 0x20 SWAP1 DUP2 MSTORE PUSH1 0x40 DUP1 DUP4 KECCAK256 CALLER DUP5 MSTORE PUSH1 0x7 ADD SWAP1 SWAP2 MSTORE SWAP1 KECCAK256 SLOAD PUSH1 0xFF AND ISZERO PUSH3 0x8C0 JUMPI PUSH1 0x40 MLOAD PUSH3 0x461BCD PUSH1 0xE5 SHL DUP2 MSTORE PUSH1 0x20 PUSH1 0x4 DUP3 ADD MSTORE PUSH1 0x27 PUSH1 0x24 DUP3 ADD MSTORE PUSH32 0x596F75206861766520616C726561647920766F746564206F6E20746869732050 PUSH1 0x44 DUP3 ADD MSTORE PUSH7 0x1C9BDC1BDCD85B PUSH1 0xCA SHL PUSH1 0x64 DUP3 ADD MSTORE PUSH1 0x84 ADD PUSH3 0x56F JUMP JUMPDEST PUSH1 0x0 DUP3 DUP2 MSTORE PUSH1 0x9 PUSH1 0x20 MSTORE PUSH1 0x40 SWAP1 KECCAK256 PUSH1 0x3 ADD SLOAD NUMBER GT ISZERO PUSH3 0x935 JUMPI PUSH1 0x40 MLOAD PUSH3 0x461BCD PUSH1 0xE5 SHL DUP2 MSTORE PUSH1 0x20 PUSH1 0x4 DUP3 ADD MSTORE PUSH1 0x29 PUSH1 0x24 DUP3 ADD MSTORE PUSH32 0x54686520646561646C696E65206861732070617373656420666F722074686973 PUSH1 0x44 DUP3 ADD MSTORE PUSH9 0x8141C9BDC1BDCD85B PUSH1 0xBA SHL PUSH1 0x64 DUP3 ADD MSTORE PUSH1 0x84 ADD PUSH3 0x56F JUMP JUMPDEST PUSH1 0x0 DUP3 DUP2 MSTORE PUSH1 0x9 PUSH1 0x20 MSTORE PUSH1 0x40 SWAP1 KECCAK256 DUP2 ISZERO PUSH3 0x9BF JUMPI CALLER PUSH1 0x1 PUSH1 0x1 PUSH1 0xA0 SHL SUB PUSH32 0x0 AND EQ ISZERO PUSH3 0x9A0 JUMPI PUSH1 0x7 SLOAD DUP2 PUSH1 0x4 ADD PUSH1 0x0 DUP3 DUP3 SLOAD PUSH3 0x994 SWAP2 SWAP1 PUSH3 0x27FA JUMP JUMPDEST SWAP1 SWAP2 SSTORE POP PUSH3 0xA23 SWAP1 POP JUMP JUMPDEST PUSH1 0x4 DUP2 ADD DUP1 SLOAD SWAP1 PUSH1 0x0 PUSH3 0x9B4 DUP4 PUSH3 0x28B1 JUMP JUMPDEST SWAP2 SWAP1 POP SSTORE POP PUSH3 0xA23 JUMP JUMPDEST CALLER PUSH1 0x1 PUSH1 0x1 PUSH1 0xA0 SHL SUB PUSH32 0x0 AND EQ ISZERO PUSH3 0xA09 JUMPI PUSH1 0x7 SLOAD DUP2 PUSH1 0x5 ADD PUSH1 0x0 DUP3 DUP3 SLOAD PUSH3 0x994 SWAP2 SWAP1 PUSH3 0x27FA JUMP JUMPDEST PUSH1 0x5 DUP2 ADD DUP1 SLOAD SWAP1 PUSH1 0x0 PUSH3 0xA1D DUP4 PUSH3 0x28B1 JUMP JUMPDEST SWAP2 SWAP1 POP SSTORE POP JUMPDEST CALLER PUSH1 0x0 DUP2 DUP2 MSTORE PUSH1 0x7 DUP4 ADD PUSH1 0x20 SWAP1 DUP2 MSTORE PUSH1 0x40 SWAP2 DUP3 SWAP1 KECCAK256 DUP1 SLOAD PUSH1 0xFF NOT AND PUSH1 0x1 OR SWAP1 SSTORE PUSH1 0x4 DUP5 ADD SLOAD PUSH1 0x5 DUP6 ADD SLOAD DUP4 MLOAD SWAP2 DUP3 MSTORE SWAP2 DUP2 ADD SWAP2 SWAP1 SWAP2 MSTORE SWAP1 DUP2 ADD SWAP2 SWAP1 SWAP2 MSTORE PUSH1 0x60 DUP2 ADD DUP5 SWAP1 MSTORE DUP3 ISZERO ISZERO PUSH1 0x80 DUP3 ADD MSTORE PUSH32 0x97A3ED91F0B116DC155F238AC92AA5B825720A7BB096F53156E05D9C8AB6A30A SWAP1 PUSH1 0xA0 ADD PUSH1 0x40 MLOAD DUP1 SWAP2 SUB SWAP1 LOG1 POP POP POP JUMP JUMPDEST CALLER PUSH1 0x0 SWAP1 DUP2 MSTORE PUSH1 0x8 PUSH1 0x20 MSTORE PUSH1 0x40 SWAP1 KECCAK256 SLOAD PUSH1 0xFF AND ISZERO PUSH1 0x1 EQ PUSH3 0xAD7 JUMPI PUSH1 0x40 MLOAD PUSH3 0x461BCD PUSH1 0xE5 SHL DUP2 MSTORE PUSH1 0x4 ADD PUSH3 0x56F SWAP1 PUSH3 0x25C4 JUMP JUMPDEST PUSH1 0x5 SLOAD PUSH1 0x0 DUP2 DUP2 MSTORE PUSH1 0x9 PUSH1 0x20 SWAP1 DUP2 MSTORE PUSH1 0x40 SWAP1 SWAP2 KECCAK256 SWAP2 DUP3 SSTORE DUP11 MLOAD PUSH3 0xB04 SWAP2 PUSH1 0x1 DUP5 ADD SWAP2 SWAP1 DUP14 ADD SWAP1 PUSH3 0x1EE9 JUMP JUMPDEST POP DUP9 MLOAD PUSH3 0xB1C SWAP1 PUSH1 0x2 DUP4 ADD SWAP1 PUSH1 0x20 DUP13 ADD SWAP1 PUSH3 0x1EE9 JUMP JUMPDEST POP PUSH3 0xB2A DUP6 PUSH1 0x18 PUSH3 0x2838 JUMP JUMPDEST PUSH3 0xB37 SWAP1 PUSH1 0x3C PUSH3 0x2838 JUMP JUMPDEST PUSH3 0xB44 SWAP1 PUSH1 0x3C PUSH3 0x2838 JUMP JUMPDEST PUSH3 0xB50 SWAP1 TIMESTAMP PUSH3 0x27FA JUMP JUMPDEST PUSH1 0x3 DUP3 ADD SSTORE DUP8 MLOAD PUSH3 0xB6C SWAP1 PUSH1 0x6 DUP4 ADD SWAP1 PUSH1 0x20 DUP12 ADD SWAP1 PUSH3 0x1F78 JUMP JUMPDEST POP PUSH1 0x0 PUSH1 0x8 DUP3 ADD SSTORE PUSH1 0x9 DUP2 ADD DUP1 SLOAD PUSH2 0x100 PUSH1 0x1 PUSH1 0xA8 SHL SUB NOT AND PUSH2 0x100 PUSH1 0x1 PUSH1 0x1 PUSH1 0xA0 SHL SUB DUP11 AND MUL OR SWAP1 SSTORE PUSH1 0xA DUP2 ADD DUP7 SWAP1 SSTORE DUP4 ISZERO PUSH3 0xBC3 JUMPI PUSH1 0xB DUP2 ADD DUP1 SLOAD PUSH1 0xFF NOT AND DUP6 ISZERO ISZERO OR SWAP1 SSTORE PUSH1 0xC DUP2 ADD DUP4 SWAP1 SSTORE PUSH1 0xD DUP2 ADD DUP3 SWAP1 SSTORE JUMPDEST PUSH32 0x3782A3868AD23E117B96D925DCD46DFF36B7A242F0696A6042116660D90FD913 PUSH1 0x5 SLOAD DUP12 DUP12 DUP5 PUSH1 0x3 ADD SLOAD DUP13 DUP13 DUP13 CALLER DUP13 DUP13 DUP13 PUSH1 0x40 MLOAD PUSH3 0xC0E SWAP12 SWAP11 SWAP10 SWAP9 SWAP8 SWAP7 SWAP6 SWAP5 SWAP4 SWAP3 SWAP2 SWAP1 PUSH3 0x2659 JUMP JUMPDEST PUSH1 0x40 MLOAD DUP1 SWAP2 SUB SWAP1 LOG1 PUSH1 0x5 DUP1 SLOAD SWAP1 PUSH1 0x0 PUSH3 0xC28 DUP4 PUSH3 0x28B1 JUMP JUMPDEST SWAP2 SWAP1 POP SSTORE POP POP POP POP POP POP POP POP POP POP POP JUMP JUMPDEST CALLER PUSH1 0x0 SWAP1 DUP2 MSTORE PUSH1 0x8 PUSH1 0x20 MSTORE PUSH1 0x40 SWAP1 KECCAK256 SLOAD PUSH1 0xFF AND ISZERO PUSH1 0x1 EQ PUSH3 0xC6F JUMPI PUSH1 0x40 MLOAD PUSH3 0x461BCD PUSH1 0xE5 SHL DUP2 MSTORE PUSH1 0x4 ADD PUSH3 0x56F SWAP1 PUSH3 0x25C4 JUMP JUMPDEST PUSH1 0x0 DUP3 DUP2 MSTORE PUSH1 0x9 PUSH1 0x20 MSTORE PUSH1 0x40 SWAP1 KECCAK256 PUSH1 0x8 ADD SLOAD PUSH1 0x1 EQ PUSH3 0xCD2 JUMPI PUSH1 0x40 MLOAD PUSH3 0x461BCD PUSH1 0xE5 SHL DUP2 MSTORE PUSH1 0x20 PUSH1 0x4 DUP3 ADD MSTORE PUSH1 0x1A PUSH1 0x24 DUP3 ADD MSTORE PUSH32 0x50726F706F73616C206E6F742079657420656E642C2075736564000000000000 PUSH1 0x44 DUP3 ADD MSTORE PUSH1 0x64 ADD PUSH3 0x56F JUMP JUMPDEST PUSH1 0x0 DUP3 DUP2 MSTORE PUSH1 0x9 PUSH1 0x20 DUP2 SWAP1 MSTORE PUSH1 0x40 SWAP1 SWAP2 KECCAK256 ADD SLOAD PUSH1 0xFF AND ISZERO ISZERO PUSH1 0x1 EQ PUSH3 0xD0C JUMPI PUSH1 0x40 MLOAD PUSH3 0x461BCD PUSH1 0xE5 SHL DUP2 MSTORE PUSH1 0x4 ADD PUSH3 0x56F SWAP1 PUSH3 0x2510 JUMP JUMPDEST PUSH1 0x0 DUP3 DUP2 MSTORE PUSH1 0x9 PUSH1 0x20 MSTORE PUSH1 0x40 SWAP1 KECCAK256 PUSH1 0xB ADD SLOAD PUSH1 0xFF AND ISZERO ISZERO PUSH1 0x1 EQ PUSH3 0xD45 JUMPI PUSH1 0x40 MLOAD PUSH3 0x461BCD PUSH1 0xE5 SHL DUP2 MSTORE PUSH1 0x4 ADD PUSH3 0x56F SWAP1 PUSH3 0x2608 JUMP JUMPDEST PUSH1 0x0 DUP3 DUP2 MSTORE PUSH1 0x9 PUSH1 0x20 DUP2 SWAP1 MSTORE PUSH1 0x40 SWAP2 DUP3 SWAP1 KECCAK256 SWAP1 DUP2 ADD SLOAD PUSH1 0xA DUP3 ADD SLOAD SWAP3 MLOAD PUSH4 0x23B872DD PUSH1 0xE0 SHL DUP2 MSTORE ADDRESS PUSH1 0x4 DUP3 ADD MSTORE PUSH1 0x1 PUSH1 0x1 PUSH1 0xA0 SHL SUB DUP6 DUP2 AND PUSH1 0x24 DUP4 ADD MSTORE PUSH1 0x44 DUP3 ADD SWAP5 SWAP1 SWAP5 MSTORE SWAP2 SWAP3 PUSH2 0x100 SWAP1 SWAP2 DIV AND SWAP1 PUSH4 0x23B872DD SWAP1 PUSH1 0x64 ADD PUSH1 0x0 PUSH1 0x40 MLOAD DUP1 DUP4 SUB DUP2 PUSH1 0x0 DUP8 DUP1 EXTCODESIZE ISZERO DUP1 ISZERO PUSH3 0xDB8 JUMPI PUSH1 0x0 DUP1 REVERT JUMPDEST POP GAS CALL ISZERO DUP1 ISZERO PUSH3 0xDCD JUMPI RETURNDATASIZE PUSH1 0x0 DUP1 RETURNDATACOPY RETURNDATASIZE PUSH1 0x0 REVERT JUMPDEST POP POP POP POP PUSH1 0x2 DUP2 PUSH1 0x8 ADD DUP2 SWAP1 SSTORE POP POP POP POP JUMP JUMPDEST CALLER PUSH1 0x0 SWAP1 DUP2 MSTORE PUSH1 0x8 PUSH1 0x20 MSTORE PUSH1 0x40 DUP2 KECCAK256 SLOAD PUSH1 0xFF AND ISZERO PUSH1 0x1 EQ PUSH3 0xE16 JUMPI PUSH1 0x40 MLOAD PUSH3 0x461BCD PUSH1 0xE5 SHL DUP2 MSTORE PUSH1 0x4 ADD PUSH3 0x56F SWAP1 PUSH3 0x25C4 JUMP JUMPDEST PUSH1 0x0 DUP3 DUP2 MSTORE PUSH1 0x9 PUSH1 0x20 MSTORE PUSH1 0x40 SWAP1 KECCAK256 PUSH1 0x5 SLOAD DUP4 LT PUSH3 0xE48 JUMPI PUSH1 0x40 MLOAD PUSH3 0x461BCD PUSH1 0xE5 SHL DUP2 MSTORE PUSH1 0x4 ADD PUSH3 0x56F SWAP1 PUSH3 0x2558 JUMP JUMPDEST PUSH1 0x8 DUP2 ADD SLOAD ISZERO PUSH3 0xE92 JUMPI PUSH1 0x40 MLOAD PUSH3 0x461BCD PUSH1 0xE5 SHL DUP2 MSTORE PUSH1 0x20 PUSH1 0x4 DUP3 ADD MSTORE PUSH1 0x13 PUSH1 0x24 DUP3 ADD MSTORE PUSH19 0x141C9BDC1BDCD85B081A5CC818DBDD5B9D1959 PUSH1 0x6A SHL PUSH1 0x44 DUP3 ADD MSTORE PUSH1 0x64 ADD PUSH3 0x56F JUMP JUMPDEST PUSH3 0xE9D DUP4 PUSH3 0x1DF9 JUMP JUMPDEST DUP1 PUSH3 0xEDE JUMPI POP PUSH1 0x4 DUP2 ADD SLOAD PUSH1 0x7 SLOAD PUSH1 0x6 DUP4 ADD SLOAD PUSH3 0xEBF SWAP1 PUSH1 0x1 SWAP1 PUSH3 0x285A JUMP JUMPDEST PUSH3 0xECB SWAP2 SWAP1 PUSH3 0x27FA JUMP JUMPDEST PUSH3 0xED7 SWAP2 SWAP1 PUSH3 0x285A JUMP JUMPDEST DUP2 PUSH1 0x4 ADD SLOAD GT JUMPDEST DUP1 PUSH3 0xF1F JUMPI POP PUSH1 0x5 DUP2 ADD SLOAD PUSH1 0x7 SLOAD PUSH1 0x6 DUP4 ADD SLOAD PUSH3 0xF00 SWAP1 PUSH1 0x1 SWAP1 PUSH3 0x285A JUMP JUMPDEST PUSH3 0xF0C SWAP2 SWAP1 PUSH3 0x27FA JUMP JUMPDEST PUSH3 0xF18 SWAP2 SWAP1 PUSH3 0x285A JUMP JUMPDEST DUP2 PUSH1 0x5 ADD SLOAD GT JUMPDEST PUSH3 0xF87 JUMPI PUSH1 0x40 MLOAD PUSH3 0x461BCD PUSH1 0xE5 SHL DUP2 MSTORE PUSH1 0x20 PUSH1 0x4 DUP3 ADD MSTORE PUSH1 0x31 PUSH1 0x24 DUP3 ADD MSTORE PUSH32 0x4861766520766F746572206E6F7420766F746520796574206F7220766F746520 PUSH1 0x44 DUP3 ADD MSTORE PUSH17 0x18D85B89DD081A185D99481C995CDD5B1D PUSH1 0x7A SHL PUSH1 0x64 DUP3 ADD MSTORE PUSH1 0x84 ADD PUSH3 0x56F JUMP JUMPDEST PUSH1 0x0 DUP4 DUP2 MSTORE PUSH1 0x9 PUSH1 0x20 MSTORE PUSH1 0x40 SWAP1 KECCAK256 PUSH1 0x4 DUP2 ADD SLOAD PUSH1 0x5 SWAP1 SWAP2 ADD SLOAD LT ISZERO PUSH3 0xFB7 JUMPI PUSH1 0x9 DUP2 ADD DUP1 SLOAD PUSH1 0xFF NOT AND PUSH1 0x1 OR SWAP1 SSTORE JUMPDEST PUSH1 0x9 DUP2 ADD SLOAD PUSH1 0x40 DUP1 MLOAD DUP6 DUP2 MSTORE PUSH1 0xFF SWAP1 SWAP3 AND ISZERO ISZERO PUSH1 0x20 DUP4 ADD MSTORE PUSH32 0x4556FCF667EE704924EEA359363D28F06708B744AD113340982B07EF9919FB91 SWAP2 ADD PUSH1 0x40 MLOAD DUP1 SWAP2 SUB SWAP1 LOG1 PUSH1 0x1 PUSH1 0x8 DUP3 ADD SSTORE PUSH1 0x9 ADD SLOAD PUSH1 0xFF AND SWAP1 POP JUMPDEST SWAP2 SWAP1 POP JUMP JUMPDEST PUSH1 0x3 DUP1 SLOAD PUSH3 0x49B SWAP1 PUSH3 0x2874 JUMP JUMPDEST CALLER PUSH1 0x0 SWAP1 DUP2 MSTORE PUSH1 0x8 PUSH1 0x20 MSTORE PUSH1 0x40 DUP2 KECCAK256 SLOAD PUSH1 0xFF AND ISZERO PUSH1 0x1 EQ PUSH3 0x1055 JUMPI PUSH1 0x40 MLOAD PUSH3 0x461BCD PUSH1 0xE5 SHL DUP2 MSTORE PUSH1 0x4 ADD PUSH3 0x56F SWAP1 PUSH3 0x25C4 JUMP JUMPDEST PUSH1 0x0 DUP5 DUP2 MSTORE PUSH1 0x9 PUSH1 0x20 MSTORE PUSH1 0x40 SWAP1 KECCAK256 PUSH1 0x8 ADD SLOAD PUSH1 0x1 EQ PUSH3 0x10B8 JUMPI PUSH1 0x40 MLOAD PUSH3 0x461BCD PUSH1 0xE5 SHL DUP2 MSTORE PUSH1 0x20 PUSH1 0x4 DUP3 ADD MSTORE PUSH1 0x1C PUSH1 0x24 DUP3 ADD MSTORE PUSH32 0x50726F706F73616C206E6F742079657420656E64206F72207573656400000000 PUSH1 0x44 DUP3 ADD MSTORE PUSH1 0x64 ADD PUSH3 0x56F JUMP JUMPDEST PUSH1 0x0 DUP5 DUP2 MSTORE PUSH1 0x9 PUSH1 0x20 DUP2 SWAP1 MSTORE PUSH1 0x40 SWAP1 SWAP2 KECCAK256 ADD SLOAD PUSH1 0xFF AND ISZERO ISZERO PUSH1 0x1 EQ PUSH3 0x10F2 JUMPI PUSH1 0x40 MLOAD PUSH3 0x461BCD PUSH1 0xE5 SHL DUP2 MSTORE PUSH1 0x4 ADD PUSH3 0x56F SWAP1 PUSH3 0x2510 JUMP JUMPDEST PUSH1 0x0 DUP5 DUP2 MSTORE PUSH1 0x9 PUSH1 0x20 MSTORE PUSH1 0x40 SWAP1 KECCAK256 PUSH1 0xB ADD SLOAD PUSH1 0xFF AND ISZERO ISZERO PUSH1 0x1 EQ PUSH3 0x112B JUMPI PUSH1 0x40 MLOAD PUSH3 0x461BCD PUSH1 0xE5 SHL DUP2 MSTORE PUSH1 0x4 ADD PUSH3 0x56F SWAP1 PUSH3 0x2608 JUMP JUMPDEST PUSH1 0x0 DUP5 DUP2 MSTORE PUSH1 0x9 PUSH1 0x20 MSTORE PUSH1 0x40 DUP2 KECCAK256 SWAP1 TIMESTAMP SWAP1 PUSH3 0x114B DUP3 PUSH3 0x93A80 PUSH3 0x27FA JUMP JUMPDEST SWAP1 POP PUSH1 0x0 PUSH3 0x93A80 DUP5 PUSH1 0xD ADD SLOAD DUP6 PUSH1 0xC ADD SLOAD PUSH3 0x1169 SWAP2 SWAP1 PUSH3 0x285A JUMP JUMPDEST PUSH3 0x1175 SWAP2 SWAP1 PUSH3 0x2815 JUMP JUMPDEST SWAP1 POP PUSH1 0x0 DUP5 PUSH1 0x9 ADD PUSH1 0x1 SWAP1 SLOAD SWAP1 PUSH2 0x100 EXP SWAP1 DIV PUSH1 0x1 PUSH1 0x1 PUSH1 0xA0 SHL SUB AND DUP6 PUSH1 0xA ADD SLOAD DUP7 PUSH1 0xC ADD SLOAD DUP8 PUSH1 0xD ADD SLOAD DUP6 ADDRESS DUP10 DUP10 PUSH1 0x40 MLOAD PUSH3 0x11B2 SWAP1 PUSH3 0x1FD0 JUMP JUMPDEST PUSH1 0x1 PUSH1 0x1 PUSH1 0xA0 SHL SUB SWAP9 DUP10 AND DUP2 MSTORE PUSH1 0x20 DUP2 ADD SWAP8 SWAP1 SWAP8 MSTORE PUSH1 0x40 DUP8 ADD SWAP6 SWAP1 SWAP6 MSTORE PUSH1 0x60 DUP7 ADD SWAP4 SWAP1 SWAP4 MSTORE PUSH1 0x80 DUP6 ADD SWAP2 SWAP1 SWAP2 MSTORE SWAP1 SWAP4 AND PUSH1 0xA0 DUP4 ADD MSTORE PUSH1 0xC0 DUP3 ADD SWAP3 SWAP1 SWAP3 MSTORE PUSH1 0xE0 DUP2 ADD SWAP2 SWAP1 SWAP2 MSTORE PUSH2 0x100 ADD PUSH1 0x40 MLOAD DUP1 SWAP2 SUB SWAP1 PUSH1 0x0 CREATE DUP1 ISZERO DUP1 ISZERO PUSH3 0x1218 JUMPI RETURNDATASIZE PUSH1 0x0 DUP1 RETURNDATACOPY RETURNDATASIZE PUSH1 0x0 REVERT JUMPDEST POP SWAP1 POP DUP1 PUSH1 0xA PUSH1 0x0 DUP12 DUP2 MSTORE PUSH1 0x20 ADD SWAP1 DUP2 MSTORE PUSH1 0x20 ADD PUSH1 0x0 KECCAK256 PUSH1 0x0 PUSH2 0x100 EXP DUP2 SLOAD DUP2 PUSH1 0x1 PUSH1 0x1 PUSH1 0xA0 SHL SUB MUL NOT AND SWAP1 DUP4 PUSH1 0x1 PUSH1 0x1 PUSH1 0xA0 SHL SUB AND MUL OR SWAP1 SSTORE POP PUSH1 0x3 DUP6 PUSH1 0x8 ADD DUP2 SWAP1 SSTORE POP PUSH32 0x2F5BB6B4CDE88B5E9759FF8455C92DE89D53F58958D6A16951C91C08369F40C4 DUP2 DUP10 DUP10 DUP9 PUSH1 0x9 ADD PUSH1 0x1 SWAP1 SLOAD SWAP1 PUSH2 0x100 EXP SWAP1 DIV PUSH1 0x1 PUSH1 0x1 PUSH1 0xA0 SHL SUB AND DUP10 PUSH1 0xA ADD SLOAD DUP11 PUSH1 0xC ADD SLOAD DUP12 PUSH1 0xD ADD SLOAD DUP10 DUP12 CALLER PUSH1 0x0 DUP1 PUSH1 0x40 MLOAD PUSH3 0x12C8 SWAP13 SWAP12 SWAP11 SWAP10 SWAP9 SWAP8 SWAP7 SWAP6 SWAP5 SWAP4 SWAP3 SWAP2 SWAP1 PUSH3 0x23C8 JUMP JUMPDEST PUSH1 0x40 MLOAD DUP1 SWAP2 SUB SWAP1 LOG1 SWAP9 SWAP8 POP POP POP POP POP POP POP POP JUMP JUMPDEST CALLER PUSH1 0x0 SWAP1 DUP2 MSTORE PUSH1 0x8 PUSH1 0x20 MSTORE PUSH1 0x40 DUP2 KECCAK256 SLOAD PUSH1 0xFF AND ISZERO PUSH1 0x1 EQ PUSH3 0x1312 JUMPI PUSH1 0x40 MLOAD PUSH3 0x461BCD PUSH1 0xE5 SHL DUP2 MSTORE PUSH1 0x4 ADD PUSH3 0x56F SWAP1 PUSH3 0x25C4 JUMP JUMPDEST PUSH1 0x5 SLOAD DUP3 LT PUSH3 0x1336 JUMPI PUSH1 0x40 MLOAD PUSH3 0x461BCD PUSH1 0xE5 SHL DUP2 MSTORE PUSH1 0x4 ADD PUSH3 0x56F SWAP1 PUSH3 0x2558 JUMP JUMPDEST PUSH1 0x0 DUP3 DUP2 MSTORE PUSH1 0x9 PUSH1 0x20 MSTORE PUSH1 0x40 SWAP1 KECCAK256 PUSH1 0x3 ADD SLOAD TIMESTAMP GT PUSH3 0x138D JUMPI PUSH1 0x40 MLOAD PUSH3 0x461BCD PUSH1 0xE5 SHL DUP2 MSTORE PUSH1 0x20 PUSH1 0x4 DUP3 ADD MSTORE PUSH1 0x12 PUSH1 0x24 DUP3 ADD MSTORE PUSH18 0x141C9BDC1BDCD85B081B9BDD08195B991959 PUSH1 0x72 SHL PUSH1 0x44 DUP3 ADD MSTORE PUSH1 0x64 ADD PUSH3 0x56F JUMP JUMPDEST PUSH1 0x0 DUP3 DUP2 MSTORE PUSH1 0x9 PUSH1 0x20 MSTORE PUSH1 0x40 SWAP1 KECCAK256 PUSH1 0x8 ADD SLOAD ISZERO PUSH3 0x13E4 JUMPI PUSH1 0x40 MLOAD PUSH3 0x461BCD PUSH1 0xE5 SHL DUP2 MSTORE PUSH1 0x20 PUSH1 0x4 DUP3 ADD MSTORE PUSH1 0x13 PUSH1 0x24 DUP3 ADD MSTORE PUSH19 0x141C9BDC1BDCD85B081A5CC818DBDD5B9D1959 PUSH1 0x6A SHL PUSH1 0x44 DUP3 ADD MSTORE PUSH1 0x64 ADD PUSH3 0x56F JUMP JUMPDEST PUSH1 0x0 DUP3 DUP2 MSTORE PUSH1 0x9 PUSH1 0x20 MSTORE PUSH1 0x40 SWAP1 KECCAK256 PUSH1 0x4 DUP2 ADD SLOAD PUSH1 0x5 DUP3 ADD SLOAD LT ISZERO PUSH3 0x1413 JUMPI PUSH1 0x9 DUP2 ADD DUP1 SLOAD PUSH1 0xFF NOT AND PUSH1 0x1 OR SWAP1 SSTORE JUMPDEST PUSH1 0x1 PUSH1 0x8 DUP3 ADD SSTORE PUSH1 0x9 DUP2 ADD SLOAD PUSH1 0x40 DUP1 MLOAD DUP6 DUP2 MSTORE PUSH1 0xFF SWAP1 SWAP3 AND ISZERO ISZERO PUSH1 0x20 DUP4 ADD MSTORE PUSH32 0x4556FCF667EE704924EEA359363D28F06708B744AD113340982B07EF9919FB91 SWAP2 ADD PUSH1 0x40 MLOAD DUP1 SWAP2 SUB SWAP1 LOG1 PUSH1 0x9 ADD SLOAD PUSH1 0xFF AND SWAP3 SWAP2 POP POP JUMP JUMPDEST PUSH1 0x0 SLOAD PUSH1 0x1 PUSH1 0x1 PUSH1 0xA0 SHL SUB AND CALLER EQ PUSH3 0x1497 JUMPI PUSH1 0x40 MLOAD PUSH3 0x461BCD PUSH1 0xE5 SHL DUP2 MSTORE PUSH1 0x4 ADD PUSH3 0x56F SWAP1 PUSH3 0x258F JUMP JUMPDEST PUSH3 0x14A3 PUSH1 0x0 PUSH3 0x1E99 JUMP JUMPDEST JUMP JUMPDEST PUSH1 0x2 DUP1 SLOAD PUSH3 0x49B SWAP1 PUSH3 0x2874 JUMP JUMPDEST PUSH1 0x0 SLOAD PUSH1 0x1 PUSH1 0x1 PUSH1 0xA0 SHL SUB AND CALLER EQ PUSH3 0x14E1 JUMPI PUSH1 0x40 MLOAD PUSH3 0x461BCD PUSH1 0xE5 SHL DUP2 MSTORE PUSH1 0x4 ADD PUSH3 0x56F SWAP1 PUSH3 0x258F JUMP JUMPDEST PUSH1 0x1 PUSH1 0x1 PUSH1 0xA0 SHL SUB AND PUSH1 0x0 SWAP1 DUP2 MSTORE PUSH1 0x8 PUSH1 0x20 MSTORE PUSH1 0x40 SWAP1 KECCAK256 DUP1 SLOAD PUSH1 0xFF NOT AND SWAP1 SSTORE JUMP JUMPDEST PUSH1 0x40 MLOAD PUSH4 0x70A08231 PUSH1 0xE0 SHL DUP2 MSTORE ADDRESS PUSH1 0x4 DUP3 ADD MSTORE PUSH1 0x60 SWAP1 DUP2 SWAP1 DUP2 SWAP1 DUP2 SWAP1 PUSH1 0x0 SWAP1 DUP2 SWAP1 DUP2 SWAP1 PUSH1 0x1 PUSH1 0x1 PUSH1 0xA0 SHL SUB DUP10 AND SWAP1 PUSH4 0x70A08231 SWAP1 PUSH1 0x24 ADD PUSH1 0x20 PUSH1 0x40 MLOAD DUP1 DUP4 SUB DUP2 DUP7 DUP1 EXTCODESIZE ISZERO DUP1 ISZERO PUSH3 0x1552 JUMPI PUSH1 0x0 DUP1 REVERT JUMPDEST POP GAS STATICCALL ISZERO DUP1 ISZERO PUSH3 0x1567 JUMPI RETURNDATASIZE PUSH1 0x0 DUP1 RETURNDATACOPY RETURNDATASIZE PUSH1 0x0 REVERT JUMPDEST POP POP POP POP PUSH1 0x40 MLOAD RETURNDATASIZE PUSH1 0x1F NOT PUSH1 0x1F DUP3 ADD AND DUP3 ADD DUP1 PUSH1 0x40 MSTORE POP DUP2 ADD SWAP1 PUSH3 0x158D SWAP2 SWAP1 PUSH3 0x228F JUMP JUMPDEST SWAP1 POP PUSH1 0x1 PUSH1 0x2 PUSH1 0x3 PUSH1 0x4 PUSH32 0x0 DUP6 DUP6 DUP1 SLOAD PUSH3 0x15C7 SWAP1 PUSH3 0x2874 JUMP JUMPDEST DUP1 PUSH1 0x1F ADD PUSH1 0x20 DUP1 SWAP2 DIV MUL PUSH1 0x20 ADD PUSH1 0x40 MLOAD SWAP1 DUP2 ADD PUSH1 0x40 MSTORE DUP1 SWAP3 SWAP2 SWAP1 DUP2 DUP2 MSTORE PUSH1 0x20 ADD DUP3 DUP1 SLOAD PUSH3 0x15F5 SWAP1 PUSH3 0x2874 JUMP JUMPDEST DUP1 ISZERO PUSH3 0x1646 JUMPI DUP1 PUSH1 0x1F LT PUSH3 0x161A JUMPI PUSH2 0x100 DUP1 DUP4 SLOAD DIV MUL DUP4 MSTORE SWAP2 PUSH1 0x20 ADD SWAP2 PUSH3 0x1646 JUMP JUMPDEST DUP3 ADD SWAP2 SWAP1 PUSH1 0x0 MSTORE PUSH1 0x20 PUSH1 0x0 KECCAK256 SWAP1 JUMPDEST DUP2 SLOAD DUP2 MSTORE SWAP1 PUSH1 0x1 ADD SWAP1 PUSH1 0x20 ADD DUP1 DUP4 GT PUSH3 0x1628 JUMPI DUP3 SWAP1 SUB PUSH1 0x1F AND DUP3 ADD SWAP2 JUMPDEST POP POP POP POP POP SWAP6 POP DUP5 DUP1 SLOAD PUSH3 0x165B SWAP1 PUSH3 0x2874 JUMP JUMPDEST DUP1 PUSH1 0x1F ADD PUSH1 0x20 DUP1 SWAP2 DIV MUL PUSH1 0x20 ADD PUSH1 0x40 MLOAD SWAP1 DUP2 ADD PUSH1 0x40 MSTORE DUP1 SWAP3 SWAP2 SWAP1 DUP2 DUP2 MSTORE PUSH1 0x20 ADD DUP3 DUP1 SLOAD PUSH3 0x1689 SWAP1 PUSH3 0x2874 JUMP JUMPDEST DUP1 ISZERO PUSH3 0x16DA JUMPI DUP1 PUSH1 0x1F LT PUSH3 0x16AE JUMPI PUSH2 0x100 DUP1 DUP4 SLOAD DIV MUL DUP4 MSTORE SWAP2 PUSH1 0x20 ADD SWAP2 PUSH3 0x16DA JUMP JUMPDEST DUP3 ADD SWAP2 SWAP1 PUSH1 0x0 MSTORE PUSH1 0x20 PUSH1 0x0 KECCAK256 SWAP1 JUMPDEST DUP2 SLOAD DUP2 MSTORE SWAP1 PUSH1 0x1 ADD SWAP1 PUSH1 0x20 ADD DUP1 DUP4 GT PUSH3 0x16BC JUMPI DUP3 SWAP1 SUB PUSH1 0x1F AND DUP3 ADD SWAP2 JUMPDEST POP POP POP POP POP SWAP5 POP DUP4 DUP1 SLOAD PUSH3 0x16EF SWAP1 PUSH3 0x2874 JUMP JUMPDEST DUP1 PUSH1 0x1F ADD PUSH1 0x20 DUP1 SWAP2 DIV MUL PUSH1 0x20 ADD PUSH1 0x40 MLOAD SWAP1 DUP2 ADD PUSH1 0x40 MSTORE DUP1 SWAP3 SWAP2 SWAP1 DUP2 DUP2 MSTORE PUSH1 0x20 ADD DUP3 DUP1 SLOAD PUSH3 0x171D SWAP1 PUSH3 0x2874 JUMP JUMPDEST DUP1 ISZERO PUSH3 0x176E JUMPI DUP1 PUSH1 0x1F LT PUSH3 0x1742 JUMPI PUSH2 0x100 DUP1 DUP4 SLOAD DIV MUL DUP4 MSTORE SWAP2 PUSH1 0x20 ADD SWAP2 PUSH3 0x176E JUMP JUMPDEST DUP3 ADD SWAP2 SWAP1 PUSH1 0x0 MSTORE PUSH1 0x20 PUSH1 0x0 KECCAK256 SWAP1 JUMPDEST DUP2 SLOAD DUP2 MSTORE SWAP1 PUSH1 0x1 ADD SWAP1 PUSH1 0x20 ADD DUP1 DUP4 GT PUSH3 0x1750 JUMPI DUP3 SWAP1 SUB PUSH1 0x1F AND DUP3 ADD SWAP2 JUMPDEST POP POP POP POP POP SWAP4 POP DUP3 DUP1 SLOAD PUSH3 0x1783 SWAP1 PUSH3 0x2874 JUMP JUMPDEST DUP1 PUSH1 0x1F ADD PUSH1 0x20 DUP1 SWAP2 DIV MUL PUSH1 0x20 ADD PUSH1 0x40 MLOAD SWAP1 DUP2 ADD PUSH1 0x40 MSTORE DUP1 SWAP3 SWAP2 SWAP1 DUP2 DUP2 MSTORE PUSH1 0x20 ADD DUP3 DUP1 SLOAD PUSH3 0x17B1 SWAP1 PUSH3 0x2874 JUMP JUMPDEST DUP1 ISZERO PUSH3 0x1802 JUMPI DUP1 PUSH1 0x1F LT PUSH3 0x17D6 JUMPI PUSH2 0x100 DUP1 DUP4 SLOAD DIV MUL DUP4 MSTORE SWAP2 PUSH1 0x20 ADD SWAP2 PUSH3 0x1802 JUMP JUMPDEST DUP3 ADD SWAP2 SWAP1 PUSH1 0x0 MSTORE PUSH1 0x20 PUSH1 0x0 KECCAK256 SWAP1 JUMPDEST DUP2 SLOAD DUP2 MSTORE SWAP1 PUSH1 0x1 ADD SWAP1 PUSH1 0x20 ADD DUP1 DUP4 GT PUSH3 0x17E4 JUMPI DUP3 SWAP1 SUB PUSH1 0x1F AND DUP3 ADD SWAP2 JUMPDEST POP POP POP POP POP SWAP3 POP SWAP7 POP SWAP7 POP SWAP7 POP SWAP7 POP SWAP7 POP SWAP7 POP POP SWAP2 SWAP4 SWAP6 POP SWAP2 SWAP4 SWAP6 JUMP JUMPDEST PUSH1 0x0 SLOAD PUSH1 0x1 PUSH1 0x1 PUSH1 0xA0 SHL SUB AND CALLER EQ PUSH3 0x184C JUMPI PUSH1 0x40 MLOAD PUSH3 0x461BCD PUSH1 0xE5 SHL DUP2 MSTORE PUSH1 0x4 ADD PUSH3 0x56F SWAP1 PUSH3 0x258F JUMP JUMPDEST PUSH1 0x1 PUSH1 0x1 PUSH1 0xA0 SHL SUB AND PUSH1 0x0 SWAP1 DUP2 MSTORE PUSH1 0x8 PUSH1 0x20 MSTORE PUSH1 0x40 SWAP1 KECCAK256 DUP1 SLOAD PUSH1 0xFF NOT AND PUSH1 0x1 OR SWAP1 SSTORE JUMP JUMPDEST PUSH1 0x0 SLOAD PUSH1 0x1 PUSH1 0x1 PUSH1 0xA0 SHL SUB AND CALLER EQ PUSH3 0x189D JUMPI PUSH1 0x40 MLOAD PUSH3 0x461BCD PUSH1 0xE5 SHL DUP2 MSTORE PUSH1 0x4 ADD PUSH3 0x56F SWAP1 PUSH3 0x258F JUMP JUMPDEST PUSH1 0x40 MLOAD PUSH4 0xA9059CBB PUSH1 0xE0 SHL DUP2 MSTORE PUSH1 0x1 PUSH1 0x1 PUSH1 0xA0 SHL SUB PUSH32 0x0 DUP2 AND PUSH1 0x4 DUP4 ADD MSTORE PUSH1 0x24 DUP3 ADD DUP4 SWAP1 MSTORE DUP4 AND SWAP1 PUSH4 0xA9059CBB SWAP1 PUSH1 0x44 ADD PUSH1 0x20 PUSH1 0x40 MLOAD DUP1 DUP4 SUB DUP2 PUSH1 0x0 DUP8 DUP1 EXTCODESIZE ISZERO DUP1 ISZERO PUSH3 0x1908 JUMPI PUSH1 0x0 DUP1 REVERT JUMPDEST POP GAS CALL ISZERO DUP1 ISZERO PUSH3 0x191D JUMPI RETURNDATASIZE PUSH1 0x0 DUP1 RETURNDATACOPY RETURNDATASIZE PUSH1 0x0 REVERT JUMPDEST POP POP POP POP PUSH1 0x40 MLOAD RETURNDATASIZE PUSH1 0x1F NOT PUSH1 0x1F DUP3 ADD AND DUP3 ADD DUP1 PUSH1 0x40 MSTORE POP DUP2 ADD SWAP1 PUSH3 0x1943 SWAP2 SWAP1 PUSH3 0x2147 JUMP JUMPDEST POP POP POP JUMP JUMPDEST PUSH1 0x4 DUP1 SLOAD PUSH3 0x49B SWAP1 PUSH3 0x2874 JUMP JUMPDEST PUSH1 0x9 PUSH1 0x20 MSTORE PUSH1 0x0 SWAP1 DUP2 MSTORE PUSH1 0x40 SWAP1 KECCAK256 DUP1 SLOAD PUSH1 0x1 DUP3 ADD DUP1 SLOAD SWAP2 SWAP3 SWAP2 PUSH3 0x197B SWAP1 PUSH3 0x2874 JUMP JUMPDEST DUP1 PUSH1 0x1F ADD PUSH1 0x20 DUP1 SWAP2 DIV MUL PUSH1 0x20 ADD PUSH1 0x40 MLOAD SWAP1 DUP2 ADD PUSH1 0x40 MSTORE DUP1 SWAP3 SWAP2 SWAP1 DUP2 DUP2 MSTORE PUSH1 0x20 ADD DUP3 DUP1 SLOAD PUSH3 0x19A9 SWAP1 PUSH3 0x2874 JUMP JUMPDEST DUP1 ISZERO PUSH3 0x19FA JUMPI DUP1 PUSH1 0x1F LT PUSH3 0x19CE JUMPI PUSH2 0x100 DUP1 DUP4 SLOAD DIV MUL DUP4 MSTORE SWAP2 PUSH1 0x20 ADD SWAP2 PUSH3 0x19FA JUMP JUMPDEST DUP3 ADD SWAP2 SWAP1 PUSH1 0x0 MSTORE PUSH1 0x20 PUSH1 0x0 KECCAK256 SWAP1 JUMPDEST DUP2 SLOAD DUP2 MSTORE SWAP1 PUSH1 0x1 ADD SWAP1 PUSH1 0x20 ADD DUP1 DUP4 GT PUSH3 0x19DC JUMPI DUP3 SWAP1 SUB PUSH1 0x1F AND DUP3 ADD SWAP2 JUMPDEST POP POP POP POP POP SWAP1 DUP1 PUSH1 0x2 ADD DUP1 SLOAD PUSH3 0x1A11 SWAP1 PUSH3 0x2874 JUMP JUMPDEST DUP1 PUSH1 0x1F ADD PUSH1 0x20 DUP1 SWAP2 DIV MUL PUSH1 0x20 ADD PUSH1 0x40 MLOAD SWAP1 DUP2 ADD PUSH1 0x40 MSTORE DUP1 SWAP3 SWAP2 SWAP1 DUP2 DUP2 MSTORE PUSH1 0x20 ADD DUP3 DUP1 SLOAD PUSH3 0x1A3F SWAP1 PUSH3 0x2874 JUMP JUMPDEST DUP1 ISZERO PUSH3 0x1A90 JUMPI DUP1 PUSH1 0x1F LT PUSH3 0x1A64 JUMPI PUSH2 0x100 DUP1 DUP4 SLOAD DIV MUL DUP4 MSTORE SWAP2 PUSH1 0x20 ADD SWAP2 PUSH3 0x1A90 JUMP JUMPDEST DUP3 ADD SWAP2 SWAP1 PUSH1 0x0 MSTORE PUSH1 0x20 PUSH1 0x0 KECCAK256 SWAP1 JUMPDEST DUP2 SLOAD DUP2 MSTORE SWAP1 PUSH1 0x1 ADD SWAP1 PUSH1 0x20 ADD DUP1 DUP4 GT PUSH3 0x1A72 JUMPI DUP3 SWAP1 SUB PUSH1 0x1F AND DUP3 ADD SWAP2 JUMPDEST POP POP POP PUSH1 0x3 DUP5 ADD SLOAD PUSH1 0x4 DUP6 ADD SLOAD PUSH1 0x5 DUP7 ADD SLOAD PUSH1 0x8 DUP8 ADD SLOAD PUSH1 0x9 DUP9 ADD SLOAD PUSH1 0xA DUP10 ADD SLOAD PUSH1 0xB DUP11 ADD SLOAD PUSH1 0xC DUP12 ADD SLOAD PUSH1 0xD SWAP1 SWAP12 ADD SLOAD SWAP10 SWAP11 SWAP7 SWAP10 SWAP6 SWAP9 POP SWAP4 SWAP7 POP SWAP2 SWAP5 PUSH1 0xFF DUP1 DUP4 AND SWAP6 PUSH1 0x1 PUSH1 0x1 PUSH1 0xA0 SHL SUB PUSH2 0x100 SWAP1 SWAP5 DIV SWAP4 SWAP1 SWAP4 AND SWAP5 AND SWAP2 DUP14 JUMP JUMPDEST PUSH1 0x0 SLOAD PUSH1 0x1 PUSH1 0x1 PUSH1 0xA0 SHL SUB AND CALLER EQ PUSH3 0x1B18 JUMPI PUSH1 0x40 MLOAD PUSH3 0x461BCD PUSH1 0xE5 SHL DUP2 MSTORE PUSH1 0x4 ADD PUSH3 0x56F SWAP1 PUSH3 0x258F JUMP JUMPDEST PUSH1 0x1 PUSH1 0x1 PUSH1 0xA0 SHL SUB DUP2 AND PUSH3 0x1B7F JUMPI PUSH1 0x40 MLOAD PUSH3 0x461BCD PUSH1 0xE5 SHL DUP2 MSTORE PUSH1 0x20 PUSH1 0x4 DUP3 ADD MSTORE PUSH1 0x26 PUSH1 0x24 DUP3 ADD MSTORE PUSH32 0x4F776E61626C653A206E6577206F776E657220697320746865207A65726F2061 PUSH1 0x44 DUP3 ADD MSTORE PUSH6 0x646472657373 PUSH1 0xD0 SHL PUSH1 0x64 DUP3 ADD MSTORE PUSH1 0x84 ADD PUSH3 0x56F JUMP JUMPDEST PUSH3 0x1B8A DUP2 PUSH3 0x1E99 JUMP JUMPDEST POP JUMP JUMPDEST CALLER PUSH1 0x0 SWAP1 DUP2 MSTORE PUSH1 0x8 PUSH1 0x20 MSTORE PUSH1 0x40 SWAP1 KECCAK256 SLOAD PUSH1 0xFF AND ISZERO PUSH1 0x1 EQ PUSH3 0x1BC3 JUMPI PUSH1 0x40 MLOAD PUSH3 0x461BCD PUSH1 0xE5 SHL DUP2 MSTORE PUSH1 0x4 ADD PUSH3 0x56F SWAP1 PUSH3 0x25C4 JUMP JUMPDEST PUSH1 0x0 DUP2 DUP2 MSTORE PUSH1 0x9 PUSH1 0x20 MSTORE PUSH1 0x40 SWAP1 KECCAK256 PUSH1 0x8 ADD SLOAD PUSH1 0x3 EQ PUSH3 0x1C4C JUMPI PUSH1 0x40 MLOAD PUSH3 0x461BCD PUSH1 0xE5 SHL DUP2 MSTORE PUSH1 0x20 PUSH1 0x4 DUP3 ADD MSTORE PUSH1 0x3A PUSH1 0x24 DUP3 ADD MSTORE PUSH32 0x50726F706F73616C206E6F742079657420656E642C2075736564206F72206E6F PUSH1 0x44 DUP3 ADD MSTORE PUSH32 0x7420637265617465204E465441756374696F6E206265666F7265000000000000 PUSH1 0x64 DUP3 ADD MSTORE PUSH1 0x84 ADD PUSH3 0x56F JUMP JUMPDEST PUSH1 0x0 DUP2 DUP2 MSTORE PUSH1 0x9 PUSH1 0x20 DUP2 SWAP1 MSTORE PUSH1 0x40 SWAP1 SWAP2 KECCAK256 ADD SLOAD PUSH1 0xFF AND ISZERO ISZERO PUSH1 0x1 EQ PUSH3 0x1C86 JUMPI PUSH1 0x40 MLOAD PUSH3 0x461BCD PUSH1 0xE5 SHL DUP2 MSTORE PUSH1 0x4 ADD PUSH3 0x56F SWAP1 PUSH3 0x2510 JUMP JUMPDEST PUSH1 0x0 DUP2 DUP2 MSTORE PUSH1 0x9 PUSH1 0x20 MSTORE PUSH1 0x40 SWAP1 KECCAK256 PUSH1 0xB ADD SLOAD PUSH1 0xFF AND ISZERO ISZERO PUSH1 0x1 EQ PUSH3 0x1CBF JUMPI PUSH1 0x40 MLOAD PUSH3 0x461BCD PUSH1 0xE5 SHL DUP2 MSTORE PUSH1 0x4 ADD PUSH3 0x56F SWAP1 PUSH3 0x2608 JUMP JUMPDEST PUSH1 0x0 DUP2 DUP2 MSTORE PUSH1 0x9 PUSH1 0x20 DUP2 DUP2 MSTORE PUSH1 0x40 DUP1 DUP5 KECCAK256 SWAP3 DUP4 ADD SLOAD PUSH1 0xA SWAP3 DUP4 SWAP1 MSTORE SWAP4 DUP2 SWAP1 KECCAK256 SLOAD SWAP2 DUP4 ADD SLOAD SWAP1 MLOAD PUSH4 0x23B872DD PUSH1 0xE0 SHL DUP2 MSTORE ADDRESS PUSH1 0x4 DUP3 ADD MSTORE PUSH1 0x1 PUSH1 0x1 PUSH1 0xA0 SHL SUB SWAP3 DUP4 AND PUSH1 0x24 DUP3 ADD MSTORE PUSH1 0x44 DUP2 ADD SWAP2 SWAP1 SWAP2 MSTORE SWAP2 SWAP3 PUSH2 0x100 SWAP1 DIV AND SWAP1 PUSH4 0x23B872DD SWAP1 PUSH1 0x64 ADD PUSH1 0x0 PUSH1 0x40 MLOAD DUP1 DUP4 SUB DUP2 PUSH1 0x0 DUP8 DUP1 EXTCODESIZE ISZERO DUP1 ISZERO PUSH3 0x1D3A JUMPI PUSH1 0x0 DUP1 REVERT JUMPDEST POP GAS CALL ISZERO DUP1 ISZERO PUSH3 0x1D4F JUMPI RETURNDATASIZE PUSH1 0x0 DUP1 RETURNDATACOPY RETURNDATASIZE PUSH1 0x0 REVERT JUMPDEST POP POP POP POP PUSH1 0x2 DUP2 PUSH1 0x8 ADD DUP2 SWAP1 SSTORE POP POP POP JUMP JUMPDEST PUSH1 0x0 DUP1 JUMPDEST PUSH1 0x0 DUP5 DUP2 MSTORE PUSH1 0x9 PUSH1 0x20 MSTORE PUSH1 0x40 SWAP1 KECCAK256 PUSH1 0x6 ADD SLOAD DUP2 LT ISZERO PUSH3 0x1DED JUMPI PUSH1 0x0 DUP5 DUP2 MSTORE PUSH1 0x9 PUSH1 0x20 MSTORE PUSH1 0x40 SWAP1 KECCAK256 PUSH1 0x6 ADD DUP1 SLOAD PUSH1 0x1 PUSH1 0x1 PUSH1 0xA0 SHL SUB DUP6 AND SWAP2 SWAP1 DUP4 SWAP1 DUP2 LT PUSH3 0x1DB1 JUMPI PUSH3 0x1DB1 PUSH3 0x28E5 JUMP JUMPDEST PUSH1 0x0 SWAP2 DUP3 MSTORE PUSH1 0x20 SWAP1 SWAP2 KECCAK256 ADD SLOAD PUSH1 0x1 PUSH1 0x1 PUSH1 0xA0 SHL SUB AND EQ ISZERO PUSH3 0x1DD8 JUMPI PUSH1 0x1 SWAP2 POP POP PUSH3 0x1DF3 JUMP JUMPDEST DUP1 PUSH3 0x1DE4 DUP2 PUSH3 0x28B1 JUMP JUMPDEST SWAP2 POP POP PUSH3 0x1D65 JUMP JUMPDEST POP PUSH1 0x0 SWAP1 POP JUMPDEST SWAP3 SWAP2 POP POP JUMP JUMPDEST PUSH1 0x0 DUP1 JUMPDEST PUSH1 0x0 DUP4 DUP2 MSTORE PUSH1 0x9 PUSH1 0x20 MSTORE PUSH1 0x40 SWAP1 KECCAK256 PUSH1 0x6 ADD SLOAD DUP2 LT ISZERO PUSH3 0x1E90 JUMPI PUSH1 0x0 DUP4 DUP2 MSTORE PUSH1 0x9 PUSH1 0x20 MSTORE PUSH1 0x40 DUP2 KECCAK256 PUSH1 0x6 DUP2 ADD DUP1 SLOAD PUSH1 0x7 SWAP1 SWAP3 ADD SWAP3 SWAP2 DUP5 SWAP1 DUP2 LT PUSH3 0x1E45 JUMPI PUSH3 0x1E45 PUSH3 0x28E5 JUMP JUMPDEST PUSH1 0x0 SWAP2 DUP3 MSTORE PUSH1 0x20 DUP1 DUP4 KECCAK256 SWAP1 SWAP2 ADD SLOAD PUSH1 0x1 PUSH1 0x1 PUSH1 0xA0 SHL SUB AND DUP4 MSTORE DUP3 ADD SWAP3 SWAP1 SWAP3 MSTORE PUSH1 0x40 ADD SWAP1 KECCAK256 SLOAD PUSH1 0xFF AND PUSH3 0x1E7B JUMPI POP PUSH1 0x0 SWAP3 SWAP2 POP POP JUMP JUMPDEST DUP1 PUSH3 0x1E87 DUP2 PUSH3 0x28B1 JUMP JUMPDEST SWAP2 POP POP PUSH3 0x1DFD JUMP JUMPDEST POP PUSH1 0x1 SWAP3 SWAP2 POP POP JUMP JUMPDEST PUSH1 0x0 DUP1 SLOAD PUSH1 0x1 PUSH1 0x1 PUSH1 0xA0 SHL SUB DUP4 DUP2 AND PUSH1 0x1 PUSH1 0x1 PUSH1 0xA0 SHL SUB NOT DUP4 AND DUP2 OR DUP5 SSTORE PUSH1 0x40 MLOAD SWAP2 SWAP1 SWAP3 AND SWAP3 DUP4 SWAP2 PUSH32 0x8BE0079C531659141344CD1FD0A4F28419497F9722A3DAAFE3B4186F6B6457E0 SWAP2 SWAP1 LOG3 POP POP JUMP JUMPDEST DUP3 DUP1 SLOAD PUSH3 0x1EF7 SWAP1 PUSH3 0x2874 JUMP JUMPDEST SWAP1 PUSH1 0x0 MSTORE PUSH1 0x20 PUSH1 0x0 KECCAK256 SWAP1 PUSH1 0x1F ADD PUSH1 0x20 SWAP1 DIV DUP2 ADD SWAP3 DUP3 PUSH3 0x1F1B JUMPI PUSH1 0x0 DUP6 SSTORE PUSH3 0x1F66 JUMP JUMPDEST DUP3 PUSH1 0x1F LT PUSH3 0x1F36 JUMPI DUP1 MLOAD PUSH1 0xFF NOT AND DUP4 DUP1 ADD OR DUP6 SSTORE PUSH3 0x1F66 JUMP JUMPDEST DUP3 DUP1 ADD PUSH1 0x1 ADD DUP6 SSTORE DUP3 ISZERO PUSH3 0x1F66 JUMPI SWAP2 DUP3 ADD JUMPDEST DUP3 DUP2 GT ISZERO PUSH3 0x1F66 JUMPI DUP3 MLOAD DUP3 SSTORE SWAP2 PUSH1 0x20 ADD SWAP2 SWAP1 PUSH1 0x1 ADD SWAP1 PUSH3 0x1F49 JUMP JUMPDEST POP PUSH3 0x1F74 SWAP3 SWAP2 POP PUSH3 0x1FDE JUMP JUMPDEST POP SWAP1 JUMP JUMPDEST DUP3 DUP1 SLOAD DUP3 DUP3 SSTORE SWAP1 PUSH1 0x0 MSTORE PUSH1 0x20 PUSH1 0x0 KECCAK256 SWAP1 DUP2 ADD SWAP3 DUP3 ISZERO PUSH3 0x1F66 JUMPI SWAP2 PUSH1 0x20 MUL DUP3 ADD JUMPDEST DUP3 DUP2 GT ISZERO PUSH3 0x1F66 JUMPI DUP3 MLOAD DUP3 SLOAD PUSH1 0x1 PUSH1 0x1 PUSH1 0xA0 SHL SUB NOT AND PUSH1 0x1 PUSH1 0x1 PUSH1 0xA0 SHL SUB SWAP1 SWAP2 AND OR DUP3 SSTORE PUSH1 0x20 SWAP1 SWAP3 ADD SWAP2 PUSH1 0x1 SWAP1 SWAP2 ADD SWAP1 PUSH3 0x1F99 JUMP JUMPDEST PUSH2 0x13F3 DUP1 PUSH3 0x2937 DUP4 CODECOPY ADD SWAP1 JUMP JUMPDEST JUMPDEST DUP1 DUP3 GT ISZERO PUSH3 0x1F74 JUMPI PUSH1 0x0 DUP2 SSTORE PUSH1 0x1 ADD PUSH3 0x1FDF JUMP JUMPDEST DUP1 CALLDATALOAD PUSH3 0x100B DUP2 PUSH3 0x2911 JUMP JUMPDEST PUSH1 0x0 DUP3 PUSH1 0x1F DUP4 ADD SLT PUSH3 0x2014 JUMPI PUSH1 0x0 DUP1 REVERT JUMPDEST DUP2 CALLDATALOAD PUSH1 0x20 PUSH8 0xFFFFFFFFFFFFFFFF DUP3 GT ISZERO PUSH3 0x2033 JUMPI PUSH3 0x2033 PUSH3 0x28FB JUMP JUMPDEST DUP2 PUSH1 0x5 SHL PUSH3 0x2044 DUP3 DUP3 ADD PUSH3 0x27C6 JUMP JUMPDEST DUP4 DUP2 MSTORE DUP3 DUP2 ADD SWAP1 DUP7 DUP5 ADD DUP4 DUP9 ADD DUP6 ADD DUP10 LT ISZERO PUSH3 0x2060 JUMPI PUSH1 0x0 DUP1 REVERT JUMPDEST PUSH1 0x0 SWAP4 POP JUMPDEST DUP6 DUP5 LT ISZERO PUSH3 0x2090 JUMPI DUP1 CALLDATALOAD PUSH3 0x207B DUP2 PUSH3 0x2911 JUMP JUMPDEST DUP4 MSTORE PUSH1 0x1 SWAP4 SWAP1 SWAP4 ADD SWAP3 SWAP2 DUP5 ADD SWAP2 DUP5 ADD PUSH3 0x2065 JUMP JUMPDEST POP SWAP8 SWAP7 POP POP POP POP POP POP POP JUMP JUMPDEST DUP1 CALLDATALOAD PUSH3 0x100B DUP2 PUSH3 0x2927 JUMP JUMPDEST PUSH1 0x0 DUP3 PUSH1 0x1F DUP4 ADD SLT PUSH3 0x20BB JUMPI PUSH1 0x0 DUP1 REVERT JUMPDEST DUP2 CALLDATALOAD PUSH8 0xFFFFFFFFFFFFFFFF DUP2 GT ISZERO PUSH3 0x20D8 JUMPI PUSH3 0x20D8 PUSH3 0x28FB JUMP JUMPDEST PUSH3 0x20ED PUSH1 0x1F DUP3 ADD PUSH1 0x1F NOT AND PUSH1 0x20 ADD PUSH3 0x27C6 JUMP JUMPDEST DUP2 DUP2 MSTORE DUP5 PUSH1 0x20 DUP4 DUP7 ADD ADD GT ISZERO PUSH3 0x2103 JUMPI PUSH1 0x0 DUP1 REVERT JUMPDEST DUP2 PUSH1 0x20 DUP6 ADD PUSH1 0x20 DUP4 ADD CALLDATACOPY PUSH1 0x0 SWAP2 DUP2 ADD PUSH1 0x20 ADD SWAP2 SWAP1 SWAP2 MSTORE SWAP4 SWAP3 POP POP POP JUMP JUMPDEST PUSH1 0x0 PUSH1 0x20 DUP3 DUP5 SUB SLT ISZERO PUSH3 0x2133 JUMPI PUSH1 0x0 DUP1 REVERT JUMPDEST DUP2 CALLDATALOAD PUSH3 0x2140 DUP2 PUSH3 0x2911 JUMP JUMPDEST SWAP4 SWAP3 POP POP POP JUMP JUMPDEST PUSH1 0x0 PUSH1 0x20 DUP3 DUP5 SUB SLT ISZERO PUSH3 0x215A JUMPI PUSH1 0x0 DUP1 REVERT JUMPDEST DUP2 MLOAD PUSH3 0x2140 DUP2 PUSH3 0x2927 JUMP JUMPDEST PUSH1 0x0 DUP1 PUSH1 0x40 DUP4 DUP6 SUB SLT ISZERO PUSH3 0x217B JUMPI PUSH1 0x0 DUP1 REVERT JUMPDEST DUP3 CALLDATALOAD PUSH3 0x2188 DUP2 PUSH3 0x2911 JUMP JUMPDEST SWAP5 PUSH1 0x20 SWAP4 SWAP1 SWAP4 ADD CALLDATALOAD SWAP4 POP POP POP JUMP JUMPDEST PUSH1 0x0 DUP1 PUSH1 0x0 DUP1 PUSH1 0x0 DUP1 PUSH1 0x0 DUP1 PUSH1 0x0 PUSH2 0x120 DUP11 DUP13 SUB SLT ISZERO PUSH3 0x21B6 JUMPI PUSH1 0x0 DUP1 REVERT JUMPDEST DUP10 CALLDATALOAD PUSH8 0xFFFFFFFFFFFFFFFF DUP1 DUP3 GT ISZERO PUSH3 0x21CF JUMPI PUSH1 0x0 DUP1 REVERT JUMPDEST PUSH3 0x21DD DUP14 DUP4 DUP15 ADD PUSH3 0x20A9 JUMP JUMPDEST SWAP11 POP PUSH1 0x20 DUP13 ADD CALLDATALOAD SWAP2 POP DUP1 DUP3 GT ISZERO PUSH3 0x21F4 JUMPI PUSH1 0x0 DUP1 REVERT JUMPDEST PUSH3 0x2202 DUP14 DUP4 DUP15 ADD PUSH3 0x20A9 JUMP JUMPDEST SWAP10 POP PUSH1 0x40 DUP13 ADD CALLDATALOAD SWAP2 POP DUP1 DUP3 GT ISZERO PUSH3 0x2219 JUMPI PUSH1 0x0 DUP1 REVERT JUMPDEST POP PUSH3 0x2228 DUP13 DUP3 DUP14 ADD PUSH3 0x2002 JUMP JUMPDEST SWAP8 POP POP PUSH3 0x2239 PUSH1 0x60 DUP12 ADD PUSH3 0x1FF5 JUMP JUMPDEST SWAP6 POP PUSH1 0x80 DUP11 ADD CALLDATALOAD SWAP5 POP PUSH1 0xA0 DUP11 ADD CALLDATALOAD SWAP4 POP PUSH3 0x2257 PUSH1 0xC0 DUP12 ADD PUSH3 0x209C JUMP JUMPDEST SWAP3 POP PUSH1 0xE0 DUP11 ADD CALLDATALOAD SWAP2 POP PUSH2 0x100 DUP11 ADD CALLDATALOAD SWAP1 POP SWAP3 SWAP6 SWAP9 POP SWAP3 SWAP6 SWAP9 POP SWAP3 SWAP6 SWAP9 JUMP JUMPDEST PUSH1 0x0 PUSH1 0x20 DUP3 DUP5 SUB SLT ISZERO PUSH3 0x2288 JUMPI PUSH1 0x0 DUP1 REVERT JUMPDEST POP CALLDATALOAD SWAP2 SWAP1 POP JUMP JUMPDEST PUSH1 0x0 PUSH1 0x20 DUP3 DUP5 SUB SLT ISZERO PUSH3 0x22A2 JUMPI PUSH1 0x0 DUP1 REVERT JUMPDEST POP MLOAD SWAP2 SWAP1 POP JUMP JUMPDEST PUSH1 0x0 DUP1 PUSH1 0x40 DUP4 DUP6 SUB SLT ISZERO PUSH3 0x22BD JUMPI PUSH1 0x0 DUP1 REVERT JUMPDEST DUP3 CALLDATALOAD SWAP2 POP PUSH1 0x20 DUP4 ADD CALLDATALOAD PUSH3 0x22D1 DUP2 PUSH3 0x2911 JUMP JUMPDEST DUP1 SWAP2 POP POP SWAP3 POP SWAP3 SWAP1 POP JUMP JUMPDEST PUSH1 0x0 DUP1 PUSH1 0x40 DUP4 DUP6 SUB SLT ISZERO PUSH3 0x22F0 JUMPI PUSH1 0x0 DUP1 REVERT JUMPDEST DUP3 CALLDATALOAD SWAP2 POP PUSH1 0x20 DUP4 ADD CALLDATALOAD PUSH3 0x22D1 DUP2 PUSH3 0x2927 JUMP JUMPDEST PUSH1 0x0 DUP1 PUSH1 0x0 PUSH1 0x60 DUP5 DUP7 SUB SLT ISZERO PUSH3 0x231A JUMPI PUSH1 0x0 DUP1 REVERT JUMPDEST DUP4 CALLDATALOAD SWAP3 POP PUSH1 0x20 DUP5 ADD CALLDATALOAD PUSH8 0xFFFFFFFFFFFFFFFF DUP1 DUP3 GT ISZERO PUSH3 0x233A JUMPI PUSH1 0x0 DUP1 REVERT JUMPDEST PUSH3 0x2348 DUP8 DUP4 DUP9 ADD PUSH3 0x20A9 JUMP JUMPDEST SWAP4 POP PUSH1 0x40 DUP7 ADD CALLDATALOAD SWAP2 POP DUP1 DUP3 GT ISZERO PUSH3 0x235F JUMPI PUSH1 0x0 DUP1 REVERT JUMPDEST POP PUSH3 0x236E DUP7 DUP3 DUP8 ADD PUSH3 0x20A9 JUMP JUMPDEST SWAP2 POP POP SWAP3 POP SWAP3 POP SWAP3 JUMP JUMPDEST PUSH1 0x0 DUP2 MLOAD DUP1 DUP5 MSTORE PUSH1 0x0 JUMPDEST DUP2 DUP2 LT ISZERO PUSH3 0x23A0 JUMPI PUSH1 0x20 DUP2 DUP6 ADD DUP2 ADD MLOAD DUP7 DUP4 ADD DUP3 ADD MSTORE ADD PUSH3 0x2382 JUMP JUMPDEST DUP2 DUP2 GT ISZERO PUSH3 0x23B3 JUMPI PUSH1 0x0 PUSH1 0x20 DUP4 DUP8 ADD ADD MSTORE JUMPDEST POP PUSH1 0x1F ADD PUSH1 0x1F NOT AND SWAP3 SWAP1 SWAP3 ADD PUSH1 0x20 ADD SWAP3 SWAP2 POP POP JUMP JUMPDEST PUSH1 0x1 PUSH1 0x1 PUSH1 0xA0 SHL SUB DUP14 AND DUP2 MSTORE PUSH2 0x1A0 PUSH1 0x20 DUP3 ADD DUP2 SWAP1 MSTORE PUSH1 0x0 SWAP1 PUSH3 0x23EF DUP4 DUP3 ADD DUP16 PUSH3 0x2378 JUMP JUMPDEST SWAP1 POP DUP3 DUP2 SUB PUSH1 0x40 DUP5 ADD MSTORE PUSH3 0x2405 DUP2 DUP15 PUSH3 0x2378 JUMP JUMPDEST PUSH1 0x1 PUSH1 0x1 PUSH1 0xA0 SHL SUB DUP14 AND PUSH1 0x60 DUP6 ADD MSTORE SWAP1 POP DUP11 PUSH1 0x80 DUP5 ADD MSTORE DUP10 PUSH1 0xA0 DUP5 ADD MSTORE DUP9 PUSH1 0xC0 DUP5 ADD MSTORE DUP8 PUSH1 0xE0 DUP5 ADD MSTORE DUP7 PUSH2 0x100 DUP5 ADD MSTORE PUSH3 0x244C PUSH2 0x120 DUP5 ADD DUP8 PUSH1 0x1 PUSH1 0x1 PUSH1 0xA0 SHL SUB AND SWAP1 MSTORE JUMP JUMPDEST DUP5 ISZERO ISZERO PUSH2 0x140 DUP5 ADD MSTORE DUP4 PUSH2 0x160 DUP5 ADD MSTORE DUP3 DUP2 SUB PUSH2 0x180 DUP5 ADD MSTORE PUSH3 0x2474 DUP2 PUSH1 0x0 DUP2 MSTORE PUSH1 0x20 ADD SWAP1 JUMP JUMPDEST SWAP16 SWAP15 POP POP POP POP POP POP POP POP POP POP POP POP POP POP POP JUMP JUMPDEST PUSH1 0x20 DUP2 MSTORE PUSH1 0x0 PUSH3 0x2140 PUSH1 0x20 DUP4 ADD DUP5 PUSH3 0x2378 JUMP JUMPDEST PUSH1 0xC0 DUP2 MSTORE PUSH1 0x0 PUSH3 0x24B1 PUSH1 0xC0 DUP4 ADD DUP10 PUSH3 0x2378 JUMP JUMPDEST DUP3 DUP2 SUB PUSH1 0x20 DUP5 ADD MSTORE PUSH3 0x24C5 DUP2 DUP10 PUSH3 0x2378 JUMP JUMPDEST SWAP1 POP DUP3 DUP2 SUB PUSH1 0x40 DUP5 ADD MSTORE PUSH3 0x24DB DUP2 DUP9 PUSH3 0x2378 JUMP JUMPDEST SWAP1 POP DUP3 DUP2 SUB PUSH1 0x60 DUP5 ADD MSTORE PUSH3 0x24F1 DUP2 DUP8 PUSH3 0x2378 JUMP JUMPDEST PUSH1 0x1 PUSH1 0x1 PUSH1 0xA0 SHL SUB SWAP6 SWAP1 SWAP6 AND PUSH1 0x80 DUP5 ADD MSTORE POP POP PUSH1 0xA0 ADD MSTORE SWAP5 SWAP4 POP POP POP POP JUMP JUMPDEST PUSH1 0x20 DUP1 DUP3 MSTORE PUSH1 0x28 SWAP1 DUP3 ADD MSTORE PUSH32 0x43616E277420696E7465726163742077697468204E46542069662070726F706F PUSH1 0x40 DUP3 ADD MSTORE PUSH8 0x1CD85B0819985A5B PUSH1 0xC2 SHL PUSH1 0x60 DUP3 ADD MSTORE PUSH1 0x80 ADD SWAP1 JUMP JUMPDEST PUSH1 0x20 DUP1 DUP3 MSTORE PUSH1 0x1C SWAP1 DUP3 ADD MSTORE PUSH32 0x546869732050726F706F73616C20646F6573206E6F7420657869737400000000 PUSH1 0x40 DUP3 ADD MSTORE PUSH1 0x60 ADD SWAP1 JUMP JUMPDEST PUSH1 0x20 DUP1 DUP3 MSTORE DUP2 DUP2 ADD MSTORE PUSH32 0x4F776E61626C653A2063616C6C6572206973206E6F7420746865206F776E6572 PUSH1 0x40 DUP3 ADD MSTORE PUSH1 0x60 ADD SWAP1 JUMP JUMPDEST PUSH1 0x20 DUP1 DUP3 MSTORE PUSH1 0x24 SWAP1 DUP3 ADD MSTORE PUSH32 0x4F776E61626C653A2063616C6C657220697320696E2074686520626C61636B20 PUSH1 0x40 DUP3 ADD MSTORE PUSH4 0x1B1A5CDD PUSH1 0xE2 SHL PUSH1 0x60 DUP3 ADD MSTORE PUSH1 0x80 ADD SWAP1 JUMP JUMPDEST PUSH1 0x20 DUP1 DUP3 MSTORE PUSH1 0x31 SWAP1 DUP3 ADD MSTORE PUSH32 0x43616E277420696E7465726163742077697468204E46542069662070726F706F PUSH1 0x40 DUP3 ADD MSTORE PUSH17 0x1CD85B081A5CDB89DD08199BDC88139195 PUSH1 0x7A SHL PUSH1 0x60 DUP3 ADD MSTORE PUSH1 0x80 ADD SWAP1 JUMP JUMPDEST PUSH1 0x0 PUSH2 0x160 DUP14 DUP4 MSTORE PUSH1 0x20 DUP2 DUP2 DUP6 ADD MSTORE PUSH3 0x2676 DUP3 DUP6 ADD DUP16 PUSH3 0x2378 JUMP JUMPDEST SWAP2 POP DUP4 DUP3 SUB PUSH1 0x40 DUP6 ADD MSTORE PUSH3 0x268C DUP3 DUP15 PUSH3 0x2378 JUMP JUMPDEST PUSH1 0x60 DUP6 ADD DUP14 SWAP1 MSTORE DUP5 DUP2 SUB PUSH1 0x80 DUP7 ADD MSTORE DUP12 MLOAD DUP1 DUP3 MSTORE DUP3 DUP14 ADD SWAP4 POP SWAP1 DUP3 ADD SWAP1 PUSH1 0x0 JUMPDEST DUP2 DUP2 LT ISZERO PUSH3 0x26D3 JUMPI DUP5 MLOAD PUSH1 0x1 PUSH1 0x1 PUSH1 0xA0 SHL SUB AND DUP4 MSTORE SWAP4 DUP4 ADD SWAP4 SWAP2 DUP4 ADD SWAP2 PUSH1 0x1 ADD PUSH3 0x26AC JUMP JUMPDEST POP POP PUSH1 0x1 PUSH1 0x1 PUSH1 0xA0 SHL SUB DUP12 AND PUSH1 0xA0 DUP7 ADD MSTORE SWAP3 POP PUSH3 0x26EF SWAP2 POP POP JUMP JUMPDEST DUP7 PUSH1 0xC0 DUP4 ADD MSTORE PUSH3 0x270B PUSH1 0xE0 DUP4 ADD DUP8 PUSH1 0x1 PUSH1 0x1 PUSH1 0xA0 SHL SUB AND SWAP1 MSTORE JUMP JUMPDEST DUP5 ISZERO ISZERO PUSH2 0x100 DUP4 ADD MSTORE PUSH2 0x120 DUP3 ADD SWAP4 SWAP1 SWAP4 MSTORE PUSH2 0x140 ADD MSTORE SWAP10 SWAP9 POP POP POP POP POP POP POP POP POP JUMP JUMPDEST DUP14 DUP2 MSTORE PUSH2 0x1A0 PUSH1 0x20 DUP3 ADD MSTORE PUSH1 0x0 PUSH3 0x274C PUSH2 0x1A0 DUP4 ADD DUP16 PUSH3 0x2378 JUMP JUMPDEST DUP3 DUP2 SUB PUSH1 0x40 DUP5 ADD MSTORE PUSH3 0x2760 DUP2 DUP16 PUSH3 0x2378 JUMP JUMPDEST SWAP2 POP POP DUP12 PUSH1 0x60 DUP4 ADD MSTORE DUP11 PUSH1 0x80 DUP4 ADD MSTORE DUP10 PUSH1 0xA0 DUP4 ADD MSTORE DUP9 PUSH1 0xC0 DUP4 ADD MSTORE DUP8 ISZERO ISZERO PUSH1 0xE0 DUP4 ADD MSTORE PUSH1 0x1 DUP1 PUSH1 0xA0 SHL SUB DUP8 AND PUSH2 0x100 DUP4 ADD MSTORE DUP6 PUSH2 0x120 DUP4 ADD MSTORE PUSH3 0x27A9 PUSH2 0x140 DUP4 ADD DUP7 ISZERO ISZERO SWAP1 MSTORE JUMP JUMPDEST PUSH2 0x160 DUP3 ADD SWAP4 SWAP1 SWAP4 MSTORE PUSH2 0x180 ADD MSTORE SWAP12 SWAP11 POP POP POP POP POP POP POP POP POP POP POP JUMP JUMPDEST PUSH1 0x40 MLOAD PUSH1 0x1F DUP3 ADD PUSH1 0x1F NOT AND DUP2 ADD PUSH8 0xFFFFFFFFFFFFFFFF DUP2 GT DUP3 DUP3 LT OR ISZERO PUSH3 0x27F2 JUMPI PUSH3 0x27F2 PUSH3 0x28FB JUMP JUMPDEST PUSH1 0x40 MSTORE SWAP2 SWAP1 POP JUMP JUMPDEST PUSH1 0x0 DUP3 NOT DUP3 GT ISZERO PUSH3 0x2810 JUMPI PUSH3 0x2810 PUSH3 0x28CF JUMP JUMPDEST POP ADD SWAP1 JUMP JUMPDEST PUSH1 0x0 DUP3 PUSH3 0x2833 JUMPI PUSH4 0x4E487B71 PUSH1 0xE0 SHL PUSH1 0x0 MSTORE PUSH1 0x12 PUSH1 0x4 MSTORE PUSH1 0x24 PUSH1 0x0 REVERT JUMPDEST POP DIV SWAP1 JUMP JUMPDEST PUSH1 0x0 DUP2 PUSH1 0x0 NOT DIV DUP4 GT DUP3 ISZERO ISZERO AND ISZERO PUSH3 0x2855 JUMPI PUSH3 0x2855 PUSH3 0x28CF JUMP JUMPDEST POP MUL SWAP1 JUMP JUMPDEST PUSH1 0x0 DUP3 DUP3 LT ISZERO PUSH3 0x286F JUMPI PUSH3 0x286F PUSH3 0x28CF JUMP JUMPDEST POP SUB SWAP1 JUMP JUMPDEST PUSH1 0x1 DUP2 DUP2 SHR SWAP1 DUP3 AND DUP1 PUSH3 0x2889 JUMPI PUSH1 0x7F DUP3 AND SWAP2 POP JUMPDEST PUSH1 0x20 DUP3 LT DUP2 EQ ISZERO PUSH3 0x28AB JUMPI PUSH4 0x4E487B71 PUSH1 0xE0 SHL PUSH1 0x0 MSTORE PUSH1 0x22 PUSH1 0x4 MSTORE PUSH1 0x24 PUSH1 0x0 REVERT JUMPDEST POP SWAP2 SWAP1 POP JUMP JUMPDEST PUSH1 0x0 PUSH1 0x0 NOT DUP3 EQ ISZERO PUSH3 0x28C8 JUMPI PUSH3 0x28C8 PUSH3 0x28CF JUMP JUMPDEST POP PUSH1 0x1 ADD SWAP1 JUMP JUMPDEST PUSH4 0x4E487B71 PUSH1 0xE0 SHL PUSH1 0x0 MSTORE PUSH1 0x11 PUSH1 0x4 MSTORE PUSH1 0x24 PUSH1 0x0 REVERT JUMPDEST PUSH4 0x4E487B71 PUSH1 0xE0 SHL PUSH1 0x0 MSTORE PUSH1 0x32 PUSH1 0x4 MSTORE PUSH1 0x24 PUSH1 0x0 REVERT JUMPDEST PUSH4 0x4E487B71 PUSH1 0xE0 SHL PUSH1 0x0 MSTORE PUSH1 0x41 PUSH1 0x4 MSTORE PUSH1 0x24 PUSH1 0x0 REVERT JUMPDEST PUSH1 0x1 PUSH1 0x1 PUSH1 0xA0 SHL SUB DUP2 AND DUP2 EQ PUSH3 0x1B8A JUMPI PUSH1 0x0 DUP1 REVERT JUMPDEST DUP1 ISZERO ISZERO DUP2 EQ PUSH3 0x1B8A JUMPI PUSH1 0x0 DUP1 REVERT INVALID PUSH2 0x180 PUSH1 0x40 MSTORE CALLVALUE DUP1 ISZERO PUSH3 0x12 JUMPI PUSH1 0x0 DUP1 REVERT JUMPDEST POP PUSH1 0x40 MLOAD PUSH3 0x13F3 CODESIZE SUB DUP1 PUSH3 0x13F3 DUP4 CODECOPY DUP2 ADD PUSH1 0x40 DUP2 SWAP1 MSTORE PUSH3 0x35 SWAP2 PUSH3 0x343 JUMP JUMPDEST PUSH3 0x40 CALLER PUSH3 0x1E0 JUMP JUMPDEST PUSH1 0x40 MLOAD PUSH4 0x31A9108F PUSH1 0xE1 SHL DUP2 MSTORE PUSH1 0x4 DUP2 ADD DUP9 SWAP1 MSTORE PUSH1 0x1 PUSH1 0x1 PUSH1 0xA0 SHL SUB DUP1 DUP6 AND SWAP2 SWAP1 DUP11 AND SWAP1 PUSH4 0x6352211E SWAP1 PUSH1 0x24 ADD PUSH1 0x20 PUSH1 0x40 MLOAD DUP1 DUP4 SUB DUP2 DUP7 DUP1 EXTCODESIZE ISZERO DUP1 ISZERO PUSH3 0x86 JUMPI PUSH1 0x0 DUP1 REVERT JUMPDEST POP GAS STATICCALL ISZERO DUP1 ISZERO PUSH3 0x9B JUMPI RETURNDATASIZE PUSH1 0x0 DUP1 RETURNDATACOPY RETURNDATASIZE PUSH1 0x0 REVERT JUMPDEST POP POP POP POP PUSH1 0x40 MLOAD RETURNDATASIZE PUSH1 0x1F NOT PUSH1 0x1F DUP3 ADD AND DUP3 ADD DUP1 PUSH1 0x40 MSTORE POP DUP2 ADD SWAP1 PUSH3 0xC1 SWAP2 SWAP1 PUSH3 0x31E JUMP JUMPDEST PUSH1 0x1 PUSH1 0x1 PUSH1 0xA0 SHL SUB AND EQ PUSH3 0x11D JUMPI PUSH1 0x40 MLOAD PUSH3 0x461BCD PUSH1 0xE5 SHL DUP2 MSTORE PUSH1 0x20 PUSH1 0x4 DUP3 ADD MSTORE PUSH1 0x16 PUSH1 0x24 DUP3 ADD MSTORE PUSH32 0x53656C6C657220646F65736E2774206F776E204E465400000000000000000000 PUSH1 0x44 DUP3 ADD MSTORE PUSH1 0x64 ADD JUMPDEST PUSH1 0x40 MLOAD DUP1 SWAP2 SUB SWAP1 REVERT JUMPDEST PUSH1 0x1 PUSH1 0x1 PUSH1 0x60 SHL SUB NOT PUSH1 0x60 DUP10 DUP2 SHL DUP3 AND PUSH1 0x80 MSTORE PUSH1 0xA0 DUP10 SWAP1 MSTORE DUP5 SWAP1 SHL AND PUSH1 0xC0 MSTORE PUSH1 0xE0 DUP7 SWAP1 MSTORE PUSH2 0x100 DUP6 SWAP1 MSTORE PUSH2 0x120 DUP5 SWAP1 MSTORE PUSH2 0x140 DUP3 SWAP1 MSTORE PUSH2 0x160 DUP2 SWAP1 MSTORE PUSH1 0x0 DUP1 SLOAD PUSH2 0xFFFF PUSH1 0xA0 SHL NOT AND SWAP1 SSTORE PUSH3 0x176 PUSH3 0x93A80 DUP6 PUSH3 0x3B4 JUMP JUMPDEST DUP7 LT ISZERO PUSH3 0x1C7 JUMPI PUSH1 0x40 MLOAD PUSH3 0x461BCD PUSH1 0xE5 SHL DUP2 MSTORE PUSH1 0x20 PUSH1 0x4 DUP3 ADD MSTORE PUSH1 0x19 PUSH1 0x24 DUP3 ADD MSTORE PUSH32 0x5374617274696E6720707269636520697320746F6F206C6F7700000000000000 PUSH1 0x44 DUP3 ADD MSTORE PUSH1 0x64 ADD PUSH3 0x114 JUMP JUMPDEST PUSH3 0x1D2 DUP4 PUSH3 0x230 JUMP JUMPDEST POP POP POP POP POP POP POP POP PUSH3 0x3E2 JUMP JUMPDEST PUSH1 0x0 DUP1 SLOAD PUSH1 0x1 PUSH1 0x1 PUSH1 0xA0 SHL SUB DUP4 DUP2 AND PUSH1 0x1 PUSH1 0x1 PUSH1 0xA0 SHL SUB NOT DUP4 AND DUP2 OR DUP5 SSTORE PUSH1 0x40 MLOAD SWAP2 SWAP1 SWAP3 AND SWAP3 DUP4 SWAP2 PUSH32 0x8BE0079C531659141344CD1FD0A4F28419497F9722A3DAAFE3B4186F6B6457E0 SWAP2 SWAP1 LOG3 POP POP JUMP JUMPDEST PUSH1 0x0 SLOAD PUSH1 0x1 PUSH1 0x1 PUSH1 0xA0 SHL SUB AND CALLER EQ PUSH3 0x28C JUMPI PUSH1 0x40 MLOAD PUSH3 0x461BCD PUSH1 0xE5 SHL DUP2 MSTORE PUSH1 0x20 PUSH1 0x4 DUP3 ADD DUP2 SWAP1 MSTORE PUSH1 0x24 DUP3 ADD MSTORE PUSH32 0x4F776E61626C653A2063616C6C6572206973206E6F7420746865206F776E6572 PUSH1 0x44 DUP3 ADD MSTORE PUSH1 0x64 ADD PUSH3 0x114 JUMP JUMPDEST PUSH1 0x1 PUSH1 0x1 PUSH1 0xA0 SHL SUB DUP2 AND PUSH3 0x2F3 JUMPI PUSH1 0x40 MLOAD PUSH3 0x461BCD PUSH1 0xE5 SHL DUP2 MSTORE PUSH1 0x20 PUSH1 0x4 DUP3 ADD MSTORE PUSH1 0x26 PUSH1 0x24 DUP3 ADD MSTORE PUSH32 0x4F776E61626C653A206E6577206F776E657220697320746865207A65726F2061 PUSH1 0x44 DUP3 ADD MSTORE PUSH6 0x646472657373 PUSH1 0xD0 SHL PUSH1 0x64 DUP3 ADD MSTORE PUSH1 0x84 ADD PUSH3 0x114 JUMP JUMPDEST PUSH3 0x2FE DUP2 PUSH3 0x1E0 JUMP JUMPDEST POP JUMP JUMPDEST DUP1 MLOAD PUSH1 0x1 PUSH1 0x1 PUSH1 0xA0 SHL SUB DUP2 AND DUP2 EQ PUSH3 0x319 JUMPI PUSH1 0x0 DUP1 REVERT JUMPDEST SWAP2 SWAP1 POP JUMP JUMPDEST PUSH1 0x0 PUSH1 0x20 DUP3 DUP5 SUB SLT ISZERO PUSH3 0x331 JUMPI PUSH1 0x0 DUP1 REVERT JUMPDEST PUSH3 0x33C DUP3 PUSH3 0x301 JUMP JUMPDEST SWAP4 SWAP3 POP POP POP JUMP JUMPDEST PUSH1 0x0 DUP1 PUSH1 0x0 DUP1 PUSH1 0x0 DUP1 PUSH1 0x0 DUP1 PUSH2 0x100 DUP10 DUP12 SUB SLT ISZERO PUSH3 0x361 JUMPI PUSH1 0x0 DUP1 REVERT JUMPDEST PUSH3 0x36C DUP10 PUSH3 0x301 JUMP JUMPDEST SWAP8 POP PUSH1 0x20 DUP10 ADD MLOAD SWAP7 POP PUSH1 0x40 DUP10 ADD MLOAD SWAP6 POP PUSH1 0x60 DUP10 ADD MLOAD SWAP5 POP PUSH1 0x80 DUP10 ADD MLOAD SWAP4 POP PUSH3 0x398 PUSH1 0xA0 DUP11 ADD PUSH3 0x301 JUMP JUMPDEST PUSH1 0xC0 DUP11 ADD MLOAD PUSH1 0xE0 SWAP1 SWAP11 ADD MLOAD SWAP9 SWAP12 SWAP8 SWAP11 POP SWAP6 SWAP9 SWAP5 SWAP8 SWAP4 SWAP7 SWAP3 POP POP POP JUMP JUMPDEST PUSH1 0x0 DUP2 PUSH1 0x0 NOT DIV DUP4 GT DUP3 ISZERO ISZERO AND ISZERO PUSH3 0x3DD JUMPI PUSH4 0x4E487B71 PUSH1 0xE0 SHL PUSH1 0x0 MSTORE PUSH1 0x11 PUSH1 0x4 MSTORE PUSH1 0x24 PUSH1 0x0 REVERT JUMPDEST POP MUL SWAP1 JUMP JUMPDEST PUSH1 0x80 MLOAD PUSH1 0x60 SHR PUSH1 0xA0 MLOAD PUSH1 0xC0 MLOAD PUSH1 0x60 SHR PUSH1 0xE0 MLOAD PUSH2 0x100 MLOAD PUSH2 0x120 MLOAD PUSH2 0x140 MLOAD PUSH2 0x160 MLOAD PUSH2 0xF19 PUSH3 0x4DA PUSH1 0x0 CODECOPY PUSH1 0x0 DUP2 DUP2 PUSH2 0x318 ADD MSTORE DUP2 DUP2 PUSH2 0x4B5 ADD MSTORE DUP2 DUP2 PUSH2 0x50E ADD MSTORE DUP2 DUP2 PUSH2 0x737 ADD MSTORE PUSH2 0xA3A ADD MSTORE PUSH1 0x0 DUP2 DUP2 PUSH2 0x3B3 ADD MSTORE PUSH2 0x9B2 ADD MSTORE PUSH1 0x0 DUP2 DUP2 PUSH2 0x44F ADD MSTORE PUSH2 0x9E1 ADD MSTORE PUSH1 0x0 PUSH2 0x14C ADD MSTORE PUSH1 0x0 DUP2 DUP2 PUSH2 0x3FA ADD MSTORE PUSH2 0xA0D ADD MSTORE PUSH1 0x0 DUP2 DUP2 PUSH2 0x193 ADD MSTORE DUP2 DUP2 PUSH2 0x5BB ADD MSTORE DUP2 DUP2 PUSH2 0x827 ADD MSTORE PUSH2 0xB3A ADD MSTORE PUSH1 0x0 DUP2 DUP2 PUSH2 0x37F ADD MSTORE DUP2 DUP2 PUSH2 0x5DD ADD MSTORE DUP2 DUP2 PUSH2 0x66F ADD MSTORE DUP2 DUP2 PUSH2 0x84B ADD MSTORE DUP2 DUP2 PUSH2 0x8B2 ADD MSTORE PUSH2 0xBFF ADD MSTORE PUSH1 0x0 DUP2 DUP2 PUSH2 0x227 ADD MSTORE DUP2 DUP2 PUSH2 0x58C ADD MSTORE DUP2 DUP2 PUSH2 0x6A2 ADD MSTORE DUP2 DUP2 PUSH2 0x7FA ADD MSTORE DUP2 DUP2 PUSH2 0x8E3 ADD MSTORE PUSH2 0xBCE ADD MSTORE PUSH2 0xF19 PUSH1 0x0 RETURN INVALID PUSH1 0x80 PUSH1 0x40 MSTORE PUSH1 0x4 CALLDATASIZE LT PUSH2 0x135 JUMPI PUSH1 0x0 CALLDATALOAD PUSH1 0xE0 SHR DUP1 PUSH4 0x8DA5CB5B GT PUSH2 0xAB JUMPI DUP1 PUSH4 0xD6FBF202 GT PUSH2 0x6F JUMPI DUP1 PUSH4 0xD6FBF202 EQ PUSH2 0x3E8 JUMPI DUP1 PUSH4 0xE1345416 EQ PUSH2 0x41C JUMPI DUP1 PUSH4 0xE6C0E6D5 EQ PUSH2 0x43D JUMPI DUP1 PUSH4 0xF2FDE38B EQ PUSH2 0x471 JUMPI DUP1 PUSH4 0xFAE1DB4C EQ PUSH2 0x491 JUMPI DUP1 PUSH4 0xFFC2BDB1 EQ PUSH2 0x4A6 JUMPI PUSH1 0x0 DUP1 REVERT JUMPDEST DUP1 PUSH4 0x8DA5CB5B EQ PUSH2 0x33A JUMPI DUP1 PUSH4 0x98D5FDCA EQ PUSH2 0x358 JUMPI DUP1 PUSH4 0xC6BC5182 EQ PUSH2 0x36D JUMPI DUP1 PUSH4 0xC7446565 EQ PUSH2 0x3A1 JUMPI DUP1 PUSH4 0xCCE7EC13 EQ PUSH2 0x3D5 JUMPI PUSH1 0x0 DUP1 REVERT JUMPDEST DUP1 PUSH4 0x4E69D560 GT PUSH2 0xFD JUMPI DUP1 PUSH4 0x4E69D560 EQ PUSH2 0x249 JUMPI DUP1 PUSH4 0x715018A6 EQ PUSH2 0x2A6 JUMPI DUP1 PUSH4 0x7150D8AE EQ PUSH2 0x2BB JUMPI DUP1 PUSH4 0x7698EF02 EQ PUSH2 0x2DB JUMPI DUP1 PUSH4 0x8620410B EQ PUSH2 0x2F0 JUMPI DUP1 PUSH4 0x8622A689 EQ PUSH2 0x306 JUMPI PUSH1 0x0 DUP1 REVERT JUMPDEST DUP1 PUSH4 0x53F14DA EQ PUSH2 0x13A JUMPI DUP1 PUSH4 0x8551A53 EQ PUSH2 0x181 JUMPI DUP1 PUSH4 0xC570C86 EQ PUSH2 0x1CD JUMPI DUP1 PUSH4 0xFDB1C10 EQ PUSH2 0x1FE JUMPI DUP1 PUSH4 0x47CCCA02 EQ PUSH2 0x215 JUMPI JUMPDEST PUSH1 0x0 DUP1 REVERT JUMPDEST CALLVALUE DUP1 ISZERO PUSH2 0x146 JUMPI PUSH1 0x0 DUP1 REVERT JUMPDEST POP PUSH2 0x16E PUSH32 0x0 DUP2 JUMP JUMPDEST PUSH1 0x40 MLOAD SWAP1 DUP2 MSTORE PUSH1 0x20 ADD JUMPDEST PUSH1 0x40 MLOAD DUP1 SWAP2 SUB SWAP1 RETURN JUMPDEST CALLVALUE DUP1 ISZERO PUSH2 0x18D JUMPI PUSH1 0x0 DUP1 REVERT JUMPDEST POP PUSH2 0x1B5 PUSH32 0x0 DUP2 JUMP JUMPDEST PUSH1 0x40 MLOAD PUSH1 0x1 PUSH1 0x1 PUSH1 0xA0 SHL SUB SWAP1 SWAP2 AND DUP2 MSTORE PUSH1 0x20 ADD PUSH2 0x178 JUMP JUMPDEST CALLVALUE DUP1 ISZERO PUSH2 0x1D9 JUMPI PUSH1 0x0 DUP1 REVERT JUMPDEST POP PUSH1 0x0 SLOAD PUSH2 0x1EE SWAP1 PUSH1 0x1 PUSH1 0xA0 SHL SWAP1 DIV PUSH1 0xFF AND DUP2 JUMP JUMPDEST PUSH1 0x40 MLOAD SWAP1 ISZERO ISZERO DUP2 MSTORE PUSH1 0x20 ADD PUSH2 0x178 JUMP JUMPDEST CALLVALUE DUP1 ISZERO PUSH2 0x20A JUMPI PUSH1 0x0 DUP1 REVERT JUMPDEST POP PUSH2 0x213 PUSH2 0x4D9 JUMP JUMPDEST STOP JUMPDEST CALLVALUE DUP1 ISZERO PUSH2 0x221 JUMPI PUSH1 0x0 DUP1 REVERT JUMPDEST POP PUSH2 0x1B5 PUSH32 0x0 DUP2 JUMP JUMPDEST CALLVALUE DUP1 ISZERO PUSH2 0x255 JUMPI PUSH1 0x0 DUP1 REVERT JUMPDEST POP PUSH2 0x25E PUSH2 0x64C JUMP JUMPDEST PUSH1 0x40 DUP1 MLOAD SWAP8 ISZERO ISZERO DUP9 MSTORE SWAP6 ISZERO ISZERO PUSH1 0x20 DUP9 ADD MSTORE SWAP4 ISZERO ISZERO SWAP5 DUP7 ADD SWAP5 SWAP1 SWAP5 MSTORE PUSH1 0x60 DUP6 ADD SWAP2 SWAP1 SWAP2 MSTORE PUSH1 0x1 PUSH1 0x1 PUSH1 0xA0 SHL SUB AND PUSH1 0x80 DUP5 ADD MSTORE PUSH1 0xA0 DUP4 ADD SWAP2 SWAP1 SWAP2 MSTORE ISZERO ISZERO PUSH1 0xC0 DUP3 ADD MSTORE PUSH1 0xE0 ADD PUSH2 0x178 JUMP JUMPDEST CALLVALUE DUP1 ISZERO PUSH2 0x2B2 JUMPI PUSH1 0x0 DUP1 REVERT JUMPDEST POP PUSH2 0x213 PUSH2 0x783 JUMP JUMPDEST CALLVALUE DUP1 ISZERO PUSH2 0x2C7 JUMPI PUSH1 0x0 DUP1 REVERT JUMPDEST POP PUSH1 0x1 SLOAD PUSH2 0x1B5 SWAP1 PUSH1 0x1 PUSH1 0x1 PUSH1 0xA0 SHL SUB AND DUP2 JUMP JUMPDEST CALLVALUE DUP1 ISZERO PUSH2 0x2E7 JUMPI PUSH1 0x0 DUP1 REVERT JUMPDEST POP PUSH2 0x213 PUSH2 0x7B9 JUMP JUMPDEST CALLVALUE DUP1 ISZERO PUSH2 0x2FC JUMPI PUSH1 0x0 DUP1 REVERT JUMPDEST POP PUSH2 0x16E PUSH1 0x2 SLOAD DUP2 JUMP JUMPDEST CALLVALUE DUP1 ISZERO PUSH2 0x312 JUMPI PUSH1 0x0 DUP1 REVERT JUMPDEST POP PUSH2 0x16E PUSH32 0x0 DUP2 JUMP JUMPDEST CALLVALUE DUP1 ISZERO PUSH2 0x346 JUMPI PUSH1 0x0 DUP1 REVERT JUMPDEST POP PUSH1 0x0 SLOAD PUSH1 0x1 PUSH1 0x1 PUSH1 0xA0 SHL SUB AND PUSH2 0x1B5 JUMP JUMPDEST CALLVALUE DUP1 ISZERO PUSH2 0x364 JUMPI PUSH1 0x0 DUP1 REVERT JUMPDEST POP PUSH2 0x16E PUSH2 0x9AA JUMP JUMPDEST CALLVALUE DUP1 ISZERO PUSH2 0x379 JUMPI PUSH1 0x0 DUP1 REVERT JUMPDEST POP PUSH2 0x16E PUSH32 0x0 DUP2 JUMP JUMPDEST CALLVALUE DUP1 ISZERO PUSH2 0x3AD JUMPI PUSH1 0x0 DUP1 REVERT JUMPDEST POP PUSH2 0x16E PUSH32 0x0 DUP2 JUMP JUMPDEST PUSH2 0x213 PUSH2 0x3E3 CALLDATASIZE PUSH1 0x4 PUSH2 0xDFD JUMP JUMPDEST PUSH2 0xA38 JUMP JUMPDEST CALLVALUE DUP1 ISZERO PUSH2 0x3F4 JUMPI PUSH1 0x0 DUP1 REVERT JUMPDEST POP PUSH2 0x16E PUSH32 0x0 DUP2 JUMP JUMPDEST CALLVALUE DUP1 ISZERO PUSH2 0x428 JUMPI PUSH1 0x0 DUP1 REVERT JUMPDEST POP PUSH1 0x0 SLOAD PUSH2 0x1EE SWAP1 PUSH1 0x1 PUSH1 0xA8 SHL SWAP1 DIV PUSH1 0xFF AND DUP2 JUMP JUMPDEST CALLVALUE DUP1 ISZERO PUSH2 0x449 JUMPI PUSH1 0x0 DUP1 REVERT JUMPDEST POP PUSH2 0x16E PUSH32 0x0 DUP2 JUMP JUMPDEST CALLVALUE DUP1 ISZERO PUSH2 0x47D JUMPI PUSH1 0x0 DUP1 REVERT JUMPDEST POP PUSH2 0x213 PUSH2 0x48C CALLDATASIZE PUSH1 0x4 PUSH2 0xD9A JUMP JUMPDEST PUSH2 0xC85 JUMP JUMPDEST CALLVALUE DUP1 ISZERO PUSH2 0x49D JUMPI PUSH1 0x0 DUP1 REVERT JUMPDEST POP PUSH2 0x213 PUSH2 0xD20 JUMP JUMPDEST CALLVALUE DUP1 ISZERO PUSH2 0x4B2 JUMPI PUSH1 0x0 DUP1 REVERT JUMPDEST POP PUSH32 0x0 PUSH2 0x16E JUMP JUMPDEST PUSH1 0x0 SLOAD PUSH1 0x1 PUSH1 0x1 PUSH1 0xA0 SHL SUB AND CALLER EQ PUSH2 0x50C JUMPI PUSH1 0x40 MLOAD PUSH3 0x461BCD PUSH1 0xE5 SHL DUP2 MSTORE PUSH1 0x4 ADD PUSH2 0x503 SWAP1 PUSH2 0xE4D JUMP JUMPDEST PUSH1 0x40 MLOAD DUP1 SWAP2 SUB SWAP1 REVERT JUMPDEST PUSH32 0x0 TIMESTAMP LT ISZERO PUSH2 0x575 JUMPI PUSH1 0x40 MLOAD PUSH3 0x461BCD PUSH1 0xE5 SHL DUP2 MSTORE PUSH1 0x20 PUSH1 0x4 DUP3 ADD MSTORE PUSH1 0x16 PUSH1 0x24 DUP3 ADD MSTORE PUSH22 0x105D58DD1A5BDB9CC81B9BDD081E595D08195B991959 PUSH1 0x52 SHL PUSH1 0x44 DUP3 ADD MSTORE PUSH1 0x64 ADD PUSH2 0x503 JUMP JUMPDEST PUSH1 0x40 MLOAD PUSH4 0x23B872DD PUSH1 0xE0 SHL DUP2 MSTORE PUSH1 0x1 PUSH1 0x1 PUSH1 0xA0 SHL SUB PUSH32 0x0 AND SWAP1 PUSH4 0x23B872DD SWAP1 PUSH2 0x605 SWAP1 ADDRESS SWAP1 PUSH32 0x0 SWAP1 PUSH32 0x0 SWAP1 PUSH1 0x4 ADD PUSH2 0xE29 JUMP JUMPDEST PUSH1 0x0 PUSH1 0x40 MLOAD DUP1 DUP4 SUB DUP2 PUSH1 0x0 DUP8 DUP1 EXTCODESIZE ISZERO DUP1 ISZERO PUSH2 0x61F JUMPI PUSH1 0x0 DUP1 REVERT JUMPDEST POP GAS CALL ISZERO DUP1 ISZERO PUSH2 0x633 JUMPI RETURNDATASIZE PUSH1 0x0 DUP1 RETURNDATACOPY RETURNDATASIZE PUSH1 0x0 REVERT JUMPDEST POP POP PUSH1 0x0 DUP1 SLOAD PUSH1 0xFF PUSH1 0xA8 SHL NOT AND PUSH1 0x1 PUSH1 0xA8 SHL OR SWAP1 SSTORE POP POP JUMP JUMPDEST PUSH1 0x0 DUP1 PUSH1 0x0 DUP1 PUSH1 0x0 DUP1 PUSH1 0x0 DUP1 PUSH2 0x660 PUSH2 0x9AA JUMP JUMPDEST PUSH1 0x40 MLOAD PUSH4 0x31A9108F PUSH1 0xE1 SHL DUP2 MSTORE PUSH32 0x0 PUSH1 0x4 DUP3 ADD MSTORE SWAP1 SWAP2 POP ADDRESS SWAP1 PUSH1 0x1 PUSH1 0x1 PUSH1 0xA0 SHL SUB PUSH32 0x0 AND SWAP1 PUSH4 0x6352211E SWAP1 PUSH1 0x24 ADD PUSH1 0x20 PUSH1 0x40 MLOAD DUP1 DUP4 SUB DUP2 DUP7 DUP1 EXTCODESIZE ISZERO DUP1 ISZERO PUSH2 0x6E4 JUMPI PUSH1 0x0 DUP1 REVERT JUMPDEST POP GAS STATICCALL ISZERO DUP1 ISZERO PUSH2 0x6F8 JUMPI RETURNDATASIZE PUSH1 0x0 DUP1 RETURNDATACOPY RETURNDATASIZE PUSH1 0x0 REVERT JUMPDEST POP POP POP POP PUSH1 0x40 MLOAD RETURNDATASIZE PUSH1 0x1F NOT PUSH1 0x1F DUP3 ADD AND DUP3 ADD DUP1 PUSH1 0x40 MSTORE POP DUP2 ADD SWAP1 PUSH2 0x71C SWAP2 SWAP1 PUSH2 0xDBE JUMP JUMPDEST PUSH1 0x0 SLOAD PUSH1 0x1 SLOAD PUSH1 0x2 SLOAD PUSH1 0x1 PUSH1 0x1 PUSH1 0xA0 SHL SUB SWAP4 DUP5 AND SWAP5 SWAP1 SWAP5 EQ SWAP13 PUSH32 0x0 TIMESTAMP LT ISZERO SWAP13 POP PUSH1 0xFF PUSH1 0x1 PUSH1 0xA0 SHL DUP5 DIV DUP2 AND SWAP13 POP SWAP6 SWAP11 POP SWAP3 AND SWAP8 POP SWAP2 SWAP6 POP PUSH1 0x1 PUSH1 0xA8 SHL SWAP1 SWAP2 DIV SWAP1 SWAP2 AND SWAP3 POP SWAP1 POP JUMP JUMPDEST PUSH1 0x0 SLOAD PUSH1 0x1 PUSH1 0x1 PUSH1 0xA0 SHL SUB AND CALLER EQ PUSH2 0x7AD JUMPI PUSH1 0x40 MLOAD PUSH3 0x461BCD PUSH1 0xE5 SHL DUP2 MSTORE PUSH1 0x4 ADD PUSH2 0x503 SWAP1 PUSH2 0xE4D JUMP JUMPDEST PUSH2 0x7B7 PUSH1 0x0 PUSH2 0xD4A JUMP JUMPDEST JUMP JUMPDEST PUSH1 0x0 SLOAD PUSH1 0x1 PUSH1 0x1 PUSH1 0xA0 SHL SUB AND CALLER EQ PUSH2 0x7E3 JUMPI PUSH1 0x40 MLOAD PUSH3 0x461BCD PUSH1 0xE5 SHL DUP2 MSTORE PUSH1 0x4 ADD PUSH2 0x503 SWAP1 PUSH2 0xE4D JUMP JUMPDEST PUSH1 0x40 MLOAD PUSH4 0x23B872DD PUSH1 0xE0 SHL DUP2 MSTORE PUSH1 0x1 PUSH1 0x1 PUSH1 0xA0 SHL SUB PUSH32 0x0 AND SWAP1 PUSH4 0x23B872DD SWAP1 PUSH2 0x873 SWAP1 PUSH32 0x0 SWAP1 ADDRESS SWAP1 PUSH32 0x0 SWAP1 PUSH1 0x4 ADD PUSH2 0xE29 JUMP JUMPDEST PUSH1 0x0 PUSH1 0x40 MLOAD DUP1 DUP4 SUB DUP2 PUSH1 0x0 DUP8 DUP1 EXTCODESIZE ISZERO DUP1 ISZERO PUSH2 0x88D JUMPI PUSH1 0x0 DUP1 REVERT JUMPDEST POP GAS CALL ISZERO DUP1 ISZERO PUSH2 0x8A1 JUMPI RETURNDATASIZE PUSH1 0x0 DUP1 RETURNDATACOPY RETURNDATASIZE PUSH1 0x0 REVERT JUMPDEST POP POP PUSH1 0x40 MLOAD PUSH4 0x31A9108F PUSH1 0xE1 SHL DUP2 MSTORE PUSH32 0x0 PUSH1 0x4 DUP3 ADD MSTORE ADDRESS SWAP3 POP PUSH1 0x1 PUSH1 0x1 PUSH1 0xA0 SHL SUB PUSH32 0x0 AND SWAP2 POP PUSH4 0x6352211E SWAP1 PUSH1 0x24 ADD PUSH1 0x20 PUSH1 0x40 MLOAD DUP1 DUP4 SUB DUP2 DUP7 DUP1 EXTCODESIZE ISZERO DUP1 ISZERO PUSH2 0x926 JUMPI PUSH1 0x0 DUP1 REVERT JUMPDEST POP GAS STATICCALL ISZERO DUP1 ISZERO PUSH2 0x93A JUMPI RETURNDATASIZE PUSH1 0x0 DUP1 RETURNDATACOPY RETURNDATASIZE PUSH1 0x0 REVERT JUMPDEST POP POP POP POP PUSH1 0x40 MLOAD RETURNDATASIZE PUSH1 0x1F NOT PUSH1 0x1F DUP3 ADD AND DUP3 ADD DUP1 PUSH1 0x40 MSTORE POP DUP2 ADD SWAP1 PUSH2 0x95E SWAP2 SWAP1 PUSH2 0xDBE JUMP JUMPDEST PUSH1 0x1 PUSH1 0x1 PUSH1 0xA0 SHL SUB AND EQ PUSH2 0x7B7 JUMPI PUSH1 0x40 MLOAD PUSH3 0x461BCD PUSH1 0xE5 SHL DUP2 MSTORE PUSH1 0x20 PUSH1 0x4 DUP3 ADD MSTORE PUSH1 0x13 PUSH1 0x24 DUP3 ADD MSTORE PUSH19 0x139195081D1C985B9CD9995C8819985A5B1959 PUSH1 0x6A SHL PUSH1 0x44 DUP3 ADD MSTORE PUSH1 0x64 ADD PUSH2 0x503 JUMP JUMPDEST PUSH1 0x0 DUP1 PUSH2 0x9D7 PUSH32 0x0 TIMESTAMP PUSH2 0xEA1 JUMP JUMPDEST SWAP1 POP PUSH1 0x0 PUSH2 0xA05 DUP3 PUSH32 0x0 PUSH2 0xE82 JUMP JUMPDEST SWAP1 POP PUSH2 0xA31 DUP2 PUSH32 0x0 PUSH2 0xEA1 JUMP JUMPDEST SWAP3 POP POP POP SWAP1 JUMP JUMPDEST PUSH32 0x0 TIMESTAMP LT PUSH2 0xAA0 JUMPI PUSH1 0x40 MLOAD PUSH3 0x461BCD PUSH1 0xE5 SHL DUP2 MSTORE PUSH1 0x20 PUSH1 0x4 DUP3 ADD MSTORE PUSH1 0x16 PUSH1 0x24 DUP3 ADD MSTORE PUSH22 0x151A1A5CC8185D58DD1A5BDB881A185CC8195B991959 PUSH1 0x52 SHL PUSH1 0x44 DUP3 ADD MSTORE PUSH1 0x64 ADD PUSH2 0x503 JUMP JUMPDEST PUSH1 0x0 PUSH2 0xAAA PUSH2 0x9AA JUMP JUMPDEST SWAP1 POP DUP1 DUP3 LT ISZERO PUSH2 0xB14 JUMPI PUSH1 0x40 MLOAD PUSH3 0x461BCD PUSH1 0xE5 SHL DUP2 MSTORE PUSH1 0x20 PUSH1 0x4 DUP3 ADD MSTORE PUSH1 0x2F PUSH1 0x24 DUP3 ADD MSTORE PUSH32 0x54686520616D6F756E74206F6620546F6B656E2073656E74206973206C657373 PUSH1 0x44 DUP3 ADD MSTORE PUSH15 0x207468616E20746865207072696365 PUSH1 0x88 SHL PUSH1 0x64 DUP3 ADD MSTORE PUSH1 0x84 ADD PUSH2 0x503 JUMP JUMPDEST PUSH1 0x40 MLOAD PUSH4 0x23B872DD PUSH1 0xE0 SHL DUP2 MSTORE PUSH1 0x1 PUSH1 0x1 PUSH1 0xA0 SHL SUB DUP5 AND SWAP1 PUSH4 0x23B872DD SWAP1 PUSH2 0xB64 SWAP1 CALLER SWAP1 PUSH32 0x0 SWAP1 DUP7 SWAP1 PUSH1 0x4 ADD PUSH2 0xE29 JUMP JUMPDEST PUSH1 0x20 PUSH1 0x40 MLOAD DUP1 DUP4 SUB DUP2 PUSH1 0x0 DUP8 DUP1 EXTCODESIZE ISZERO DUP1 ISZERO PUSH2 0xB7E JUMPI PUSH1 0x0 DUP1 REVERT JUMPDEST POP GAS CALL ISZERO DUP1 ISZERO PUSH2 0xB92 JUMPI RETURNDATASIZE PUSH1 0x0 DUP1 RETURNDATACOPY RETURNDATASIZE PUSH1 0x0 REVERT JUMPDEST POP POP POP POP PUSH1 0x40 MLOAD RETURNDATASIZE PUSH1 0x1F NOT PUSH1 0x1F DUP3 ADD AND DUP3 ADD DUP1 PUSH1 0x40 MSTORE POP DUP2 ADD SWAP1 PUSH2 0xBB6 SWAP2 SWAP1 PUSH2 0xDDB JUMP JUMPDEST POP PUSH1 0x40 MLOAD PUSH4 0x23B872DD PUSH1 0xE0 SHL DUP2 MSTORE PUSH1 0x1 PUSH1 0x1 PUSH1 0xA0 SHL SUB PUSH32 0x0 AND SWAP1 PUSH4 0x23B872DD SWAP1 PUSH2 0xC27 SWAP1 ADDRESS SWAP1 CALLER SWAP1 PUSH32 0x0 SWAP1 PUSH1 0x4 ADD PUSH2 0xE29 JUMP JUMPDEST PUSH1 0x0 PUSH1 0x40 MLOAD DUP1 DUP4 SUB DUP2 PUSH1 0x0 DUP8 DUP1 EXTCODESIZE ISZERO DUP1 ISZERO PUSH2 0xC41 JUMPI PUSH1 0x0 DUP1 REVERT JUMPDEST POP GAS CALL ISZERO DUP1 ISZERO PUSH2 0xC55 JUMPI RETURNDATASIZE PUSH1 0x0 DUP1 RETURNDATACOPY RETURNDATASIZE PUSH1 0x0 REVERT JUMPDEST POP POP PUSH1 0x0 DUP1 SLOAD PUSH1 0xFF PUSH1 0xA0 SHL NOT AND PUSH1 0x1 PUSH1 0xA0 SHL OR SWAP1 SSTORE POP POP PUSH1 0x1 DUP1 SLOAD PUSH1 0x1 PUSH1 0x1 PUSH1 0xA0 SHL SUB NOT AND CALLER OR SWAP1 SSTORE PUSH1 0x2 SSTORE POP POP JUMP JUMPDEST PUSH1 0x0 SLOAD PUSH1 0x1 PUSH1 0x1 PUSH1 0xA0 SHL SUB AND CALLER EQ PUSH2 0xCAF JUMPI PUSH1 0x40 MLOAD PUSH3 0x461BCD PUSH1 0xE5 SHL DUP2 MSTORE PUSH1 0x4 ADD PUSH2 0x503 SWAP1 PUSH2 0xE4D JUMP JUMPDEST PUSH1 0x1 PUSH1 0x1 PUSH1 0xA0 SHL SUB DUP2 AND PUSH2 0xD14 JUMPI PUSH1 0x40 MLOAD PUSH3 0x461BCD PUSH1 0xE5 SHL DUP2 MSTORE PUSH1 0x20 PUSH1 0x4 DUP3 ADD MSTORE PUSH1 0x26 PUSH1 0x24 DUP3 ADD MSTORE PUSH32 0x4F776E61626C653A206E6577206F776E657220697320746865207A65726F2061 PUSH1 0x44 DUP3 ADD MSTORE PUSH6 0x646472657373 PUSH1 0xD0 SHL PUSH1 0x64 DUP3 ADD MSTORE PUSH1 0x84 ADD PUSH2 0x503 JUMP JUMPDEST PUSH2 0xD1D DUP2 PUSH2 0xD4A JUMP JUMPDEST POP JUMP JUMPDEST PUSH1 0x0 SLOAD PUSH1 0x1 PUSH1 0x1 PUSH1 0xA0 SHL SUB AND CALLER EQ PUSH2 0x575 JUMPI PUSH1 0x40 MLOAD PUSH3 0x461BCD PUSH1 0xE5 SHL DUP2 MSTORE PUSH1 0x4 ADD PUSH2 0x503 SWAP1 PUSH2 0xE4D JUMP JUMPDEST PUSH1 0x0 DUP1 SLOAD PUSH1 0x1 PUSH1 0x1 PUSH1 0xA0 SHL SUB DUP4 DUP2 AND PUSH1 0x1 PUSH1 0x1 PUSH1 0xA0 SHL SUB NOT DUP4 AND DUP2 OR DUP5 SSTORE PUSH1 0x40 MLOAD SWAP2 SWAP1 SWAP3 AND SWAP3 DUP4 SWAP2 PUSH32 0x8BE0079C531659141344CD1FD0A4F28419497F9722A3DAAFE3B4186F6B6457E0 SWAP2 SWAP1 LOG3 POP POP JUMP JUMPDEST PUSH1 0x0 PUSH1 0x20 DUP3 DUP5 SUB SLT ISZERO PUSH2 0xDAC JUMPI PUSH1 0x0 DUP1 REVERT JUMPDEST DUP2 CALLDATALOAD PUSH2 0xDB7 DUP2 PUSH2 0xECE JUMP JUMPDEST SWAP4 SWAP3 POP POP POP JUMP JUMPDEST PUSH1 0x0 PUSH1 0x20 DUP3 DUP5 SUB SLT ISZERO PUSH2 0xDD0 JUMPI PUSH1 0x0 DUP1 REVERT JUMPDEST DUP2 MLOAD PUSH2 0xDB7 DUP2 PUSH2 0xECE JUMP JUMPDEST PUSH1 0x0 PUSH1 0x20 DUP3 DUP5 SUB SLT ISZERO PUSH2 0xDED JUMPI PUSH1 0x0 DUP1 REVERT JUMPDEST DUP2 MLOAD DUP1 ISZERO ISZERO DUP2 EQ PUSH2 0xDB7 JUMPI PUSH1 0x0 DUP1 REVERT JUMPDEST PUSH1 0x0 DUP1 PUSH1 0x40 DUP4 DUP6 SUB SLT ISZERO PUSH2 0xE10 JUMPI PUSH1 0x0 DUP1 REVERT JUMPDEST DUP3 CALLDATALOAD PUSH2 0xE1B DUP2 PUSH2 0xECE JUMP JUMPDEST SWAP5 PUSH1 0x20 SWAP4 SWAP1 SWAP4 ADD CALLDATALOAD SWAP4 POP POP POP JUMP JUMPDEST PUSH1 0x1 PUSH1 0x1 PUSH1 0xA0 SHL SUB SWAP4 DUP5 AND DUP2 MSTORE SWAP2 SWAP1 SWAP3 AND PUSH1 0x20 DUP3 ADD MSTORE PUSH1 0x40 DUP2 ADD SWAP2 SWAP1 SWAP2 MSTORE PUSH1 0x60 ADD SWAP1 JUMP JUMPDEST PUSH1 0x20 DUP1 DUP3 MSTORE DUP2 DUP2 ADD MSTORE PUSH32 0x4F776E61626C653A2063616C6C6572206973206E6F7420746865206F776E6572 PUSH1 0x40 DUP3 ADD MSTORE PUSH1 0x60 ADD SWAP1 JUMP JUMPDEST PUSH1 0x0 DUP2 PUSH1 0x0 NOT DIV DUP4 GT DUP3 ISZERO ISZERO AND ISZERO PUSH2 0xE9C JUMPI PUSH2 0xE9C PUSH2 0xEB8 JUMP JUMPDEST POP MUL SWAP1 JUMP JUMPDEST PUSH1 0x0 DUP3 DUP3 LT ISZERO PUSH2 0xEB3 JUMPI PUSH2 0xEB3 PUSH2 0xEB8 JUMP JUMPDEST POP SUB SWAP1 JUMP JUMPDEST PUSH4 0x4E487B71 PUSH1 0xE0 SHL PUSH1 0x0 MSTORE PUSH1 0x11 PUSH1 0x4 MSTORE PUSH1 0x24 PUSH1 0x0 REVERT JUMPDEST PUSH1 0x1 PUSH1 0x1 PUSH1 0xA0 SHL SUB DUP2 AND DUP2 EQ PUSH2 0xD1D JUMPI PUSH1 0x0 DUP1 REVERT INVALID LOG2 PUSH5 0x6970667358 0x22 SLT KECCAK256 INVALID SWAP8 LOG1 0x25 PUSH4 0x2B95A2DF SLOAD 0xDB PUSH1 0xE7 0xC4 DIFFICULTY SWAP6 0xD SWAP15 0xAD GASPRICE DELEGATECALL CREATE2 TIMESTAMP SWAP4 0xE5 PUSH26 0x157470168CFD64736F6C63430008070033A26469706673582212 KECCAK256 0xF7 0xBD 0xBF CALLDATALOAD 0xEB 0xF9 0xCE 0xAC CREATE DUP10 DUP11 BALANCE 0xD8 SWAP3 DIV STOP 0xEE SDIV ADD CALL 0xF7 0xA8 JUMPI 0xDA 0xFC REVERT TIMESTAMP SWAP12 0x26 0x4C ORIGIN 0x23 PUSH5 0x736F6C6343 STOP ADDMOD SMOD STOP CALLER "
    },
    "gasEstimates": {
      "creation": {
        "codeDepositCost": "3142200",
        "executionCost": "infinite",
        "totalCost": "infinite"
      },
      "external": {
        "NFTAuctions(uint256)": "2532",
        "OrganizationType()": "infinite",
        "Proposals(uint256)": "infinite",
        "addBlackLister(address)": "26855",
        "changeNumberVoteOwner(uint256)": "22415",
        "countVoteBeforeEnd(uint256)": "infinite",
        "countVoteWithEndTime(uint256)": "65302",
        "coverImgUrl()": "infinite",
        "createNFTAuctionOrBuy(uint256,string,string)": "infinite",
        "createProposal(string,string,address[],address,uint256,uint256,bool,uint256,uint256)": "infinite",
        "creator()": "infinite",
        "description()": "infinite",
        "getOrganizationInfo(address)": "infinite",
        "isBlackLister(address)": "2611",
        "name()": "infinite",
        "nextAuction()": "2406",
        "nextProposal()": "2341",
        "numberVoteOwner()": "2339",
        "owner()": "2387",
        "removeBlackLister(address)": "26783",
        "renounceOwnership()": "28182",
        "sendNFT(uint256)": "infinite",
        "sendNFT2(uint256,address)": "infinite",
        "transferOwnership(address)": "infinite",
        "voteOnProposal(uint256,bool)": "infinite",
        "withDraw(uint256)": "infinite",
        "withDraw2(address,uint256)": "infinite"
      },
      "internal": {
        "checkAllVoterVoted(uint256)": "infinite",
        "checkVoteEligibility(uint256,address)": "infinite"
      }
    },
    "methodIdentifiers": {
      "NFTAuctions(uint256)": "f2f91519",
      "OrganizationType()": "b6f37093",
      "Proposals(uint256)": "d1dbe7d8",
      "addBlackLister(address)": "a9a99c0d",
      "changeNumberVoteOwner(uint256)": "1163705d",
      "countVoteBeforeEnd(uint256)": "3c28cae2",
      "countVoteWithEndTime(uint256)": "4f0086fc",
      "coverImgUrl()": "3e7d7ff2",
      "createNFTAuctionOrBuy(uint256,string,string)": "4b2a10a6",
      "createProposal(string,string,address[],address,uint256,uint256,bool,uint256,uint256)": "203ba689",
      "creator()": "02d05d3f",
      "description()": "7284e416",
      "getOrganizationInfo(address)": "a9647f41",
      "isBlackLister(address)": "339fbdbb",
      "name()": "06fdde03",
      "nextAuction()": "6347a377",
      "nextProposal()": "6ae3638c",
      "numberVoteOwner()": "e7bda8f8",
      "owner()": "8da5cb5b",
      "removeBlackLister(address)": "79de8d35",
      "renounceOwnership()": "715018a6",
      "sendNFT(uint256)": "fd66ed8e",
      "sendNFT2(uint256,address)": "252891ba",
      "transferOwnership(address)": "f2fde38b",
      "voteOnProposal(uint256,bool)": "1614665c",
      "withDraw(uint256)": "14174f33",
      "withDraw2(address,uint256)": "a9c58844"
    }
  },
  "abi": [
    {
      "inputs": [
        {
          "internalType": "string",
          "name": "_name",
          "type": "string"
        },
        {
          "internalType": "string",
          "name": "_description",
          "type": "string"
        },
        {
          "internalType": "string",
          "name": "_coverImgUrl",
          "type": "string"
        },
        {
          "internalType": "string",
          "name": "_OrganizationType",
          "type": "string"
        },
        {
          "internalType": "address",
          "name": "_creator",
          "type": "address"
        }
      ],
      "stateMutability": "nonpayable",
      "type": "constructor"
    },
    {
      "anonymous": false,
      "inputs": [
        {
          "indexed": false,
          "internalType": "address",
          "name": "campaignAddress",
          "type": "address"
        },
        {
          "indexed": false,
          "internalType": "string",
          "name": "name",
          "type": "string"
        },
        {
          "indexed": false,
          "internalType": "string",
          "name": "description",
          "type": "string"
        },
        {
          "indexed": false,
          "internalType": "address",
          "name": "nft",
          "type": "address"
        },
        {
          "indexed": false,
          "internalType": "uint256",
          "name": "tokenId",
          "type": "uint256"
        },
        {
          "indexed": false,
          "internalType": "uint256",
          "name": "startingPrice",
          "type": "uint256"
        },
        {
          "indexed": false,
          "internalType": "uint256",
          "name": "lastPrice",
          "type": "uint256"
        },
        {
          "indexed": false,
          "internalType": "uint256",
          "name": "discountRate",
          "type": "uint256"
        },
        {
          "indexed": false,
          "internalType": "uint256",
          "name": "end",
          "type": "uint256"
        },
        {
          "indexed": false,
          "internalType": "address",
          "name": "creator",
          "type": "address"
        },
        {
          "indexed": false,
          "internalType": "bool",
          "name": "isStart",
          "type": "bool"
        },
        {
          "indexed": false,
          "internalType": "uint256",
          "name": "sellPrice",
          "type": "uint256"
        },
        {
          "indexed": false,
          "internalType": "string",
          "name": "buyer",
          "type": "string"
        }
      ],
      "name": "NftCampaignCreated",
      "type": "event"
    },
    {
      "anonymous": false,
      "inputs": [
        {
          "indexed": true,
          "internalType": "address",
          "name": "previousOwner",
          "type": "address"
        },
        {
          "indexed": true,
          "internalType": "address",
          "name": "newOwner",
          "type": "address"
        }
      ],
      "name": "OwnershipTransferred",
      "type": "event"
    },
    {
      "anonymous": false,
      "inputs": [
        {
          "indexed": false,
          "internalType": "uint256",
          "name": "votesUp",
          "type": "uint256"
        },
        {
          "indexed": false,
          "internalType": "uint256",
          "name": "votesDown",
          "type": "uint256"
        },
        {
          "indexed": false,
          "internalType": "address",
          "name": "voter",
          "type": "address"
        },
        {
          "indexed": false,
          "internalType": "uint256",
          "name": "proposal",
          "type": "uint256"
        },
        {
          "indexed": false,
          "internalType": "bool",
          "name": "votedFor",
          "type": "bool"
        }
      ],
      "name": "newVote",
      "type": "event"
    },
    {
      "anonymous": false,
      "inputs": [
        {
          "indexed": false,
          "internalType": "uint256",
          "name": "id",
          "type": "uint256"
        },
        {
          "indexed": false,
          "internalType": "bool",
          "name": "passed",
          "type": "bool"
        }
      ],
      "name": "proposalCount",
      "type": "event"
    },
    {
      "anonymous": false,
      "inputs": [
        {
          "indexed": false,
          "internalType": "uint256",
          "name": "id",
          "type": "uint256"
        },
        {
          "indexed": false,
          "internalType": "string",
          "name": "imageLink",
          "type": "string"
        },
        {
          "indexed": false,
          "internalType": "string",
          "name": "description",
          "type": "string"
        },
        {
          "indexed": false,
          "internalType": "uint256",
          "name": "deadline",
          "type": "uint256"
        },
        {
          "indexed": false,
          "internalType": "address[]",
          "name": "canVote",
          "type": "address[]"
        },
        {
          "indexed": false,
          "internalType": "address",
          "name": "token",
          "type": "address"
        },
        {
          "indexed": false,
          "internalType": "uint256",
          "name": "amount",
          "type": "uint256"
        },
        {
          "indexed": false,
          "internalType": "address",
          "name": "proposer",
          "type": "address"
        },
        {
          "indexed": false,
          "internalType": "bool",
          "name": "",
          "type": "bool"
        },
        {
          "indexed": false,
          "internalType": "uint256",
          "name": "",
          "type": "uint256"
        },
        {
          "indexed": false,
          "internalType": "uint256",
          "name": "",
          "type": "uint256"
        }
      ],
      "name": "proposalCreated",
      "type": "event"
    },
    {
      "inputs": [
        {
          "internalType": "uint256",
          "name": "",
          "type": "uint256"
        }
      ],
      "name": "NFTAuctions",
      "outputs": [
        {
          "internalType": "address",
          "name": "",
          "type": "address"
        }
      ],
      "stateMutability": "view",
      "type": "function"
    },
    {
      "inputs": [],
      "name": "OrganizationType",
      "outputs": [
        {
          "internalType": "string",
          "name": "",
          "type": "string"
        }
      ],
      "stateMutability": "view",
      "type": "function"
    },
    {
      "inputs": [
        {
          "internalType": "uint256",
          "name": "",
          "type": "uint256"
        }
      ],
      "name": "Proposals",
      "outputs": [
        {
          "internalType": "uint256",
          "name": "id",
          "type": "uint256"
        },
        {
          "internalType": "string",
          "name": "imageLink",
          "type": "string"
        },
        {
          "internalType": "string",
          "name": "description",
          "type": "string"
        },
        {
          "internalType": "uint256",
          "name": "deadline",
          "type": "uint256"
        },
        {
          "internalType": "uint256",
          "name": "votesUp",
          "type": "uint256"
        },
        {
          "internalType": "uint256",
          "name": "votesDown",
          "type": "uint256"
        },
        {
          "internalType": "uint256",
          "name": "status",
          "type": "uint256"
        },
        {
          "internalType": "bool",
          "name": "passed",
          "type": "bool"
        },
        {
          "internalType": "address",
          "name": "token",
          "type": "address"
        },
        {
          "internalType": "uint256",
          "name": "amount",
          "type": "uint256"
        },
        {
          "internalType": "bool",
          "name": "isProposalForNFT",
          "type": "bool"
        },
        {
          "internalType": "uint256",
          "name": "startingPrice",
          "type": "uint256"
        },
        {
          "internalType": "uint256",
          "name": "endPrice",
          "type": "uint256"
        }
      ],
      "stateMutability": "view",
      "type": "function"
    },
    {
      "inputs": [
        {
          "internalType": "address",
          "name": "user",
          "type": "address"
        }
      ],
      "name": "addBlackLister",
      "outputs": [],
      "stateMutability": "nonpayable",
      "type": "function"
    },
    {
      "inputs": [
        {
          "internalType": "uint256",
          "name": "value",
          "type": "uint256"
        }
      ],
      "name": "changeNumberVoteOwner",
      "outputs": [],
      "stateMutability": "nonpayable",
      "type": "function"
    },
    {
      "inputs": [
        {
          "internalType": "uint256",
          "name": "_id",
          "type": "uint256"
        }
      ],
      "name": "countVoteBeforeEnd",
      "outputs": [
        {
          "internalType": "bool",
          "name": "",
          "type": "bool"
        }
      ],
      "stateMutability": "nonpayable",
      "type": "function"
    },
    {
      "inputs": [
        {
          "internalType": "uint256",
          "name": "_id",
          "type": "uint256"
        }
      ],
      "name": "countVoteWithEndTime",
      "outputs": [
        {
          "internalType": "bool",
          "name": "",
          "type": "bool"
        }
      ],
      "stateMutability": "nonpayable",
      "type": "function"
    },
    {
      "inputs": [],
      "name": "coverImgUrl",
      "outputs": [
        {
          "internalType": "string",
          "name": "",
          "type": "string"
        }
      ],
      "stateMutability": "view",
      "type": "function"
    },
    {
      "inputs": [
        {
          "internalType": "uint256",
          "name": "_id",
          "type": "uint256"
        },
        {
          "internalType": "string",
          "name": "_name",
          "type": "string"
        },
        {
          "internalType": "string",
          "name": "_description",
          "type": "string"
        }
      ],
      "name": "createNFTAuctionOrBuy",
      "outputs": [
        {
          "internalType": "address",
          "name": "",
          "type": "address"
        }
      ],
      "stateMutability": "nonpayable",
      "type": "function"
    },
    {
      "inputs": [
        {
          "internalType": "string",
          "name": "_imageLink",
          "type": "string"
        },
        {
          "internalType": "string",
          "name": "_description",
          "type": "string"
        },
        {
          "internalType": "address[]",
          "name": "_canVote",
          "type": "address[]"
        },
        {
          "internalType": "address",
          "name": "_token",
          "type": "address"
        },
        {
          "internalType": "uint256",
          "name": "_amount",
          "type": "uint256"
        },
        {
          "internalType": "uint256",
          "name": "endTime",
          "type": "uint256"
        },
        {
          "internalType": "bool",
          "name": "isProposalForNFT",
          "type": "bool"
        },
        {
          "internalType": "uint256",
          "name": "_startingPrice",
          "type": "uint256"
        },
        {
          "internalType": "uint256",
          "name": "_endPrice",
          "type": "uint256"
        }
      ],
      "name": "createProposal",
      "outputs": [],
      "stateMutability": "nonpayable",
      "type": "function"
    },
    {
      "inputs": [],
      "name": "creator",
      "outputs": [
        {
          "internalType": "address",
          "name": "",
          "type": "address"
        }
      ],
      "stateMutability": "view",
      "type": "function"
    },
    {
      "inputs": [],
      "name": "description",
      "outputs": [
        {
          "internalType": "string",
          "name": "",
          "type": "string"
        }
      ],
      "stateMutability": "view",
      "type": "function"
    },
    {
      "inputs": [
        {
          "internalType": "contract IERC20",
          "name": "token",
          "type": "address"
        }
      ],
      "name": "getOrganizationInfo",
      "outputs": [
        {
          "internalType": "string",
          "name": "",
          "type": "string"
        },
        {
          "internalType": "string",
          "name": "",
          "type": "string"
        },
        {
          "internalType": "string",
          "name": "",
          "type": "string"
        },
        {
          "internalType": "string",
          "name": "",
          "type": "string"
        },
        {
          "internalType": "address",
          "name": "",
          "type": "address"
        },
        {
          "internalType": "uint256",
          "name": "",
          "type": "uint256"
        }
      ],
      "stateMutability": "view",
      "type": "function"
    },
    {
      "inputs": [
        {
          "internalType": "address",
          "name": "user",
          "type": "address"
        }
      ],
      "name": "isBlackLister",
      "outputs": [
        {
          "internalType": "bool",
          "name": "",
          "type": "bool"
        }
      ],
      "stateMutability": "view",
      "type": "function"
    },
    {
      "inputs": [],
      "name": "name",
      "outputs": [
        {
          "internalType": "string",
          "name": "",
          "type": "string"
        }
      ],
      "stateMutability": "view",
      "type": "function"
    },
    {
      "inputs": [],
      "name": "nextAuction",
      "outputs": [
        {
          "internalType": "uint256",
          "name": "",
          "type": "uint256"
        }
      ],
      "stateMutability": "view",
      "type": "function"
    },
    {
      "inputs": [],
      "name": "nextProposal",
      "outputs": [
        {
          "internalType": "uint256",
          "name": "",
          "type": "uint256"
        }
      ],
      "stateMutability": "view",
      "type": "function"
    },
    {
      "inputs": [],
      "name": "numberVoteOwner",
      "outputs": [
        {
          "internalType": "uint256",
          "name": "",
          "type": "uint256"
        }
      ],
      "stateMutability": "view",
      "type": "function"
    },
    {
      "inputs": [],
      "name": "owner",
      "outputs": [
        {
          "internalType": "address",
          "name": "",
          "type": "address"
        }
      ],
      "stateMutability": "view",
      "type": "function"
    },
    {
      "inputs": [
        {
          "internalType": "address",
          "name": "user",
          "type": "address"
        }
      ],
      "name": "removeBlackLister",
      "outputs": [],
      "stateMutability": "nonpayable",
      "type": "function"
    },
    {
      "inputs": [],
      "name": "renounceOwnership",
      "outputs": [],
      "stateMutability": "nonpayable",
      "type": "function"
    },
    {
      "inputs": [
        {
          "internalType": "uint256",
          "name": "_id",
          "type": "uint256"
        }
      ],
      "name": "sendNFT",
      "outputs": [],
      "stateMutability": "nonpayable",
      "type": "function"
    },
    {
      "inputs": [
        {
          "internalType": "uint256",
          "name": "_id",
          "type": "uint256"
        },
        {
          "internalType": "address",
          "name": "NFTAuction",
          "type": "address"
        }
      ],
      "name": "sendNFT2",
      "outputs": [],
      "stateMutability": "nonpayable",
      "type": "function"
    },
    {
      "inputs": [
        {
          "internalType": "address",
          "name": "newOwner",
          "type": "address"
        }
      ],
      "name": "transferOwnership",
      "outputs": [],
      "stateMutability": "nonpayable",
      "type": "function"
    },
    {
      "inputs": [
        {
          "internalType": "uint256",
          "name": "_id",
          "type": "uint256"
        },
        {
          "internalType": "bool",
          "name": "_vote",
          "type": "bool"
        }
      ],
      "name": "voteOnProposal",
      "outputs": [],
      "stateMutability": "nonpayable",
      "type": "function"
    },
    {
      "inputs": [
        {
          "internalType": "uint256",
          "name": "_id",
          "type": "uint256"
        }
      ],
      "name": "withDraw",
      "outputs": [],
      "stateMutability": "nonpayable",
      "type": "function"
    },
    {
      "inputs": [
        {
          "internalType": "contract IERC20",
          "name": "token",
          "type": "address"
        },
        {
          "internalType": "uint256",
          "name": "amount",
          "type": "uint256"
        }
      ],
      "name": "withDraw2",
      "outputs": [],
      "stateMutability": "nonpayable",
      "type": "function"
    }
  ]
}